:10000000004000200D5D0000495D00004B5D0000D8
:1000100000000000000000000000000000000000E0
:100020000000000000000000000000004D5D000026
:1000300000000000000000004F5D0000515D000066
:10004000535D000095AA0000E1CA0000535D000066
:10005000535D00000000000061620000535D00007D
:10006000795C0000A15E000001C70000535D000044
:10007000535D0000535D0000535D0000535D0000C0
:10008000535D0000535D0000535D0000535D0000B0
:10009000535D0000535D0000535D0000535D0000A0
:1000A000535D0000535D00000000000000000000F0
:1000B0000000000000000000000000000000000040
:1000C00010B5064C2378002B07D1054B002B02D02E
:1000D000044800E000BF0123237010BD5805002034
:1000E0000000000094BF0300044B10B5002B03D0A8
:1000F0000349044800E000BF10BDC04600000000F6
:100100005C05002094BF0300402292029A1A924696
:100110007047C046174B002B00D1134B9D46FFF78D
:10012000F3FF00218B460F461348144A121A2DF094
:100130003AFB0E4B002B00D098470D4B002B00D004
:1001400098470020002104000D000D48002802D02F
:100150000C4800E000BF2DF02DF92000290006F02A
:10016000F3F906F0BAFEC0460000080000000000E7
:10017000000000000040002058050020D42B002083
:10018000000000000000000084300378002B01D044
:10019000014B03807047C04600FFFFFF10B51429D4
:1001A0000BD81139012908D9044C0421200000F092
:1001B0005BFD0E21200000F057FD10BDBC070020A4
:1001C000133910B5012908D8044C0621200000F08D
:1001D0004BFD0121200000F047FD10BDBC070020B1
:1001E0000B00133B10B50400012B01D9002010BDFA
:1001F0000120062AFBD084342378002BF6D0044853
:1002000000F0B6FD0628F1D1024B2380EEE7C04690
:10021000BC07002000FFFFFF10B50400054B54226F
:100220000833002108C02DF0BEFA034B20001C60EB
:1002300010BDC0467C580300A00500200B0010B57F
:10024000110004000022142B0BD8180011380128CB
:1002500007D99B00E3185868904202D002F006FFCD
:100260000122100010BD000010B5034B0A00010070
:100270001868FFF7E3FF10BDA005002070B58E00E1
:10028000861974680D00002C06D10C200DF0BBFE01
:10029000040002F0E5FE74602900200002F0E5FE93
:1002A00070BD0000F7B51C000190702901D000203E
:1002B000FEBD042AFBD91D78142DF8D82B00113B64
:1002C000012BF4D90D4F2900380000F051FD7F2893
:1002D000EDD0A6786378F601F6182379E478DB018F
:1002E0000422290038001C1900F046FD0198230063
:1002F00032002900FFF7C2FF0120D9E7BC07002028
:1003000010B58C0004196068002803D007F004FBC6
:100310000023636010BD10B5002414290BD80B0016
:10032000113B012B07D9042A07D101235B421A0094
:10033000FFF7A4FF0134200010BDFFF7E1FFFAE74B
:1003400070B505000024142C07D82300113B012BA5
:1003500003D921002800FFF7D3FF0134E4B21A2C9F
:10036000F1D170BDF8B504000125EEB21A2D08D107
:1003700020000124843004700E4802F0CDFE2000DD
:10038000F8BD3300133B012B0FD80B4F3100380061
:1003900000F0EEFC7F280AD031003800062200F081
:1003A000EBFC0621280006F0DDF90135DDE7002031
:1003B000E6E7C0468C0B0020BC07002010B5537840
:1003C0001278DB019B18002B02D0020088321360E8
:1003D000040084342378002B01D1FFF7C3FF207879
:1003E00010BD000070B504000D00192817D8144E78
:1003F0000100300000F0BCFC032811D004280ED10D
:10040000142C0CD82300113B012B08D92900200003
:10041000FFF72AFF2A002100300000F08EFD70BD9A
:10042000142CFCD82300113B012BF8D9FF239B008F
:100430009D4200DD1D002900200006F083F9E9E758
:10044000BC07002010B5134801F058FD124801F018
:100450002FFF124800F080FA114800F025FB1148E8
:10046000FFF7DAFE104A114B08321A601A001049E1
:1004700084321180002288331A600E4802F0CEF8D0
:100480000D4800F035FE0D4802F040F90C4B0D4AC6
:100490001A6010BDB0050020C0050020A405002092
:1004A000AC05002060070020645803000806002007
:1004B00000FFFFFFC405002074050020A4060020F3
:1004C000940600204C590300F7B51C0008AB1B78BC
:1004D0000600019313000F002B4D0092013348D00A
:1004E000280002F05EFE6B462800197802F092FEAA
:1004F000019A2800531E9A41D1B2244A02F05CFEB0
:1005000033008833186800280DD00138C046C04633
:10051000C046C046C046C046C046C046C046C046AB
:10052000C046C046F1D122003900280002F034FE56
:10053000280002F0CCFD844202DB280002F0C7FD57
:100540003300662064331F703700009A40420193E5
:100550005A706637861BF3199C420DDD280002F0A5
:10056000B6FD002808D0280002F0B6FD387001372B
:10057000F1E700230093D6E702347721019B04487A
:10058000E2B200F058FBF7BD8C0B0020A086010002
:10059000BC070020F0B5140052780D001300202194
:1005A00085B00B400A420CD101269709BE4318279B
:1005B00021783A40102A4CD005D8002A0FD0082ABA
:1005C00033D005B0F0BD182AFBD1040000228534D9
:1005D000A2560C26002A60DCFF232370F1E7414E6F
:1005E0000227300002F0DDFDAF420BD2E31959784B
:1005F000E35DC901C9183000C9B2023702F00AFE32
:10060000FFB2F1E7300002F0FDFD46200138C046A0
:10061000C046C046C046C046C046C046C046C046AA
:10062000C046C046C046F1D1CBE7E378A278DB01F3
:10063000062D09D19A1863792479DB011B19DBB2E5
:100640000096FFF741FFBCE7D3180122DBB252420C
:10065000F6E7070000228537BA56062AB1DCA378F0
:100660000393E378DB019C46039B6344062D10D182
:100670001D0063792479DB011B19DBB2013254B20E
:100680000C22624380183C700171856003734673CD
:1006900097E70125DBB26D42F0E79A4208DB3500AF
:1006A0005D4345192D798D4203D00133DBB2F4E768
:1006B00000230C269A4211DB5D1C072B0CD87343D8
:1006C000C318197C1971596999603100694341183F
:1006D0000F7B1F73497B5973EBB2EBE7013A227032
:1006E0006FE7C0468C0B002010B50C0011001A00FB
:1006F000762C04D0782C0AD00024200010BD0300F2
:1007000084331C78002C02D0FFF744FFF5E7FFF795
:1007100055FE0400F1E7F7B506008536337805008D
:100720007F2B13D800240C270023F356A3420DDBA4
:100730003A006243AA18507B137B117900909268AB
:1007400028000134FFF7C0FEE4B2EDE7F7BD00007A
:1007500010B5104801F0FAFB0F4C200000F03AFAF7
:10076000002805D0200000F0D7FB05F090FEF3E74D
:100770000A4801F09FFF002808D0094800F02EF930
:100780000848FFF7C8FF084800F0C4FC074802F01B
:100790008BF910BDB0050020BC0700209406002096
:1007A000A40500200806002074050020A4060020EF
:1007B000002310B55C1CE4B21A2C03D10D4801F0E3
:1007C0008AFE10BD1A00093AD2B2012A0FD9142CA0
:1007D0000DD81A00103AD2B2012A08D9053BDBB273
:1007E000F92B04D801222100034800F0C5FA2300A8
:1007F000E0E7C046C4050020BC07002070B51E4DD0
:100800000823022228001D4900F0ACF91C4C1D49A8
:10081000200001F025FF20001B4901F021FF2000EE
:100820001A4901F01DFF2000194901F019FF2000AD
:10083000184901F015FF2000174901F011FF2000B1
:10084000164901F00DFF2000154901F009FF2000B5
:10085000144901F005FF144A2800FF2100F080FA36
:10086000E1212800490200F09BFB642005F060FEB6
:10087000FFF79EFF70BDC046BC0700205058030024
:10088000C4050020B0050020C0050020A4050020FC
:10089000AC05002060070020080600209406002018
:1008A00074050020A4060020B1070000F8B500245C
:1008B00069281DD10F4DF021280000F0D5F96A21DB
:1008C000280000F0D1F97F2605272100042C03D948
:1008D00031000A2C00D1390001342800E4B200F0C4
:1008E000C3F91A2CF1D1F721280000F0BDF9193C09
:1008F0002000F8BDBC07002000234360704710B5FE
:10090000080011001A00FFF7D1FF10BD080010B554
:10091000042903D90A290AD0002306E00023022A69
:1009200003D1002105F01EFF0123180010BD022A8B
:10093000F2D1F6E710B5042901D90A2908D1054CEE
:100940000221200000F090F90A21200000F08CF92B
:1009500010BDC046BC070020074B10B5083303602C
:10096000064B040018600023C0214360044A054878
:1009700000F0D6F9200010BD94580300B8070020FD
:10098000C9090000BC07002070B50C00052906D875
:1009900001234168A340002A02D19943416070BD00
:1009A000084D0B434360280000F01AF90028F6D1E7
:1009B000200005F0B7FE21000200280000F013F926
:1009C000EDE7C046BC07002010B5034B0A0001004C
:1009D0001868FFF7D9FF10BDB807002070B50024D4
:1009E000094DE6B23100280000F0C2F9022807D113
:1009F000200005F097FE31000200280000F0F3F817
:100A000001341A2CECD170BDBC07002070470000E7
:100A100070B50C000025032A12D1142910D80B0040
:100A2000113B012B0CD90121200005F09BFE054B49
:100A300001351B5D032B03D00021200005F082FE51
:100A4000280070BD4809002010B514290BD81139B1
:100A5000012908D9044C0321200000F005F90A21DE
:100A6000200000F001F910BDBC07002010B50800FF
:100A700014001A006F2912D10020012C0ED95978C8
:100A8000022C07D09B78DB011943032C02D0D378CA
:100A90009B0319431078FFF7A5FC012010BD21002E
:100AA000FFF704FFFAE7000010B50400044BE02153
:100AB00008330360034A044800F032F9200010BDF7
:100AC000AC580300E5030000BC07002070B57F268A
:100AD00005000C000068314003681B6898472868CF
:100AE000E111036831401B68984770BD10B500687C
:100AF000F02103681B68984710BD10B50068F72106
:100B000003681B68984710BD10B504000068F92100
:100B100003681B6898472068022103681B68984790
:100B20002068062103681B68984710BD10B503793B
:100B30000400002B15D0FFF7D9FF20687921036846
:100B40001B689847A3682068197803681B68984752
:100B5000A3682068597803681B6898472000FFF74E
:100B6000CCFF10BDF7B50D0006001949280017008D
:100B700001932EF0FDFB2F21040028002EF0E5FB51
:100B8000002805D15C2128002EF0DFFB002800D0D2
:100B9000451C002C18D128002EF0AAFB0230C4B24C
:100BA000B068347106F0B8FE3479601C06F080FE3F
:100BB00000230355019BB060077029004370A21EFB
:100BC00002302EF0AEFBF7BD641B0234E4B2E7E75F
:100BD000C458030010B5006803689B68984710BDAF
:100BE000FF30407E70470F2370B515000400006889
:100BF0001940D133194303681B6898472900200026
:100C0000FFF764FF70BD0F2370B505000068194041
:100C100081331943036814001B6898477F212868B3
:100C2000214003681B6898472868E1110368C9B22E
:100C30001B68984770BDF8B505000F0016001C0032
:100C4000FFF754FF286839000368A6191B68984706
:100C5000B44205D021782800FFF738FF0134F7E7C8
:100C60002800FFF74AFFF8BD10B5006803681B684D
:100C7000984710BDF8B5C57B712D18D0792D13D0CC
:100C8000512D3DD1254CF0212000FFF7EDFF200034
:100C90005221FFF7E9FF20000121FFF7E5FFF721CF
:100CA0002000FFF7E1FF01E0FFF740FFF8BD030080
:100CB000FC33DC6B002CF9D06C3B1B680100013B62
:100CC000DA0FD31801225B10DFB23F18B9420DD002
:100CD0008518EE7B551CEDB2CE734519ED7B0232C3
:100CE000ED017619CE73D2B20131EFE7DBB2C31852
:100CF0009A7B002A01D00022DA730F30A047D5E793
:100D00000300FC331C6C002CD0D002009030016832
:100D1000103201392800C9B2A047C7E7BC0700203C
:100D2000E0290ED006D8C02911D0D02912D09029A0
:100D30000AD07047F42910D0F529FAD1FC3042636B
:100D4000F7E7FC300262F4E7FC304262F1E7FC3086
:100D50008262EEE7FC30C262EBE7FC300263E8E758
:100D6000FF2901D1FC3082637047FC300264704778
:100D700040189430007870470300080070B51100E7
:100D80001A18943215787F2D0CD0040000262C34CC
:100D9000A400E6501170FC33034C1B6B2554B34286
:100DA00000D0984770BDC04648090020020010B529
:100DB0008F3213780400002B0ED0F72904D10023C2
:100DC0001370FFF757FF10BD020090321368C4186C
:100DD0000133E1731360F6E7037B002B4AD048B27E
:100DE000002847DB013BDBB2E2182373D173002BF1
:100DF000E9D1637B002BE6D0E02B16D008D8C02BBE
:100E00002DD0D02B32D0902B1AD000236373DAE789
:100E1000F42B1ED0F52BF8D12300FC335B6B002B99
:100E2000F3D0E17B207C9847EFE72300FC331B6A7B
:100E3000002BEAD0217CE27BC9018918A07BF2E774
:100E40002300FC335B6A002BDFD0E17B227CC901ED
:100E5000F3E72000E27B217CFFF78EFFD5E723003C
:100E6000FC339B6A002BD0D0E17BE7E72300FC3307
:100E7000DB6AF7E7EF290AD80F200B000140834314
:100E80001A00A173D02B0AD101222273BEE7F029E8
:100E900012D10123137000239034236093E7D02BE9
:100EA00004DC902B1CD0C02BEED08CE7E02B00D0C4
:100EB00089E7144BA38186E7F43908000B2900D990
:100EC00081E728F013FC0C00110080FF80FF80FFF9
:100ED0001B0080FF80FF80FF80FF80FF1300F42253
:100EE0000223627323736EE7074BE3E7BFF34F8F71
:100EF000064B074ADA60BFF34F8FFEE70548FFF75E
:100F000003FE60E703E0FFFF02F5FFFF00ED00E0F6
:100F10000400FA05BC07002010B50400006803684F
:100F2000DB689847431C03D0C1B22000FFF73EFFA7
:100F300010BD2C318900085870472C3189000A50A7
:100F4000704770B50600002501230400FF36737654
:100F500080228581857329000F302CF024FC23002A
:100F60008F331D70FC3401331D60A36BAB4200D086
:100F70009847757670BDA222002310B50400520078
:100F8000037183608354FFF7DCFF200010BD000075
:100F900010B50248FFF7EFFF10BDC046BC070020A8
:100FA00070B50400054D280005F0EEFA200025601C
:100FB000FFF7AAFD2000FFF7B9FD70BD3413002034
:100FC000002070477047000070B501260025124BC5
:100FD000124C1E70124B2A00290020001D70FFF7D2
:100FE000CBFE2A0031002000FFF7C6FE2A002000B9
:100FF0000221FFF7C1FE2000F021FFF735FE20009F
:101000000D21FFF731FE20007F21FFF72DFEF72194
:101010002000FFF729FE70BD04000020BC0700205F
:101020006C09002070B50500174CF0212000FFF777
:101030001BFE20000D21FFF717FE20000021FFF707
:1010400013FE124B200019787F26FFF70DFE2900B2
:1010500020003140FFF708FEE90931402000FFF78A
:1010600003FEA90B31402000FFF7FEFD690D314062
:101070002000FFF7F9FD290F2000FFF7F5FDF7210C
:101080002000FFF7F1FD70BDBC07002062090020C1
:10109000F8B5164DF02106002800FFF7E5FD0D21FB
:1010A0002800FFF7E1FD10212800FFF7DDFD0024F7
:1010B0007F27B3689C4214D22100300005F09CF9D0
:1010C000017828003940FFF7CFFD2100300005F0FE
:1010D00093F9017801342800C909FFF7C5FDE4B28E
:1010E000E7E72800F721FFF7BFFDF8BDBC070020A8
:1010F000074B08330360002343608360C3600361D0
:1011000043618361C3610362436283627047C04687
:10111000E4580300F0B58BB005F0FEF97A4A136885
:10112000C31A312B00DCE0E0784B10601B78002BF9
:1011300000D1DAE0764B1B78002B00D1D5E0754F5B
:101140003B780133DBB2022B00D9D0E003AC72490B
:101150001B2220003B702CF00AFB112005F01EFB27
:101160001A2005F01BFB6D4804F040FF20706C480E
:1011700004F03CFF6B4D607000212800FFF7F8FD84
:10118000002804D105F00AFB43425841A070012118
:101190002800FFF7EDFD061E18D13A780123110053
:1011A000194001911A4200D1A3E00A27012005F05D
:1011B000F5FA002807D1013F0530FFB205F0B8F974
:1011C000002FF3D1019E584BE6701E7002212800BB
:1011D000FFF7CEFD002805D1023005F0DFFA4342CB
:1011E00058412071514F0126380002F001FA3100B8
:1011F000380002F007FA002800D17EE066714C4802
:101200007F2602F077FCC3B23040DB09A0713800C2
:10121000E37102F06FF90300C01130403340607297
:101220003800237202F070F9C217831853401A0075
:10123000C00FDB11324033400021A0723800E2724F
:10124000237302F0AFF9C30F6373C317C01858407C
:101250000300C011304033400121E0733800A37314
:1012600002F0A0F9C30F2374C317C018584003003D
:10127000C011304033400221A0743800637402F082
:1012800091F9C30FE374C317C01858400300C0118D
:10129000334030402375607505F03EF9030033405C
:1012A000A375C3113340E37583133340237643158D
:1012B00000173340F021064028006376A676FFF73A
:1012C000D3FC0D212800FFF7CFFC0B212800FFF7EE
:1012D000CBFC0026A15D28000136FFF7C5FC1B2EC4
:1012E000F8D1F7212800FFF7BFFC0BB0F0BD0023B9
:1012F0002CE70D4B1B78E37068E70136F6B20C2E35
:1013000000D074E77BE7C046680900206E09002022
:101310000400002064090020C9580300990F002030
:101320009B0F0020BC07002063090020580D0020FF
:10133000B40D0020F0B5013987B006004F424F418F
:10134000019205F0F1F800250400300005F026FABE
:10135000B84211D005F0E8F8002302900393029AF6
:10136000039B121BAB41002B02D101999142ECD29D
:101370000020002107B0F0BD05F0D6F80290300043
:1013800005F00CFAB8420ED105F0CEF80023049017
:101390000593049A059B121BAB41002BE8D10199E0
:1013A0009142ECD2E4E705F0BFF8002302001900F7
:1013B0000298121A8B4110001900DBE770B50C007F
:1013C0000121050005F0CEF90021200005F0CAF941
:1013D000200005F0E3F9E4B2011E18D1280005F061
:1013E000C3F90121280005F0BFF901210E4A2000B0
:1013F000FFF7A0FF3B2128F017FA0C4B421E040018
:101400009A420FD8322005F093F8200070BD0121D8
:10141000280005F0A9F90021280005F0A5F9002110
:10142000014AE4E70024F0E7C8AF0000871300009A
:10143000F8B5537804001500002B23D18368002BE6
:101440000BD1012097780CF0DEFD0600390001F089
:101450008FFF3000A66001F08DFF7F22E9782B79A5
:1014600009075B0519436B79A0689B031943AB79A6
:10147000DB011943EB79134019435F3A01F0DEFFBA
:101480000020F8BD0020012BFBD19378164E33705D
:10149000636883420AD108300CF0B5FD050031784D
:1014A00001F02AFF2800656001F05EFF606801F02E
:1014B0004BFF3378984211D06068002801D00CF0BF
:1014C0009AFD0023082063600CF09DFD0500317833
:1014D00001F012FF2800656001F046FF60680349D3
:1014E00001F01EFF0120CCE762090020251000005A
:1014F00070B5567894783000002105F035F9210058
:101500003000FFF75BFF04000E4DF0212800FFF7CD
:10151000ABFB28006321FFF7A7FB28003100FFF792
:10152000A3FB7F26210028003140FFF79DFBE1113E
:1015300028003140FFF798FB2800F721FFF794FBC4
:10154000012070BDBC07002070B514795379E40107
:101550009B03E418D3785578E418937996785B0563
:10156000E418240128000021240905F0FBF82200DA
:1015700031002800FFF7DEFE0400144DF0212800A2
:10158000FFF772FB28000D21FFF76EFB28000321F7
:101590007F26FFF769FB210028003140FFF764FB3D
:1015A000E11128003140FFF75FFBA1132800314013
:1015B000FFF75AFB611528003140FFF755FB280063
:1015C000F721FFF751FB012070BDC046BC0700208A
:1015D000F0B550781400002391B0062816D828F0F2
:1015E0007BF80414181C2A657C00D1789078137954
:1015F0000A1C042900D90422D2B2011C042800D9F3
:1016000004213A48C9B202F0A3FA0123180011B02C
:10161000F0BD364802F0ACFAF7E700236A460093C3
:10162000A11C1371684605222CF0A1F869462F48C9
:1016300002F0AAFAE9E70239CB0F5B185B10DBB2C4
:101640001A1C3F2B00D93F22D3B200220134D1B261
:10165000994208D220786178C00140186946023466
:1016600088540132F3E71A006A44013A1278002ADA
:1016700002D000226946CA5469461C4802F018FB91
:101680001B4CF0212000FFF7EFFA20000D21FFF79F
:10169000EBFA20000521FFF7E7FA20000421FFF70D
:1016A000E3FAF7212000FFF7DFFAAEE70025052770
:1016B00000266F430237FFB21C22BB19DBB2E35C8A
:1016C00031B2534309482AB2013602F041FA052EDD
:1016D000F2D10135052DEAD197E7D1789378C90188
:1016E000C9180248C9B202F01DFA8EE7B40D0020F5
:1016F000BC070020F7B5036A060014005778002BDA
:1017000006D101200CF07FFC050002F0E3FD3562FC
:10171000042F00D96CE0380027F0DEFF03276A4968
:10172000530025790423A178E278306A002D00D097
:10173000033B02F0FDFE0124002D14D02D4DF021BD
:101740002800FFF791FA0D212800FFF78DFA0921F3
:101750002800FFF789FA00212800FFF785FAF72112
:101760002800FFF781FA2000FEBD2279E178D2013E
:10177000521892046379920CA178306A02F0F6FD57
:101780001C4CF0212000FFF76FFA0D212000FFF71D
:101790006BFA09212000FFF767FA01212000FFF70B
:1017A00063FAF7212000FFF75FFA0124DBE7E17815
:1017B000A378C901C9188904306A890C02F094FD24
:1017C000F3E72579E378A079ED01ED186379C0019D
:1017D000C0188004800C2AF0BFFFA778AD04AD0CC0
:1017E000009001912A003900306A02F0F7FDDCE731
:1017F0000024B8E7BC07002070B50C4801F06EFF6C
:101800000400631E9C410A4DF0212800FFF72CFACA
:1018100028000D21FFF728FA28001421FFF724FAE9
:101820002800F721FFF720FAE0B270BD580D002024
:10183000BC070020F0B5C36997B0050014005678C6
:101840000191002B06D110200CF0DDFB070002F007
:1018500085FAEF61012E1BD0022E1ED00027BE425A
:101860000FD1A378E869BB420ED002F0B3FA224C44
:1018700001372378002B04D12049E86902F038FBB6
:101880002770380017B0F0BD02F080FA0127F8E7A2
:10189000A178E86902F0D2FAF8E70022019902344F
:1018A0000239CB0F59184910C8B2D3B298420AD99D
:1018B000102763782678DB019B1902AEF619B35422
:1018C00002340132F1E7C9B206AB5B18013B1B7869
:1018D000002B04D01020002302AA12185354EC69E4
:1018E00006A903A804F035FD200003A902F0BCFA04
:1018F00003A804F0E6FCC9E76D0900209110000080
:10190000F8B5036904000E001700002B0ED10C205F
:101910000CF079FB050001F0A3FB0C2128002561E8
:1019200001F0A3FB5A21206901F0A0FB6369002BA1
:101930000ED10C200CF067FB050001F091FB082193
:101940002800656101F091FB5A21606901F08EFB6E
:1019500038002AF001FF0022094B29F0A7FC0022E1
:10196000084B2AF0A5F82AF0C1FE01005A31012ED9
:1019700003D1206901F07AFBF8BD6069FAE7C0463F
:1019800000E06F400080564070B5140064210500EF
:10199000002004F0D7FE2279E378D201D218A37890
:1019A0006178D2B2002B00D052422800FFF7A8FF86
:1019B000012070BDF7B5060050781400062827D81E
:1019C000F56827F089FE0427444A727A82007F2353
:1019D00097782479D2781C40D2011443E4B2002DC8
:1019E00007D0280002F07FFE28000CF004FB002343
:1019F000F36038200CF007FB050002F065FE52236F
:101A0000F560390000932800A2B2AD3303F0BDF9B0
:101A10000120FEBD002DFBD07F20137AD2799B03DD
:101A200052059B18A27AA1799B18627A0140D201D3
:101A30009B186279D2010A43E1782479C9012040D8
:101A40000143D2B22800C9B203F03EF9E0E7002D0D
:101A5000DED0280003F06BF9DAE7002DD8D07F2024
:101A6000137AD2799B0352059B18A27AA1799B180D
:101A7000627A0140D2019B1862792679D2010A4329
:101A8000E1783040C901E67A0143207B7605800386
:101A90008019A67B647B8019E40100190090D2B202
:101AA0002800C9B203F091F8B2E7002DB0D00321AD
:101AB0002800515603F02AFAAAE7002DA8D00321E6
:101AC0002800515602F0D8FFA2E7002DA0D07F20B9
:101AD000D379A17952790140D20126790A43E1787C
:101AE0003040C9010143207AD2B20090C9B2280027
:101AF00003F0A2F98CE70000F0B5866A537887B04E
:101B0000040000920193002E0DD195781820163D07
:101B10000CF079FA6B425D41019906600671A06292
:101B2000EAB203F055FEA06A03F050FF061CA06A5B
:101B300003F058FFA76A051C002F07D0386800285B
:101B400001D005F0E9FE38000CF055FA0027301CF2
:101B5000A76228F01BF884B263426341DBB20293B0
:101B6000009B9B78162B4AD13B49301C28F0C8FCBF
:101B700028F00CF8384986B2281C28F0C1FC28F05F
:101B800005F8F3B20393FF23B3429B41334C5B420E
:101B9000F021059385B2C3B220000493FFF764F8E7
:101BA00065212000FFF760F820000199FFF75CF83D
:101BB000009B20009978FFF757F83900FF2D00D9D6
:101BC000290A2000FFF750F804992000FFF74CF88D
:101BD0000021059B8B4200D0310A2000FFF744F81A
:101BE00020000399FFF740F820000299FFF73CF826
:101BF000F7212000FFF738F8012007B0F0BD174E9D
:101C0000F0213000FFF730F865213000FFF72CF8A5
:101C100030000199FFF728F8009B30009978FFF712
:101C200023F8281C27F0B2FFC1B23000FFF71CF8E0
:101C300039003000FFF718F83000E1B2FFF714F870
:101C400039003000FFF710F830000299FFF70CF868
:101C5000F7213000CEE7C04600002041BC0700203D
:101C6000F8B58369040057789678002B06D10620D2
:101C70000CF0C9F9050003F09BF9A561A069012FDB
:101C800005D10178320003F0BFF90120F8BD417899
:101C9000F8E700005378022B06D193785A1E93413F
:101CA000034A0120137070475A1E9341014AF8E716
:101CB0006C090020040000201FB5140001A801F0E9
:101CC000CFF9617801A801F0D0F9A178E378C901D2
:101CD00001A8C91801F0CAF9012004B010BD000024
:101CE000F7B5537804000193436A9778002B0AD123
:101CF0001C200CF088F9050003F09CF9390028003D
:101D0000656203F093FA019B092B08D11549606ABB
:101D100003F072FB8321C90528F0F2FB061C124C6C
:101D2000F0212000FEF7A0FF20000D21FEF79CFF10
:101D300020001921FEF798FF39002000FEF794FFDC
:101D4000301C27F023FF85B2C1B22000FEF78CFFC4
:101D5000290A2000FEF788FF2000F721FEF784FF04
:101D60000120FEBD810F0020BC07002070B50500DA
:101D70000024080011001A000D2816D11878202818
:101D800015D827F0A9FC2711113011341111113881
:101D9000115011116011441111483C11114C115C8A
:101DA00011111111111154000024200070BD56288A
:101DB00041D007D82A2826D05528F6D12348FFF746
:101DC000C0F8F2E763280AD06528EED12800FFF7B3
:101DD00093FE02E02800FFF72BFB0400E5E7280054
:101DE000FFF786FBF9E72800FFF7AEFBF5E72800D1
:101DF000FFF7EEFBF1E72800FFF77CFCEDE728009A
:101E0000FFF7FAFCE9E70124114B1C70CDE728002D
:101E1000FFF710FDE1E72800FFF7B6FDDDE728003A
:101E2000FFF7C8FDD9E72800FFF71AFFD5E728001C
:101E3000FFF730FFD1E72800FFF73EFFCDE728008E
:101E4000FFF74EFFC9E70124AFE7C046BC070020FB
:101E50006E0900200020704710B50C2200210430CC
:101E60002BF0A1FC10BD000070B505000C00002097
:101E70001100142C18D82300113B012B14D9E308AE
:101E80000726ED18012326400C22B340AA565BB268
:101E9000814201D00B2912D113432B73002904D1A5
:101EA000200004F05FFC012070BD2000022104F03E
:101EB00059FC012221000348FFF73FF8F3E79A435A
:101EC0002A73F1E7BC07002010B5142913D8113983
:101ED000012910D9084C00212000FEF7C5FE012180
:101EE0002000FEF7C1FE0B212000FEF7BDFE012100
:101EF0002000FEF7B9FE10BDBC07002010B504009D
:101F0000054BD02108330360044B054A186005488F
:101F1000FEF706FF200010BDFC58030070090020EA
:101F2000F1210000BC07002070B54418257B154046
:101F3000002B02D1237AAB4204D02A000248FEF7DC
:101F400062FE257270BDC046BC070020F8B503795B
:101F50000500002B51D0067B012334001C401E429B
:101F600005D0002004F01AFC431E9841C4B2022799
:101F70003E4205D0012004F011FC002800D03C4373
:101F800004273E4205D0022004F008FC002800D0BF
:101F90003C4308273E4205D0032004F0FFFB002805
:101FA00000D03C4310273E4205D0042004F0F6FB4D
:101FB000002800D03C4320273E4205D0052004F0F5
:101FC000EDFB002800D03C4340273E4205D00620D0
:101FD00004F0E4FB002800D03C4376B2002E06DA81
:101FE000072004F0DBFB002801D080231C430023E2
:101FF000220019002800FFF797FF6B79002B51D0C2
:102000006E7B012334001C401E4205D0082004F0E2
:10201000C5FB431E9841C4B202273E4205D00920A9
:1020200004F0BCFB002800D03C4304273E4205D00E
:102030000A2004F0B3FB002800D03C4308273E42AE
:1020400005D00B2004F0AAFB002800D03C43102749
:102050003E4205D00C2004F0A1FB002800D03C43F8
:1020600020273E4205D00D2004F098FB002800D028
:102070003C4340273E4205D00E2004F08FFB002851
:1020800000D03C4376B2002E06DA0F2004F086FB27
:10209000002801D080231C430023220001212800B6
:1020A000FFF742FFAB79002B23D0AC7B0123260046
:1020B0001E401C4205D0102004F070FB431E9841C6
:1020C000C6B208273C4205D0132004F067FB002865
:1020D00000D03E4310273C4205D0142004F05EFBA4
:1020E000002800D03E430023320002212800FFF7E1
:1020F0001BFFEB79002B05D0002303211A002800D9
:10210000FFF712FFF8BDF7B50F00019003296DD856
:1021100043181A71002A69D0CD00EDB20024142DA5
:102120005ED81E7B012334001C401E4205D02800CF
:1021300004F034FB431E9841C4B2102D15D0022385
:102140001E4207D0681CC0B204F028FB002801D052
:1021500002231C4304231E4207D0A81CC0B204F073
:102160001DFB002801D004231C4308231E4207D076
:10217000E81CC0B204F012FB002801D008231C4365
:10218000102D2DD810231E4207D0281DC0B204F0F8
:1021900005FB002801D010231C43102D20D0202344
:1021A0001E4207D0681DC0B204F0F8FA002801D022
:1021B00020231C4340231E4207D0A81DC0B204F0B8
:1021C000EDFA002801D040231C4376B2002E07DA36
:1021D0000735E8B204F0E2FA002801D080231C435E
:1021E0000123220039000198FFF79EFEF7BD000091
:1021F00010B5034B0A0001001868FFF784FF10BDFB
:1022000070090020002070477047000070B504007E
:102210000D00142813D80300113B012B0FD9084ED1
:1022200001003000FEF7A4FD012808D1290020009C
:1022300004F09AFA2A0021003000FEF77EFE70BDFD
:10224000BC07002010B50C00142901D9002010BDD6
:102250000B00113B012BF9D9012AF7D10948FEF7F0
:1022600087FD7F28F2D0084B1B5D012B03D0002196
:10227000200004F079FA2000012104F073FA012013
:10228000E5E7C046BC0700204809002010B5142926
:102290000BD81139012908D9044C01212000FEF77F
:1022A000E3FC01212000FEF7DFFC10BDBC0700208D
:1022B00070B50400084B094D08330360084B9021AA
:1022C0001860084A2800FEF72BFD2800F521064A71
:1022D000FEF726FD200070BD14590300BC07002046
:1022E00074090020492400000D220000F0B589B0D7
:1022F0000192032900D9A2E00131CC00E4B2231CF1
:102300001A2C00D91A23DBB206932300083BDBB258
:10231000059303930123002502936B461E7B069BC6
:10232000B34245D9142E33D83300113B012B2FD99A
:10233000444F31003800FEF71BFD012822D1029ADC
:10234000019B404F134004935A1E93413100DBB26E
:1023500038000793FEF70CFD012821D0310038002A
:10236000FEF706FD00281DD1049B002B1AD031007A
:102370003800FEF7DEFD012814D00221039804F096
:10238000F1F90FE031003800FEF7F2FC0028D6D05A
:10239000029B5B00DBB20293039B01330393BCE718
:1023A000029B1D433100079A2648FEF7C6FDEFE762
:1023B0006B4601211E790D4203D00598314004F08F
:1023C000D3F9AB0706D5019BE01F9907C90FC0B22F
:1023D00004F0CAF96B0706D5019BA01F5907C90F66
:1023E000C0B204F0C1F92B0706D5019B601F190785
:1023F000C90FC0B204F0B8F9EB0606D5019B201F47
:10240000D906C90FC0B204F0AFF9AB0606D5019BDF
:10241000E01E9906C90FC0B204F0A6F96B0606D5F6
:10242000019BA01E5906C90FC0B204F09DF96DB200
:10243000002D04DA013CF109E0B204F095F909B08D
:10244000F0BDC046BC07002010B5034B0A000100D8
:102450001868FFF74BFF10BD740900200022024BE3
:102460001A605A607047C0467809002003000A00CD
:10247000034910B5086801684C681900A04710BDF1
:102480008009002070B504001300044A1068026837
:1024900095680A002100A84770BDC0468009002049
:1024A0007047F7B5002405001700260001912B00A6
:1024B00040331B78A3420CD9A300EB1858683A00AC
:1024C000036801995B68984701340643F6B2E4B2A9
:1024D000EDE73000FEBD70B5050000242B00403351
:1024E0001B78A34208D9A300EB185868013403688D
:1024F000E4B2DB689847F1E770BD0000F7B505006E
:102500000E00009201936B2940D06D296AD1002AF8
:1025100000D17CE0019B1C78192C00D977E03D4D5F
:10252000F0212800FEF7A0FB6E212800FEF79CFB9F
:1025300021002800FEF798FB21002800FEF718FC78
:1025400001002800FEF790FB21002800FEF7F1FCB7
:1025500001000400123628003140FEF785FB2E4BA7
:102560001C4204D0E11128003140FEF77DFBC0235E
:102570001B021C4204D0E1022800490EFEF774FB46
:102580002448F721FEF770FB0120FEBD214FF0210A
:102590003800FEF769FB6C213800FEF765FB00246C
:1025A00021003800FEF7E4FB7F280FD000262B0027
:1025B00040331B78B34209D9B300EB1858682100A7
:1025C000036801361B689847F6B2F0E77F213800B0
:1025D0000134FEF749FBE4B2012003F0A9FF1A2CF5
:1025E000DED1CDE700242B0040331B78A3420ED967
:1025F000A300EB18586831000368009A9B681F001D
:10260000019BB8470028C0D10134E4B2EBE70020B9
:10261000BBE7C046BC07002080FF000070B5040087
:102620000A4B0B4D083303600A4BF42118600A4A29
:102630002800FEF775FB2800F021084AFEF795FBFD
:1026400023000022403320001A7070BD2C59030073
:10265000BC070020800900206D24000085240000B4
:10266000020010B5403213780E2B04D85C1C9B007E
:10267000C0181470416010BD70470020704710B53D
:10268000040003F049FF1323A060E36010BD30B5E0
:1026900004001D0000207A2909D1012A07D95B789E
:1026A0002A78DB019B180130002B01D0E36030BD9C
:1026B000E060FCE770B5040003F02EFFA268E1685B
:1026C00003006060851A00208D4205D95218981ABF
:1026D000814202D3A260012070BD5B1AA360FAE7B9
:1026E0000A3A100043425841C0B27047153910B53C
:1026F000012908D8044C0A212000FEF7B5FA002170
:102700002000FEF7B1FA10BDBC070020074B020005
:10271000083303600023AC32136053609360D360CE
:102720000300FF223C331A707047C0465C59030017
:10273000083903000022080000B5032905D826F057
:10274000CBFF0206080AAC331A68100000BDB03394
:10275000FAE7B433F8E7B833F6E70000F0B585B030
:1027600004001D000092602902D0002005B0F0BDD9
:102770001E780F2337001F400B2FF6D832009A43E4
:10278000502A00D1C4E008D8202A6CD0302A00D1C9
:1027900080E0102A10D00120E8E7602A00D1C9E0CB
:1027A000702AF8D13307F6D53900FFF7C1FF0028AA
:1027B000F1D000F05FFBEEE7AB78EA78DB01920343
:1027C00013436A78134300220293BB00C318DA67ED
:1027D0001A64C31970331A70330709D43900FFF72C
:1027E000A7FF0028D7D0036802999B699847D2E7D2
:1027F000009B042BB9D938002B79083800936B79EA
:102800000193032813D8250026F066FF0227292B01
:10281000AC352E68002E0AD144200BF0F4FB3300B7
:10282000019A0099039000F0C5FA039B2B602000E9
:102830003900FFF77DFF041EADD0434D00992800FD
:102840000A22FEF799FA280001990A22FEF794FA63
:102850002000029900F0AEFB9DE7B035D9E7B43512
:10286000D7E7B835D5E73900FFF762FF041E92D0ED
:102870000126761B7319009ADBB29A428BD9A9788C
:102880006B78C901C918236820001B68C9B2984732
:102890000235EFE76878002817D1220000213C328A
:1028A0005156062900DD76E7BB1C009E9B00E3180D
:1028B000022E03D9E878AD78C00128430131586071
:1028C00048B210702018077165E7012800D062E750
:1028D0002500002100233C356956994208DCFF336E
:1028E0002B7043E7E2181279BA4204D00133DBB20D
:1028F0009942F7DA0023994207DB072B02D8E21846
:10290000507910710133DBB2F5E70139297042E7E4
:102910003900FFF70DFF041E00D13CE7330703D455
:1029200003681B6A984736E700F0E0FA200004F0DD
:10293000F3FF30E73900FFF7FBFE002800D12AE75C
:1029400003685B69EEE7C046BC07002070B5040071
:10295000082529002000FFF7EBFE002801D004F035
:10296000DBFF0135EDB20C2DF3D12300FF22200057
:102970003C331A700021CF3A0C302AF014FF70BD9E
:102980000300F0B585B001903C331B787F2B00D954
:1029900083E003F0C1FD002303900293019B029AA0
:1029A0003C331B785BB2934277DB019B01989B1809
:1029B0001F793900FFF7BCFE051E5DD0072F03D934
:1029C000374B1B68984257D1019BBE009E192B685C
:1029D00028009B68F468984700284DDD019BDB19AF
:1029E00070331B789C46002B32D1F0212D48FEF726
:1029F0003BF960212B48FEF737F94021294839433C
:102A0000FEF732F9002C05D02B6828009B68984708
:102A1000844204DB2B6828009B6898470400F36F0E
:102A20001B1BDA43D2171340F367002C30DD2B68F1
:102A30002800DB6898477F211A4F0140C6B2380052
:102A4000FEF712F93800F109FEF70EF9013CECE748
:102A5000F36F002B04DD039A316C521A624513D2D6
:102A6000002C0DD12F280FDC984205DD0022039B9E
:102A7000F0673364002AB8D1029B0133DBB28CE7E4
:102A8000002CF1DD8442EFDC01229842EFDCACE760
:102A9000F7210448FEF7E8F8EEE705B0F0BDC046C0
:102AA00084090020BC07002010B5FFF769FF10BDA6
:102AB0000A4B1B6883420DD1094A0A4B11781B78D7
:102AC000994207D0117813780133DBB21370064BAB
:102AD000585C704701204042FBE7C0468409002053
:102AE000880B0020890B0020880900200300F0B526
:102AF00072B6C28F002A03D1012141601000F0BDDF
:102B000040300478022026000640044201D0C94328
:102B1000C9B2C2205C6B344D80002C5001201C7C5B
:102B2000A040A024E405002E00D154E0A127FF001E
:102B3000E05110000138C046C046C046C046C046FD
:102B4000C046C046C046C046C046C046C046F1D199
:102B5000A020C005082484460125187C8540280053
:102B60000125294239D0A1276546FF00E851100010
:102B70000138C046C046C046C046C046C046C046F2
:102B8000C046C046C046C046C046F1D1013CE4B292
:102B90004908002CE0D10121187C8140A020C0050B
:102BA000002E1DD0114C0151596BC1230E489B00C2
:102BB000C15010000138C046C046C046C046C0469D
:102BC000C046C046C046C046C046C046C046F1D119
:102BD00062B6012093E7054FAAE76546034FC5E7B4
:102BE000A124E400DFE7C046006000400C050000BF
:102BF000084B1B68834209D1074B084A19781278A1
:102C0000914203D01B78064AD05C704701204042B5
:102C1000FBE7C04684090020880B0020890B0020B8
:102C200088090020F8B5464B1D68002D00D172E0E0
:102C30002F0040373B7828009B0700D466E000F067
:102C40006DF9002800D166E0C2236A6B3D499B0004
:102C5000CA50288F002800D05EE008260024688F24
:102C600000280DD00138C046C046C046C046C04608
:102C7000C046C046C046C046C046C046C046F1D168
:102C8000C046C046C046C046C046C046C046C04614
:102C9000C046C046C046C046C046C046C046C04604
:102CA0002800640800F03AF9002803D080235B4232
:102CB0001C43E4B2013EF6B2002ED0D13B789B0714
:102CC00001D5E443E4B2204A20491378097801335E
:102CD000DBB28B422FD011781D4813704454A88F5B
:102CE00000280DD00138C046C046C046C046C04688
:102CF000C046C046C046C046C046C046C046F1D1E8
:102D0000C1236A6B0F499B00CA5004E000F006F92A
:102D1000002800D198E7F8BD0138C046C046C0463B
:102D2000C046C046C046C046C046C046C046C04673
:102D3000C046F1D191E701233A7813433B70CEE7C7
:102D40008409002000600040890B0020880B0020CF
:102D500088090020064B1A680023824206D1054BE1
:102D6000054A1B7810781B1ADB05DB0D180070472D
:102D700084090020890B0020880B0020094B1B6868
:102D800098420DD1C222416B074B9200995000220C
:102D900006490A7006490A70C122416B9200995097
:102DA0007047C0468409002000600040890B002065
:102DB000880B0020F0B585B00393FA2306000025A8
:102DC00004009B008360124B124F083314360191AC
:102DD0004560390003603000029203F0BAFA210026
:102DE0000320A563E563039A40310B78520002404B
:102DF000834313430B703000390003F0D7FA2000EF
:102E0000019AA31CDA77029A631CDA7705B0F0BD49
:102E1000CC590300C1BD03000C4A0023110030B59A
:102E20005478002C09D11478844206D00133023240
:102E3000042BF5D10120404230BD00255A008C18EA
:102E40008854034A9B0098586570F5E705000020F8
:102E50001000002070B5064D00242B68834205D178
:102E60000233D87F03F0D0F92C600134200070BD0C
:102E70008409002070B5828F0500141E1ED0174EE5
:102E800000243068A84219D0A04201D0FFF7E2FF29
:102E90002A000124403213781149A3431370002201
:102EA0000A70104935600A70AE1CF07F9B070DD583
:102EB000FFF7B2FF6863431C02D10124200070BDFC
:102EC0000422F07F084903F031F9F7E7FFF7A4FF88
:102ED0006863431CF1D00322F07FF3E784090020EC
:102EE000890B0020880B0020252C000010B5040061
:102EF000FFF7B0FF00230234E07F074A59008C5CE3
:102F0000844205D1012053185870FF238B5410BD03
:102F10000133042BF2D1FAE70500002010B502308E
:102F2000C07F03F099FC10BD70B5012603000D00B1
:102F3000310040331B7804005B089943280003F0FC
:102F400013FC3100280003F04BFCF021054BAA00D4
:102F5000D358C9009E404D432374034BE662ED18DD
:102F6000256370BD785903000805005070B50D0049
:102F700004000021280003F033FC230040331B78B9
:102F80009B0703D40121280003F0EEFBA31CDD778F
:102F9000064BAA00D2580123F0219340C9004D43AB
:102FA0006362034B6274ED18A56270BD785903002B
:102FB00010050050F8B50500143504000F00280076
:102FC000244903F004FA244E002805D0A31C200055
:102FD000D97FFFF7CBFF0AE03100280003F0F7F9B3
:102FE000631CD97F002831D02000FFF79DFF3800F7
:102FF00027F090FD011CFE20800527F0B9F8174945
:1030000027F07EFA26F0C2FD420883B2023A2287F8
:103010005A1E181EE3876287A3870DD00138C04669
:10302000C046C046C046C046C046C046C046C04670
:10303000C046C046C046F1D13100280003F0C7F9B0
:10304000002802D12000FFF715FFF8BD2000FFF790
:103050006BFFBBE78FA3030074590300002474497E
:10306000C8230360C93B836070470171836810B552
:1030700004008B4211D08160B4290FDDB421FA2005
:10308000C0004843B42126F0CFFB0200F532FF32E6
:103090002179044892B202F05FFD10BDC843C01709
:1030A0000140ECE78A0B002010B5054C200002F02F
:1030B000A5FC2000034A04490AF096FF10BDC04653
:1030C0008A0B002000000020FF590000704710B557
:1030D0000C3003F004F810BD10B50C3002F0EAFF1C
:1030E00010BD10B50C3003F004F810BD70B504002D
:1030F000084B0E00083303600C30150002F0B4FFDB
:103100002000D43002F0B0FF00232000267165714A
:10311000238170BDEC5903000123024A8371024BE5
:103120001A6070476C100020340D0020F0B585B097
:1031300002AF141E79603B6002D10020BD46FEBD87
:10314000C02A00D9C0240C30060002F0ACFF6A4649
:10315000E31DDB08DB00D31A9D467B680C48590051
:103160003B6802AD00932A002300006806F022FCB1
:10317000084B9842E1D02B197B602978300002F08F
:1031800080FF7B6801359D42F7D1E0B2D6E7C046AB
:10319000340D00200EFCFFFF10B50023FFF7C6FF23
:1031A00010BDCE235B0010B5C1540400D43002F032
:1031B0007AFF0123237210BD73B51600002202723C
:1031C0000E4A03001068CE22CA2452000D00995CFA
:1031D0001A0064001B59943C4900D432FF3C002B78
:1031E00000D123006C400196009406F0F3FB044BE1
:1031F000C01843425841C0B276BDC046340D0020CD
:10320000F203000010B50121014AFFF7D5FF10BD00
:10321000A086010070B5037A0D00002B01D10020BB
:1032200070BDD430040002F071FF0028F7D12000F7
:10323000290002F026FF0120F2E7000010B500226D
:103240001E210248FFF752FF10BDC0468C0B002024
:1032500010B50021074B1A68074B1868196088429F
:1032600003D013688B4200D09847322004F090F9C5
:10327000EFE7C046380D0020400D002070B5002556
:10328000164C257003F050F9154B16491A68186052
:10329000821A1548154B824202D90D601D6070BD1F
:1032A00013481218F9204000824214D81A685200BC
:1032B0001A600122186802431A600A6801320A6023
:1032C0000A68202AEBD11A680A4B1A60012323707E
:1032D00000230B60E3E71A685200EDE7440D00207D
:1032E000540D00203C0D0020B80B0000500D0020B4
:1032F0002FF8FFFF400D00200023054A03601060F7
:10330000044A01711360044A1370044A1370704731
:10331000380D0020400D0020440D00204C0D0020F1
:1033200010B5064C01602378002B05D104490548EF
:1033300004F04AF80123237010BDC0464C0D002054
:103340009D760000513200000079704710B50400EE
:103350000021007903F006FA04222079014902F0E5
:10336000E5FE10BD7D32000010B5FFF7EFFF10BD88
:10337000017070477047000010B50C000121007803
:1033800003F0F0F92100012026F04EFA27F0C2FBED
:10339000034927F0B5F827F09DFB024B186010BDDC
:1033A00000007A44480D0020F8B504000D0003F039
:1033B000BBF806002078012103F0D6F9164F3868D3
:1033C00000280DD00138C046C046C046C046C046A1
:1033D000C046C046C046C046C046C046C046F1D101
:1033E0002078002103F0C0F9386800280DD001389A
:1033F000C046C046C046C046C046C046C046C0469D
:10340000C046C046C046C046F1D103F08DF8801BCF
:10341000A842CFD3F8BDC046480D002070B50600C5
:103420000C0003F081F800210500307803F09CF9CE
:1034300003F07AF8401BA042FAD370BDF7B50E0036
:10344000262104000192FFF797FF72B6154920006C
:10345000FFF7AAFF8C2720001349FFF7DFFF0025A5
:10346000BF00019B9D4211DA39002000002E09DACD
:10347000FFF79AFFC821C9002000FFF7CFFF7600B1
:103480000135EEE7FFF790FF3900F5E78C212000CA
:103490008900FFF789FF00212000FFF7BFFF62B618
:1034A000F7BDC046282300009411000070471FB5E7
:1034B000010001A804F00DFE05B000BD10B52C22DE
:1034C000002105482AF06FF901210B2203484942E7
:1034D0002AF069F910BDC046780D0020640D002067
:1034E00010B50400024B1860FFF7E8FF200010BD84
:1034F000B00D0020E62310B5024A5B00D05805F05D
:103500009FF910BDB40F002010B5024808F00CFA66
:1035100010BDC04694110020F7B5E426204B76007C
:10352000985904F0E3FD29F017F91D4A0400905959
:103530000D0004F0E2FD29F00FF9E423184A5B00C6
:103540000600D0580F0004F0DFFD29F005F9220035
:10355000009001912B002000290028F0A9FA3200E8
:103560003B0004000D003000390028F0A1FA0200F1
:103570000B002000290027F05DFB009A019B0D0045
:1035800004001900100028F093FA02000B0020003C
:10359000290027F04FFB24F0FFFB29F0A7F8FEBD20
:1035A000B40F0020030010B5002003290AD808003A
:1035B00026F092F802091017E4230C4A5B00D05859
:1035C00004F094FD10BDE423084A5B00D05804F0D9
:1035D00094FDF7E7E423054A5B00D05804F094FD1E
:1035E000F0E71800FFF798FFECE7C046B40F0020A3
:1035F000E42310B5024A5B00D058FFF758FF10BD16
:10360000B40F0020F7B50C000B2920D12E4F012656
:103610003B682E4D1A0032400192334205D102F030
:103620007BFF019B28606B603E6002F075FF00230A
:10363000020028686968121A8B41002B02D1180019
:10364000092A19D902F068FF002328606B60E4257D
:103650001F4E6D007059FFF72AFF705904F0E6FD08
:1036600005000B2C09D11B4B0B2802D01A680B2A22
:103670000DD1002201201A60FEBD0B2807D1154B89
:103680001D6002F049FF0022134B18605A6002F0DF
:1036900043FF00230200104E30687168121A8B41FC
:1036A0001100002B03D1FA23DB00994206D902F066
:1036B00033FF0023074A306073601360601B43428E
:1036C0005841C0B2D8E7C0465C0D0020A80D0020CC
:1036D000B40F0020600D0020700D0020E62310B50F
:1036E000024A5B00D05804F0ADFF10BDB40F0020BB
:1036F00010B5054C2000FFF7F3FE2000034A0449F3
:103700000AF072FC10BDC046580D002000000020D9
:10371000AD34000070470000F8B505250400F14EF7
:103720002A0031002AF023F871192A0060192AF0C2
:103730001EF8310020002A000A310A302AF017F85A
:10374000310020002A000F310F302AF010F831002C
:1037500020002A00143114302AF009F8310020002A
:103760002A00193119302AF002F8310020002A000D
:103770001E311E3029F0FBFF310020002A002331CA
:10378000233029F0F4FF310020002A0028312830AE
:1037900029F0EDFF310020002A002D312D3029F0D5
:1037A000E6FF310020002A003231323029F0DFFFFD
:1037B000310020002A003731373029F0D8FF31009E
:1037C00020002A003C313C3029F0D1FF310020009C
:1037D0002A004131413029F0CAFF310020002A007F
:1037E0004631463029F0C3FF310020002A004B311A
:1037F0004B3029F0BCFF310020002A0050315030FE
:1038000029F0B5FF310020002A005531553029F04C
:10381000AEFF310020002A005A315A3029F0A7FFAC
:10382000310020002A005F315F3029F0A0FF310015
:1038300020002A006431643029F099FF3100200013
:103840002A006931693029F092FF230000270722FE
:10385000310020006E331F801F715A806E312A00A4
:10386000733029F084FF310020002A007331783052
:1038700029F07DFF310020002A0078317D3029F0C9
:1038800076FF310020002A007D31823029F06FFF61
:103890002000954E2A00B11C873029F068FF2300D4
:1038A000E02220008C3352031F711A60F11D2A00A0
:1038B000913029F05CFF310020002A000C31963055
:1038C00029F055FF310020002A0011319B3029F0EA
:1038D0004EFF310020002A001631A03029F047FFAA
:1038E000310020002A001B31A53029F040FF3100B3
:1038F00020002A002031AA3029F039FF31002000B1
:103900002A002531AF3029F032FF310020002A0093
:103910002A31B43029F02BFF310020002A002F314A
:10392000B93029F024FF310020002A003431BE30A4
:1039300029F01DFF310020002A003931C33029F061
:1039400016FF310020002A003E31C83029F00FFF59
:10395000310020002A004331CD3029F008FF31002A
:1039600020002A004831D23029F001FF3100200028
:103970002A004D31D73029F0FAFE310020002A000C
:103980005231DC3029F0F3FE310020002A0057319B
:10399000E13029F0ECFE310020002A005C31E630F5
:1039A00029F0E5FE310020002A006131EB3029F0DA
:1039B000DEFE310020002A006631F03029F0D7FE0B
:1039C000310020002A006B31F53029F0D0FE3100A3
:1039D00020002A007031FA3029F0C9FE31002000A1
:1039E0002A007531FF3029F0C2FE3100601D2A0027
:1039F0007A31FF3029F0BBFE200031000A302A0066
:103A00007F31FF3029F0B3FE2000384E0F30311DDA
:103A10002A00FF3029F0ABFE2000310014302A00CC
:103A20000931FF3029F0A3FE2000310019302A00AF
:103A30000E31FF3029F09BFE200031001E302A009D
:103A40001331FF3029F093FE2000310023302A008B
:103A50001831FF3029F08BFE2000310028302A0079
:103A60001D31FF3029F083FE200031002D302A0067
:103A70002231FF3029F07BFE2000310032302A0055
:103A80002731FF3029F073FE2000310037302A0043
:103A90002C31FF3029F06BFE200031003C302A0031
:103AA0003131FF3029F063FE2000310041303C22EB
:103AB0003631FF3029F05BFE2000853039001F22AF
:103AC000FF3029F070FEC223094A5B00E2509622C3
:103AD0000433E5540C3BE25002220433FF32200051
:103AE000E252F8BD045A0300845A0300045B030049
:103AF000FFFF0500C02310B55B00C35C0400FF207E
:103B0000002B0CD0064805F038FF8223FF33E25C1F
:103B1000002A04D00022FF2800D11000E25410BD7A
:103B2000A410002013B5081C092900D9092000237E
:103B3000FF24190009220094C0B202F0B7FB010073
:103B40000248214005F0EAFE13BDC046A410002043
:103B500010B5C0246400005D002806D0581E8341C3
:103B60005B420248DBB208F087F810BD1811002054
:103B7000C02310B55B00C35C002B02D0014808F0E5
:103B800071F810BD18110020C023F0B587B0039163
:103B90005B00C35C002B30D00500002380268B35F2
:103BA000FF3529000322039CE45C94402700374042
:103BB000344224D0012401320C700131082AF2D1A0
:103BC00001330535052BECD101008531FF3104A807
:103BD00008F03AF804A905A808F02EF80022C82336
:103BE0000092019305A91300064805F013FE05A8ED
:103BF00008F00FF804A808F00CF807B0F0BD3C007E
:103C0000D9E7C046A4100020C023F7B55B00C35C11
:103C100004001500002B1CD0BE235B00C258002AF4
:103C200001DC0122C250BE27684607F009FF009B55
:103C3000184E02229B5E7F00002B0CD1300005F055
:103C400097FE0523E059584303F0A2FC684607F0AD
:103C5000CFFE2800FEBD012B0CDD694601A807F050
:103C600059FF3000E25901A905F032FE01A807F022
:103C7000BFFEEBE70021684607F069FF010001A8DD
:103C800007F0D2FE0523E25930005A4301A905F09E
:103C90008DFDEBE7A410002070B5050008000C00B6
:103CA0002BF026FB210002002800FFF7ADFF70BDBE
:103CB000030010B5081E02D01800FFF7EDFF10BD7D
:103CC00010B5054C2000FFF727FD2000034A0449EA
:103CD0000AF08AF910BDC046B40D00200000002093
:103CE0001537000010B5040002F0EBFA200010BDFB
:103CF00010B58CB0154906A802F02BFB144909A891
:103D000007F05AF809A905A807F0AAFE09A808F0C3
:103D100089F9059B191D0F4B186802F047FB0E4BE4
:103D20001C68002C07D105A807F062FE06A802F067
:103D3000C8FA0CB010BD059B09A8191D02F009FBBB
:103D400009A8A04709A802F0BCFAECE7985B0300B9
:103D500024130020700F0020680F002070B50400AD
:103D6000074D290002F0F5FA064B290020001C60DF
:103D700002F01CFB0023044A20001370E36070BDB6
:103D8000985B0300700F00206C0F002070B50024BA
:103D90000C4E05003378A3420CD00B4806F0ACFE65
:103DA000041E09D02B2003F0B1F82200074908486F
:103DB00002F069FF200070BD01235B423070EB60B0
:103DC000F8E7C0466C0F00200C130020765B030060
:103DD000B80F0020F8B50024134E05003378A34235
:103DE0000DD1124F380006F0C5FE041E09D02B205D
:103DF00003F08CF822000E490E4802F044FF200028
:103E0000F8BD0721380006F0EDFD041E08D028009B
:103E1000FFF7BCFF2B2003F079F822000649EBE7FF
:103E200001233370EBE7C0466C0F00200C13002019
:103E3000995B0300B80F0020BB5B0300084B70B513
:103E40001B7804000D00002B05D02900054806F062
:103E50007DFEE56070BDFFF7BDFF0028F5D0F9E7F6
:103E60006C0F00200C130020F0B5164B0D001B78D2
:103E700089B0002B23D08B68DBB21E1C122B00D91B
:103E8000122600241C22210001A8009429F08BFC9A
:103E90006A460223F7B213705672E3B29F4209D901
:103EA0002100280002F0A8FA230002786B449A72DD
:103EB0000134F2E720226946034806F09DFF09B06D
:103EC000F0BDC0466C0F00202413002010B5054C37
:103ED0002000FFF743FF2000034A04490AF084F85A
:103EE00010BDC046580F002000000020E53C000037
:103EF000134B13B51B780C00002B06D1C168CA43C5
:103F0000D2171140C9B2FFF799FF0E4B28201C6051
:103F10000AF079F8102304001D21009301220A4BB6
:103F200003F04CFD2100094806F044F8002805D0B4
:103F3000200003F059FD20000AF05DF813BDC046D3
:103F40006C0F0020680F0020F13C0000841000205E
:103F500070470000014B18567047C046806103004F
:103F6000F8B504000F000F4915001E0002F0F1F92A
:103F70003900200002F000FA0A232B405A1E934118
:103F80000C22154023766B1E9D410423E3602361C0
:103F90000023300065766361FFF7DCFFE0612000FD
:103FA000F8BDC046985B030070B50D00642815D0BD
:103FB0000B4B8000C058C0B202F06EFA0021040022
:103FC00006F080FC002D09D0280003F0E1FA002162
:103FD000200006F077FC052001F0C7FE70BDC0464A
:103FE000E461030070B50E001500642817D0134B70
:103FF0008000C058C0B202F04FFA0400002E0FDC5F
:10400000002106F05FFC002D09DD280003F0C0FA56
:104010000021200006F056FC052001F0A6FE70BD30
:104020008021890006F04EFC3100054825F0FCFB9C
:104030000100200006F08CFCE5E7C046E4610300C7
:1040400040420F001FB513008AB281B2684607F0E4
:10405000BDFD05B000BD0000F0B500240F00250037
:104060004B698DB00490019300942100380002F058
:10407000C3F903787C2B30D1019BAB422AD12300BA
:10408000002401253900009A06A802F0C3F97B69D3
:1040900006A90393FB6809A801933B69029302F008
:1040A0007BF900940B9BA34253D9210006A802F090
:1040B000A3F90078522827D8392810D8232841D0CE
:1040C000002D1FD0210006A802F096F90378303B9E
:1040D000029317E0631C009301350134C5E73A38B9
:1040E0001828EDD825F0EEFA32ECECECECECEC30E4
:1040F00029210D232527ECECECECECECECECECECC2
:104100002B0003260134CDE76138C3B2112BD7D879
:104110001128D5D825F0D6FA181109F50B0D0FD4B2
:10412000D4D4D4D4D4D4D4D4D4130126EAE70526E5
:10413000E8E70626E6E70826E4E70C26E2E701239F
:104140000093DFE70136DDE70A26DBE7002505946B
:10415000D8E7002D07D1059906A8013102F04CF9E6
:104160000378303B0193284B2848196825F05CFB05
:104170000321C2170A40019B121892105A43009B58
:10418000002B32D00498D1B2FFF70EFF019B3C7E8A
:10419000FB60029B3B61002C05D0FB690399013B4E
:1041A00000228B4202D00024039A01327B7EF1214F
:1041B0007A61002B00D1F039FA200122C000FFF70C
:1041C00041FF002C09D07B7EF421002B00D1F03977
:1041D000FA200122C000FFF735FF09A802F071F8AC
:1041E00006A802F06EF80DB0F0BD029B591E0C231C
:1041F0004B439B190099552B02D805499B005958F0
:104200000498FFF7EFFEC1E72400002060EA0000F9
:1042100028000020F8B50123FA27234D234E2B70E8
:10422000FF003370224C21680B7E002B03D14B69B9
:10423000CA69934220DA2B78002B1DD01D4B1868D9
:10424000C0B2FFF709FF23681A7E002AEAD1596934
:10425000DB699942E6DB184B19680029E2D0380087
:1042600021601A6003210122FFF7ECFE0122F621F2
:104270003800FFF7E7FED5E74B7EF321002B00D196
:104280000321FA200122C000FFF7DCFE2768002F7F
:1042900005D0380002F015F8380009F0ACFE002314
:1042A0002B7023603370F8BD800F0020760F002044
:1042B0007C0F002020000020780F0020030003481E
:1042C000132B02D8024A9B0098587047E35B030007
:1042D000946103000023024A1370024A137070476E
:1042E000800F0020760F0020C8235B00994203DD79
:1042F0001900034B196070470429FADA0421F8E722
:1043000024000020174B10B517480C00196825F041
:104310008BFA102C1DD006D8042C0ED0082C12D0ED
:10432000022C06D010BD202C19D0402CFAD18000D0
:10433000F8E7C30F18184010F4E70322C31713401F
:1043400018188010EEE70722C31713401818C01082
:10435000E8E70F22C317134018180011E2E74000E6
:10436000E0E7C0462400002060EA0000F8B506003F
:1043700015001F0064291DD0164B8900C858C0B213
:1043800002F08AF8390004003000FFF7BBFF060096
:10439000002D10DC0021200006F094FA002E09DD2B
:1043A000300003F0F5F80021200006F08BFA05201C
:1043B00001F0DBFCF8BD80212000890006F082FAC4
:1043C0002900054825F030FA0100200006F0C0FA67
:1043D000E4E7C046E461030040420F00F7B5089EE1
:1043E000099F04000D0001920023002230003900D3
:1043F00025F030FB002808D03C4B0022300039006B
:1044000025F01EFB1023002845D100223000390082
:10441000364B25F01FFB002809D0FF2300229B0507
:104420003000390025F00CFB0823002833D1FF238E
:104430000022300039009B0525F00CFB002808D035
:104440002B4B00223000390025F0FAFA0423002813
:1044500021D1002230003900254B25F0FBFA00283D
:1044600008D0244B00223000390025F0E9FA02235D
:10447000002810D10022300039001E4B25F0EAFA46
:1044800000280ED00022300039001B4B25F0D8FA4E
:10449000002806D0012329002000019AFFF766FFBB
:1044A000F7BD002230003900134B25F0D3FA002865
:1044B00009D080230022DB053000390025F0C0FA46
:1044C00020230028E7D18023002230003900DB05BB
:1044D00025F0C0FA0028DDD0002230003900074B5B
:1044E00025F0AEFA0028D5D04023D4E70000B03F35
:1044F0000000D03F0000E03F0000F03F000010400F
:10450000094B10B51A78002A0CD0084C2278002AE2
:1045100008D000221A702378002B03D00A2002F062
:1045200007F8F8E710BDC046800F0020760F002086
:10453000F0B516001C004B4B89B01960FFF7E0FF87
:10454000494D30002B680193FFF7B8FE019B07002F
:10455000002B58D00C2322001A401C420DD1019B85
:104560005B7E002B09D0FA200199404B2A6019602C
:104570000122F521C000FFF765FD2B68002B09D053
:104580005B7EF321002B00D1F039FA200122C0001C
:10459000FFF758FD390002A801F0DBFE344902A8FC
:1045A00001F015FF002804D002A801F08AFE09B02E
:1045B000F0BD02A905A801F0EFFE202009F023FDBF
:1045C0000700330005A92200FFF7CAFC05A82F60E9
:1045D00001F077FE2B68F2215B7E002B00D1F039D1
:1045E000FA200122C000FFF72DFD02A8013C01F0D6
:1045F00068FE012CDBD81F4B1B78002BD7D0142072
:1046000001F096FFF7E7010002A801F0A2FE1849A9
:1046100002A801F0DCFE0028C6D102A905A801F01D
:10462000BBFE202009F0EFFC0700330005A92200A3
:10463000FFF796FC05A82F6001F043FE2B68F221DE
:104640005B7E002B00D1F039FA200122C000FFF779
:10465000F9FC0122074B084908481A7002F0B4FE21
:10466000C3E7C046200000207C0F0020780F002008
:10467000E35B0300800F00209D76000015420000E0
:1046800070B50A4D280009F015FD094C28002200DC
:10469000084909F0A9FC0023074A08491370084A91
:1046A00008481370220009F09FFC70BD750F0020B0
:1046B000000000202DE30000800F0020513F00008B
:1046C000760F0020740F0020020000232032437276
:1046D00003614361C361026343620832C362FF3313
:1046E00042638373704710B504000069002801D04D
:1046F00003F012F9236B5868002804D003F00CF97A
:104700000022236B5A60636B5868002804D003F0C2
:1047100003F90022636B5A600E202056002802DB4A
:10472000002102F01FF8200010BDF7B50500006958
:104730000191002803D003F0EFF800232B61686992
:10474000002803D003F0E8F800236B612B7EEC7E99
:10475000E41A631E9C41019B03345C43A4B2200015
:10476000AC8103F0A5F8071E286112D0200003F0E9
:104770009FF8061E68610CD022000021380029F045
:1047800012F822000021300029F00DF8019B6B8106
:10479000F7BD0023AB81FAE70322F8B58B090D09B9
:1047A0008E081640134015400A4046768276002651
:1047B000FF228A4276410269C47E077EC37605766F
:1047C0000672002A0AD0E21B5B1B51424A41594241
:1047D0004B419A4202D04189FFF7A7FFF8BD000084
:1047E000144B81738900026BCB5830B51370DBB268
:1047F0001A00A0210325C132FF32C905920055508D
:1048000001229A4013000C4A8B5000231900026BBE
:1048100054889C420DDD2C005C43526801331155D5
:10482000026B526812195170026B52681219917022
:10483000EDE730BD306203000C050000F7B508005D
:10484000B421490016001C0024F0EAFF0D00002EE0
:1048500056DA002600230094002C02DB632C01DDD5
:1048600063230093009B5800322C02DD6420C01AA1
:10487000400070432949000224F04CFF3C2107000E
:10488000280024F047FF3C2101904843281A802447
:10489000000224F03FFF019B64001B02234080B212
:1048A000C018231AA04201DD431EFF3BE41A7C43DB
:1048B000240A3B2D28D96B46019A3D0000261B791E
:1048C000012A09D0022B23D03E00032B23D0002540
:1048D000042B01D026003C00009B6421580224F0E8
:1048E00019FFC71B7F08E4192004FF24ED192404D5
:1048F0002D062D0CF71920402843FFB23843FEBD8A
:10490000632EA7DD6326A5E7250000263C00E3E72C
:1049100026000024E0E72500FBE7C0461027000042
:10492000026B0300528800208A420BD95A6B032382
:104930004B435168C91848780B7800041B02184390
:104940008B78184370477FB40C1C03265643351CE4
:10495000A0230C21DB0305331B025A180833011C6A
:10496000EFF3108640B472B608E01960064200D139
:104970001160760807D10134013D05D08026C0467C
:1049800011602078F1E7FBE7116040BC86F31088E6
:104990007FBC7047704700000369F7B50400002B27
:1049A00031D096256D0001F0BFFDE369C01AA84221
:1049B000F9D30320276B7B883E785843009302F09D
:1049C00077FF0123B3400500002601937B88B342A3
:1049D00009DD032171437B6868180322591828F008
:1049E000C6FE0136F2E7A022074B0199D205D1504D
:1049F00001982900009AFFF7A6FF280002F08CFF1B
:104A000001F092FDE061F7BD0C050000F7B5046B05
:104A1000019364888C422ED903246143446B150CA6
:104A2000646864186570466B140A76687454466B43
:104A300076687618B270066B7768FF263540AC460C
:104A40006346C57B7F185D4334402D127D7027007F
:104A5000C47B056B7C436D6824126C54046B32403C
:104A60006568C47B019B6243691812128A70002B2F
:104A700001D0FFF791FFF7BDF0B5CA178B1853406F
:104A800087B0DBB2040000AF0800002B71D0226BAE
:104A900052887A61002A6CD0002920DD110024F0B0
:104AA000A9FF4BB23B61002920D16B466A46BB602F
:104AB000CB17C9185940CEB2B3000733DB08DB006F
:104AC000D31A9D460025FB60AE4255DDA9B22000F9
:104AD000FFF726FFFA68AB00D0500135F4E7180065
:104AE000796924F087FF494249B2DEE76B4669469F
:104AF0007B603B699A00D31DDB08DB00CB1A9D4627
:104B00006D46FB603B8ABB60B9687B695E1A5319CE
:104B1000B6B23B6031002000FFF702FF3B68013670
:104B200001C5B6B29D42F5D17D693B69013DAB42FD
:104B30000DDCBB68AEB2F11A200089B2FFF7F0FEBF
:104B40000023020031002000FFF760FFEDE70025A1
:104B5000F868AA0000238258A9B22000FFF756FF88
:104B60003B690135AB42F3DC7B689D462000FFF7D3
:104B700013FFBD4607B0F0BD00233B617B699D1B61
:104B80003B69AB4210DD7B69F61AFB68B6009E19E3
:104B90007B69AB4217DDAA00A9B200232000B258FE
:104BA000FFF734FF0135F3E73D8A2000A91989B2E8
:104BB000FFF7B6FE0023020029002000FFF726FFC2
:104BC0003B690133D9E7BB68CFE7F0B587B0040094
:104BD00002938A4202D20B0011001A00236B5B88F9
:104BE000002B36D00F00994200DD1F00BDB29A4263
:104BF00000DD1A0093B2591C491B05938BB2019337
:104C00006B46B4211B89490003930C9B642698B220
:104C10006930039BFF30C01A24F0ECFE88B2704369
:104C2000019924F001FE019B0490012B13D16B46E6
:104C3000198A039B3200C91820003223FFF7FEFDBA
:104C40000023020029002000FFF7E0FE2000FFF70C
:104C5000A3FE07B0F0BD029B320073439BB20299E2
:104C6000039320003223FFF7E9FD0023020029000F
:104C70002000FFF7CBFE019B7D1CDE19013EAE42FA
:104C800018DD6B46188A039B68436421C01824F022
:104C9000CBFD01006931FF313223642289B220004B
:104CA000FFF7CCFDA9B2020000232000FFF7AEFE03
:104CB0000135E4E7322364220C992000FFF7BEFDA2
:104CC000002302000599BEE7F8B51F000600036B3C
:104CD000002901DB002A03DA00215A88013A12B2C6
:104CE000914202DD0800110002005B88002B1DD0FC
:104CF000151C002A00DA00252DB29D4200DD1D00A2
:104D00000C1C002900DA002424B29C4200DD1C00A7
:104D1000A4B2AC4207DC210000233A003000FFF7C8
:104D200075FE0134F4E73000FFF736FEF8BD70B5CC
:104D3000036B04005B88002B26D0002103250B00A9
:104D4000226B52888A4219DD2A00606B4A43406810
:104D500001318354606B406880184370606B406819
:104D600080188370206B40688354206B40688018E3
:104D70004370206B406882189370E1E72000FFF7D2
:104D80000BFE2000FFF708FE70BDF0B585B01500E2
:104D90000AAA1288040001920E2282560E000132E5
:104DA0000CD002788A4209D14288AA4206D10279FF
:104DB0009A4203D1C28801998A423AD02371E3739F
:104DC000236B2670019A58686580E280002804D021
:104DD00002F0A2FD0022236B5A60636B5868002822
:104DE00004D002F099FD0022636B5A6003276F43E1
:104DF000236B3800029302F05BFD029B5860636BEB
:104E00003800039302F054FD039B5860029B20007E
:104E10005D80039B5D80FFF78AFF20000199FFF70B
:104E2000BBFC29002000FFF780FC31002000FFF7C9
:104E3000D7FC05B0F0BD0000F0B585B00C000AA9A4
:104E400005000020095EA24202D2200014000200E8
:104E5000286B4088002815D0844200DD0400A4B2ED
:104E6000824200DD020092B200290DDC2800FFF72B
:104E70005EFF002321002800234AFFF7C7FD28001A
:104E8000FFF78AFD05B0F0BDDE17121B981993B22B
:104E90000293704001339BB200B25843019324F057
:104EA000C3FC039000280DD10126019B9E42E6D24F
:104EB000002331191A00280089B20136FFF7A6FD38
:104EC000B6B2F2E70027019BBEB2B342D7D9039B2B
:104ED000A619B6B2BB4213DDFF200299784324F035
:104EE000A3FCFF2302041B041A40FF23181A1840D6
:104EF0000023024331002800FFF788FD0137E2E775
:104F000000231A00F6E7C04600FFFF00F7B5CA17F6
:104F10008B185340DBB204000E000193002B07D026
:104F2000036B5D88002D03D0A94202DDFFF7FFFE71
:104F3000F7BD00291ADD013DAE420CDCAFB2B91B52
:104F4000200089B2FFF7ECFC0023020039002000AA
:104F5000FFF75CFDEFE70025AE4224DD0023A9B298
:104F60001A002000FFF752FD0135F5E70027019BED
:104F7000EE1ABE420DDBBEB2F11889B22000FFF777
:104F8000CFFC0023020031002000FFF73FFD013776
:104F9000EDE7B54207DD0023B1B21A002000FFF7AC
:104FA00035FD0136F5E72000FFF7F6FCC0E700000D
:104FB0001423002210B50400037001334370143B26
:104FC0008270C370027143710248FEF7A5F8200099
:104FD00010BDC0468C0B0020F8B50A4DC9B22800A0
:104FE00016001F000024FEF7DCF8BC4205DA315D34
:104FF0002800FEF70FF90134F7E72800FEF702F961
:10500000F8BDC0468C0B002007B5002A0DDA00223F
:1050100043788B4200D0037869460B714A710223B2
:10502000102101AAFFF7D8FF07BDB42AF0DDB42292
:10503000EEE77047014B83617047C0463350000074
:1050400010B50C000721200000F0B2FBE379181A1C
:1050500042425041C0B210BDF8B5050080680E0054
:105060001700002400F01CFB01223100A86800F0AA
:105070002FFB002805D0A74205D00134E4B2A74297
:10508000F2D2002005E031002800FFF7D9FF002808
:10509000F3D0F8BDF8B5060080680F0015000024B5
:1050A00000F0B6F9A04218D03900B06800F0E0FA7C
:1050B0002200BE21B06800F0A9FA2C000935B068C2
:1050C00000F0C4FA20700134AC42F8D1B06800F0AE
:1050D0009FF9441E63425C41E4B22000F8BD10B564
:1050E0001400FFF7D7FF002808D00821200000F0A7
:1050F0005FFB237A181A43425841C0B210BD70B505
:1051000004000D001600806800F082F92900A068F4
:1051100000F0AEFA00224E21A06800F077FA0022DB
:10512000B178A06800F072FA0022F178A06800F06F
:105130006DFA2B78102B04D000223179A06800F092
:1051400065FAA06800F064F92900A06800F090FA00
:1051500048212278A06800F059FA142001F0E8F9FB
:105160002378002B02D00A2001F0E2F9A06800F0B9
:105170004FF970BD70B505000C00806800F048F96B
:10518000A868210000F074FA0022B421A86800F099
:105190003DFAA86800F0F7F9040063425C41A86892
:1051A00000F036F9E0B270BDF0B587B003AC160080
:1051B000220007000D00FFF792FF0190002812D097
:1051C0002B78102B0FD05F230B2E06D07F230C2EB5
:1051D00003D01F230A2E00D13F23220029003800CC
:1051E0002371FFF78CFF019807B0F0BD1FB50A7857
:1051F0000C23102A11D001AC2200FFF770FF00230E
:1052000098420AD022795F2A0ED009D809331F2A82
:1052100003D000233F2A00D10A33180004B010BD88
:105220007F2AFAD10C23F8E70B23F6E770B58AB092
:1052300005AD0400280000F03CFA142002F038FB11
:10524000030046CD46C32A681A60AA889A80AA79C4
:1052500000259A711E4BA0602360257100F020FA92
:10526000257101226946A06800F032FA021E22D0A0
:1052700069462000FFF7E4FE0028F2D02378002BD7
:1052800007D169462000FFF775FF002801D00123F0
:1052900023706946200002AAFFF7FCFE6946200041
:1052A0006578FFF7A3FFA84200DA28002379607031
:1052B00001332371D5E7074D20002900FFF7CCFE0D
:1052C000092229002000FFF76FFF0AB070BDC04619
:1052D00000090101810F00201FB501AC2200FFF77A
:1052E000D9FE2078431E9841C0B204B010BD000022
:1052F0000939C9B2022903D8024B4900C85E704778
:105300000148FCE784620300EE020000F8B50400E7
:105310001600FFF7EDFF0500002E14D0E378002BF8
:1053200011D02378002B0ED101F0F6F807003100E0
:105330002000FFF7D1FF002804D101F0EDF8401B59
:10534000B842F4D3F8BD280001F0F2F8FAE710B53E
:105350000400806800F05CF8A06800F09BF944212C
:105360002278A06800F052F9A378002B04D0002224
:1053700020006178FFF7CAFF10BD10B5137854788C
:10538000DB00E4021C430B7824B2102B0BD1D17943
:105390009079E400081AC00124F046FA7F231038FF
:1053A0009C43041924B2200010BD000030B585B024
:1053B00001AA04000D00FFF792FE002806D0290084
:1053C000200001AAFFF7D9FF05B030BD0048FBE778
:1053D00080E4FFFF064B10B5984206DB25F09AFBF0
:1053E000F021890525F08CF810BD0248FCE7C04685
:1053F00081E4FFFF0000FEC270B50D000400FFF75E
:10540000A6FF29002000FFF7D1FFFFF7E3FF70BDE3
:1054100070B5056872B60021280001F0E1F962B6A6
:105420007D24013CE4B2002C00D158E00220013878
:10543000C046C046C046C046C046C046C046C0463C
:10544000C046C046C046C046F1D1280001F004FA6B
:105450000028E6D072B60021280001F0DFF9012112
:10546000280001F0BDF962B6F02040000138C046C6
:10547000C046C046C046C046C046C046C046C046FC
:10548000C046C046C046F1D172B60021280001F0E6
:10549000A7F946200138C046C046C046C046C046AF
:1054A000C046C046C046C046C046C046C046F1D110
:1054B000280001F0D1F943425841C4B262B6CD2070
:1054C00040000138C046C046C046C046C046C0463F
:1054D000C046C046C046C046C046C046F1D12000C6
:1054E00070BD70B50B000125046829402B422CD0FB
:1054F00072B60021200001F091F92000290001F08E
:105500006FF90A200138C046C046C046C046C046B2
:10551000C046C046C046C046C046C046C046F1D19F
:105520002900200001F07AF962B637200138C04620
:10553000C046C046C046C046C046C046C046C0463B
:10554000C046C046C046F1D170BD72B6200001F021
:1055500065F92000290001F043F941200138C046D7
:10556000C046C046C046C046C046C046C046C0460B
:10557000C046C046C046F1D12900200001F04EF9D6
:1055800062B60520D2E710B5046872B6012120008A
:1055900001F026F92000002101F040F90320013834
:1055A000C046C046C046C046C046C046C046C046CB
:1055B000C046C046C046C046F1D10021200001F0DF
:1055C0000FF90A200138C046C046C046C046C04652
:1055D000C046C046C046C046C046C046C046F1D1DF
:1055E000200001F039F9C3B262B635200138C04657
:1055F000C046C046C046C046C046C046C046C0467B
:10560000C046C046C046F1D1180010BDF7B5040031
:1056100015000827012601910199200031404B1EF9
:1056200099417600C9B2013FFFF75BFFF6B2002F48
:10563000F2D1002D09D172B62900206801F0D0F80E
:105640002900206801F0EAF862B6F7BDF8B5070056
:105650000826002501243800FFF795FF002800D018
:1056600025436400013EE4B2002EF4D12800F8BDC9
:1056700070B50C000022552126000500FFF7C6FF7B
:1056800008362178002228000134FFF7BFFFB4421A
:10569000F7D170BD10B50022CC21FFF7B7FF10BDC8
:1056A000002110B5082201828174083028F07BF8AF
:1056B00010BD70B50D0004000021280001F052F863
:1056C0000023200025606360FFF7EAFF200070BD23
:1056D000F0B585B00391837C050014000193002B85
:1056E00003D1FFF795FE002804D100202882A8747A
:1056F00005B0F0BDEC21019A002C00D0F02101266C
:105700002800FFF783FF0023370002932800FFF7EC
:105710003AFF04002800FFF736FF012C16D10128BC
:1057200022D1402FE1D9019B2B74002B01D10133F1
:10573000AB742B7A002BD8D000230835EA5C039990
:10574000CA540133082BF9D10120D1E7029BEB1891
:10575000844229D12C7CBC421ED91C7A3440621E62
:105760009441E4B2002C1BD00124029BEA18137A66
:10577000334313727600210028000137F6B2FFF799
:10578000B0FEFFB2002EC1D1029B0133DBB2029307
:10579000082BC6D00126B9E7E41B62425441E0E77A
:1057A0000197082F00D86F741A7AB2431A72E1E792
:1057B00003004118002010B5044A8B4204D01C7825
:1057C00001336040105CF8E710BDC0468A620300F8
:1057D000036870B504000E001500002B03D11820DB
:1057E00002F066F8206000232468E360A36025715E
:1057F000B0232660002D00D0183B237400F08CFEEF
:10580000606170BDF0B5040085B000F085FE2368CE
:10581000002B01D15B69FFDE1868012100F0A2FFB7
:1058200023680021186800F09FFF23681A79002A76
:1058300037D164480138C046C046C046C046C0465D
:10584000C046C046C046C046C046C046C046F1D16C
:105850000121186800F088FF1E200138C046C046AC
:10586000C046C046C046C046C046C046C046C04608
:10587000C046C046F1D123680021186800F072FFCD
:1058800000F052FE06002368186800F087FF002829
:105890000AD100F049FE4C4B801B9842F3D905B069
:1058A000F0BDC8208000C5E72368186800F076FFC7
:1058B000051E06D000F038FE434B801B9842F3D9FA
:1058C000EDE772B6030002AA1370EF10D35D5B0020
:1058D000DBB201931300019ADA5500F025FE0600B1
:1058E0002368186800F05AFF002840D000F01CFE22
:1058F00006002368186800F051FF00283DD100F031
:1059000013FE861B282E3ED80135282D2CD162B6D9
:1059100002AB1B7802AA019302AB5E789F78D8781D
:10592000019B1279F318DB191B18DBB2256893422F
:1059300014D12B79002B2CD10A2123F0EBFEC0B21D
:10594000C01925F0E7F80A21A860300023F0E2FE34
:10595000019BC0B2C01825F0DDF8E8600123237177
:1059600000F0DAFD68619AE702AB1B78ABE700F064
:10597000DBFD801B5028B3D9B8E700F0D5FD801BB4
:105980005028B6D9BBE70122019B134302AAD35585
:10599000BAE702AB5B885BBA98B21B0403D540043C
:1059A000400C404280B202AB0A211E8823F0B2FEB6
:1059B00080B225F0AFF8A86070BA0A2180B223F057
:1059C00033FFC8E7204E0000400D0300036810B508
:1059D00004000020002B04D02000FFF713FF2368F1
:1059E000986810BD036810B504000020002B04D097
:1059F0002000FFF707FF2368D86810BD7047704785
:105A000070B5104D287800281AD101220E4B0F4C8A
:105A1000C2261959B60091431951A121FF24C9008A
:105A2000585008310730585009498859A04304009C
:105A30004020204388518020400008601A602A706E
:105A400070BDC046890F00200080004004050000A2
:105A500000E100E000202422094B10B58900CB585A
:105A60000849DBB2140044430C599C4203D1064B55
:105A7000187040B210BD01300428F3D10538F9E7A1
:105A80008C630300800100208A0F0020094B8900ED
:105A9000FF20CA5870B500232425074902402C0076
:105AA0005C430E59964201D1605070BD0133042B06
:105AB000F5D1FAE78C63030080010020F8B5114BA3
:105AC0008900CE58242700230F4D390059436A58C6
:105AD000FF2A05D132404A510C4A58B21370F8BD22
