:1000000010C100000C94351F0C947E1F27C1000006
:1000100025C1000023C1000021C100001FC1000054
:100020001DC100001BC100000C940E1B0C94C819CC
:1000300015C1000013C1000011C100000FC1000074
:100040000DC100000C94751209C1000007C1000029
:1000500005C1000003C1000001C100000C94ED299E
:10006000FDC00000FBC00000F9C00000F7C00000A8
:10007000F5C00000F3C00000F1C00000EFC00000B8
:10008000EDC000000C94D228E9C00000E7C00000D9
:100090000C94E215E3C00000E1C00000DFC00000E6
:1000A000DDC00000DBC00000D9C00000080B00026A
:1000B0000202010009040000010202000005240000
:1000C0001001052401010104240206052406000193
:1000D0000705810310004009040100020A00000026
:1000E0000705020240000007058302400000005E91
:1000F000BCE2613FDD83C29C7E20A3FD1F419DC306
:10010000217FFCA2401E5F01E3BD3E6082DC237DB7
:100110009FC1421CFEA0E1BF5D0380DE3C62BEE0E9
:10012000025CDF81633D7C22C09E1D43A1FF461817
:10013000FAA427799BC584DA3866E5BB5907DB85C5
:100140006739BAE406581947A5FB7826C49A653B77
:10015000D987045AB8E6A7F91B45C6987A24F8A6A9
:10016000441A99C7257B3A6486D85B05E7B98CD2D7
:10017000306EEDB3510F4E10F2AC2F7193CD114F85
:10018000ADF3702ECC92D38D6F31B2EC0E50AFF137
:10019000134DCE90722C6D33D18F0C52B0EE326C69
:1001A0008ED0530DEFB1F0AE4C1291CF2D73CA9497
:1001B0007628ABF517490856B4EA6937D58B570945
:1001C000EBB536688AD495CB2977F4AA4816E9B7F7
:1001D000550B88D6346A2B7597C94A14F6A8742A29
:1001E000C896154BA9F7B6E80A54D7896B351201A2
:1001F0000002EF02014041233680000101020301A9
:1002000041726475696E6F204C4C43004172647595
:10021000696E6F204C656F6E6172646F0004030934
:10022000040011241FBECFEFDAE0DEBFCDBF12E025
:10023000A0E0B1E0E6E1F0E602C005900D92A23543
:10024000B107D9F726E0A2E5B2E001C01D92AE3DAC
:10025000B207E1F70E94372A0C940930D1CE60E052
:100260008091D4040E94402761E0809115050E948E
:10027000402761E08091D4040E94402760E0809193
:10028000D4040E94402760E0809115050E94402719
:1002900088E490E00C94421DCF93DF9300D000D00F
:1002A00000D0CDB7DEB78093D4046093150596E0F7
:1002B000EFE1F1E0DE01119601900D929A95E1F7E0
:1002C000E1E0F0E0EC0FFD1FE40FF11D9081909351
:1002D000390561E070E00E94F02661E070E08091F5
:1002E00015050E94F02626960FB6F894DEBF0FBEC5
:1002F000CDBFDF91CF91B3CFCF92DF92EF92FF923C
:100300000F931F93CF93DF93182F092F80915202E1
:10031000811113C00E94E129609322057093230587
:10032000809324059093250581E080935202C12F8C
:10033000D02F8E01025F1F4F21C00E94E1296093E0
:10034000290570932A0580932B0590932C05C09066
:100350002205D0902305E0902405F0902505DC01CE
:10036000CB018C199D09AE09BF09893B9B40A105B2
:10037000B105E8F274DF10925202D9CF8AE090E022
:100380000E94421D809139050E949D27899399936F
:1003900082E390E00E94421D61E08091D4040E94BB
:1003A000402782E190E00E94421D60E08091D404E9
:1003B0000E944027C017D10709F7DF91CF911F9105
:1003C0000F91FF90EF90DF90CF900895FC01908106
:1003D0009E5F908342E450E06CEA70E080E80C9409
:1003E0007B19EEEFFFE72591349181E02B3F3C4DE7
:1003F00009F080E00895CF93DF93CDB7DEB728975B
:100400000FB6F894DEBF0FBECDBFE22F29833A832B
:100410004B835C836D837E838F839887E13A61F49D
:10042000313209F088C047E050E06CE071E080E0D4
:100430000E947B1981E080C0E13209F07CC08B8191
:10044000333271F48B819C81A0E0B0E0809308018D
:1004500090930901A0930A01B0930B0181E06CC055
:10046000303241F467E070E08CE091E00E94A21924
:1004700081E062C0323209F05CC080931301B1DFC9
:10048000811103C0E0E0F8E002C0EEEFFAE08091F5
:100490000C0190910D01A0910E01B0910F01803BD4
:1004A0009440A105B10531F58091130180FD22C072
:1004B000EE3F8AE0F80751F080819181873727E786
:1004C000920721F09093FF0A8093FE0A87E797E74F
:1004D0009183808380916000809353029BE088E148
:1004E0000FB6F894A895809360000FBE90936000BB
:1004F00081E022C08081918187379747D1F4A89508
:1005000080916000886180936000809153028093A5
:100510006000EE3F8AE0F80741F08091FE0A90917A
:10052000FF0A9183808381E007C01092FF0A109236
:10053000FE0A81E001C080E028960FB6F894DEBF85
:100540000FBECDBFDF91CF910895209113012223DB
:1005500041F0AB01BC0183E00E94DD1818161906BA
:1005600044F081E090E0909307018093060180E0E1
:1005700090E00895CF93DF931F92CDB7DEB78983C4
:1005800061E070E0CE010196E0DF0F90DF91CF9146
:1005900008958091560290915702A0915802B0910F
:1005A0005902892B8A2B8B2B09F464C080EF0E949F
:1005B000B91B8DE00E94B91B80E00E94B91B80919D
:1005C00040050E94B91B809156028F770E94B91B8B
:1005D0008091560290915702A0915802B091590211
:1005E00027E0B695A795979587952A95D1F78F77A8
:1005F0000E94B91B8091560290915702A091580217
:10060000B09159023EE0B695A795979587953A9592
:10061000D1F78F770E94B91B8091560290915702B3
:10062000A0915802B091590245E1B695A7959795CA
:1006300087954A95D1F78F770E94B91B8091560212
:1006400090915702A0915802B09159025CE1B69581
:10065000A795979587955A95D1F70E94B91B87EF73
:100660000E94B91B10925602109257021092580223
:100670001092590208950E94E41C60933C05709307
:100680003D0580933E0590933F05809140050E9473
:100690006E278823D1F30E94E41C40913C055091C1
:1006A0003D0520E73EEF241B350B620F731F6D32B3
:1006B000714018F50E94E41C60933C0570933D0561
:1006C00080933E0590933F05809140050E946E27E0
:1006D0008111FACF0E94E41C20913C0530913D0528
:1006E000621B730BCB018A5991408D32914038F0D7
:1006F0006E5076406D32714020F08FEF089580E0AB
:10070000089581E008950F931F93CF93DF93109284
:100710005602109257021092580210925902C8E0E5
:10072000D0E0A9DF81114CC02197D9F7C6E0D0E015
:10073000A2DF813009F044C02197D1F79CDF8111FD
:100740003FC099DF8130E1F5C0E0D0E001E010E08A
:1007500092DF8130F9F4C8010C2E02C0880F991F76
:100760000A94E2F7092E000CAA0BBB0B409156022B
:10077000509157026091580270915902842B952B29
:10078000A62BB72B8093560290935702A093580242
:10079000B09359022196C031D105D1F6809156020D
:1007A00090915702A0915802B0915902AA27BB27F5
:1007B0008093560290935702A0935802B093590227
:1007C000DF91CF911F910F9108950F931F93809305
:1007D00040050E94E41C60933C0570933D058093A6
:1007E0003E0590933F05809140050E946E27882327
:1007F00011F10E94E41C00913C0510913D052091EF
:100800003E0530913F05DC01CB01801B910BA20B13
:10081000B30B813A9648A140B10528F38FEF90E0E1
:10082000A0E0B0E08093560290935702A093580244
:10083000B093590259C00E94E41C60933C05709328
:100840003D0580933E0590933F05809140050E94B1
:100850006E278823D1F30E94E41C40913C055091FF
:100860003D052EE63DED241B350B620F731F6F35E2
:100870007140D0F50E94E41C60933C0570933D05E7
:1008800080933E0590933F05809140050E946E271E
:100890008111FACF0E94E41C20913C0530913D0566
:1008A000621B730BCB018E5F90418F35914018F422
:1008B0001F910F9128CF6C5A78406D337105A0F4C9
:1008C0000E94E41C60933C0570933D0580933E05B7
:1008D00090933F05809140050E946E278823D1F3B5
:1008E0001F910F910C94E41C1F910F9108958F920A
:1008F0009F92AF92BF92CF92DF92EF92FF92CF93EF
:100900006C01C62F0E94E41C4B015C010D2C000CF5
:10091000EE08FF0861E08C2F0E94402780915A0268
:1009200090915B020E94421D60E08C2F0E94402744
:1009300080915A0290915B020E94421D0E94E41C29
:10094000DC01CB0188199909AA09BB098C159D0501
:10095000AE05BF05F8F2CF91FF90EF90DF90CF90FA
:10096000BF90AF909F908F9008958F929F92AF927B
:10097000BF92CF92DF92EF92FF926C01F62E0E940F
:10098000E41C4B015C0160E08F2D0E9440270D2C80
:10099000000CEE08FF080E94E41CDC01CB01881962
:1009A0009909AA09BB098C159D05AE05BF0598F3E9
:1009B000FF90EF90DF90CF90BF90AF909F908F907F
:1009C0000895E62FF0E0E45CFE4FE0819E2F9770E3
:1009D00041E050E09A0101C0220F9A95EAF7F0E059
:1009E00093E0F695E7959A95E1F7BF01660F771FBB
:1009F000E60FF71FB096922F909532819323928342
:100A00009181292B2183682F70E0CA010E94C22D99
:100A1000072E000C880B990B0E94F92B20E030E088
:100A20004AE754E40E94E72C20E030E040EC50E438
:100A30000E94F62A0E94C62B60935A0270935B02B2
:100A400080935C0290935D020895AF92BF92CF9223
:100A5000DF92EF92FF920F931F93CF936B017C0174
:100A6000C42F5901642F86E2ACDF6C2F88E293E239
:100A70003EDF6C2F84E991E178DF00E010E06C2F1D
:100A800080E392E00A151B05A4F4F7FE06C02FDFF1
:100A90006C2F80E496E069DF05C029DF6C2F80E3CE
:100AA00092E063DFCC0CDD1CEE1CFF1C0F5F1F4FC0
:100AB000E6CF1DDF6C2F80E090E0CF911F910F916A
:100AC000FF90EF90DF90CF90BF90AF904ECFE82F88
:100AD000F0E0E05BFE4FE0812E2F277081E090E098
:100AE00001C0880F2A95EAF7F0E093E0F695E795C4
:100AF0009A95E1F79F01220F331FE20FF31FB09683
:100B0000982F90952281922392839181892B8183C2
:100B10000895AF92BF92CF92DF92EF92FF920F9320
:100B20001F93CF93DF936C01C62FD0E0CC0FDD1F56
:100B30008E0108581D4FF80180819181009729F09E
:100B40000E94792FF801118210828E01025A1D4FE6
:100B5000F80180819181009729F00E94792FF80196
:100B6000118210829091160580913205981719F024
:100B700084E090E002C083E090E08C9D50018D9D68
:100B8000B00C9C9DB00C1124B0921805A0921705D2
:100B9000C5010E94E12E8C01FE01E858FD4F9183B2
:100BA0008083892BE9F0C5010E94E12E7C01FE01C2
:100BB000E25AFD4F91838083892B91F0A50160E07B
:100BC00070E0C8010E940230A50160E070E0C7013A
:100BD0000E940230D0923B05C0923A0581E019C0D4
:100BE000C8010E94792FFE01E858FD4F1182108242
:100BF000C25ADD4F888199810E94792F198218820B
:100C0000109218051092170510923B0510923A05A4
:100C100080E0DF91CF911F910F91FF90EF90DF90D7
:100C2000CF90BF90AF90089531E02091160590913C
:100C30003205291330E0482F42954695469543707A
:100C400040931605982F9295937090933205282F14
:100C500026952695237020931F05837080932E057B
:100C600081E080933105E62FF0E0EE0FFF1FE8589A
:100C7000FD4F0190F081E02DEF2B49F0491380E00A
:100C8000381729F080913A0590913B0542CF08959D
:100C90000F931F93CF93C82F809160038F3F99F0DC
:100CA000809134058C130FC08091350590913605E5
:100CB0008617970741F480913705841304C080910B
:100CC0003805821729F1822F8B01C0933405709368
:100CD00036056093350540933705209338054093DA
:100CE0002D056C2FA1DF6C2FC80113DFC82F8823BF
:100CF00069F08091600387FD06C0E9DE60E08091C5
:100D000060030E94402781E0809328058C2F00C05B
:100D1000CF911F910F9108956111D9CEE82FF0E086
:100D2000E05BFE4F8081E82FF0E093E0F695E795D9
:100D30009A95E1F79F01220F331FE20FF31FB09640
:100D4000282F277081E090E001C0880F2A95EAF7EC
:100D5000809591819823918392818923828308953C
:100D6000CF93C82F80912805882331F080916003AC
:100D700087FD02C060E0D0DFC0936003809128054A
:100D8000882331F08C2FA3DE60E08C2F0E94402757
:100D90008C2F90E0FC01E75DFD4FE081F0E0EE0F6D
:100DA000FF1FE55EFD4F2081318130933005209398
:100DB0002F05FC01E750FE4F80818093CF04CF9137
:100DC00008954F925F926F927F928F929F92AF920F
:100DD000BF92CF92DF92EF92FF920F931F93CF9328
:100DE000DF93CDB7DEB729970FB6F894DEBF0FBEFD
:100DF000CDBF722EC32ED42E598328E631E040E0B9
:100E000050E00E94D52D4B015C01ED82FE820F83E4
:100E100018872D813E814F81588524363105410543
:100E2000510540F083E690E0A0E0B0E08D839E8322
:100E3000AF83B8878D819E81AF81B885C297A109A4
:100E4000B048880F991F97FF03C09195819591092C
:100E500024E630E0281B390B032E000C440B550B05
:100E6000672D7C2D8D2D9981643671058105910545
:100E700020F063E670E080E090E00E94932D982FD0
:100E8000872F762F662720E137E240E050E00E946E
:100E9000D52D29013A01ACE3CA2ED12CE12CF12C3D
:100EA000C501B401A70196010E94D52D29833A837B
:100EB0004B835C83998199872CE3A981BA812A9F0E
:100EC000C0012B9F900D1124092E000CAA0BBB0B07
:100ED000A5019401281B390B4A0B5B0B942F832F20
:100EE000722F6627A70196010E94D52D89818170F6
:100EF000C82ED12CDC2CCC24DA94C20ED31ED7FE03
:100F000003C0D194C194D1080D2C000CEE08FF0849
:100F100080E091E0A0E0B0E09C01AD012C193D091A
:100F20004E095F09C301B2010E94932DC72ED82E2E
:100F3000E92EFF249985992379F0913081F0923040
:100F4000B9F09330E1F0943011F1C982DA82EB828A
:100F5000FC825301420121C05301420104C04601F9
:100F600057017301620119821A821B821C8218C008
:100F7000C982DA82EB82FC827301620104C0498279
:100F80005A826B827C82812C912C540109C0498247
:100F90005A826B827C8246015701C12CD12C76018A
:100FA0008D819E81AF81B885880F991FAA1FBB1FB5
:100FB0006627782F892F9A2F24E630E040E050E012
:100FC0000E94D52DDA01C90184199509A609B7092E
:100FD0008C019D013695279517950795D501C4017C
:100FE000800F911FA21FB31F9927AA27BB27DC01DF
:100FF00099278827C00ED11EE21EF31EFE2CED2C71
:10100000DC2CCC24EE24FF248C299D29AE29BF2979
:1010100049815A816B817C81400F511F621F731F70
:10102000BC01CD01642B29960FB6F894DEBF0FBE2C
:10103000CDBFDF91CF911F910F91FF90EF90DF9087
:10104000CF90BF90AF909F908F907F906F905F9068
:101050004F900895CF9320913A0530913B05621748
:10106000730708F058C020911605C091320590E032
:1010700050911F05A22FB0E040912E05880F991FB7
:10108000FC012C1322C0E25AFD4F9B01220F331F9B
:10109000620F731F20813181260F371FF901E50F81
:1010A000F11D5081A20FB31F6C91862F90E0A0E03C
:1010B000B0E0DC0199278827952BF901E40FF11D99
:1010C0002081BC01CD01622B29C0E858FD4F660F7D
:1010D000771F660F771F20813181260F371FA20FE0
:1010E000B31FEC91D901AC0FB11D6C91862F90E02C
:1010F000A0E0B0E0DC0199278827BE2BF901E40FBE
:10110000F11D4081842BF901E50FF11D2081BC0107
:10111000CD01722B03C060E070E0CB01CF91089548
:101120001F93CF93DF93CDB7DEB729970FB6F8940F
:10113000DEBF0FBECDBF182F13DE80911705909133
:1011400018059A838983E12FF0E0EE0FFF1FE8581E
:10115000FD4F0190F081E02DDF011196808189879C
:1011600090913105E0912F05F09130058091CF04E9
:10117000992309F436C09081982B988790818095A7
:1011800089238F838F818E8388E08D83F89458859F
:101190006F81E0912F05F091300549853D812E81C9
:1011A00089819A81508347FD252F3A952083262FE8
:1011B00039F0441F00C000006083000000C0F2CF7F
:1011C00038E04D9160830000019761F7F09330059E
:1011D000E0932F0549873D832E839A8389837894F2
:1011E0003AC09081982B98879081809589238F832E
:1011F0008F818C8388E08B8358856F8149853B8103
:101200002C8189819A81508347FD252F00C000C021
:10121000208300C000C000C000C000C06083000088
:10122000262F3A9541F0441F000000C000C000C0C6
:1012300000C000C0E8CF38E04D9100C0608300C01E
:10124000019709F7F0933005E0932F0549873B8319
:101250002C839A83898329960FB6F894DEBF0FBE3C
:10126000CDBFDF91CF911F910895CF92DF92EF9282
:10127000FF920F931F93CF93DF9360932D052091DF
:101280003A0530913B05232B09F461C0A0E0B0E0A2
:10129000C0E0D0E0E82FF0E0EE0FFF1F8F0108580C
:1012A0001D4F9F01225A3D4F690120913A0530910F
:1012B0003B05C217D30708F041C0F80140815181B6
:1012C0007A01EA0EFB1EF601208131812A0F3B1FB5
:1012D0004091320550E0B901640F751FFB01908108
:1012E00060912D054E0D5F1D969FB0011124FA01EE
:1012F000708360911F0570E0A901460F571FFA0126
:10130000908140912D056E0D7F1D949FA0011124A9
:10131000FB01508390912E05492F50E0240F351F7B
:10132000F901908120912D054E0D5F1D929F900136
:101330001124FA01308321961396B7CFDF91CF9114
:101340001F910F91FF90EF90DF90CF90E9CEDF914A
:10135000CF911F910F91FF90EF90DF90CF90089564
:101360004F925F926F927F928F929F92AF92BF92B5
:10137000CF92DF92EF92FF920F931F93CF93DF9361
:1013800069017A01902F20913A0530913B0562174F
:10139000730708F093C08701222733274D2C5E2C5A
:1013A0006F2C7724A0911605E0913205482F50E06C
:1013B000AE1317C0FB01EE0FFF1F6E0F7F1F440F10
:1013C000551FFA01E858FD4F0190F081E02DE60F1E
:1013D000F71FDA01A25ABD4F4D915C91640F751F42
:1013E0003FC0660F771F660F771F440F551FFA0126
:1013F000E858FD4F0190F081E02DE60FF71FEA015C
:10140000C25ADD4F48815981640F751F8F2C992472
:10141000AA24BB24EF01CA0FD11D40912D054423FE
:1014200051F050E0489DD001499DB00D589DB00D40
:1014300011244B2F01C0482D488340911605EB0124
:10144000C40FD11D40912D05442349F050E0489D23
:10145000D001499DB00D589DB00D11248B2E88826E
:1014600040913205DB01A40FB11D0C9340911F0583
:10147000DB01A40FB11D4C9240912E05DB01A40F9E
:10148000B11DCC9240912D05049F80011124449DF3
:10149000200111244C9D6001112420913205DF01AF
:1014A000A20FB11D1C9320911F05DF01A20FB11DDA
:1014B0005C9220912E05E20FF11DD082992389F0D4
:1014C000DF91CF911F910F91FF90EF90DF90CF9020
:1014D000BF90AF909F908F907F906F905F904F9054
:1014E0001FCEDF91CF911F910F91FF90EF90DF9072
:1014F000CF90BF90AF909F908F907F906F905F90B4
:101500004F9008958F929F92AF92BF92DF92EF9289
:10151000FF920F931F93CF93DF93D82E4801590169
:1015200080913A0590913B0577FD02C057FF05C0B9
:10153000AC014150510960E070E0461757072CF4A8
:10154000362F272FBA01432F522F009769F177FFCB
:1015500002C060E070E07B018617970708F47C0109
:1015600057FF02C040E050E08417950708F4AC0133
:10157000EA012196EC16FD0650F400E0A501940165
:10158000B7018D2DEDDE8FEFE81AF80AF3CF8D2D20
:10159000DF91CF911F910F91FF90EF90DF90BF905F
:1015A000AF909F908F90BCCDDF91CF911F910F9105
:1015B000FF90EF90DF90BF90AF909F908F90089535
:1015C0001F93CF93DF9320913A0530913B05232B56
:1015D00019F1182FC82FD0E0CC0FDD1FFE01E858FD
:1015E000FD4F409117055091180560E070E0808133
:1015F00091810E940230C25ADD4F409117055091EF
:10160000180560E070E0888199810E940230812F86
:10161000DF91CF911F9184CDDF91CF911F910895DC
:101620002F923F924F925F926F927F928F929F92F2
:10163000AF92BF92CF92DF92EF92FF920F931F93E0
:10164000CF93DF9300D000D01F92CDB7DEB7898350
:1016500048015901160127014617570728F4962F0C
:10166000872FBA01492F582F80913A0590913B0559
:10167000009709F4C9C07D836C838617970710F41F
:101680009D838C838417950708F4AC014F5F5F4FEF
:101690009A018C819D81281B390B3B832A83C101D0
:1016A00088599E4F8819990968E671E00E94AE2D0D
:1016B0009C0144E6429FC001439F900D11246A8122
:1016C0007B810E94AE2D6B018A819B810197A9F4D9
:1016D000860E971EB40180E090E012E3E12EF12C1B
:1016E00000E010E024E630E040E050E06ADB9B01DF
:1016F000AC0100E06C817D816CC012E3E12EF12C25
:1017000000E010E024E630E040E050E0C501B40124
:1017100058DB9B01AC0100E06C817D81898120DE7A
:101720006C807D809FEF691A790AC69C9001C79CE6
:10173000300DD69C300D11242C193D0944E6489DEE
:10174000C001499D900D11244901880E991EA12CBC
:10175000B12C8C819D8101972A813B81820F931F3F
:101760009B838A83AC0CBD1C8A819B816816790699
:10177000F8F4C501880D991D64E670E00E94AE2D55
:1017800068597E4F80E090E012E3E12EF12C00E0FA
:1017900010E024E630E040E050E013DB9B01AC01B8
:1017A00000E0B3018981DCDD3FEF631A730ADACF11
:1017B00012E3E12EF12C00E010E024E630E040E0FE
:1017C00050E0C201B101FDDA9B01AC0100E06A8189
:1017D0007B818981C5DD89810F900F900F900F90DB
:1017E0000F90DF91CF911F910F91FF90EF90DF90BD
:1017F000CF90BF90AF909F908F907F906F905F90B1
:101800004F903F902F908CCC0F900F900F900F9097
:101810000F90DF91CF911F910F91FF90EF90DF908C
:10182000CF90BF90AF909F908F907F906F905F9080
:101830004F903F902F900895AF92BF92CF92DF923A
:10184000EF92FF920F931F93CF93DF93662309F4D8
:101850006BC0C0913A05D0913B05209709F464C054
:10186000C62E062E000CDD08CC15DD0558F4DF91E0
:10187000CF911F910F91FF90EF90DF90CF90BF908D
:10188000AF909ECE182F161634F0A12CB12C7E01ED
:10189000EC0CFD1C29C02197CC15DD0564F0BE01C0
:1018A0006C197D09812FD6DB9B01AC0100E0BE01E4
:1018B000812F56DDF0CFC0E0D0E000E020E030E046
:1018C000A901BE01812F4CDD2196CC16DD06A9F7BA
:1018D000812FDF91CF911F910F91FF90EF90DF90BB
:1018E000CF90BF90AF901CCCEA14FB0478F0B50108
:1018F0006C197D09812FAEDB9B01AC0100E0B501C5
:10190000812F2EDD8FEFA81AB80AEECFEC16FD0658
:10191000F8F600E020E030E0A901B701812F20DDDA
:101920008FEFE81AF80AF2CFDF91CF911F910F9154
:10193000FF90EF90DF90CF90BF90AF9008952F92DF
:101940003F924F925F926F927F928F929F92AF924F
:10195000BF92CF92DF92EF92FF920F931F93CF939C
:10196000DF9300D0CDB7DEB7382E2DB73EB73A8320
:101970002983662309F4D9C0E0903A05F0903B052D
:10198000E114F10409F4D1C0862F660F990BB70159
:101990000E94AE2D282EC82E082E000CDD084DB654
:1019A0005EB618160CF04EC0C601880F991F880F3E
:1019B000991FEDB7FEB7E81BF90B0FB6F894FEBF01
:1019C0000FBEEDBF2DB73EB72F5F3F4F3901590115
:1019D00000E010E047018C189D08B401600F711FF2
:1019E000832D38DBF50161937193819391935F01AE
:1019F0000F5F1F4F0C151D0584F3F1E0EF1AF1087E
:101A0000EC14FD0464F0B7016C197D09832D22DB11
:101A10009B01AC0100E0B701832DA2DCEECFE12CED
:101A2000F12CF30121913191419151913F0100E05D
:101A3000B701832D95DCFFEFEF1AFF0AEC14FD04CC
:101A400084F36CC0D194C194D108C601880F991F4A
:101A5000880F991F2DB73EB7281B390B0FB6F89486
:101A60003EBF0FBE2DBF8DB79EB701963C018C01C6
:101A7000A12CB12CAC14BD0469F0B501832DEADAB8
:101A8000F80161937193819391938F01FFEFAF1AE6
:101A9000BF0AF0CF812C912CA22C220CBB0867012D
:101AA000CA0CDB1CC814D90478F0B4016A197B098C
:101AB000832DD0DA9B01AC0100E0B401832D50DC12
:101AC0002FEF821A920AEECF8FEF9FE3E89E40013C
:101AD000E99E900CF89E900C11248A189B088C0C9F
:101AE0009D1C880C991C880C991CA12CB12CCE141F
:101AF000DF04A0F4F501E80DF91DE60DF71D2081C6
:101B000031814281538100E0B601832D29DC3FEF12
:101B1000C31AD30A84E0A80EB11CE9CF0FB6F8941B
:101B20005EBE0FBE4DBE832DFBDAE981FA810FB692
:101B3000F894FEBF0FBEEDBF0F900F90DF91CF91D5
:101B40001F910F91FF90EF90DF90CF90BF90AF90DB
:101B50009F908F907F906F905F904F903F902F90CD
:101B600008952F923F924F925F927F928F929F9211
:101B7000AF92BF92CF92DF92EF92FF920F931F939B
:101B8000CF93DF9300D000D0CDB7DEB7782E7C8323
:101B90006B83B8018B819C814817590730F49B8176
:101BA0008C815C834B83492F582F80913A0590910B
:101BB0003B05009709F49DC0EB81FC818E179F07C0
:101BC00010F49C838B838417950708F4AC011616D8
:101BD000170664F0872DF4DC00E020E03FEF4FEFC4
:101BE00050E06B817C81872DBBDB67C0CA01EB8134
:101BF000FC818E1B9F0B9A8389836C01FFEFCF1AA8
:101C0000DF0AA90137FF03C05195419551094C9D49
:101C1000C0014D9D900D5C9D900D11240E94AE2D34
:101C20004B01672B49F0A12CB12CE12CF12C212C7C
:101C3000312C21012A943EC0EE24E394F12CEC14C3
:101C4000FD04D8F56B817C816E0D7F1D00E020E0E6
:101C500030E0A901872D84DB8FEFE81AF80AEFCF77
:101C6000E814F90408F040C0C50169817A810E9436
:101C7000AE2D9B013327C901A0E0B0E09C011127E4
:101C80000027D201C101861B970BA109B109A90147
:101C90009801282B00E06B817C81872D61DB9FEF11
:101CA000E91AF90AEFEFAE0EB11C8B819C81019607
:101CB0009C838B83EC14FD0498F2872D0F900F907A
:101CC0000F900F90DF91CF911F910F91FF90EF90A8
:101CD000DF90CF90BF90AF909F908F907F905F905C
:101CE0004F903F902F901CCA00E020E030E0A90107
:101CF000D2CF0F900F900F900F90DF91CF911F9147
:101D00000F91FF90EF90DF90CF90BF90AF909F909A
:101D10008F907F905F904F903F902F90089504C0D8
:101D2000615071098109910961157105810591055C
:101D3000B9F70895AF92BF92CF92DF92EF92FF92E0
:101D40000F931F93CF93DF9310924105109242059A
:101D5000109243051092440510924505FC01E45B86
:101D6000FA4FC081FC01EE5AFA4FD08161E070E079
:101D70008C2F0E94F02660E08C2F0E944027DD23EC
:101D800071F1A12C24E2B22E34EFC32ED12CE12C20
:101D9000F12C00E010E02D2F30E040E050E060E05A
:101DA00070E080E090E00E94322EE6E0AE2EB12C92
:101DB000C12C0E94852E29513C4F4F4F5F4F6F4FD2
:101DC0007F4F8F4F9F4F0E94342C20E030E04AE736
:101DD00054E40E945E2B0E94CB2BA1DF05C063E080
:101DE00070E080E090E09BDF60E070E08C2F0E946C
:101DF000F02688E290E00E94421D00E911E08C2F5D
:101E00000E946E27811106C001501109C1F78EEFA3
:101E10009FEF49C000E911E08C2F0E946E278823B4
:101E200021F001501109C1F7F2CF18E200E0D0E82B
:101E300090E9E92EFF24F3948C2F0E946E278111E4
:101E400005C081E0E81AF108B9F7E1CF0E94E41C6F
:101E50006B017C0180E9A82EBB24B3948C2F0E94D7
:101E60006E27882329F081E0A81AB108B9F7CFCFEF
:101E70000E94E41CDC01CB018C199D09AE09BF094D
:101E80008997A105B10538F0E02FF0E0EF5BFA4F3C
:101E900080818D2B8083D69511F40F5FD0E811508F
:101EA00039F680E090E0DF91CF911F910F91FF9084
:101EB000EF90DF90CF90BF90AF900895109265059E
:101EC0001092640510926205E2E6F5E0129285E058
:101ED000EA35F807D9F70895CF93C82F60E00E943C
:101EE0008C068C2F90E0FC01E750FE4F2081209360
:101EF0006305FC01E75DFD4FE081F0E0EE0FFF1FA1
:101F0000E35FFD4F8081918190935905809358053F
:101F1000D5DFCF910895FF920F931F93CF93DF9357
:101F2000F0906305C0915805D0915905F8948981C6
:101F30000F2D00958023898378941DE7115029F196
:101F400082E090E00E94421D88818F21B9F3F894CD
:101F50008A8180238A8389818F298983789480EE7E
:101F600091E00E94421DF89489810823098386E448
:101F700090E00E94421D8881F82211E009F010E0F3
:101F800078948AE991E00E94421D812FDF91CF91E0
:101F90001F910F91FF9008950F931F93CF93DF939D
:101FA00000916305C0915805D0915905F894898135
:101FB000802B89838A81102F109581238A8383E067
:101FC00090E00E94421D8981182319838AE090E0E5
:101FD0000E94421DC881789485E390E00E94421DD2
:101FE000C02381E009F480E0DF91CF911F910F9130
:101FF00008950F931F93CF93DF9308E010E0C0E0A4
:10200000D1E0CADF8111CD2BDD0F01501109C9F7D5
:102010008C2FDF91CF911F910F9108951F93CF9334
:10202000DF9310916305C0915805D0915905912F08
:10203000909580FF16C0F8948A8189238A838981CC
:10204000812B89838AE090E00E94421D8A81182BAF
:102050001A83789487E390E0DF91CF911F910C94DD
:10206000421DF8948A8189238A838981812B8983FF
:1020700081E490E00E94421D8A81182B1A83789493
:1020800085E090E0DF91CF911F910C94421DFF926B
:102090000F931F93CF93DF93F82E062FC8E0D0E065
:1020A00011E081E09F2D912309F480E0B7DF110F4B
:1020B0002197B9F7011113C0F894E0915805F091F8
:1020C0005905918180916305809598239183E091D2
:1020D0005805F09159059281892382837894DF9184
:1020E000CF911F910F91FF9008950F931F93CF935E
:1020F000DF938C0160E085E5CADFE801085F1F4FD0
:1021000060E08991C4DFC017D107D1F7DF91CF918B
:102110001F910F910895DF92EF92FF920F931F93FB
:10212000CF93DF9320916405211104C07C01F3DE7D
:10213000811108C010926505109264051092620525
:1021400080E05BC060E080EFA2DFD1E000E0D12C56
:10215000C1E022DF182F20DF113019F48130C1F4E3
:1021600032C0202F30E018131DC080916505C817BC
:1021700038F4F901E65AFA4F80818D2349F402C000
:10218000C81731F010E0C93060F4C093620509C08F
:10219000E02FF0E0E65AFA4F80818D2B808311E02A
:1021A00009C0DC2EF901E65AFA4F80812D2F2095C7
:1021B00028232083812F32DFCF5FDD0F11F40F5FE3
:1021C000D1E0083030F2C13408F4B4CFD0926505C4
:1021D000D11003C081E08093640580915A05882363
:1021E00009F4A8CFAAE5B5E0F70182E695E02D91C4
:1021F00021938A179B07D9F781E0DF91CF911F9137
:102200000F91FF90EF90DF900895DC0180E0615026
:1022100040F09D91E82FE927F0E0E251FF4F8491D3
:10222000F6CF0895AF92BF92CF92DF92EF92FF92D6
:102230000F931F93CF93DF93CDB7DEB764970FB69D
:10224000F894DEBF0FBECDBF5C01CE010D9663DFFB
:10225000811102C033DE32C067E0CE010D96D5DFBA
:102260009C8989132BC08D85803111F0883231F51E
:1022700052DECE010D9639DF61E084E408DF4BDEEB
:10228000CE010D9632DF60E08EEB01DF8E010F5F35
:102290001F4F6E018AE0C80ED11C7801AADED7015B
:1022A0008D937D01AC15BD05C9F708DEF501D80198
:1022B0008D918D018193CA16DB06C9F764960FB61E
:1022C000F894DEBF0FBECDBFDF91CF911F910F916C
:1022D000FF90EF90DF90CF90BF90AF9008958F92D6
:1022E0009F92AF92BF92DF92EF92FF920F931F9354
:1022F000CF93DF9300D01F92CDB7DEB780916905F1
:102300000E946E27882339F061E070E080E090E061
:102310000E94091DF3CF8E010F5F1F4F53E0D52E92
:10232000812C912C5401839447E0E42EF12C61E040
:10233000809166050E944027809169050E946E2762
:10234000882379F0F8012281D501C4010E2C04C044
:10235000880F991FAA1FBB1F0A94D2F7822B828372
:102360000FC0D501C4010E2C04C0880F991FAA1FED
:10237000BB1F0A94D2F78095F8019281892382834A
:1023800060E0809166050E944027F1E0EF1AF108B5
:1023900070F6DA9401501109D110C6CF61E0809136
:1023A00066050E94402760E0809166050E944027F4
:1023B0002B816A81862F90E0A0E0B0E0BA2FA92F90
:1023C000982F8827A22B2981822BBC01CD01805810
:1023D0000F900F900F90DF91CF911F910F91FF9071
:1023E000EF90DF90BF90AF909F908F900895CF9225
:1023F000DF92EF92FF92CF93C9E1C12CD12C7601ED
:102400006EDFC60ED71EE81EF91EC150C9F7C70100
:10241000B60129E130E040E050E00E94F72DCA010A
:10242000B901CF91FF90EF90DF90CF900895CF93B7
:10243000DF93962FEA01809369056093660561E05A
:1024400070E0892F0E94F02660E070E080916905BD
:102450000E94F02661E0809166050E94402784E694
:1024600090E00E94421D60E0809166050E94402736
:10247000BEDFBDDF60936A0570936B0580936C05CA
:1024800090936D05D0936805C0936705DF91CF9158
:102490000895CF92DF92EF92FF9220916905FC019F
:1024A0002083A5DFC0906A05D0906B05E0906C0595
:1024B000F0906D056C197D098E099F090E94F92B1A
:1024C0006B017C01609167057091680580E090E088
:1024D0000E94F72B9B01AC01C701B6010E945E2B45
:1024E000FF90EF90DF90CF9008951F920F920FB65C
:1024F0000F9211242F933F934F935F936F937F938A
:102500008F939F93AF93BF93EF93FF938091AF020D
:1025100087FF05C010928500109284002DC0209185
:10252000AF02022E000C330B8091140190E02817AB
:10253000390714F58091AF02082E000C990BFC01AD
:10254000EE0FFF1F8E0F9F1FFC01E055FD4F808196
:1025500086FF12C08091AF02082E000C990BFC017F
:10256000EE0FFF1F8E0F9F1FFC01E055FD4F808176
:1025700060E08F730E9440278091AF028F5F80934D
:10258000AF022091AF02022E000C330B8091140198
:1025900090E0281739070CF040C08091AF028C30D2
:1025A000E4F520918400309185008091AF02082EDF
:1025B000000C990BFC01EE0FFF1F8E0F9F1FFC01FB
:1025C000E055FD4F81819281820F931F9093890086
:1025D000809388008091AF02082E000C990BFC01BB
:1025E000EE0FFF1F8E0F9F1FFC01E055FD4F8081F6
:1025F00086FF2EC08091AF02082E000C990BFC01C3
:10260000EE0FFF1F8E0F9F1FFC01E055FD4F8081D5
:1026100061E08F730E9440271BC0809184009091DD
:102620008500049680349C4938F480E49CE99093BA
:1026300089008093880009C0809184009091850072
:10264000049690938900809388008FEF8093AF0267
:10265000FF91EF91BF91AF919F918F917F916F917A
:102660005F914F913F912F910F900FBE0F901F9050
:102670001895EF92FF920F931F93CF93DF93909152
:10268000AE029C3008F076C08A017B01C82F61E061
:1026900070E00E94F0268091AE02E82FF0E09F01EA
:1026A000220F331FE20FF31FE055FD4F2C2F2F7326
:1026B0009081907C922B908320E232E02E193F098A
:1026C00037FF02C02D5F3F4F3595279535952795EC
:1026D0002093AD0220E639E0201B310B37FF02C00A
:1026E0002D5F3F4F35952795359527952093AC0263
:1026F0002CE0622F0E94A22D289FB001112440E0FF
:1027000050E09B01240F351FF901EE0FFF1F2E0F24
:102710003F1FF901E055FD4F908196FD16C04F5FB8
:102720005F4F4C30510569F781110FC01092800046
:1027300082E0809381001092850010928400B19A0B
:1027400080916F00826080936F009091AE02E92FBC
:10275000F0E09F01220F331FE20FF31FE055FD4F02
:10276000808180648083D0E0C656DD4F98839F5F70
:102770009093AE028091AE02DF91CF911F910F91A5
:10278000FF90EF900895DC01E62FF0E0E656FD4F54
:1027900060816C3008F043C08091AD0228E830E0E1
:1027A000281B310987FD3395C901880F991F880FB0
:1027B000991FA817B9078CF08091AC0248E552E048
:1027C000481B510987FD5395440F551F440F551F52
:1027D000CD014A175B070CF4CA0102974FB7F89472
:1027E000262F30E0092E000CAA0BBB0B54E0880FFB
:1027F000991FAA1FBB1F5A95D1F763E0B695A795FD
:10280000979587956A95D1F7F901EE0FFF1F2E0F67
:102810003F1FF901E055FD4F928381834FBF08951B
:10282000CF92DF92EF92FF92CF93C62F803222E0B9
:1028300092070CF03FC097FD06C0853B91052CF038
:1028400084EB90E002C080E090E02091AD0248E887
:1028500050E06A01C21AD10827FDD394CC0CDD1CCC
:10286000CC0CDD1C0D2C000CEE08FF084091AC02D6
:1028700028E532E0241B310947FD3395220F331F31
:10288000220F331FA901330F660B770B9A01AB019F
:102890002C193D094E095F09DC010E942C2E24EB06
:1028A00030E040E050E00E94F72DC20ED31EE41E3F
:1028B000F51EC6016C2FCF91FF90EF90DF90CF9067
:1028C00062CF8CE08093140180E090E028EB3BE045
:1028D000FC01EE0FFF1FE80FF91FE055FD4F32839B
:1028E000218301968C30910599F708958F929F92DC
:1028F000AF92BF92CF92DF92EF92FF92CF93C82F09
:1029000069017A01232B242B252B21F1AB0162E3F2
:102910000E94C1270E94E1294B015C010E94E1292C
:10292000DC01CB0188199909AA09BB098C159D0501
:10293000AE05BF0598F340E050E062E38C2FCF91E5
:10294000FF90EF90DF90CF90BF90AF909F908F90CF
:102950000C94C127F894AB0162E30E94C1277894DC
:10296000CF91FF90EF90DF90CF90BF90AF909F906E
:102970008F900895AC01E091B005F091B1053097CA
:10298000E1F09091D9028091D8029817B0F090E0D0
:10299000292F30E02617370754F4DA01A20FB31FAE
:1029A0008C91D901A059BA4F8C939F5FF1CF1092AF
:1029B000D9026093D802CB0109940895E0916E0585
:1029C000F0916F05309729F01092D6021092D5023F
:1029D000099408951092470381E080934503109273
:1029E000440361E082E00E94402761E083E00E94AE
:1029F0004027E9EBF0E080818E7F808380818D7FAE
:102A0000808388E48093B80085E48093BC000895B7
:102A1000413208F045C0909147039111FCCF91E0FD
:102A200090934703209345032FEF2093DA021092EF
:102A30001F03240F20931E03909346039091460397
:102A4000880F892B8093460380914403813071F471
:102A500010924403809146038093BB008091BC0098
:102A600083FDF8CF85EC8093BC0003C085EE809396
:102A7000BC00809147038130E1F380911F038417EC
:102A800010F440911F03A0E2B3E0962FFB018E2FBC
:102A9000891B841718F48D918193F9CF842F0895A1
:102AA00080E008950F93413208F04CC090914703A5
:102AB0009111FCCF32E030934703009345033FEF81
:102AC0003093DA0210921F0340931E03562FA0E2A8
:102AD000B3E0FB013E2F351B341718F431913D93C1
:102AE000F9CF1092460330914603880F832B8093D1
:102AF000460380914403813071F410924403809125
:102B000046038093BB008091BC0083FDF8CF85EC29
:102B10008093BC0003C085EE8093BC00222321F08B
:102B2000809147038230D1F38091DA028F3F79F0B0
:102B30008091DA02803241F08091DA02803331F004
:102B400094E005C091E003C092E001C093E0892FBA
:102B50000F9108954091FC02262F30E0240F311D83
:102B600021323105DCF4209147032430C9F4FC0103
:102B700080E090E0861758F43091FC022191DC014E
:102B8000A250BD4FA30FB11D2C930196F3CF80919E
:102B9000FC02680F6093FC0280E0089581E00895D4
:102BA00082E0089585ED8093BC008091BC0084FD97
:102BB000FCCF10924703089585EC8093BC001092DF
:102BC000470308951F920F920FB60F9211242F936F
:102BD0003F934F935F936F937F938F939F93AF93A5
:102BE000BF93EF93FF938091B900887F803609F4FB
:102BF000ACC070F5883209F461C090F4803109F4FA
:102C000055C038F4882309F40BC1883009F44EC04C
:102C10000AC1883109F452C0803209F465C003C189
:102C2000803409F471C050F4803309F45DC08833F6
:102C300009F0F9C08093DA02BFDFF5C0803509F4EE
:102C400057C0883509F468C0883409F0ECC0EAC080
:102C5000883909F4DBC0A8F4883709F476C038F461
:102C6000883609F472C0803709F46FC0DCC0883838
:102C700009F4CCC0803909F471C0803809F0D3C0A0
:102C80006DC0803B09F497C038F4803A09F47BC0EA
:102C9000883A09F490C0C7C0803C09F4BBC0883CA6
:102CA00009F4B8C0883B09F49BC0BDC080914603BD
:102CB0008093BB0085EC8093BC00B5C090911F034E
:102CC00080911E039817A0F5E0911F0381E08E0FFD
:102CD00080931F03F0E0E05EFC4F80818093BB0097
:102CE00085EC8093BC009FC08093DA025BDF9BC0C1
:102CF000E0911F0381E08E0F80931F038091BB0042
:102D0000F0E0E05EFC4F808390911F0380911E03F2
:102D1000981708F07BC076C0E0911F0381E08E0F0A
:102D200080931F038091BB00F0E0E05EFC4F808346
:102D300080914503811176C081E08093440384EA49
:102D40008093BC00109247036EC083E080934703DA
:102D50001092DB0285EC8093BC0065C08091DB02A1
:102D6000803208F053C0E091DB0281E08E0F809347
:102D7000DB028091BB00F0E0E452FD4F808385ECE4
:102D80008093BC0050C018DF8091DB02803230F4A9
:102D9000E091DB02F0E0E452FD4F10826091DB0233
:102DA00070E0E0914003F09141038CED92E00995D1
:102DB0001092DB0238C084E0809347031092FD023A
:102DC0001092FC02E0914203F09143030995809137
:102DD000FC02811105C081E08093FC021092FE028A
:102DE000E091FD0281E08E0F8093FD02F0E0E25061
:102DF000FD4F80818093BB009091FD028091FC0289
:102E0000981720F485EC8093BC000DC085E8809372
:102E1000BC0009C085EC8093BC001092470303C03E
:102E20001092DA02BFDEFF91EF91BF91AF919F91B7
:102E30008F917F916F915F914F913F912F910F9063
:102E40000FBE0F901F9018951092D9021092D802C1
:102E50001092D6021092D502BDDD8EED94E19093D2
:102E60004303809342038AEB94E190934103809360
:102E700040030895462F613208F040E221E060E708
:102E800075E0C6DD1092D9028093D802089591E0D2
:102E90009093D4028093D7021092D6021092D5025A
:102EA00008950F93CF93C82F0C2F21E04091D502A6
:102EB00060E975E08091D702F5DD9091D502992304
:102EC00011F08111F1CF1092D6021092D50210921A
:102ED000D402CF910F910895CF93DF931F92CDB776
:102EE000DEB789838091D4028823A1F08091D50236
:102EF0008032B8F48091D602E82FF0E0E057FA4F24
:102F0000998190838F5F8093D6028093D50281E070
:102F100090E009C061E0CE0101961CDE81E090E006
:102F200002C080E090E00F90DF91CF9108958091F2
:102F3000D80290E02091D902821B910908959091C6
:102F4000D9028091D802981750F4E92FF0E0E059A7
:102F5000FA4F208130E09F5F9093D90202C02FEF9B
:102F60003FEFC90108958F929F92AF92BF92CF9287
:102F7000DF92EF92FF92CF93DF9390E0FC01E0535A
:102F8000FA4FC081FC01EE54FA4FD081880F991F8F
:102F9000880F991FFC01E854FA4FC080D180E2806D
:102FA000F3802C2F277081E090E0AC0102C0440F29
:102FB000551F2A95E2F79A01EC2FF0E033E0F695E1
:102FC000E7953A95E1F7AF01440F551FE40FF51F60
:102FD000B096322F30954281342332833181232BB6
:102FE0002183ED2FF0E073E0F695E7957A95E1F710
:102FF0009F01220F331FE20FF31FB0962D2F277072
:1030000001C0880F2A95EAF78095918198239183D2
:1030100092818923828360E08C2F0E94402782E086
:1030200090E030D561E08C2F0E9440278AE090E04C
:1030300029D560E08C2F0E944027C6D44B015C014B
:103040008D2F0E946E27882321F0BED44B015C0196
:1030500019C0BAD4DC01CB0188199909AA09BB09A6
:10306000C816D906EA06FB0658F7EFCFADD4DC0147
:10307000CB0188199909AA09BB09C816D906EA061D
:10308000FB0628F08D2F0E946E278111EFCF9CD474
:10309000681979098A099B0928E330E040E050E08B
:1030A0000E94D52DC901DF91CF91FF90EF90DF9065
:1030B000CF90BF90AF909F908F900895409155030F
:1030C00050915603209153033091540342175307F4
:1030D000B4F49091E8009570E1F39091E80092FDCE
:1030E00019C08093F1008091550390915603019689
:1030F0008F739927892B19F48EEF8093E8008091C4
:10310000550390915603019690935603809355036F
:1031100081E0089580E00895EF92FF920F931F934E
:10312000CF93DF937C01062F10E0C8010196880F32
:10313000C5DF83E0C3DFE7010E0D1F1DC017D107F8
:1031400059F0FE018491BADFF82E80E0B7DF8F21BD
:1031500021968111F3CF01C081E0DF91CF911F91C2
:103160000F91FF90EF9008959093CD008093CC0045
:1031700088E18093C9008EE08093CA0008959FB7CC
:103180009093D805F89487708093E9000895809112
:10319000D8058FBF0895CF93F2DF8091E800C82F44
:1031A000C07285FD02C0F3DF05C0F1DF8091F2003F
:1031B000C0E4C81B8C2FCF9108957F928F929F926D
:1031C000AF92BF92CF92DF92EF92FF920F931F9335
:1031D000CF93DF93B82E7B01D42ED52F8091590346
:1031E000811103C08FEF9FEF6DC08091570380FF67
:1031F00005C08091E00082608093E0000D2D1D2FBE
:10320000C12C8AEFA82E8B2D8072882E8B2D807476
:10321000782E9AE3992E0115110509F44FC08B2DD4
:10322000BADFC82F811107C0AA94AA20D9F281E081
:1032300090E0EFD3F0CF90E0081719070CF4C02FFF
:103240008B2D9DDF8091E80085FFE5CF8C2F90E0EE
:10325000081B190B882029F0C150A8F01092F1002A
:10326000FBCFF701B7FE07C0C15058F0249120935F
:10327000F1003196F9CFC15020F021912093F10057
:10328000FACFE80EF91ECC2021F09092E800C12C74
:1032900013C08091E80085FD09C09092E800CC241D
:1032A000C3940115110541F0C12C06C0011511058B
:1032B00019F471109092E8006ADFADCFC110AFCF62
:1032C0008D2D9D2FDF91CF911F910F91FF90EF904A
:1032D000DF90CF90BF90AF909F908F907F90089598
:1032E0001092E900109256031092550390935403E4
:1032F000809353030895DF92EF92FF920F931F93F1
:10330000CF93DF938A018078D82E7B01E40EF51EDF
:10331000EB01CE15DF0569F0DD2019F0FE01849187
:1033200001C08881CBDE21968111F3CF8FEF9FEF13
:1033300001C0C801DF91CF911F910F91FF90EF90D5
:10334000DF900895CF93DC019B018BEF21153105B0
:10335000E1F0A9012134310514F040E450E09091EE
:10336000E80092FFFCCF942FFB01E21BF30BEA0F66
:10337000FB1F915028F0C091F100C0833196F9CF26
:103380008093E800241B350BE1CFCB01CF9108954A
:103390001F920F920FB60F921124EF92FF920F938C
:1033A0001F932F933F934F935F936F937F938F93CD
:1033B0009F93AF93BF93EF93FF93CF93DF93CDB7DB
:1033C000DEB76297DEBFCDBF1092E9008091E800C2
:1033D00083FFFDC089E0FE013A96815029F090916B
:1033E000F10090833196F9CF82EF8093E8008A85CF
:1033F00087FF05C09091E80090FFFCCF03C09EEFCF
:103400009093E800982F907609F0B2C09B852C85A8
:103410003D851C850D8591110EC0803839F4809151
:1034200058038093F1001092F100CAC01092F1008D
:103430001092F100C5C0913061F48111C1C02130FA
:10344000310509F0BDC0809158038D7F80935803EA
:10345000B7C0933061F48111B3C02130310509F058
:10346000AFC080915803826080935803A9C0953003
:1034700041F48091E80080FFFCCF10681093E300D6
:103480009FC0963009F048C0E888F988023051F5AD
:1034900080E090E025DF1982CE0101960E94E601CE
:1034A000298189E089830A8380915503909156038D
:1034B00009969C838B832D8381E08E831F8280EA13
:1034C00088878AEF8987C7010BDF49E050E0BE019A
:1034D0006F5F7F4F80E00FDF1A8ACE0142960E9415
:1034E000E6016EC0C701FCDE013009F45FC00330A5
:1034F00009F06AC0112309F45CC0123029F460E1BC
:103500008CE092E009DE4FC0113009F05DC06BE045
:1035100080E092E001DE47C0973009F455C0983052
:1035200021F481E08093F1004BC0993009F048C04C
:10353000837009F049C0E6E1F1E081E021E036E383
:103540009081992361F08093E9002093EB009191A1
:103550009093EC003093ED008F5F873089F78EE712
:103560008093EA001092EA008C858093590328C06A
:1035700088899989B5DE88E0FE013A96DE011196C8
:1035800001900D928A95E1F78E857F8581111CC08F
:103590001D827E8329813A814B815C8160E08F812D
:1035A00098850E94FB01882379F00AC06EEE71E0D5
:1035B00002C06DE172E0FB01449150E080E89BDEC7
:1035C0008EEF8093E80003C081E28093EB00629667
:1035D0000FB6F894DEBF0FBECDBFDF91CF91FF9144
:1035E000EF91BF91AF919F918F917F916F915F917B
:1035F0004F913F912F911F910F91FF90EF900F905E
:103600000FBE0F901F9018958093E9008091F200F3
:10361000882319F08AE38093E80008951F920F929F
:103620000FB60F9211242F933F934F935F936F9395
:103630007F938F939F93AF93BF93CF93EF93FF931A
:10364000C091E1008091E100837F8093E100C3FF9E
:103650000FC01092E90081E08093EB001092EC0023
:1036600082E38093ED001092590388E08093F0008C
:10367000C2FF02C083E0C8DFC4FF12C08091E20035
:103680008E7E81608093E2008091E1008F7E809346
:10369000E100809157038E7E80618093570313C0B1
:1036A000C0FF11C08091E2008E7E80618093E200B5
:1036B0008091E1008E7E8093E100809157038E7EA1
:1036C000816080935703FF91EF91CF91BF91AF91AC
:1036D0009F918F917F916F915F914F913F912F912A
:1036E0000F900FBE0F901F90189581E08093D70028
:1036F00080EA8093D80082E189BD09B400FEFDCF45
:1037000080E98093D8001092E000109259038CE079
:103710008093E200789408958091590308959FB7AB
:10372000F89480915903882369F082E08093E9003E
:103730002BE68091E80085FD09C082FF03C020933D
:10374000E800F7CF9FBF8FEF9FEF08958091F100C2
:103750002091E80025FD03C02BE62093E8009FBFE1
:1037600090E0089508958091C000881F8827881FE1
:1037700008950C94BA0208958091C6000895AF92FE
:10378000BF92CF92DF92EF92FF920F931F93CF934E
:10379000DF9328E0829F70011124082F000F000F93
:1037A000000FC0E0D0E010E082E0E81AF108C62E79
:1037B000D12CAA24A394B12CC7018C0F9D1F429732
:1037C000B0F4C6010C2E02C0959587950A94E2F7D5
:1037D00080FF0DC08C2F800F0E946E27882339F048
:1037E000C5010C2E01C0880F0A94EAF7182B219608
:1037F000C830D10509F7812FDF91CF911F910F912B
:10380000FF90EF90DF90CF90BF90AF9008955F92C0
:103810006F927F928F929F92AF92BF92CF92DF92E0
:10382000EF92FF920F931F93CF93DF934A01FB0117
:103830005080452B19F488248A94982C7B013B01F5
:10384000680E791EC0E0D0E000E010E087E0C82EEE
:10385000D12CE614F70489F10815190508F04AC0BF
:103860005701F70181917F010C2E01C0880F0A9446
:10387000EAF785298F777DDF0F5F1F4FF501808184
:1038800090E096012C1B3D0B02C0959587952A95DB
:10389000E2F7582E2196C730D105D8F2801691064E
:1038A00051F0852D8F7765DF0F5F1F4F551C552415
:1038B000551C2797F0CF8401CCCF2097D9F008155D
:1038C0001905C0F481E090E001C0880FCA95EAF7BD
:1038D00081508521DF91CF911F910F91FF90EF9043
:1038E000DF90CF90BF90AF909F908F907F906F9020
:1038F0005F903FCFDF91CF911F910F91FF90EF909D
:10390000DF90CF90BF90AF909F908F907F906F90FF
:103910005F900895FF920F931F93CF93DF93C82F6B
:10392000162FF42E052F80EF24DF8C2F22DFCF2DD2
:10393000D02FCE01810F911D8C01C017D10741F00E
:1039400040E050E0BE0181E090E061DF2196F5CFDC
:1039500087EFDF91CF911F910F91FF900ACFFC016C
:1039600001900020E9F73197BF01681B790BAC018A
:1039700081E7D0CF0F931F93CF93DF938431F0F47F
:103980008A01D62FC82F0E94EA26833051F0843056
:10399000A9F46C2FC801DF91CF911F910F910C9466
:1039A00010148EEF8C0F823148F4A8016D2F8C2FEC
:1039B000DF91CF911F910F910C94C127DF91CF918F
:1039C0001F910F91089508953FB7F8948091A9042D
:1039D0009091AA04A091AB04B091AC0426B5A89B29
:1039E00005C02F3F19F00196A11DB11D3FBFBA2F91
:1039F000A92F982F8827820F911DA11DB11DBC01F1
:103A0000CD0142E0660F771F881F991F4A95D1F7B5
:103A100008958F929F92AF92BF92CF92DF92EF92D2
:103A2000FF926B017C01D0DF4B015C01C114D1041A
:103A3000E104F104F1F0C7DFC7DFDC01CB01881935
:103A40009909AA09BB09883E9340A105B10570F305
:103A500021E0C21AD108E108F10888EE880E83E05F
:103A6000981EA11CB11CC114D104E104F10421F77A
:103A7000DDCFFF90EF90DF90CF90BF90AF909F9001
:103A80008F9008958230910538F0880F991F880F24
:103A9000991F05970197F1F70895109294061092D7
:103AA0006B0610926A061092E1051092E0051092E2
:103AB00023061092DF0580E48093950608951F93F6
:103AC000CF93DF9300D000D0CDB7DEB78091D9057A
:103AD0008823D9F06091DC0580E051DE1091DC058F
:103AE000182380912606181781F0812F90E09C837F
:103AF0008B8380E93EDE42E050E0BE016D5F7F4F88
:103B000082E090E084DE109326068091DA05882317
:103B1000D9F06091DD0581E032DE1091DD051823DA
:103B200080912706181781F0812F90E09A8389836E
:103B300081E91FDE42E050E0BE016F5F7F4F82E00F
:103B400090E065DE109327060F900F900F900F9076
:103B5000DF91CF911F910895CF93DF9300D0CDB720
:103B6000DEB77A836983803170F46115704458F44C
:103B7000806EFFDD42E050E0BE016F5F7F4F82E06C
:103B800090E045DE06C08FEFF4DD8FEFF2DD8FEFC2
:103B9000F0DD0F900F90DF91CF9108951F93CF9399
:103BA000DF9300D000D000D0CDB7DEB712EF8EE0AB
:103BB000810F163030F50E94EA26823011F5212F50
:103BC00030E080915D0390E0012E02C095958795CD
:103BD0000A94E2F780FF15C086E0E5E2F1E0DE013D
:103BE000119601900D928A95E1F7E1E0F0E0EC0F7B
:103BF000FD1FE20FF31F80810E949D27BC01812FD2
:103C0000ABDF1F5F163099F626960FB6F894DEBF2D
:103C10000FBECDBFDF91CF911F910895EF92FF921C
:103C20000F931F93CF93DF93D82F8B01C42FF22EC6
:103C30006F3F7F4F71F08D2F2AD9802F4DD98F2D57
:103C400030D980915B0390915C03009721F01ADFDB
:103C500002C000E010E06C2F8D2F0CD9EC2EF12C5F
:103C600066D9E816F9060CF062D9D093E205009304
:103C7000E3055DD9892B61F462E06C0F42EE55E0FB
:103C800087E7DF91CF911F910F91FF90EF9042CE88
:103C900002EE15E0C801825E95408E159F0564F71F
:103CA0004ED9F801828343D90F5F1F4F892B91F7BB
:103CB000E3CFCF93C0E08EEE8C0F823028F466E025
:103CC00070E08C2F0E94F026CF5FC431A1F781E015
:103CD00080935A03CF91B8C81F93CF93DF938091FD
:103CE0009602909197029C012F5F3F4F309397026D
:103CF0002093960220919802309199022817390753
:103D00000CF057C08091940290919502892B09F490
:103D100050C08091930290E00E949A0EBC01909155
:103D20009302492F50E0FA01E45BFA4FD081FA0187
:103D3000EA5BFA4FC081109297021092960290931C
:103D400092029F5F9093930220919402309195028A
:103D5000215031094217530714F010929302672B38
:103D600041F59091410580914205890F909143055D
:103D7000890F90914405890F11E0909145058913B1
:103D800001C010E080EFF5DC85E6F3DC8D2FF1DC7F
:103D90008C2FEFDCC1E4D5E08991EBDC85E0C53404
:103DA000D807D1F7812FE5DC87EFDF91CF911F9105
:103DB000E0CCDF91CF911F910895CF93DF93809155
:103DC0004D0390914E039C012F5F3F4F30934E0364
:103DD00020934D0320914B0330914C032817390752
:103DE0000CF040C010924E0310924D03809151038D
:103DF00090915203892BB1F180914903B4D8EC0121
:103E00002091490330914A0320934803C901019648
:103E100090934A03809349038091510390915203F8
:103E200001972817390724F010924A03109249038A
:103E300080EF9FDC83E69DDCE0914803F0E0E053F7
:103E4000FA4F808196DC8C2F8F7793DCCE01880F20
:103E5000892F881F990B91958F778BDC87EFDF91E6
:103E6000CF9187CCDF91CF9108951F920F920FB61B
:103E70000F9211240F931F932F933F934F935F93B0
:103E80006F937F938F939F93AF93BF93EF93FF9322
:103E9000E09A0E94E12900911B0510911C052091D8
:103EA0001D0530911E05DC01CB01801B910BA20B7F
:103EB000B30B883C9105A105B10518F081E0809312
:103EC00054020E94E12960931B0570931C058093A6
:103ED0001D0590931E05FF91EF91BF91AF919F91AA
:103EE0008F917F916F915F914F913F912F911F9192
:103EF0000F910F900FBE0F901F9018951F920F9269
:103F00000FB60F9211240F931F932F933F934F934C
:103F10005F936F937F938F939F93AF93BF93EF9331
:103F2000FF93E19A0E94E12900911B0510911C0565
:103F300020911D0530911E05DC01CB01801B910BEA
:103F4000A20BB30B883C9105A105B10518F081E0E7
:103F5000809355020E94E12960931B0570931C0514
:103F600080931D0590931E05FF91EF91BF91AF9136
:103F70009F918F917F916F915F914F913F912F9181
:103F80001F910F910F900FBE0F901F90189584B73F
:103F9000877F84BFE0E6F0E080818861808388E0ED
:103FA00080830895CF92DF92EF92FF920F931F9339
:103FB000CF93DF93CDB7DEB7CD58D1090FB6F894C4
:103FC000DEBF0FBECDBF80912A06893409F499C2A5
:103FD000893791F48091E0059091E105039708F00D
:103FE00078C580EFC6DB89E7C4DB82E0C2DB87E00F
:103FF000C0DB87EFBEDB6DC50091E005015089365F
:1040000009F41EC1D0F48F3509F47CC178F48D30E9
:1040100009F440C2813509F05CC580EFAADB82E576
:10402000A8DB81E0A6DB87EFA4DB53C5823609F469
:1040300095C1843609F4DDC14CC5863779F038F472
:104040008F3609F4CEC1803709F42EC142C58837B6
:1040500009F4DEC08A3709F402C13BC510912C0671
:1040600015FD37C50E94EA1480912B0620912C067D
:1040700026FB222720F991E02927912F987198306B
:1040800051F130F4911125C50E94471712E007C085
:10409000903109F43DC0983109F46DC01AC510176C
:1040A00090F4212F30E0F901E45DF94F808187958C
:1040B00088278795F901E55DF94F9081890F0E9466
:1040C0006C171E5FECCF81E00E94511783E191E0F5
:1040D0000197F1F7FEC440912E0660912D0606303F
:1040E00079F470E030E8439F600D711D1124409118
:1040F000300647954427479590912F06490F06C0F3
:10410000479544274795460F6FEF7FEF87DDE1C462
:10411000E0911C01E73024F084E691E020DCD9C472
:1041200090912E0630912D06063081F4632F70E0B9
:1041300040E8949F600D711D112490913006979571
:104140009927979540912F06940F06C09795992728
:104150009795930F6FEF7FEFEF5FE0931C0135E0D2
:10416000E302F0011124E459F94F808372836183E3
:1041700093832483AEC420911C0112163CF490E07A
:10418000622F022E000C770B35E00FC08FEF80936B
:104190001C019FC4349FF001359FF00D1124E45998
:1041A000F94F4081841739F09F5F492F50E0641721
:1041B000750784F790E085E0492F50E06417750794
:1041C0001CF19830F8F4FA0131968E9FD0018F9F40
:1041D000B00D1124A459B94F3C91849FF001859FE3
:1041E000F00D1124E459F94F308311964D915C91F3
:1041F00012975283418313963C91139733831496FD
:104200003C9134839F5FD8CF215020931C0161C41F
:10421000023080F020912C0680912B0690E040E83F
:10422000249F800D911D1124009721F090935C0331
:1042300080935B0380915A0381114BC43ADD49C4DA
:1042400080EF97DA8AE695DA12EF163010F4812FB4
:1042500001C08FE78EDA1F5F1630B9F737C480913F
:104260002C0620912B0630E070E8879F200D311D31
:10427000112430931E0120931D012115310509F4ED
:1042800028C488E290E0B9010E94AE2D70934C03DF
:1042900060934B0380ED97E0B9010E94AE2D7093BF
:1042A00099026093980215C4053008F412C4109165
:1042B0002B068EEF810F823108F00BC4E12FF0E066
:1042C000EA56F94F8081843009F403C480912F06A7
:1042D00040912E0650E090E8899F400D511D112419
:1042E00080912D0660912C0670E0E0E88E9F600DB5
:1042F000711D1124812F0E94391364E070E0812F19
:104300006FD5E7C390912B0680912C0691111BC0AD
:104310009091300620912F0630E0F0E89F9F200D0D
:10432000311D1124032E000C440B550B90912E06C9
:1043300060912D0670E0E0E89E9F600D711D1124D4
:104340000E947614C6C3913009F0C3C320E030E068
:10435000A90160E070E00E947614BBC32091510374
:1043600030915203263031050CF0B3C380912B06F7
:104370008093500390912C0690934F03F901EE0F18
:10438000FF1FEE0FFF1FE854FA4F60912E06409179
:104390002D0650E070E8679F400D511D1124052E39
:1043A000000C660B770B4083518362837383F901A2
:1043B000E053FA4F8083F901EE54FA4F90836CE09A
:1043C00070E00ED56CE070E080914F0309D58091CC
:1043D000510390915203019690935203809351039D
:1043E00078C344E650E060912C0680912B06C2DA37
:1043F00070C32091940230919502263031050CF063
:1044000045C080912B0690912C06492F50E04631F3
:10441000510531F441E0F901EE5AFA4F40830DC0E5
:104420004B30510531F44AE0F901EE5AFA4F40831E
:1044300004C085E791E093DA4CC3F901E45BFA4FDD
:104440008083F901EA5BFA4F90836FE070E0C8D493
:1044500080919402909195020E949A0E892B09F006
:1044600038C360919402709195026F5F7F4F709393
:1044700095026093940280919802909199020E9413
:10448000C22D709399026093980223C38AEA91E047
:1044900066DA1FC380912B06FE0131967F019FE7EC
:1044A00011929A95E9F78E3051F50E94EA1400E0D6
:1044B00011E0812F0E94471781E00E94511781115E
:1044C00005C0F701E00FF11D10830F5F1F5F1F375D
:1044D00081F780EF4ED98DE04CD98EE04AD9802FFC
:1044E00048D9670110E0C6018E199F09801791070E
:1044F0000CF0ECC2F60181916F013BD9F4CF853508
:1045000011F445DDE6C2811198C020912C062130BE
:1045100009F048C030912D0630932605E32FF0E0D6
:10452000EB51FE4F8081E82FF0E043E0F695E795F0
:104530004A95E1F7AF01440F551FE40FF51FB09600
:10454000482F477081E090E001C0880F4A95EAF754
:10455000809591819823918392818923828332303F
:1045600079F480915F038111B4C220935F03F894C2
:10457000E99A809169008860809369007894A9C263
:10458000333009F0A6C280915E038111A2C220934C
:104590005E03F894E89A80916900826080936900D4
:1045A000789497C2211195C240912E0650E060E0A8
:1045B00070E0FCE1440F551F661F771FFA95D1F795
:1045C00080912F0690E0A0E0B0E015E1880F991FE0
:1045D000AA1FBB1F1A95D1F7482B592B6A2B7B2B8F
:1045E0008091300690E0A0E0B0E00EE0880F991FC7
:1045F000AA1FBB1F0A95D1F7482B592B6A2B7B2B7F
:104600008091310690E0A0E0B0E027E0880F991F8C
:10461000AA1FBB1F2A95D1F7842B952BA62BB72B4E
:10462000209132062F77BC01CD01622B20E230E0D1
:1046300040912D060E9425054CC2873109F02DC1FD
:1046400080912C0681111DC0F0902D0600912E0640
:10465000F0E80F9F8001112480912F068F77082B9F
:1046600080EF87D88DE085D887E183D822E54FEFAA
:10467000B8018F2D0E944806882309F425C281E0E5
:1046800023C2813009F049C00091320610E020E0D9
:1046900030E065E1000F111F221F331F6A95D1F72B
:1046A0008091330690E0A0E0B0E07EE0880F991F93
:1046B000AA1FBB1F7A95D1F7082B192B2A2B3B2B4E
:1046C0008091340690E0A0E0B0E0E7E0880F991F09
:1046D000AA1FBB1FEA95D1F7082B192B2A2B3B2BBE
:1046E000809135068F77082B4091300670E8479F00
:1046F000A0011124809131068F77482B60912E06FE
:1047000080E8689FB001112480912F068F77682B75
:1047100080912D060E94820ADCC1823039F46091BA
:104720002E0680912D060E943509D3C1833009F0F1
:1047300079C0C0903606D12CE12CF12CF5E1CC0CDF
:10474000DD1CEE1CFF1CFA95D1F78091370690E036
:10475000A0E0B0E01EE0880F991FAA1FBB1F1A95AA
:10476000D1F7C82AD92AEA2AFB2A8091380690E094
:10477000A0E0B0E007E0880F991FAA1FBB1F0A95B1
:10478000D1F7C82AD92AEA2AFB2A809139068F77DD
:10479000C82A0091320610E020E030E085E1000FE9
:1047A000111F221F331F8A95D1F78091330690E0A5
:1047B000A0E0B0E04EE0880F991FAA1FBB1F4A95EA
:1047C000D1F7082B192B2A2B3B2B8091340690E034
:1047D000A0E0B0E057E0880F991FAA1FBB1F5A95B1
:1047E000D1F7082B192B2A2B3B2B809135068F777D
:1047F000082B4091300690E8499FA0011124809138
:1048000031068F77482B60912E06E0E86E9FB0014D
:10481000112480912F068F77682B80912D060E949E
:10482000100B57C1843039F460912E0680912D060B
:104830000E941C0C4EC1853039F460912E06809187
:104840002D060E949F0C45C18630F9F40091330675
:1048500010E02091320630E040913006F0E84F9FA2
:10486000A0011124809131068F77482B60912E068C
:1048700080E8689FB001112480912F068F77682B04
:1048800080912D060E94B10D24C1873009F021C10D
:1048900080912D060E94E00A1CC1893169F5809142
:1048A0002C06893009F015C1F0902D068F2D0E943D
:1048B0006C0F8E0100581F4F8CE0F80111928A9501
:1048C000E9F7C8010E94121180EF0E94B91B8DE028
:1048D0000E94B91B89E10E94B91B8F2D0E94B91B50
:1048E000F80180810E94B91BF80181810E94B91BE7
:1048F00087EF0E94B91BEDC0813209F092C0809110
:104900002C06863151F440912F064E5060912E06B0
:1049100080912D060E944C01DCC0823109F0D9C083
:104920008E0100581F4F8EE0F80111928A95E9F729
:10493000C8010E947C0180EF0E94B91B8DE00E949B
:10494000B91B81E20E94B91BF80180819181880F17
:10495000892F881F990B8F770E94B91BF8018081DE
:104960008F770E94B91BF80182819381880F892F6C
:10497000881F990B8F770E94B91BF80182818F776E
:104980000E94B91BF80184819581880F892F881FA7
:10499000990B8F770E94B91BF80184818F770E9451
:1049A000B91BF80186819781880F892F881F990B81
:1049B0008F770E94B91BF80186818F770E94B91BFF
:1049C000F80180859185880F892F881F990B8F7733
:1049D0000E94B91BF80180858F770E94B91BF801EE
:1049E00082859385880F892F881F990B8F770E9466
:1049F000B91BF80182858F770E94B91BF801848565
:104A00009585880F892F881F990B8F770E94B91B76
:104A1000F80184858F770E94B91B87EF0E94B91B2C
:104A200058C0833209F055C080912C06873081F43C
:104A300040912F06F0E84F9FA0011124809130068D
:104A4000482B60912E0680912D060E94171241C0BE
:104A50008A3009F03EC0CE0180589F4F0E94491213
:104A60006B017C0120E030E0A90124D687FF04C05F
:104A7000F7FAF094F7F8F094C701B6018CD6162F28
:104A8000072F80EF0E94B91B8DE00E94B91B83E2C3
:104A90000E94B91BC058DF4F8881C058D0400E9487
:104AA000B91B802F0E94B91B812F0E94B91B20E0E7
:104AB00030E048EC52E4C701B60189D76CD6862FA6
:104AC00064E60E94A22D892F0E94B91B87EF0E94E5
:104AD000B91BC357DF4F0FB6F894DEBF0FBECDBF73
:104AE000DF91CF911F910F91FF90EF90DF90CF90CA
:104AF00008951F93CF93DF93182FEB0180919506B4
:104B000090E068177907A0F0E0911905F0911A0577
:104B100081E0309799F0809329068091200590914B
:104B2000210509958091950690E0C817D90728F4CA
:104B3000C65DD94F188380E001C081E0DF91CF913D
:104B40001F910895CF92DF92FF920F931F93CF93FF
:104B5000DF93909194069923D9F0873F51F41092F6
:104B60009406DF91CF911F910F91FF90DF90CF902E
:104B700019CA6091E0057091E105BBDF8091E00505
:104B80009091E10501969093E1058093E0051AC1AB
:104B900060916A0670916B066115710509F4D9C0C0
:104BA00087FDD7C06150710970936B0660936A06E8
:104BB000A0DF80916A0690916B06892B09F002C1F3
:104BC0008091DF05882309F4FDC0803D09F4B4C05D
:104BD00030F4803901F1803C09F48FC0B7C0843FC4
:104BE000E9F1853F09F479C0803E09F0AFC08091BA
:104BF0002B06877040912A064F7750E090E8899FF6
:104C0000400D511D112460912C066F778091230671
:104C10000E94BA1C9BC080912A0600912B0610E0CE
:104C200090E8899F000D111D1124F0902306FF0CC0
:104C3000FF0CFF0CC0E0D0E0CC24C394D12CB60113
:104C40008C2F0C2E01C0660F0A94EAF760238F0D9B
:104C500017D12196C830D10591F778C0D0912A0696
:104C60000D2F10E0C0912B068C2FB4D08F3709F494
:104C70006DC08EEF8C0F8231E8F4EC2FE695E6954F
:104C8000E6952C2F2770F0E0E452FA4F81E090E097
:104C900001C0880F2A95EAF70115110519F00B30AC
:104CA000110521F49081892B808304C08095908127
:104CB00089238083B8018C2F93D0D23009F046C06D
:104CC000CE5081E090E001C0880FCA95EAF790913C
:104CD0005D03892B80935D0339C0C0912B068EEF55
:104CE0008C0F823198F5D0912A068C2F73D08130A9
:104CF00069F56D2F8C2FC4D029C040912306463012
:104D000028F580912A0650915D0381110BC081E046
:104D100090E001C0880F4A95EAF78095852380933B
:104D20005D0314C021E030E001C0220F4A95EAF78C
:104D3000252B20935D030AC0E0912306E33030F475
:104D4000F0E0E752FA4F80912A0680831092DF0547
:104D500039C0803F28F4982F9F7090932306807F5E
:104D6000803EB1F038F4803C29F1803D19F1803962
:104D700049F517C0843FA9F0853F99F0803F11F5B0
:104D800081E0809394061092E1051092E0051AC02C
:104D900023E030E030936B0620936A068093DF05B2
:104DA00011C022E030E030936B0620936A068093B6
:104DB000DF0508C021E030E030936B0620936A06DF
:104DC0008093DF05DF91CF911F910F91FF90DF90CE
:104DD000CF900895E82FF0E0EA56F94F80810895CA
:104DE00090E0FC01EA56F94F20812F3709F447C0C3
:104DF00060836115710521F06130710511F108952D
:104E0000FC01E35CFD4F8081E82FF0E033E0F69594
:104E1000E7953A95E1F79F01220F331FE20FF31F49
:104E2000B096282F277081E090E001C0880F2A9566
:104E3000EAF78095918198239183928189238283D7
:104E40000895FC01E35CFD4FE0818E2F877001C067
:104E5000660F8A95EAF7F0E083E0F695E7958A9584
:104E6000E1F7CF01880F991FE80FF91FB096862F41
:104E700080959281892382838181682B6183089543
:104E8000E82FF0E0E35CFD4FE0819E2F977021E07A
:104E900030E0A90102C0440F551F9A95E2F7CA01FC
:104EA000F0E093E0F695E7959A95E1F79F01220FE0
:104EB000331FE20FF31FB096282F20953281322343
:104EC00032833181382B3183662321F09281892B03
:104ED000828308958281282322830895E82FF0E0B9
:104EE000E35CFD4FE0812E2F277081E090E001C050
:104EF000880F2A95EAF7F0E093E0F695E7959A9502
:104F0000E1F79F01220F331FE20FF31FDF0190969D
:104F1000982F909511962C911197292311962C93E7
:104F2000119712962C911297922312969C9390A10E
:104F3000982381E009F480E0089590917A009064CC
:104F400090937A0090917A0094FFFCCF85FF02C085
:104F500090E203C090917B009F7D90937B008F71C6
:104F6000806480937C0080917A00806480937A00D2
:104F700080917A0086FDFCCF809178009091790035
:104F800008953F924F925F926F927F928F929F927D
:104F9000AF92BF92CF92DF92EF92FF920F931F9347
:104FA000CF93DF93C82FD0E0FE01E35CFD4F00817B
:104FB000902F977021E030E0690101C0CC0C9A95E8
:104FC000EAF710E073E0169507957A95E1F7F80196
:104FD000EE0FFF1F0E0F1F1F005E1F4F3C2C309463
:104FE000F80192819321928391819C299183B4E06D
:104FF000CC0FDD1FBA95E1F7662319F0643639F45A
:1050000061E03EDFC05ADC4F1F861E8678C0FE017D
:10501000E05AFC4F88EC90E09387828787E390E02A
:10502000958784874115510539F053874287378723
:1050300026873783268304C0178616861782168232
:10504000E62EF12CC05ADC4FFD86EC862A853B8586
:10505000032E000C440B550B60E970ED83E090E0EB
:10506000C6D549015A01F1E08F1A9108A108B1088B
:10507000C501B401BED320E030E048EC52E41ED3B9
:105080002B013C01B7010F2C000C880B990BB1D3FD
:105090009B01AC01C301B2019AD4FCD477D32B019C
:1050A0003C0179836883C501B401A3D320E030E0DB
:1050B00048EC52E403D34B015C0164E670E06E19E6
:1050C0007F09072E000C880B990B93D39B01AC0131
:1050D000C501B4017CD4DED459D37B836A835D825D
:1050E0004C82198618868E819F81F801892B21F0C8
:1050F0008281C82AC28203C0828138223282E0E6DD
:10510000F3E080E090E020E030E0468557854130D4
:10511000510541F4DC01AA0FBB1FA655B94F2D93D1
:105120003C9301962F5F3F4F70962431310569F70C
:105130009093A1048093A004F89410929000109290
:105140009100109295001092940081E090E090936D
:1051500099008093980080919100886080939100DD
:105160008091910081608093910080919100826094
:105170008093910080917100846080937100789495
:10518000DF91CF911F910F91FF90EF90DF90CF9023
:10519000BF90AF909F908F907F906F905F904F9057
:1051A0003F9008951F920F920FB60F9211244F92C5
:1051B0005F927F928F929F92AF92BF92CF92DF9237
:1051C000EF92FF920F931F932F933F934F935F9311
:1051D0006F937F938F939F93AF93BF93CF93DF93FF
:1051E000EF93FF930E94B31B882361F08091A20488
:1051F0009091A30401969093A3048093A2040E942B
:10520000BC1BF0CF4090AA065090AB068090A00443
:105210009090A1049AEAA92E96E0B92E8501E0E0CB
:10522000F0E0A201A4E0440F551FAA95E1F7E815AC
:10523000F9050CF054C0E801A991B9918E01BD01A6
:1052400084E0660F771F8A95E1F7CB01805A9C4F67
:105250007C01EC01288539852130310581F5CD01AE
:10526000835C9D4FEC017880872D90E0C3E096959C
:105270008795CA95E1F76C01CC0CDD1C8C0D9D1D4A
:105280008096E701EE80FF80D72DD7707D2EEC0150
:10529000EF2839F0FA8001C0220F7A94EAF72F291B
:1052A00007C0FA8001C0220F7A94EAF720952F21D7
:1052B0002A83CB01805A9C4FEC0119861886605ACC
:1052C0007C4F405A5C4FEB012C813D81EA018C817F
:1052D0009D81821793070CF02D013196A2CFFA0120
:1052E000E05AFC4F4481558120E030E061E070E0FD
:1052F00028153905F4F5F501819191915F01DC01E3
:10530000E4E0AA0FBB1FEA95E1F7FD01E05AFC4F6C
:10531000C481D581C41BD50BD583C483CD2B31F576
:10532000C681D781219719F4C281D38102C0C0817F
:10533000D181D583C483A05ABC4F1696CD91DC9100
:105340001797FC01FF2784E0EE0FFF1F8A95E1F716
:10535000E05AFC4F7187608781E090E0CD2B11F01F
:1053600080E090E017969C938E9316972F5F3F4FA7
:10537000BFCF5093990040939800109295001092DF
:105380009400FF91EF91DF91CF91BF91AF919F91E9
:105390008F917F916F915F914F913F912F911F91CD
:1053A0000F91FF90EF90DF90CF90BF90AF909F90C4
:1053B0008F907F905F904F900F900FBE0F901F9037
:1053C00018952FB7F8946091A5047091A604809168
:1053D000A7049091A8042FBF08951F920F920FB6B3
:1053E0000F9211242F933F938F939F93AF93BF936B
:1053F0008091A5049091A604A091A704B091A8045F
:105400003091A40423E0230F2D3720F40196A11D31
:10541000B11D05C026E8230F0296A11DB11D2093E2
:10542000A4048093A5049093A604A093A704B0932A
:10543000A8048091A9049091AA04A091AB04B09112
:10544000AC040196A11DB11D8093A9049093AA04F8
:10545000A093AB04B093AC04BF91AF919F918F9197
:105460003F912F910F900FBE0F901F90189587E6D8
:1054700090E00E94B4180E94751B0E948C1B882328
:10548000E1F30E94B21B789484B5826084BD84B538
:10549000816084BD85B5826085BD85B5816085BD2F
:1054A00080916E00816080936E00109281008091E7
:1054B000810082608093810080918100816080936F
:1054C0008100809180008160809380008091C10084
:1054D00084608093C1008091C00081608093C0008F
:1054E00087E880937A000E944D1D0E9461140E94FB
:1054F0008F1B8F3F2FEF920709F024DB0E945F1D67
:105500008091AD049091AE04009711F040E038C056
:1055100058DF6093D2067093D3068093D40690939D
:10552000D506C090D606D090D706E090D806F09069
:10553000D90620911D0130911E01890120E030E043
:10554000AB01BC014C195D096E097F0904171507F1
:105550002607370788F5D701C601800F911FA21FC4
:10556000B31F8093D6069093D706A093D806B09326
:10557000D9060E94DD1E0E946C1E0E94CE1D1CC01A
:10558000242F30E02817390734F4F901E155FB4F97
:1055900010824F5FF5CFC82F1092AE041092AD0469
:1055A0000FEA14E0D0E0DC1708F0B2CFF8018191E7
:1055B0008F01C8DADF5FF7CF8091550281110DC0EE
:1055C00080915402882309F492CF83E00E94E5037E
:1055D0000E94C902109254028ACF82E00E94E50321
:1055E0000E94C9021092550282CF5058BB27AA27A9
:1055F0000ED0B3C1A4D130F0A9D120F031F49F3F37
:1056000011F41EF499C10EF4E095E7FB8FC1E92F68
:10561000B5D180F3BA17620773078407950718F0AE
:1056200071F49EF5CDC10EF4E0950B2EBA2FA02D8E
:105630000B01B90190010C01CA01A0011124FF273F
:10564000591B99F0593F50F4503E68F11A16F0403A
:10565000A22F232F342F4427585FF3CF4695379539
:105660002795A795F0405395C9F77EF41F16BA0BFE
:10567000620B730B840BBAF09150A1F0FF0FBB1FAC
:10568000661F771F881FC2F70EC0BA0F621F731FF5
:10569000841F48F4879577956795B795F7959E3F52
:1056A00008F0B3CF9395880F08F09927EE0F9795E0
:1056B0008795089517D108F481E008950CD04DC165
:1056C00045D140F03CD130F021F45F3F19F02EC1BC
:1056D000511177C131C152D198F39923C9F35523A0
:1056E000B1F3951B550BBB27AA27621773078407D5
:1056F00038F09F5F5F4F220F331F441FAA1FA9F38B
:1057000033D00E2E3AF0E0E830D091505040E6957C
:10571000001CCAF729D0FE2F27D0660F771F881FDD
:10572000BB1F261737074807AB07B0E809F0BB0BCC
:10573000802DBF01FF2793585F4F2AF09E3F5105F0
:1057400068F0F4C03EC15F3FECF3983EDCF3869511
:1057500077956795B795F7959F5FC9F7880F911D66
:105760009695879597F90895E1E0660F771F881F52
:10577000BB1F621773078407BA0720F0621B730B05
:10578000840BBA0BEE1F88F7E095089504D0689457
:10579000B11117C10895FAD088F09F5790F0B92F32
:1057A0009927B751A0F0D1F0660F771F881F991F76
:1057B0001AF0BA95C9F712C0B13081F001D1B1E049
:1057C0000895FEC0672F782F8827B85F39F0B93F5A
:1057D000CCF3869577956795B395D9F73EF4909578
:1057E0008095709561957F4F8F4F9F4F0895E894F6
:1057F00009C097FB3EF490958095709561957F4F19
:105800008F4F9F4F9923A9F0F92F96E9BB279395C6
:10581000F695879577956795B795F111F8CFFAF4D6
:10582000BB0F11F460FF1BC06F5F7F4F8F4F9F4F07
:1058300016C0882311F096E911C0772321F09EE865
:10584000872F762F05C0662371F096E8862F70E0CB
:1058500060E02AF09A95660F771F881FDAF7880FA5
:105860009695879597F90895E894F92F96EBFF237D
:1058700081F0121613061406440B9395F69587953E
:105880007795679557954040FF23B9F71BC0992737
:105890000895882351F49850D2F7872B762F652FDF
:1058A000542F432F322F20E0B1F3121613061406A3
:1058B000440B88233AF09A95440F551F661F771FB3
:1058C000881FCAF755234AF4440F551F11F460FF8F
:1058D00004C06F5F7F4F8F4F9F4F880F96958795BE
:1058E00097F90895990F0008550FAA0BE0E8FEEF0D
:1058F00016161706E807F907C0F012161306E40794
:10590000F50798F0621B730B840B950B39F40A268C
:1059100061F0232B242B252B21F408950A2609F46A
:10592000A140A6958FEF811D811D089597F99F676E
:1059300080E870E060E008959FEF80EC0895002417
:105940000A941616170618060906089500240A94E4
:1059500012161306140605060895092E0394000C6A
:1059600011F4882352F0BB0F40F4BF2B11F460FFF9
:1059700004C06F5F7F4F8F4F9F4F089557FD905822
:10598000440F551F59F05F3F71F04795880F97FB03
:10599000991F61F09F3F79F08795089512161306BD
:1059A0001406551FF2CF4695F1DF08C016161706EC
:1059B0001806991FF1CF8695710561050894089521
:1059C000E894BB2766277727CB0197F908950BD07A
:1059D000C4CFB5DF28F0BADF18F0952309F0A6CFC1
:1059E000ABCF1124EECFCADFA0F3959FD1F3950F73
:1059F00050E0551F629FF001729FBB27F00DB11D53
:105A0000639FAA27F00DB11DAA1F649F6627B00DE2
:105A1000A11D661F829F2227B00DA11D621F739FCB
:105A2000B00DA11D621F839FA00D611D221F749FD9
:105A30003327A00D611D231F849F600D211D822F20
:105A4000762F6A2F11249F5750408AF0E1F0882367
:105A50004AF0EE0FFF1FBB1F661F771F881F915074
:105A60005040A9F79E3F510570F060CFAACF5F3F2D
:105A7000ECF3983EDCF3869577956795B795F795A7
:105A8000E7959F5FC1F7FE2B880F911D969587952F
:105A900097F908957BDFE0F09E37D8F09639B8F497
:105AA0009E3848F4672F782F8827985FF9CF86951E
:105AB0007795679593959539D0F3B62FB1706B0FA5
:105AC000711D811D20F4879577956795939502C088
:105AD0001CC077CF882371F4772321F09850872B4F
