:1000000044C1000073C1000071C100006FC1000055
:100010006DC100006BC1000069C1000067C1000034
:1000200065C100000C943C120C943C120C943C12E0
:100030005DC100005BC1000059C1000057C1000054
:1000400055C100000C94A81451C100004FC100001C
:100050004DC100004BC1000049C100000C94DD0DF2
:1000600045C100000C9413120C94EA113FC100002A
:100070003DC100003BC1000039C1000037C1000094
:100080000C947A1433C1000031C100002FC100006C
:100090000C94C1110C94981129C100000C944612C3
:1000A00025C1000023C100000C944C141FC10000A6
:1000B0001DC100001BC1000019C100000C941E14DA
:1000C00015C1000013C1000011C100000C946F1194
:1000D0000C9446110BC100000C941D110C94F410EB
:1000E00005C100007F038403890393039D03160465
:1000F000A703AF03B703C103CB03D503E403EE03A8
:100100001604F80302040C040D053205FB044A052D
:10011000630595058A05950595059505BD051C059D
:10012000710A840AF609840A300A840AD5097D090D
:10013000840A840A840A840A840A5D08840A3709C6
:10014000840AC109A60AA90A980A9C0AA20AE00A16
:10015000AD0AB10AB70ABB0ABF0AC50AC90ACD0A65
:10016000E00AD30AD70ADB0A000021002400270096
:100170002A002D00300033000101000004010701B6
:100180000A01000020002300260029002C002F0077
:1001900032000001000003010601090100002200F5
:1001A000250028002B002E00310034000201000041
:1001B000050108010B0105050505070508080808E4
:1001C000020202020A0A08080404040401010101EF
:1001D00001010101030303030303030304070707EA
:1001E0000C0C0C0C0C0C0C0C02020202060606068F
:1001F000060606060B0B0B0B0B0B0B0B010210205C
:10020000200808102040102040800201020108044C
:1002100002010102040810204080804020100804E0
:100220000201800402018040201008040201080439
:10023000020101020408102040800102040810207D
:10024000408000000A0B02090C0D0E080703040190
:10025000000000000000000000000000000000009E
:10026000000000000000000000000000000012116B
:10027000100000000000000000000000000000006E
:100280000000000000000000511B11241FBECFEF32
:10029000D1E2DEBFCDBF00E00CBF13E0A0E0B2E0D2
:1002A000EEE7FDE300E00BBF02C007900D92A23124
:1002B000B107D9F729E0A2E1B3E001C01D92A13E48
:1002C000B207E1F711E0C5E4D1E000E006C02197F4
:1002D0000109802FFE010E94811DC434D10780E0F6
:1002E0000807A9F70E94D6140C94BD1E89CEA82F2A
:1002F000B0E0AA57BC4F9C91292F30E0F901EE0FD6
:10030000FF1F2E0F3F1FF901EF51F74FE081F0E083
:100310009F01220F331FE20FF31FE05BF74F808135
:100320008F7B808380918403981306C0992379F092
:100330009150909384030BC0882349F0E09185038A
:10034000EF5FE0938503F0E0EF5EFC4F90838FEF6B
:100350008C9308959EEF980F943480F4E82FF0E08A
:10036000DF01AF58B84F9C91913041F4EE0FFF1F61
:10037000E954F84F608371830C948D0D0895CF93E9
:10038000803180F5409125045091260421E030E031
:10039000672B81F4B90102C0660F771F8A95E2F7D7
:1003A000CB01809590958423952390932604809388
:1003B000250418C0082E02C0220F331F0A94E2F74A
:1003C000242B352B30932604209325049091D603BB
:1003D000911108C0C82F0E94BE0DBC018C2FCF9177
:1003E0000C94830BCF9108958F929F92AF92BF92FE
:1003F000CF92DF92EF92FF920F931F93CF93DF93F1
:10040000893008F09AC0982F990F990F990F58E0EA
:10041000C52EC90E96E49C1510F446E4C42E8B013B
:10042000C82FCC0FCC0FCC0FDC2ED0E099249394A6
:100430005B01BB24DC1430F58EEF8D0D8434F8F4B1
:100440004D2D50E0FA01EF58F84F20812230B8F4DA
:10045000892D90E08A219B2188248394009709F4B8
:10046000812C7A01EE0CFF1C213009F056C0D929ED
:10047000F701E954F84F882D90E091838083990C1F
:10048000D394D8CFD0FF05C0602F61708C2F0E940D
:100490008D0DD1FF06C0602F627081E08C0F0E942D
:1004A0008D0DD2FF06C0602F647082E08C0F0E9419
:1004B0008D0DD3FF06C0602F687083E08C0F0E9403
:1004C0008D0DD4FF06C0602F607184E08C0F0E94F8
:1004D0008D0DD5FF06C0602F607285E08C0F0E94E5
:1004E0008D0DD6FF06C0602F607486E08C0F0E94D1
:1004F0008D0DD7FF22C0602F607887E08C0FDF91D1
:10050000CF911F910F91FF90EF90DF90CF90BF9010
:10051000AF909F908F900C948D0D892B09F4A8CFEC
:10052000F701E954F84F80819181019709F4A0CF38
:1005300062E08D2D0E94260D9BCFDF91CF911F9100
:100540000F91FF90EF90DF90CF90BF90AF909F9072
:100550008F9008958F929F92AF92BF92CF92DF9229
:10056000EF92FF920F931F93CF93DF93EB018634AB
:1005700008F068C1082F10E0F801EF58F84F90819B
:10058000933009F490C0943009F05CC182508434F7
:1005900008F051C1F801EA57FC4FE080F12C6701E7
:1005A000CC0CDD1C603282E078070CF042C077FD95
:1005B00005C0653B710524F4DB0104C0A0E001C067
:1005C000A4EBB0E0F601EE0DFF1DEF51F74F818176
:1005D00028E830E04901881A910887FD9394880C37
:1005E000991C880C991C092C000CAA08BB08828154
:1005F00028E532E0281B310987FD3395220F331F90
:10060000220F331FA901330F660B770B9A01AB0141
:10061000281939094A095B090E943E1D24EB30E084
:1006200040E050E00E94181D820E931EA41EB51ECD
:1006300001C04B01F601EE0DFF1DEF51F74F208178
:10064000203308F0F8C0318188E890E0831B9109DD
:1006500037FD9395880F991F880F991F8816990663
:1006600084F0828148E552E0481B510987FD53958B
:10067000440F551F440F551FC401481559050CF46C
:10068000CA010297880F991F4FB7F89430E0F9011B
:10069000EE0FFF1F2E0F3F1FF901E05BF74F928314
:1006A00081834FBFC8C0F82E8EEF800F8C3028F0AA
:1006B00084ED800F833008F0BEC061E08F2D0E9472
:1006C000260D209711F460E004C0CF3FD10529F436
:1006D00061E08F2D0E948D0DAEC0F801EE5BFD4FE5
:1006E000E4918E2F90E0FC013197E231F10508F0A2
:1006F0009DC08827EE58FF4F8F4F0C94811D84B505
:10070000806884BDC7BD97C084B5806284BDC8BD04
:1007100092C080918000806880938000D09389008F
:10072000C093880088C080918000806280938000A0
:10073000D0938B00C0938A007EC080918000886037
:1007400080938000D0938D00C0938C0074C0809102
:10075000B00080688093B000C093B3006CC08091FB
:10076000B00080628093B000C093B40064C08091F8
:100770009000806880939000D0939900C093980077
:100780005AC080919000806280939000D0939B002B
:10079000C0939A0050C08091900088608093900030
:1007A000D0939D00C0939C0046C08091A0008068BB
:1007B0008093A0008091A0008F7B8093A000D093B5
:1007C000A900C093A80037C08091A00080628093E8
:1007D000A000D093AB00C093AA002DC08091A000D0
:1007E00088608093A000D093AD00C093AC0023C07C
:1007F00080912001806880932001D0932901C093CB
:10080000280119C080912001806280932001D0933B
:100810002B01C0932A010FC0809120018860809332
:100820002001D0932D01C0932C0105C0C038D10503
:100830000CF04ECF48CF000F111FF801E954F84FCC
:10084000D183C083DF91CF911F910F91FF90EF90E3
:10085000DF90CF90BF90AF909F908F900895DB0175
:10086000909184039033A8F530918503682F70E050
:10087000332369F0E32FF0E0EF5EFC4F8081FB0152
:10088000EA57FC4F808331503093850307C0FB014A
:10089000EA57FC4F90839F5F90938403FB01EA57D4
:1008A000FC4F808190E09C01220F331F820F931F29
:1008B0001A161B0634F4141615061CF49A01AD0121
:1008C00004C020E639E040E252E08F51974F0C948B
:1008D00073138DE292E0C0C78F929F92BF92CF9226
:1008E000DF92EF92FF920F931F93CF93DF93C82E67
:1008F000D12CE601C251D94FFE01ED57FF4F908137
:100900009F3709F43AC1963041F49091D503992369
:1009100021F06630710509F016C17B01182F0EEF2A
:10092000080F0434F8F464307105E1F0F601EA5779
:10093000FC4F80818033B0F490E0FC01EE0FFF1F8C
:100940008E0F9F1FFC01EF51F74F808190E0FC015B
:10095000EE0FFF1F8E0F9F1FFC01E05BF74F8081A2
:1009600086FDF7C05AECB52EB10E8FE08B1550F016
:1009700061E070E082E0E816F10411F060E070E000
:100980008B2DFDDC043418F5E12FE695E695E69510
:10099000212F2770F0E0E551FC4FE114F10421F024
:1009A0008BE0E816F10449F481E090E001C0880F83
:1009B0002A95EAF79081892B09C081E090E001C077
:1009C000880F2A95EAF780959081892380834601D4
:1009D000880C991CF401E954F84F118210828CE0C4
:1009E000E816F10408F0A1C0F7018827EC57FF4F83
:1009F0008F4F0C94811D8FE08B1508F4BEC004341A
:100A000020F460E0812F0E94260DCD57DF4F8881B2
:100A10008F3709F4B2C082E086C0043408F0ADC05C
:100A200060E0812F0E94260DCD57DF4F88818F37E0
:100A300009F4A3C01882A1C0043408F09EC062E08B
:100A4000812F0E94260DCD57DF4F88818F3711F0FF
:100A50008BE08883F401E954F84F81E090E09183C2
:100A600080838BC0043408F088C0FE01ED57FF4F2F
:100A70008081833021F460E0812F0E948D0D61E040
:100A8000812FE4D7CD57DF4F88818F3709F475C0A8
:100A900081E049C00C3028F084ED810F833008F0EC
:100AA0006CC061E0812FD2D761E0812FCFD760E0A9
:100AB000812F0E948D0DCD57DF4F88818F3709F42C
:100AC0005CC083E030C0043408F057C0CD57DF4F1E
:100AD00088818F3711F084E08883F601EA57FC4F54
:100AE00080818F3FC9F190E0FC01EE0FFF1F8E0F58
:100AF0009F1FFC01EF51F74F808190E0FC01EE0F4A
:100B0000FF1F8E0F9F1FFC01E05BF74F808186FD6A
:100B100034C022C01451123080F5CD57DF4F888188
:100B20008F3759F186E0888328C081E492E0DF9115
:100B3000CF911F910F91FF90EF90DF90CF90BF90DA
:100B40009F908F9089C61092D5039FEF90930002DB
:100B5000E4CE812FCCDB06CF4FEF5FEF6FEF7FEF5F
:100B6000812FDF91CF911F910F91FF90EF90DF9038
:100B7000CF90BF909F908F9072CEDF91CF911F91B9
:100B80000F91FF90EF90DF90CF90BF909F908F904C
:100B900008950F931F93CF93DF9381E08093D60343
:100BA0008091D503882329F01092D5038FEF80938D
:100BB0000002E4EFF3E0CBEED3E0ACECB3E0119253
:100BC00019921D9283E0ED3FF807C9F706E813E09C
:100BD000C0E0DFEF8AEC8C0F803118F462E070E047
:100BE00006C08EEF8C0F843420F461E070E08C2F0F
:100BF00073DEF801D1938F01CF5FC63459F710929D
:100C000026041092250410928503109284031092FA
:100C1000D603DF91CF911F910F910895CF92DF926C
:100C2000EF92FF920F931F93CF93DF936C018B0191
:100C30007A01EC01C952DC4F888187FF04C0FB01B7
:100C40001182108224C02CE02C9DC0012D9D900D9E
:100C500011242881AC01420F511D27FD5A95209186
:100C6000E00830E04217530794F42881AC01420FAA
:100C7000511D27FD5A959A01FA01EE0FFF1F2E0F05
:100C80003F1FF901E05BF74F208126FD19C08881E5
:100C90008F5F88832CE02C9DC0012D9D900D112429
:100CA0002881AC01420F511D27FD5A952091E00883
:100CB00030E042175307B4F428812C303CF112C0C5
:100CC0002881820F911D27FD9A95FC01EE0FFF1FD1
:100CD0008E0F9F1FFC01E05BF74F808160E08F73F8
:100CE0001CD7D5CFF80180819181049680349C492E
:100CF00018F480E49CE904C0F80180819181049695
:100D0000F701918380838FEF888344C0F80140818D
:100D100051812881BC01620F711D27FD7A959B01CD
:100D2000FB01EE0FFF1F2E0F3F1FF901E05BF74F96
:100D300021813281240F351FF701318320832881DF
:100D4000AC01420F511D27FD5A959A01FA01EE0F91
:100D5000FF1F2E0F3F1FF901E05BF74F208126FF99
:100D600019C02881820F911D27FD9A95FC01EE0F75
:100D7000FF1F8E0F9F1FFC01E05BF74F808161E03A
:100D80008F73DF91CF911F910F91FF90EF90DF90C4
:100D9000CF90C3C6DF91CF911F910F91FF90EF903D
:100DA000DF90CF900895FF920F931F93CF93DF931F
:100DB0001F921F92CDB7DEB7082F10E0F801E55162
:100DC000FC4F9081F62EF92204531C4F411104C0B0
:100DD000F8019081F916F9F02F2D30E03A8329833C
:100DE000A0912E07B0912F07109799F0682F6F7080
:100DF0006069ED91FC9111970190F081E02DCD019A
:100E0000199542E050E0BE016F5F7F4F82E090E0B5
:100E1000D8D3F801F0820F900F90DF91CF911F91FE
:100E20000F91FF9008950F931F93CF93DF93893015
:100E300008F071C0282F30E0F901EC50FC4F6083BE
:100E4000672B09F468C0082FF901E551FC4F1081A8
:100E5000D22FDD0FDD0FDD0F8EEF8D0F843408F004
:100E60004AC010FF48C08D2F2DD6892B09F443C0EE
:100E7000C1E08FEF8D0F843440F411FF06C081E094
:100E80008D0F20D6892B09F038C012FF05C082E0F3
:100E90008D0F18D6892B99F513FF05C083E08D0FB0
:100EA00011D6892B71F514FF05C084E08D0F0AD689
:100EB000892B49F515FF05C085E08D0F03D6892BD9
:100EC00021F5D03481F016FF05C086E08D0FFAD5EC
:100ED000892BE9F4DF3339F017FF05C087E08D0F68
:100EE000F1D5892BB1F441E06C2F802FDF91CF91A8
:100EF0001F910F9158CFC0E0BCCFC260C6CFC46075
:100F0000CBCFC860D0CFC061D5CFC062DACFC064CC
:100F1000E1CFC068E8CFDF91CF911F910F91089585
:100F2000EF92FF920F931F93CF93DF93D82F8B01F4
:100F3000C42FF22E6F3F8FEF7807F1F081E080939E
:100F40005604D0937804109257041092790484E4E4
:100F500098E00E94C0108F2DBCD4809182039091A4
:100F600083038230910550F0880F991F880F991FD5
:100F700005970197F1F702C000E010E08091550459
:100F80008111FCCF9C2FC13208F090E281E0809368
:100F90005504809354042FEF20935304109252046D
:100FA000290F2093510480933004809130042D2F19
:100FB000220F822B8093300480912F04813061F4C2
:100FC00010922F04809130048093BB008091BC006C
:100FD00083FDF8CF85EC01C085EE8093BC00809145
:100FE00055048130E1F380915204891710F49091F7
:100FF0005204E1E3F4E0A6E7B9E080E0891721F0CC
:1010000021912D938F5FFACF1092970980939609C3
:101010002C2F30E090E02817390724F482E592E085
:101020001BD40BC08217930744F48FE692E014D4CC
:10103000C091960980919709C81BD09342030093F1
:10104000430302E413E0EC2EF12CC80182549340D8
:101050008E159F057CF40F5F1F4F9091960980912C
:101060009709981739F084E498E00E947810F80105
:101070008183EBCFCE5F6C2F70E042E453E087E7D3
:10108000DF91CF911F910F91FF90EF909BC3EF9253
:10109000FF920F931F93CF93DF9390E0FC01E956EB
:1010A000F109E231F10508F02FC2EA01162F882775
:1010B000E057FF4F8F4F0C94811D2981922F98711B
:1010C00025FF03C08BE892E057C0888131E026FB02
:1010D000222720F92327983059F160F4911114C286
:1010E0003093560480937804109257041092790438
:1010F00002E006C09031D1F1983109F46BC004C20E
:10110000011778F4FE01E00FF11D618167956627F4
:1011100067958081680F84E498E00E94C0100E5F9C
:10112000EFCF81E0D6D383E191E00197F1F7ECC1F5
:101130004B816A81163069F470E030E8439F600D9E
:10114000711D11244D814795442747959C81490F76
:1011500006C0479544274795460F6FEF7FEFDF9115
:10116000CF911F910F91FF90EF90DACEE0910002A6
:10117000E7304CF08BEA92E0DF91CF911F910F9115
:10118000FF90EF9069C39B813A81663071F4632FC1
:1011900070E0F0E89F9F600D711D11249D8197956F
:1011A000992797954C81940F06C097959927979505
:1011B000930F6FEF7FEFEF5FE093000235E0E30204
:1011C000F0011124E350FC4F808372836183938389
:1011D00024839AC12091000212163CF490E0622F01
:1011E000022E000C770B35E00FC08FEF80930002CA
:1011F0008BC1349FF001359FF00D1124E350FC4F5B
:101200004081841739F09F5F492F50E064177507BC
:1012100084F790E085E022C09830F8F4FA01319626
:101220008E9FD0018F9FB00D1124A350BC4F3C91D5
:10123000849FF001859FF00D1124E350FC4F308313
:1012400011964D915C9112975283418313963C9174
:101250001397338314963C9134839F5F492F50E05A
:1012600064177507CCF62150209300024DC16230FF
:1012700070F02981888190E0E0E82E9F800D911D1B
:101280001124009721F0909383038093820380912F
:10129000D503811139C1C0E08CEE8C0F823020F46F
:1012A00066E070E08C2F18DBCF5FC634A9F781E0D1
:1012B0008093D503109297091092960910925704C3
:1012C00010927904109255048093540410922F04C4
:1012D00084E1CDD285E1CBD28091B9008E7F80931D
:1012E000B9008091B9008D7F8093B90088E4809324
:1012F000B80085E48093BC0007C1653008F404C1E0
:1013000018818EEF810F843408F0FEC00981EA80D5
:10131000FB80CC81E12FF0E0EA57FC4F80818033E5
:10132000B0F490E0FC01EE0FFF1F8E0F9F1FFC0139
:10133000EF51F74F808190E0FC01EE0FFF1F8E0F01
:101340009F1FFC01E05BF74F808186FDD9C04F2DC8
:1013500050E0F0E8CF9F400D511D1124602F70E048
:1013600020E8E29E600D711D1124812F78DA64E07F
:1013700070E0812FDF91CF911F910F91FF90EF903F
:10138000ABCA623008F4C0C02981888190E030E89F
:10139000239F800D911D1124009711F481E090E0AE
:1013A0009093020280930102AFC0623008F4ACC097
:1013B000698170E0123091F08A81E0E88E9FC0016F
:1013C0001124682B792B133049F08B8190E090E445
:1013D000899F902D88271124682B792B8881DF9194
:1013E000CF911F910F91FF90EF90B4C880EF64D21E
:1013F0008CE662D2CEEF8CEC8C0F803128F482E048
:101400005BD28AE059D202C0CC3020F086ED8C0F3E
:10141000833020F483E050D288E04ED2C43420F4EC
:1014200084E04AD28EE048D28EEE8C0F823020F4D7
:1014300086E042D281E040D28FE73ED2CF5FC43413
:10144000D9F0C434C0F680E037D281E035D28BE0E9
:1014500033D281E031D281E02FD281E02DD2CBCFC7
:10146000662309F451C0C88180EF26D28EE624D2CB
:101470008C2F22D2C63440F087EFDF91CF911F919D
:101480000F91FF90EF9018C2D0E0FE01EF58F84F97
:10149000808112D2CC0FDD1F8E010954184FF80144
:1014A00080818F7709D2F801808191819C01207819
:1014B000232B31F0880F892F881F990B8F77FCD150
:1014C000C954D84F888199819C012227307C232BD5
:1014D00099F2990F880B990F982F881F8F77ECD16D
:1014E000CBCF80EFE9D18AE6E7D1CAECC03110F466
:1014F0008C2F01C08FE7E0D1CF5FC031B9F7BCCFEF
:10150000812F0E94770123CFDF91CF911F910F91FF
:10151000FF90EF90089590E0FC013197E231F105E2
:1015200008F04EC08827EE55FF4F8F4F0C94811D59
:10153000809180008F7703C0809180008F7D8093A1
:101540008000089580918000877FF9CF84B58F77E0
:1015500002C084B58F7D84BD08958091B0008F77DF
:1015600003C08091B0008F7D8093B000089580917A
:1015700090008F7707C0809190008F7D03C080918D
:101580009000877F8093900008958091A0008F77CE
:1015900007C08091A0008F7D03C08091A000877F4D
:1015A0008093A0000895809120018F7707C08091DB
:1015B00020018F7D03C080912001877F80932001CF
:1015C00008955F926F927F928F929F92AF92BF9297
:1015D000CF92DF92EF92FF920F931F93CF93DF93FF
:1015E0006A01DB015C90452B19F4CC24CA94DC2CF5
:1015F0007B013B01680E791EC0E0D0E000E010E006
:1016000087E0A82EB12C6E147F0409F445C00C1598
:101610001D0508F068C0470180912E0790912F07A3
:10162000F70161917F010C2E01C0660F0A94EAF761
:1016300065296F77DC01ED91FC910190F081E02D3F
:1016400019950F5F1F4FF401608170E0C5018C1B7D
:101650009D0B02C0759567958A95E2F7562E2196E7
:10166000C730D10580F2C016D106A1F080912E07B7
:1016700090912F07652D6F77DC01ED91FC91019022
:10168000F081E02D19950F5F1F4F551C5524551CF7
:101690002797E6CF8601B7CF209729F10C151D05B6
:1016A00010F580912E0790912F0761E070E001C046
:1016B000660FCA95EAF761506521DC01ED91FC9156
:1016C0000190F081E02DDF91CF911F910F91FF905C
:1016D000EF90DF90CF90BF90AF909F908F907F90D2
:1016E0006F905F901994DF91CF911F910F91FF90B0
:1016F000EF90DF90CF90BF90AF909F908F907F90B2
:101700006F905F9008951F93CF93DF931F921F9266
:10171000CDB7DEB7182F7A83698380912E07909119
:101720002F07009709F448C0DC01ED91FC911031BE
:1017300090F46115704478F4612F606E0190F0812F
:10174000E02D199542E050E0BE016F5F7F4F82E0CF
:1017500090E037DF31C00190F081E02D60EF199506
:1017600080912E0790912F07DC01ED91FC91019063
:10177000F081E02D6FE6199580912E0790912F074B
:10178000DC01ED91FC910190F081E02D612F199524
:1017900042E050E0BE016F5F7F4F82E090E011DFDA
:1017A00080912E0790912F07DC01ED91FC91019023
:1017B000F081E02D67EF19950F900F90DF91CF9199
:1017C0001F910895EF92FF920F931F93CF93DF9392
:1017D000C82F80912E0790912F070097B1F17A01C1
:1017E0008B01DC01ED91FC910190F081E02D60EF27
:1017F000199580912E0790912F07DC01ED91FC91B6
:101800000190F081E02D6C2F1995E7010E0D1F1D41
:10181000C017D10741F040E050E0BE0181E090E008
:10182000D0DE2196F5CF80912E0790912F07DC0115
:10183000ED91FC910190F081E02D67EFDF91CF9168
:101840001F910F91FF90EF901994DF91CF911F910D
:101850000F91FF90EF900895FC0101900020E9F7AF
:101860003197BF01681B790BAC0181E7ABCFCF93F8
:10187000DF93282F30E0F901EE5BFD4F8491F901F1
:10188000E450FE4FD491F901EA54FE4FC491CC23A9
:1018900081F0811140DEEC2FF0E0EE0FFF1FE456E7
:1018A000FE4FA591B4918FB7F894EC91ED2BEC938A
:1018B0008FBFDF91CF910895A0916C07B0916D0714
:1018C000ED91FC9111970190F081E02D682FCD01F1
:1018D0001994282F30917904313208F04AC0809150
:1018E00055048111FCCF9091780442E04093550457
:1018F000209354042FEF20935304109252043093FA
:101900005104E8E5F4E0A1E3B4E020E0321721F06F
:1019100041914D932F5FFACF109230042091300403
:10192000990F922B9093300490912F04913061F491
:1019300010922F04909130049093BB009091BC00C2
:1019400093FDF8CF95EC01C095EE9093BC0090917B
:1019500055049230E1F3909153049F3F79F08091C8
:101960005304803241F080915304803331F084E09D
:1019700005C081E003C082E001C083E010925704FB
:10198000109279041092560408951F93CF93DF9319
:10199000182FEB018091330790913407681779076E
:1019A000A8F0E0916007F091610781E03097C1F005
:1019B0008093300780914C0790914D071995809145
:1019C000330790913407C817D90748F4809131073D
:1019D00090913207C80FD91F188380E001C081E0C1
:1019E000DF91CF911F910895AC01FB0180E090E061
:1019F0009C01220F331F2417350770F4DB012C9153
:101A0000208311963C91379533273795232B2193CB
:101A100001966E5F7F4FECCF0895FC01A089B189DC
:101A20008C91A689B78982FD0FC09C91818D8F5FB3
:101A30008F73228D821749F0218DDF01A20FB11D16
:101A40005D969C93818F08958C910895CF93DF9339
:101A500090E0FC01E450FE4F2491FC01EA54FE4F5B
:101A60008491882361F190E0880F991FFC01E85967
:101A7000FE4FC591D491FC01E456FE4FA591B4915F
:101A8000611109C09FB7F8948881209582238883CB
:101A9000EC912E230BC0623061F49FB7F8948881DB
:101AA000322F309583238883EC912E2B2C939FBF6C
:101AB00006C08FB7F894E8812E2B28838FBFDF9163
:101AC000CF910895CF93DF93C82F60E0BFDF2C2F15
:101AD00030E0F901EE5BFD4F8491F901E450FE4FD7
:101AE000D491F901EA54FE4FC491CC2389F08111BD
:101AF00012DDEC2FF0E0EE0FFF1FEE57FE4FA59129
:101B0000B491EC91ED2381E090E021F480E002C0FB
:101B100080E090E0DF91CF9108951F93CF93DF9302
:101B2000C82F162F61E092DF2C2F30E0F901EE5B19
:101B3000FD4F8491F901E450FE4FD491F901EA542C
:101B4000FE4FC491CC23B1F08111E5DCEC2FF0E025
:101B5000EE0FFF1FE456FE4FA591B4919FB7F89486
:101B6000111104C08C91D095D82302C0EC91DE2BCA
:101B7000DC939FBFDF91CF911F910895863308F0CA
:101B8000865390917B00282F2870977F922B9093FB
:101B90007B008770806480937C0080917A008064F1
:101BA00080937A0080917A0086FDFCCF8091780046
:101BB0002091790090E0922B08951F920F920FB61A
:101BC0000F9211242F933F938F939F93AF93BF93C3
:101BD00080912B0490912C04A0912D04B0912E049F
:101BE0003091750923E0230F2D3720F40196A11DB4
:101BF000B11D05C026E8230F0296A11DB11D20933B
:101C0000750980932B0490932C04A0932D04B0931A
:101C10002E048091710990917209A0917309B0917D
:101C200074090196A11DB11D8093710990937209E9
:101C3000A0937309B0937409BF91AF919F918F9155
:101C40003F912F910F900FBE0F901F901895CF923C
:101C5000DF92EF92FF920F931F93CF93DF936C016C
:101C60007A018B01C0E0D0E0CE15DF0581F0D8010C
:101C70006D918D01D601ED91FC910190F081E02DE7
:101C8000C6011995892B11F02196EECF7E01C7016F
:101C9000DF91CF911F910F91FF90EF90DF90CF9048
:101CA0000895FC01538D448D252F30E0842F90E062
:101CB000821B930B541710F0CF9608950197089547
:101CC000FC01918D828D981761F0828DDF01A80F44
:101CD000B11D5D968C91928D9F5F9F73928F90E066
:101CE00008958FEF9FEF0895FC01918D828D9817D5
:101CF00031F0828DE80FF11D858D90E008958FEF12
:101D00009FEF0895FC01918D228D892F90E0805CDA
:101D10009F4F821B91098F73992708958AE794E05A
:101D2000F1DF21E0892B09F420E0822F089587E17B
:101D300095E0E8DF21E0892B09F420E0822F089567
:101D400084EB95E0DFDF21E0892B09F420E0822F8E
:101D5000089581E596E0D6DF21E0892B09F420E0A3
:101D6000822F0895FC01848DDF01A80FB11DA35AB5
:101D7000BF4F2C91848D90E001968F739927848FAB
:101D8000A689B7892C93A089B1898C9180648C93A2
:101D9000938D848D981306C00288F389E02D80818D
:101DA0008F7D80830895EF92FF920F931F93CF93BF
:101DB000DF93EC0181E0888F9B8D8C8D981305C09B
:101DC000E889F989808185FD23C0F62E0B8D10E00E
:101DD0000F5F1F4F0F731127E02E8C8DE8120BC081
:101DE0000FB607FCFACFE889F989808185FFF5CF26
:101DF000CE01B8DFF2CF8B8DFE01E80FF11DE35A63
:101E0000FF4FF0820B8FEA89FB898081806207C0D7
:101E1000EE89FF896083E889F98980818064808305
:101E200081E090E0DF91CF911F910F91FF90EF90B3
:101E30000895CF93DF93EC01888D8823C1F0EA8960
:101E4000FB89808185FD05C0A889B9898C9186FDB3
:101E50000EC00FB607FCF5CF808185FFF2CFA889B1
:101E6000B9898C9185FFEDCFCE017CDFE8CFDF9182
:101E7000CF91089580E090E0892B19F06ADF8111FD
:101E800016C080E090E0892B19F05ADF811112C052
:101E900080E090E0892B19F04ADF81110EC080E0CC
:101EA00090E0892B79F03ADF81110AC008950E94F1
:101EB0000000E7CF0E940000EBCF0E940000EFCFB0
:101EC0000C9400000895E091E903F091EA03309743
:101ED00009F019940895CF93DF93009729F1EC014D
:101EE000C05CDF4F888199810097F1F0DC01ED91B2
:101EF000FC910190F081E02D69EF1995888199811D
:101F0000DC01ED91FC910190F081E02D62E01995EA
:101F100088819981DC01ED91FC910190F081E02DA7
:101F200065E0DF91CF911994DF91CF9108950F93E0
:101F30001F93CF93DF93009709F44BC0FC01E05847
:101F4000FF4F2081222309F444C0EC01C05CDF4F25
:101F5000A881B9811097E9F1FC01EF57FF4F01907B
:101F6000F081E02D11810081ED91FC91119701909C
:101F7000F081E02D60EFCD01199588819981DC0118
:101F8000ED91FC910190F081E02D69E71995888130
:101F90009981DC01ED91FC910190F081E02D602FA1
:101FA000199588819981DC01ED91FC910190F08176
:101FB000E02D612F199588819981DC01ED91FC91CB
:101FC0000190F081E02D67EFDF91CF911F910F918C
:101FD0001994DF91CF911F910F910895862F642F4F
:101FE000E091E703F091E803309711F0A90119940B
:101FF00008950895862FE091DF03F091E003309774
:1020000011F0BA0119940895862FE091E103F0913F
:10201000E203309711F0BA0119940895862FE091E8
:10202000DB03F091DC03309711F0BA0119940895A5
:10203000862FE091DD03F091DE03309711F0BA01B5
:1020400019940895862FE091E303F091E40330970B
:1020500011F0BA0119940895862FE091E503F091EB
:10206000E603309711F0BA011994089585ED809335
:10207000BC008091BC0084FDFCCF109255040895F3
:102080004091B809262F30E0240F311D213231054F
:10209000DCF4209155042430C9F4FC0180E090E088
:1020A000861758F43091B8092191DC01A856B64F33
:1020B000A30FB11D2C930196F3CF8091B809680F3F
:1020C0006093B80980E0089581E0089582E0089562
:1020D0000895E091970980919609E81730F4F0E0AF
:1020E000EA58F64F808190E008958FEF9FEF0895B2
:1020F0009091970980919609981750F4E92FF0E094
:10210000EA58F64F208130E09F5F9093970902C014
:102110002FEF3FEFC90108958091960990E020913B
:102120009709821B91090895CF92DF92EF92FF9257
:102130000F931F93CF93DF937C01CB018A012091F2
:102140005604222389F0EB016B01C40ED51ECC1579
:10215000DD0561F06991D701ED91FC910190F0816D
:10216000E02DC7011995F3CF642F8ADFC801DF91F5
:10217000CF911F910F91FF90EF90DF90CF90089536
:10218000CF93DF931F92CDB7DEB7698320915604BA
:102190002223D1F020917904203240F021E030E078
:1021A000FC013383228380E090E014C080915704C7
:1021B000E82FF0E0E85AFB4F998190838F5F80937E
:1021C00057048093790404C061E0CE01019658DF82
:1021D00081E090E00F90DF91CF910895089580E025
:1021E00090E008950E94AA1E1F920F920FB60F92C0
:1021F00011240BB60F922F933F934F935F936F93DE
:102200007F938F939F93AF93BF93EF93FF938AE74F
:1022100094E0A8DDFF91EF91BF91AF919F918F91D5
:102220007F916F915F914F913F912F910F900BBED6
:102230000F900FBE0F901F9018951F920F920FB620
:102240000F9211240BB60F922F933F934F935F93EE
:102250006F937F938F939F93AF93BF93EF93FF936E
:102260008AE794E0DADBFF91EF91BF91AF919F9104
:102270008F917F916F915F914F913F912F910F902F
:102280000BBE0F900FBE0F901F9018951F920F92CC
:102290000FB60F9211240BB60F922F933F934F93CB
:1022A0005F936F937F938F939F93AF93BF93EF93BE
:1022B000FF9387E195E056DDFF91EF91BF91AF91DC
:1022C0009F918F917F916F915F914F913F912F914E
:1022D0000F900BBE0F900FBE0F901F9018951F927E
:1022E0000F920FB60F9211240BB60F922F933F93BC
:1022F0004F935F936F937F938F939F93AF93BF930E
:10230000EF93FF9387E195E088DBFF91EF91BF9119
:10231000AF919F918F917F916F915F914F913F917D
:102320002F910F900BBE0F900FBE0F901F9018951E
:102330001F920F920FB60F9211240BB60F922F938C
:102340003F934F935F936F937F938F939F93AF933D
:10235000BF93EF93FF9384EB95E004DDFF91EF9142
:10236000BF91AF919F918F917F916F915F914F91AD
:102370003F912F910F900BBE0F900FBE0F901F90AB
:1023800018951F920F920FB60F9211240BB60F9251
:102390002F933F934F935F936F937F938F939F936D
:1023A000AF93BF93EF93FF9384EB95E036DBFF9100
:1023B000EF91BF91AF919F918F917F916F915F91BD
:1023C0004F913F912F910F900BBE0F900FBE0F902A
:1023D0001F9018951F920F920FB60F9211240BB6F3
:1023E0000F922F933F934F935F936F937F938F93AE
:1023F0009F93AF93BF93EF93FF9381E596E0B2DC99
:10240000FF91EF91BF91AF919F918F917F916F91CC
:102410005F914F913F912F910F900BBE0F900FBE88
:102420000F901F9018951F920F920FB60F921124C4
:102430000BB60F922F933F934F935F936F937F93BE
:102440008F939F93AF93BF93EF93FF9381E596E0B4
:10245000E4DAFF91EF91BF91AF919F918F917F91BE
:102460006F915F914F913F912F910F900BBE0F9005
:102470000FBE0F901F9018951F920F920FB60F92DC
:1024800011240F900FBE0F901F9018951F920F925E
:102490000FB60F9211240BB60F922F933F934F93C9
:1024A0005F936F937F938F939F93AF93BF93EF93BC
:1024B000FF938091B900887F803609F49CC068F54D
:1024C000883209F45BC090F4803109F454C038F4C8
:1024D000882309F4F2C0883009F44DC0F1C0883176
:1024E00009F44CC0803209F45DC0EAC0803409F4BC
:1024F00068C048F4803309F455C0883309F0E0C05F
:1025000080935304D4C0803509F44FC0883509F452
:102510005DC0883409F0D4C0D2C0883909F4C3C082
:10252000A8F4883709F467C038F4883609F463C022
:10253000803709F460C0C4C0883809F4B4C0803959
:1025400009F45FC0803809F0BBC05BC0803B09F470
:1025500084C038F4803A09F466C0883A09F47DC032
:10256000AFC0803C09F4A3C0883C09F4A0C0883BFC
:1025700009F486C0A5C08091300410C09091520427
:1025800080915104981770F5E091520481E08E0F0C
:1025900080935204F0E0EF5CFB4F80818093BB009E
:1025A00085EC82C0809353048AC0E091520481E09C
:1025B0008E0F809352048091BB00F0E0EF5CFB4FE4
:1025C000808390915204809151046AC0E09152043A
:1025D00081E08E0F809352048091BB00F0E0EF5CAD
:1025E000FB4F808380915404811169C081E0809306
:1025F0002F0484EA5DC083E0809355041092DA09C9
:10260000CFCF8091DA09803208F04DC0E091DA092D
:1026100081E08E0F8093DA098091BB00F0E0E654F0
:10262000F64F8083BDCF85EC8093BC00109255049B
:102630008091DA09803230F4E091DA09F0E0E65472
:10264000F64F10826091DA0970E08AEB99E0E0E0E1
:10265000F0E019951092DA0933C084E080935504B4
:102660001092B9091092B809E0E0F0E01995809154
:10267000B809811105C081E08093B80910929809CA
:10268000E091B90981E08E0F8093B909F0E0E85636
:10269000F64F80818093BB009091B9098091B80971
:1026A000981708F47DCF85E88093BC0009C085ECBD
:1026B0008093BC001092550403C010925304D6DCE2
:1026C000FF91EF91BF91AF919F918F917F916F910A
:1026D0005F914F913F912F910F900BBE0F900FBEC6
:1026E0000F901F901895DF92EF92FF920F931F9318
:1026F000CF93DF93EC01D62E7A0189018881803354
:1027000008F067C061E08D2DA1D98881E82FF0E045
:102710009F01220F331FE20FF31FE05BF74F9D2D48
:102720009F732081207CD22ED92AD08220E232E0F1
:102730002E193F0937FF02C02D5F3F4F3595279572
:1027400035952795298320E639E0201B310B37FF8B
:1027500002C02D5F3F4F35952795359527952A83E4
:102760006CE00E94751D9CE0899FB001112440E03F
:1027700050E09B01240F351FF901EE0FFF1F2E0FB4
:102780003F1FF901E05BF74F908196FD16C04F5F48
:102790005F4F4C30510569F7813021F51092800070
:1027A00082E0809381001092850010928400B19A9B
:1027B00080916F00826080936F00E881F0E0CF012C
:1027C000880F991FE80FF91FE05BF74F8081806445
:1027D00080838881DF91CF911F910F91FF90EF90BF
:1027E000DF900895823061F4109290008093910000
:1027F000109295001092940088BB80937100DDCFF9
:10280000833069F41092A00082E08093A1001092BE
:10281000A5001092A40089BB80937200CECF8111D5
:10282000CCCF1092200182E08093210110922501EB
:10283000109224018ABB80937300BFCF1F920F9226
:102840000FB60F9211240BB60F922F933F934F9315
:102850005F936F937F938F939F93AF93BF93EF9308
:10286000FF9348E251E064E271E080E090E00E9472
:102870000E06FF91EF91BF91AF919F918F917F9144
:102880006F915F914F913F912F910F900BBE0F90E1
:102890000FBE0F901F9018951F920F920FB60F92B8
:1028A00011240BB60F922F933F934F935F936F9327
:1028B0007F938F939F93AF93BF93EF93FF9348EAD8
:1028C00050E064EA70E083E090E00E940E06FF9121
:1028D000EF91BF91AF919F918F917F916F915F9198
:1028E0004F913F912F910F900BBE0F900FBE0F9005
:1028F0001F9018951F920F920FB60F9211240BB6CE
:102900000F922F933F934F935F936F937F938F9388
:102910009F93AF93BF93EF93FF9348E950E064E92F
:1029200070E082E090E00E940E06FF91EF91BF916F
:10293000AF919F918F917F916F915F914F913F9157
:102940002F910F900BBE0F900FBE0F901F901895F8
:102950001F920F920FB60F9211240BB60F922F9366
:102960003F934F935F936F937F938F939F93AF9317
:10297000BF93EF93FF9348E850E064E870E081E094
:1029800090E00E940E06FF91EF91BF91AF919F9151
:102990008F917F916F915F914F913F912F910F9008
:1029A0000BBE0F900FBE0F901F901895789484B5B2
:1029B000826084BD84B5816084BD85B5826085BD3B
:1029C00085B5816085BD80916E00816080936E00C9
:1029D00010928100809181008260809381008091BB
:1029E000810081608093810080918000816080936C
:1029F00080008091B10084608093B1008091B0002C
:102A000081608093B00080919100826080939100FA
:102A1000809191008160809391008091900081600D
:102A2000809390008091A10082608093A1008091AA
:102A3000A10081608093A1008091A00081608093BB
:102A4000A000809121018260809321018091210169
:102A50008160809321018091200181608093200119
:102A600080917A00846080937A0080917A008260FD
:102A700080937A0080917A00816080937A008091BF
:102A80007A00806880937A001092C10083E180937D
:102A90006E0780916F07909170070E94211EC09170
:102AA0006E07D0E0CE0101960E94891D90937007B9
:102AB00080936F07FC01EC0FFD1F108212E0DC0118
:102AC0001C9327E011962C93AE014250510960E00F
:102AD00073E002960E94AE1E8AEA92E09093E603AB
:102AE0008093E50384EF91E09093E4038093E30304
:102AF0008FEB91E09093E2038093E10383E197E011
:102B00009093E0038093DF038CE694E09093DE03E0
:102B10008093DD038AEA91E09093DC038093DB03EA
:102B200087E498E09093E8038093E70389EC95E0CD
:102B30009093EA038093E90321E536E0E091610692
:102B4000F09162061083E0915D06F0915E061082BE
:102B5000E0915F06F091600680E180831092690643
:102B6000E0916506F091660686E08083E091630659
:102B7000F0916406808180618083E0916306F0912A
:102B80006406808188608083E0916306F09164062A
:102B9000808180688083E0916306F0916406808183
:102BA0008F7D808330936D0720936C0730932F07C0
:102BB00020932E070E94C905D5E0DD24D39402E0BE
:102BC00010E0EE24E394F12C8091F4038823C1F10A
:102BD000C090EB03C2FEDDC482E00E94620D892B2F
:102BE00009F4D7C4C4E0C3FE06C083E00E94620DAE
:102BF000892B09F0D0C4C4FE06C084E00E94620D97
:102C0000892B09F0CAC4C5FE06C085E00E94620D8A
:102C1000892B09F0C4C4C6FE06C086E00E94620D7E
:102C2000892B09F0BEC4C7FE06C087E00E94620D72
:102C3000892B09F0B8C440E06C2F80E00E94D306D5
:102C40008091F503882309F448C0C090EC03C0FECE
:102C5000ACC488E00E94620D892B09F4A6C4C1E0CF
:102C6000C1FE06C089E00E94620D892B09F09FC455
:102C7000C2FE06C08AE00E94620D892B09F099C449
:102C8000C3FE06C08BE00E94620D892B09F093C43D
:102C9000C4FE06C08CE00E94620D892B09F08DC431
:102CA000C5FE06C08DE00E94620D892B09F087C425
:102CB000C6FE06C08EE00E94620D892B09F081C419
:102CC000C7FE06C08FE00E94620D892B09F07BC40D
:102CD00040E06C2F81E00E94D3068091F6038823A8
:102CE00009F448C0C090ED03C0FE6FC480E10E94AB
:102CF000620D892B09F469C4C1E0C1FE06C081E1FF
:102D00000E94620D892B09F062C4C2FE06C082E1F6
:102D10000E94620D892B09F05CC4C3FE06C083E1EA
:102D20000E94620D892B09F056C4C4FE06C084E1DE
:102D30000E94620D892B09F050C4C5FE06C085E1D2
:102D40000E94620D892B09F04AC4C6FE06C086E1C6
:102D50000E94620D892B09F044C4C7FE06C087E1BA
:102D60000E94620D892B09F03EC440E06C2F82E086
:102D70000E94D3068091F703882309F448C0C090CD
:102D8000EE03C0FE32C488E10E94620D892B09F473
:102D90002CC4C1E0C1FE06C089E10E94620D892BEE
:102DA00009F025C4C2FE06C08AE10E94620D892B8B
:102DB00009F01FC4C3FE06C08BE10E94620D892B7F
:102DC00009F019C4C4FE06C08CE10E94620D892B73
:102DD00009F013C4C5FE06C08DE10E94620D892B67
:102DE00009F00DC4C6FE06C08EE10E94620D892B5B
:102DF00009F007C4C7FE06C08FE10E94620D892B4F
:102E000009F001C440E06C2F83E00E94D30680915A
:102E1000F803882309F448C0C090EF03C0FEF5C34F
:102E200080E20E94620D892B09F4EFC3C1E0C1FE6C
:102E300006C081E20E94620D892B09F0E8C3C2FE40
:102E400006C082E20E94620D892B09F0E2C3C3FE34
:102E500006C083E20E94620D892B09F0DCC3C4FE28
:102E600006C084E20E94620D892B09F0D6C3C5FE1C
:102E700006C085E20E94620D892B09F0D0C3C6FE10
:102E800006C086E20E94620D892B09F0CAC3C7FE04
:102E900006C087E20E94620D892B09F0C4C340E09E
:102EA0006C2F84E00E94D3068091F903882309F4F3
:102EB00048C0C090F003C0FEB8C388E20E94620D13
:102EC000892B09F4B2C3C1E0C1FE06C089E20E94A9
:102ED000620D892B09F0ABC3C2FE06C08AE20E94D4
:102EE000620D892B09F0A5C3C3FE06C08BE20E94C8
:102EF000620D892B09F09FC3C4FE06C08CE20E94BC
:102F0000620D892B09F099C3C5FE06C08DE20E94AF
:102F1000620D892B09F093C3C6FE06C08EE20E94A3
:102F2000620D892B09F08DC3C7FE06C08FE20E9497
:102F3000620D892B09F087C340E06C2F85E00E9469
:102F4000D3068091FA03882309F448C0C090F103A6
:102F5000C0FE7BC380E30E94620D892B09F475C318
:102F6000C1E0C1FE06C081E30E94620D892B09F019
:102F70006EC3C2FE06C082E30E94620D892B09F077
:102F800068C3C3FE06C083E30E94620D892B09F06B
:102F900062C3C4FE06C084E30E94620D892B09F05F
:102FA0005CC3C5FE06C085E30E94620D892B09F053
:102FB00056C3C6FE06C086E30E94620D892B09F047
:102FC00050C3C7FE06C087E30E94620D892B09F03B
:102FD0004AC340E06C2F86E00E94D3068091FB0339
:102FE000882309F448C0C090F203C0FE3EC388E3C2
:102FF0000E94620D892B09F438C3C1E0C1FE06C0EE
:1030000089E30E94620D892B09F031C3C2FE06C01C
:103010008AE30E94620D892B09F02BC3C3FE06C010
:103020008BE30E94620D892B09F025C3C4FE06C004
:103030008CE30E94620D892B09F01FC3C5FE06C0F8
:103040008DE30E94620D892B09F019C3C6FE06C0EC
:103050008EE30E94620D892B09F013C3C7FE06C0E0
:103060008FE30E94620D892B09F00DC340E06C2FA5
:1030700087E00E94D3068091FC038823C1F1C090B1
:10308000F303C0FE02C380E40E94620D892B09F4A1
:10309000FCC2C1E0C1FE06C081E40E94620D892B22
:1030A00009F0F5C2C2FE06C082E40E94620D892BBF
:1030B00009F0EFC2C3FE06C083E40E94620D892BB3
:1030C00009F0E9C2C4FE06C084E40E94620D892BA7
:1030D00009F0E3C2C5FE06C085E40E94620D892B9B
:1030E00009F0DDC240E06C2F88E00E94D306809199
:1030F0006C0790916D07DC01ED91FC910084F185E6
:10310000E02D1995892B09F4CEC180916C0790911F
:103110006D07DC01ED91FC910284F385E02D19959A
:103120009C018F3FBFEF9B0711F3982F80913907C8
:10313000882309F492C0973F09F07EC010923907A6
:10314000A0913107B09132076C916137C1F16937B5
:1031500009F05CC0E0916607F0916707309739F29B
:1031600080913A0790913B078330910538F420E035
:1031700030E040E050E060E070E01BC0BD016D5FFA
:103180007F4F03970E94F40CBC016D5F7F4F80E07E
:103190000E94C50CE0913107F09132079F012D5F2D
:1031A0003F4F428150E0618170E0E0916607F0910D
:1031B00067078091480790914907199598CF8091AA
:1031C000620790916307892B09F491CFBD016F5F6E
:1031D0007F4F80913A0790913B0701970E94F40C32
:1031E000BC016F5F7F4F80E00E94C50C609131078A
:1031F000709132076F5F7F4FE0916207F091630734
:1032000080914E0790914F07199571CFE091640717
:10321000F0916507309709F46ACF9D012F5F3F4F0A
:1032200040913A0750913B07415051098091500716
:103230009091510719955BCF60913A0770913B07C8
:10324000822F0E94C50C80913A0790913B0701960E
:1032500090933B0780933A074ACF6091370770916C
:1032600038076115710509F4AFC027FDADC0615085
:1032700071097093380760933707822F0E94C50C3D
:103280008091370790913807892B09F030CF8091D2
:103290003507882309F42BCF803D09F47FC030F433
:1032A000803939F1803C09F466C08BC0843FE1F17C
:1032B000853F09F44DC0803E09F083C0E09154077A
:1032C000F0915507309709F47CC0A0913107B09177
:1032D00032078C9111964C9150E090E8899F400DF7
:1032E000511D11246091360780913C0790913D0754
:1032F00067C0E0915607F0915707309709F461C015
:10330000A0913107B09132078C9111964C9150E009
:10331000A0E88A9F400D511D1124609136078091CD
:103320003E0790913F074CC0E0915C07F0915D072C
:10333000309709F446C0A0913107B09132074C9103
:1033400050E011966C91809144079091450738C0E8
:10335000E0915E07F0915F07309799F1A0913107F6
:10336000B09132074C9150E011966C9180914607D4
:103370009091470725C0E0915807F0915907309781
:1033800001F1A0913107B09132074C9150E060916A
:103390003607809140079091410712C0E0915A078B
:1033A000F0915B07309769F0A0913107B091320737
:1033B0004C9150E06091360780914207909143070D
:1033C00019951092350793CE903F30F4822F8F706D
:1033D00080933607922F907F903F79F158F4903C7C
:1033E00029F118F49039E9F082CE903DF9F0903E41
:1033F000C1F07DCE993F09F449C028F48CE0890FD3
:10340000823078F074CE9F3F09F071CE1092380769
:1034100010923707109235071092360780E090E03F
:1034200013C0109338070093370704C0F092380791
:10343000E0923707909335075ACED0923907109211
:103440003B0710923A0753CE20913307309134074F
:103450008217930748F4E0913107F0913207E80FA3
:10346000F91F10820196F0CF1092390710923B0796
:1034700010923A07E0916A07F0916B07309709F4D0
:1034800036CE80915207909153070BC0E0916807A8
:10349000F0916907309709F42ACE80914A079091FC
:1034A0004B07199524CE8FB7F89440912B04509177
:1034B0002C0460912D0470912E048FBF80902704FE
:1034C00090902804A0902904B0902A042091010231
:1034D00030910202C901A0E0B0E0481959096A0917
:1034E0007B0984179507A607B70708F04FC0880D1A
:1034F000991DAA1DBB1D8093270490932804A093B7
:103500002904B0932A0481E7A82E87E0B82ECAECDC
:10351000C031B8F4F5018081823099F4809125049E
:10352000909126040C2E02C0959587950A94E2F797
:1035300080FF07C08C2F0E94BE0DBC018C2F0E9403
:10354000830BCF5FFFEFAF1ABF0AC03109F780913D
:10355000000287FD1BC0C0E02C2F30E080910002EC
:10356000082E000C990B8217930784F0D29FF0016C
:10357000D39FF00D1124E350FC4F618172812481AF
:10358000438180810E949007CF5FE6CF0E943A0F6F
:103590001BCBC0E028CBC8602ECBC06134CBC0624F
:1035A0003ACBC06440CBC06846CBC0E059CBC260C8
:1035B0005FCBC46065CBC8606BCBC06171CBC062B0
:1035C00077CBC0647DCBC06883CBC0E096CBC260B4
:1035D0009CCBC460A2CBC860A8CBC061AECBC0629C
:1035E000B4CBC064BACBC068C0CBC0E0D3CBC260A0
:1035F000D9CBC460DFCBC860E5CBC061EBCBC06288
:10360000F1CBC064F7CBC068FDCBC0E010CCC2608A
:1036100016CCC4601CCCC86022CCC06128CCC0626F
:103620002ECCC06434CCC0683ACCC0E04DCCC26073
:1036300053CCC46059CCC8605FCCC06165CCC0625B
:103640006BCCC06471CCC06877CCC0E08ACCC2605F
:1036500090CCC46096CCC8609CCCC061A2CCC06247
:10366000A8CCC064AECCC068B4CCC0E0C7CCC2604B
:10367000CDCCC460D3CCC860D9CCC061DFCCC06233
:10368000E5CCC064EBCCC068F1CCC0E003CDC26037
:1036900009CDC4600FCDC86015CDC0611BCDC0621F
:1036A00021CD10927D0410927C0488EE93E0A0E07E
:1036B000B0E080937E0490937F04A0938004B09345
:1036C00081042DE032E030937B0420937A0445E3BB
:1036D00051E0509387044093860444E351E05093B3
:1036E00089044093880440E351E050938B04409355
:1036F0008A0441E351E050938D0440938C0442E3EB
:1037000051E050938F0440938E0446E351E0509370
:103710009104409390041092930410929404109298
:1037200095041092960410921A0510921905809330
:103730001B0590931C05A0931D05B0931E053093A7
:1037400018052093170545ED50E05093240540934C
:10375000230544ED50E0509326054093250540EDA8
:1037600050E0509328054093270541ED50E05093D9
:103770002A054093290542ED50E050932C054093D3
:103780002B0546ED50E050932E0540932D051092E9
:1037900030051092310510923205109233051092C7
:1037A000B7051092B6058093B8059093B905A0931C
:1037B000BA05B093BB053093B5052093B4054DEC25
:1037C00050E05093C1054093C0054CEC50E050933D
:1037D000C3054093C20548EC50E05093C5054093A3
:1037E000C40549EC50E05093C7054093C6054AEC28
:1037F00050E05093C9054093C8054EEC50E05093FB
:10380000CB054093CA051092CD051092CE051092BB
:10381000CF051092D0051092540610925306809353
:10382000550690935606A0935706B09358063093CA
:1038300052062093510625EC30E030935E0620932B
:103840005D0624EC30E03093600620935F0620ECA8
:1038500030E0309362062093610621EC30E0309333
:1038600064062093630622EC30E0309366062093D2
:10387000650626EC30E030936806209367061092C8
:103880006A0610926B0610926C0610926D062EEE70
:1038900036E010922F0710922E07309332072093B4
:1038A000310740E450E050933407409333071092BF
:1038B000350710923607109238071092370710928A
:1038C000390710923B0710923A0710923D07109269
:1038D0003C0710923F0710923E071092410710924A
:1038E000400710924307109242071092450710922A
:1038F0004407109247071092460710924D07109206
:103900004C0710924F0710924E07109251071092D9
:1039100050071092530710925207109261071092AD
:1039200060071092300710926E0710927007109285
:103930006F07109243084CE250E1509355074093B3
:10394000540742E250E1509357074093560744E032
:1039500050E150935907409358074AEF5FE0509366
:103960005B0740935A0748E150E150935D0740934D
:103970005C074EE050E150935F0740935E0749EFCC
:103980005FE050936307409362074EEE5FE0509311
:1039900065074093640747E95FE0509367074093EA
:1039A000660730934907209348074BE65FE0509342
:1039B00069074093680730934B0720934A0723E633
:1039C0003FE030936B0720936A07109247081092EC
:1039D00046088093480890934908A0934A08B093FA
:1039E0004B088FE192E090934508809344088091C2
:1039F000E008A1EEB8E09FEF48EB5BE0803378F49D
:103A00008C93282F30E0F901EE0FFF1F2E0F3F1F80
:103A1000F901E05BF74F528341838F5F01C09C93B4
:103A2000139629E0A137B20749F78093E00808957B
:103A3000052E97FB16F400940FD057FD05D024D027
:103A400007FC02D046F408C050954095309521956A
:103A50003F4F4F4F5F4F08959095809570956195BA
:103A60007F4F8F4F9F4F089531D0A59F900DB49FEA
:103A7000900DA49F800D911D11240895B7FFF4CFE0
:103A8000F3DF821B930B0895A1E21A2EAA1BBB1B26
:103A9000FD010DC0AA1FBB1FEE1FFF1FA217B3071A
:103AA000E407F50720F0A21BB30BE40BF50B661F30
:103AB000771F881F991F1A9469F7609570958095F4
:103AC00090959B01AC01BD01CF010895A29FB0016B
:103AD000B39FC001A39F700D811D1124911DB29F42
:103AE000700D811D1124911D0895991B79E004C06A
:103AF000991F961708F0961B881F7A95C9F780952D
:103B00000895EE0FFF1F881F8BBF0790F691E02DE1
:103B100019940F931F93CF93DF938230910510F484
:103B200082E090E0E091DF09F091E00920E030E0F0
:103B3000A0E0B0E0309719F14081518102811381FA
:103B400048175907C8F08417950769F4109731F0A2
:103B500012960C93129713961C9327C00093DF09BB
:103B60001093E00922C02115310519F042175307BF
:103B700018F49A01BD01EF01DF01F801DBCF211537
:103B80003105F9F0281B390B2430310580F48A8186
:103B90009B816115710521F0FB019383828304C031
:103BA0009093E0098093DF09FE01329644C0FE0144
:103BB000E20FF31F819391932250310939832883B7
:103BC0003AC02091DD093091DE09232B41F4209188
:103BD0000502309106023093DE092093DD09209121
:103BE0000302309104022115310541F42DB73EB78F
:103BF0004091070250910802241B350BE091DD092A
:103C0000F091DE09E217F307A0F42E1B3F0B2817F3
:103C1000390778F0AC014E5F5F4F2417350748F045
:103C20004E0F5F1F5093DE094093DD0981939193FE
:103C300002C0E0E0F0E0CF01DF91CF911F910F9142
:103C40000895CF93DF93009709F481C0FC01329768
:103C500013821282A091DF09B091E009109781F4DC
:103C600020813181820F931F2091DD093091DE097F
:103C70002817390751F5F093DE09E093DD0967C095
:103C8000ED0120E030E0CE17DF0740F44A815B8190
:103C90009E0141155105F1F0EA01F5CFD383C283AE
:103CA00040815181840F951FC817D90759F4888125
:103CB0009981840F951F0296918380838A819B81CD
:103CC000938382832115310529F4F093E009E09371
:103CD000DF093DC0E901FB83EA8349915991C40F93
:103CE000D51FEC17FD0761F480819181840F951F2A
:103CF0000296E90199838883828193819B838A83D9
:103D0000E0E0F0E012968D919C911397009719F0E6
:103D1000FD01DC01F7CF8D919C9111979D012E5FE4
:103D20003F4F820F931F2091DD093091DE09281744
:103D3000390769F4309729F41092E0091092DF09ED
:103D400002C013821282B093DE09A093DD09DF91D5
:103D5000CF91089581E090E0F8940FC0FB01DC0161
:103D60004150504048F001900D920020C9F701C029
:0E3D70001D9241505040E0F70895F894FFCFA7
:103D7E00FF13000000E109800000000000D30E27B1
:103D8E000E510E190F820E600E740E00000000C050
:103D9E00109410EF1068108C10781069104D617827
:103DAE0020736572766F73206174746163686564E5
:103DBE0000556E6B6E6F776E2070696E206D6F643E
:103DCE0065004932433A20546F6F206D616E792041
:103DDE0062797465732072656365697665640049FE
:103DEE0032433A20546F6F2066657720627974658E
:103DFE00732072656365697665640031302D626982
:103E0E00742061646472657373696E67206E6F747B
:103E1E0020737570706F7274656400746F6F206DAF
:103E2E00616E79207175657269657300433A5C55F0
:103E3E00736572735C41444D494E497E315C4170ED
:103E4E0070446174615C4C6F63616C5C54656D7041
:103E5E005C61726475696E6F5F6D6F6469666965CA
:103E6E00645F736B657463685F3433383331365C0B
:103E7E00736B657463685F6A616E3138612E696E4B
:023E8E006F00C3
:00000001FF
