:100000000C94B3010C94E4010C94E4010C94E4010D
:100010000C94E4010C94E4010C94E4010C94E401CC
:100020000C94E4010C945A150C945A150C945A151E
:100030000C94E4010C94E4010C94E4010C94E401AC
:100040000C94E4010C9412170C94E4010C94E40158
:100050000C94E4010C94E4010C94E4010C9410154C
:100060000C94E4010C94E6140C94BC140C94E4017C
:100070000C94E4010C94E4010C94E4010C94E4016C
:100080000C94E4160C94E4010C94E4010C94E40147
:100090000C9492140C9468140C94E4010C94641560
:1000A0000C94E4010C94E4010C94B6160C94E40155
:1000B0000C94E4010C94E4010C94E4010C94881673
:1000C0000C94E4010C94E4010C94E4010C943E14AF
:1000D0000C9414140C94E4010C94EA130C94C013C3
:1000E0000C94E4010C94A2040C946E130C9464051B
:1000F0000C94A1080C944C040C94750E0C9493056C
:100100000C941B040C94CF060C94530C0C9404090F
:100110000C948D050C947E080C9497050C946C0A35
:100120000C944E0F0C94F0010C94EF040C94040208
:100130000C9460050C94AF130C94F7120C94A30666
:100140000C94D5030C94E00C0C947B0C0C9452058D
:100150000C94100F0C942D0F0C94580C0C947F05DC
:100160000C94B60F0C9418020C94E1120C94EF0C42
:100170000C94990A0C94710C0C94D5080C947F087B
:100180000C947C080C94E6010C94C20F0C9423028E
:100190000C9419130C949B120C9467050C94A90CE5
:1001A0000C94210F0C949F0C0C942A040C9497111E
:1001B0000C945C050C948B0C0C945F120C947B05D6
:1001C0000C94390F0C9471050C94B80C0C94CC0C55
:1001D0000C947E110C9458110C943E040C948505DB
:1001E0000C9458050C9492050C9489050C94D10F2D
:1001F0000C94D60C0C942E020C9422020C94C20C7B
:100200000C94650F0C94EA0C0C94450D0C947F0F24
:100210000C94950C0C948E080C94FA010C94A8087C
:100220000C946D050C945D0C0C94640B0C944017AD
:100230000C9477050C94830C0C940E020C947D089E
:100240000C94670C00002100240027002A002D00D8
:100250003000330001010000040107010A01000021
:100260002200250028002B002E003100340002015E
:100270000000050108010B010000200023002600FA
:1002800029002C002F0032000001000003010601AC
:10029000090105050505070508080808020202020C
:1002A0000A0A080804040404010101010101010112
:1002B0000303030303030303040707070C0C0C0CDD
:1002C0000C0C0C0C020202020606060606060606C6
:1002D0000B0B0B0B0B0B0B0B010210202008081053
:1002E00020401020408002010201080402010102A6
:1002F000040810204080804020100804020180047F
:1003000002018040201008040201080402010102D9
:1003100004081020408001020408102040800000E2
:100320000A0B02090C0D0E0807030401000000006F
:1003300000000000000000000000000000000000BD
:10034000000000000000000000001211100000007A
:10035000000000000000000000000000000000009D
:1003600000000000401711241FBECFEFD1E2DEBF16
:10037000CDBF00E00CBF13E0A0E0B2E0E2E3F2E4A6
:1003800000E00BBF02C007900D92A431B107D9F76E
:1003900029E0A4E1B3E001C01D92AD3EB207E1F750
:1003A00011E0C3EBD1E000E006C021970109802FE6
:1003B000FE010E94DB1FC23BD10780E00807A9F7BE
:1003C0000E9408190C9417210C940000862FE091CC
:1003D0005804F0915904309711F0BA011994089516
:1003E000862FE0915604F0915704309711F0BA012E
:1003F00019940895862FE0915404F0915504309794
:1004000011F0BA0119940895862FE0915204F091E9
:100410005304309711F0BA0119940895862FE09192
:100420005004F0915104309711F0BA0119940895D5
:10043000862FE0914E04F0914F04309711F0BA01ED
:10044000199408950895862F642FE0915A04F0912D
:100450005B04309711F0A90119940895E0915C04B0
:10046000F0915D04309709F0199408957F928F926E
:100470009F92AF92BF92CF92DF92EF92FF920F9333
:100480001F93CF93DF936A01DB017C90452B19F416
:10049000CC24CA94DC2C8B015B01A80EB91ED0E0E1
:1004A000C0E0F12CE12C87E0882E912C8091A607EA
:1004B0009091A707F80160810C2E01C0660F0A9485
:1004C000EAF767296F77DC01ED91FC910190F081EB
:1004D000E02D1995BFEFEB1AFB0AF801608170E07F
:1004E000C4018C1B9D0B02C0759567958A95E2F738
:1004F000762E2196C730D10550F1CE14DF0439F1A4
:100500008091A6079091A707672D6F77DC01ED9189
:10051000FC910190F081E02D1995BFEFEB1AFB0AD9
:10052000771C7724771C2797E5CFEC14FD0408F49B
:10053000BDCFDF91CF911F910F91FF90EF90DF9092
:10054000CF90BF90AF909F908F907F9008950F5F56
:100550001F4FA016B10649F7209759F3EC14FD047C
:1005600040F78091A6079091A70761E070E001C075
:10057000660FCA95EAF761506721DC01ED91FC91A5
:100580000190F081E02DDF91CF911F910F91FF90AD
:10059000EF90DF90CF90BF90AF909F908F907F9023
:1005A00019941F93CF93DF931F921F92CDB7DEB79D
:1005B000182F7A8369838091A6079091A7070097E7
:1005C000B9F0DC01ED91FC910190F081E02D10314A
:1005D000A8F46115704490F4612F606E199542E0A3
:1005E00050E0BE016F5F7F4F82E090E00E943602D4
:1005F0000F900F90DF91CF911F91089560EF1995A3
:100600008091A6079091A707DC01ED91FC910190E4
:10061000F081E02D6FE619958091A6079091A707CC
:10062000DC01ED91FC910190F081E02D612F199595
:1006300042E050E0BE016F5F7F4F82E090E00E9499
:1006400036028091A6079091A707DC01ED91FC91FD
:100650000190F081E02D67EF1995CACFEF92FF92DC
:100660000F931F93CF93DF93C82F8091A60790918C
:10067000A7070097B9F17A018B01DC01ED91FC919C
:100680000190F081E02D60EF19958091A60790917F
:10069000A707DC01ED91FC910190F081E02D6C2F1A
:1006A0001995E7010E0D1F1DC017D10749F050E045
:1006B00040E0BE0181E090E00E9436022196F4CF36
:1006C0008091A6079091A707DC01ED91FC91019024
:1006D000F081E02D67EFDF91CF911F910F91FF9097
:1006E000EF901994DF91CF911F910F91FF90EF90B0
:1006F0000895A091E407B091E507ED91FC91119761
:100700000190F081E02D682FCD0119941F93CF93B4
:10071000DF93182FEB018091AB079091AC0768171E
:10072000790760F48091A9079091AA07C80FD91F93
:10073000188380E0DF91CF911F910895E091D80751
:10074000F091D907309711F481E0F4CF81E08093E4
:10075000A8078091C4079091C50719958091AB07B0
:100760009091AC07C817D90778F7DCCFCF93DF9308
:10077000EC01FB0130E020E0C901880F991F8C17C4
:100780009D0778F44081DB014D93BD011197918164
:10079000979599279795942B9C932F5F3F4F32966F
:1007A000EBCFC901DF91CF910895AF92BF92CF9265
:1007B000DF92EF92FF920F931F93CF93DF936C0121
:1007C0007B018B01040F151FEB015E01AE18BF0802
:1007D000C017D10759F06991D601ED91FC910190B4
:1007E000F081E02DC6011995892B79F7C501DF91BC
:1007F000CF911F910F91FF90EF90DF90CF90BF901E
:10080000AF900895FC01A089B1898C91A689B78920
:1008100082FD0FC09C91818D8F5F8F73228D821717
:1008200049F0A18DAE0FBF2FB11D5D969C93818FB6
:1008300008958C910895FC01538D448D252F30E04F
:10084000842F90E0821B930B541710F0CF960895DD
:1008500001970895FC01918D828D981761F0A28D0A
:10086000AE0FBF2FB11D5D968C91928D9F5F9F73D0
:10087000928F90E008958FEF9FEF0895FC01918D86
:10088000828D981731F0828DE80FF11D858D90E0F3
:1008900008958FEF9FEF0895FC01918D228D892F90
:1008A00090E0805C9F4F821B91098F739927089578
:1008B00082EF94E00E944C0421E0892B09F420E0AF
:1008C000822F08958FE895E00E944C0421E0892B47
:1008D00009F420E0822F08958CE296E00E944C04F7
:1008E00021E0892B09F420E0822F089589EC96E01D
:1008F0000E944C0421E0892B09F420E0822F089506
:10090000FC01A48DA80FB92FB11DA35ABF4F2C9184
:10091000848D90E001968F739927848FA689B7897B
:100920002C93A089B1898C91837080648C93938D72
:10093000848D981306C00288F389E02D80818F7D15
:1009400080830895EF92FF920F931F93CF93DF93CD
:10095000EC0181E0888F9B8D8C8D98131AC0E889FB
:10096000F989808185FF15C09FB7F894EE89FF89CA
:100970006083E889F98980818370806480839FBF68
:1009800081E090E0DF91CF911F910F91FF90EF9068
:100990000895F62E0B8D10E00F5F1F4F0F73112778
:1009A000E02E8C8D8E110CC00FB607FCFACFE889B3
:1009B000F989808185FFF5CFCE010E948004F1CFB7
:1009C000EB8DEC0FFD2FF11DE35AFF4FF0829FB727
:1009D000F8940B8FEA89FB8980818062CFCFCF9317
:1009E000DF93EC01888D8823B9F0AA89BB89E88957
:1009F000F9898C9185FD03C0808186FD0DC00FB6FD
:100A000007FCF7CF8C9185FFF2CF808185FFEDCF7A
:100A1000CE010E948004E9CFDF91CF91089580E05C
:100A200090E0892B29F00E94760481110E94000039
:100A300080E090E0892B29F00E946C0481110E94D3
:100A4000000080E090E0892B29F00E94620481116F
:100A50000E94000080E090E0892B29F00E94580459
:100A600081110C94000008958150823108F05AC021
:100A7000E82FF0E08827E05CFA4F8F4F0C94DB1FE3
:100A800060056405520558055C05920567056D050E
:100A9000710577057B057F058505890592058D051F
:100AA00093059705809180008F778093800008954B
:100AB000809180008F7DF9CF80918000877FF5CF76
:100AC00084B58F7784BD089584B58F7DFBCF8091E9
:100AD000B0008F778093B00008958091B0008F7D33
:100AE000F9CF809190008F77809390000895809146
:100AF00090008F7DF9CF80919000877FF5CF809116
:100B0000A0008F778093A00008958091A0008F7D32
:100B1000F9CF8091A000877FF5CF809120018F775A
:100B2000809320010895809120018F7DF9CF8091DD
:100B30002001877FF5CFCF93DF93282F30E0F90195
:100B4000E25EFC4F8491F901E852FD4FD491F90126
:100B5000EE56FD4FC491CC23A1F081110E943405C3
:100B6000EC2FF0E0EE0FFF1FE858FD4FA591B49178
:100B7000EC91ED2381E090E009F480E0DF91CF91EA
:100B8000089580E090E0FACF1F93CF93DF93282F52
:100B900030E0F901E25EFC4F8491F901E852FD4F2B
:100BA000D491F901EE56FD4FC491CC23A9F0162F34
:100BB00081110E943405EC2FF0E0EE0FFF1FE25A86
:100BC000FD4FA591B4918FB7F894EC91111108C025
:100BD000D095DE23DC938FBFDF91CF911F910895D5
:100BE000DE2BF8CFCF93DF9390E0FC01E852FD4F6E
:100BF00024918E569D4FFC0184918823C9F090E08A
:100C0000880F991FFC01EC5BFD4FA591B491FC018D
:100C1000E25AFD4FC591D49161110DC09FB7F89470
:100C20008C91209582238C938881282328839FBFD1
:100C3000DF91CF910895623051F49FB7F8943C91C1
:100C4000822F809583238C93E8812E2BEFCF8FB753
:100C5000F894EC912E2B2C938FBFEACF863308F0BB
:100C6000865320917B00982F9870277F922B90932A
:100C70007B008770806480937C0080917A00806420
:100C800080937A0080917A0086FDFCCF8091780075
:100C90009091790008953FB7F89480914A0490911B
:100CA0004B04A0914C04B0914D0426B5A89B05C0FF
:100CB0002F3F19F00196A11DB11D3FBFBA2FA92FDB
:100CC000982F8827BC01CD01620F711D811D911DD8
:100CD00042E0660F771F881F991F4A95D1F7089544
:100CE0008F929F92AF92BF92CF92DF92EF92FF923C
:100CF0006B017C010E944B064B015C01C114D104C5
:100D0000E104F104B9F00E944B06681979098A09D7
:100D10009B09683E73408105910580F321E0C21A6A
:100D2000D108E108F10888EE880E83E0981EA11C26
:100D3000B11CE4CFFF90EF90DF90CF90BF90AF90C9
:100D40009F908F900895CF93DF93009729F1EC0146
:100D5000C05CDF4F888199810097F1F0DC01ED9153
:100D6000FC910190F081E02D69EF199588819981BE
:100D7000DC01ED91FC910190F081E02D62E019958C
:100D800088819981DC01ED91FC910190F081E02D49
:100D900065E0DF91CF911994DF91CF9108950F9382
:100DA0001F93CF93DF93009709F44BC0FC01E058E9
:100DB000FF4F2081222309F444C0EC01C05CDF4FC7
:100DC000A881B9811097E9F1FC01EF57FF4F01901D
:100DD000F081E02D11810081ED91FC91119701903E
:100DE000F081E02D60EFCD01199588819981DC01BA
:100DF000ED91FC910190F081E02D69E719958881D2
:100E00009981DC01ED91FC910190F081E02D602F42
:100E1000199588819981DC01ED91FC910190F08117
:100E2000E02D612F199588819981DC01ED91FC916C
:100E30000190F081E02D67EFDF91CF911F910F912D
:100E40001994DF91CF911F910F9108952091220461
:100E5000260F3327331F21323105ECF42091C804CB
:100E6000FC0190E080E0243069F082E00895A091D8
:100E700022042191AC0140505C4FA40FB52FB11D4D
:100E80002C930196861798F380912204680F609343
:100E9000220480E0089581E008951092C80481E062
:100EA0008093C7041092A20461E084E10E94C4050B
:100EB00061E085E10E94C405E9EBF0E080818E7F6E
:100EC000808380818D7F808388E48093B80085E46F
:100ED0008093BC000895CF93DF9391E09093FF033C
:100EE0008823B9F0C091B800D091BA008091BC00BD
:100EF0008A7B8093BC0060E084E10E94C40560E0CE
:100F000085E10E94C4050E944D07D093BA00C093AA
:100F1000B800DF91CF9108958F929F92AF92BF92C8
:100F2000CF92DF92EF92FF920F931F93CF93DF93B5
:100F3000D091F104D13208F0D7C0182FC091F0043D
:100F40000E944B066B017C018091C80481116BC02B
:100F500082E08093C8041093C7048FEF8093C60487
:100F60001092C504D093C404A0EDB4E0E4EAF4E028
:100F700080E0D81391C01092A3048091A304CC0FF9
:100F8000C82BC093A3048091A204813009F088C0CB
:100F90001092A2040E944B066B017C018091A30475
:100FA0008093BB008091CA049091CB04A091CC04A3
:100FB000B091CD04892B8A2B8B2BA1F00E944B067C
:100FC0000091CA041091CB042091CC043091CD043F
:100FD0006C197D098E099F0906171707280739071D
:100FE00008F442C08091BC0083FDD8CF85EC80938B
:100FF000BC000E944B066B017C018091C8048230CA
:1010000009F450C08091C6048F3F09F46FC08091ED
:10101000C604803209F46CC08091C604803309F4A0
:1010200069C084E026C08091CA049091CB04A0914D
:10103000CC04B091CD04892B8A2B8B2B09F484CF5F
:101040000E944B068090CA049090CB04A090CC04E0
:10105000B090CD046C197D098E099F0986169706FC
:10106000A806B90608F070CF8091C9040E946B07EA
:1010700085E01092CF041092F1041092CE04DF911B
:10108000CF911F910F91FF90EF90DF90CF90BF9085
:10109000AF909F908F9008959D9191938F5F69CFAE
:1010A00085EEA5CF8091CA049091CB04A091CC0489
:1010B000B091CD04892B8A2B8B2B09F49ECF0E94F3
:1010C0004B060091CA041091CB042091CC043091BE
:1010D000CD046C197D098E099F090617170728078B
:1010E000390708F08ACFC0CF81E0C3CF80E0C1CFFD
:1010F00082E0BFCF83E0BDCF089508950895E091C9
:10110000FE038091FD03E81730F4F0E0E352FC4F5A
:10111000808190E008958FEF9FEF08959091FE03F6
:101120008091FD032FEF3FEF981748F4E92FF0E08F
:10113000E352FC4F208130E09F5F9093FE03C90192
:1011400008958091FD039091FE03891B990B0895EA
:10115000CF92DF92EF92FF920F931F93CF93DF9383
:101160007C01CB018A012091CE04222389F0EB017E
:101170006B01C40ED51ECC15DD0569F06991D70150
:10118000ED91FC910190F081E02DC7011995F3CF0D
:10119000642F0E942607C801DF91CF911F910F9104
:1011A000FF90EF90DF90CF900895CF93DF931F9241
:1011B000CDB7DEB769832091CE042223F9F02091C8
:1011C000F104203258F021E030E0FC013383228327
:1011D00090E080E00F90DF91CF9108958091CF044F
:1011E000E82FF0E0E053FB4F998190838F5F80936D
:1011F000CF048093F10481E090E0ECCF61E0CE0178
:1012000001960E942607F7CF90E080E00895DF92D4
:10121000EF92FF920F931F93CF93DF93EC01D62EA3
:101220007A0189018881803308F067C061E08D2DE3
:101230000E94F2058881282F30E0F901EE0FFF1F90
:10124000E20FF31FE853F74F9D2D9F736081607C81
:10125000692B608320E232E02E193F0937FF02C07C
:101260002D5F3F4F3595279535952795298320E6A6
:1012700039E0201B310B37FF02C02D5F3F4F359502
:101280002795359527952A832CE0622F0E94CF1F42
:10129000829FB001112430E020E0AB01420F531FC8
:1012A000FA01EE0FFF1FE40FF51FE853F74F90818F
:1012B00096FD16C02F5F3F4F2C30310571F78130FE
:1012C00029F51092800082E08093810010928500C1
:1012D00010928400B19A80916F00826080936F00B9
:1012E000E8818E2F90E0FC01EE0FFF1FE80FF91F41
:1012F000E853F74F8081806480838881DF91CF91AC
:101300001F910F91FF90EF90DF900895823061F46C
:10131000109290008093910010929500109294008A
:1013200088BB80937100DCCF833069F41092A000F9
:1013300082E08093A1001092A5001092A40089BBC6
:1013400080937200CDCF8111CBCF1092200182E02B
:101350008093210110922501109224018ABB809371
:101360007300BECFAF92BF92CF92DF92EF92FF9207
:101370000F931F93CF93DF936B017A01EC01C75258
:10138000DC4F28813CE0389F8001399F100D1124EB
:10139000A0905809B12C27FF1FC0FB0111821082B9
:1013A00088818F5F888388819801280F311D87FD90
:1013B0003A95F6012A153B051CF488818C30C4F15E
:1013C00080819181049680349C4908F473C0F601B1
:1013D00080819181049670C088819801280F311D09
:1013E00087FD3A952A153B05DCF68881A801480F50
:1013F000511D87FD5A95FA01EE0FFF1FE40FF51FEF
:10140000E853F74F808186FFCBCF8881F801E80F42
:10141000F11D87FDFA95CF01EE0FFF1FE80FF91FB1
:10142000E853F74F808160E08F730E94C405B8CF06
:10143000808191812881A801420F511D27FD5A9575
:101440009A01FA01EE0FFF1FE20FF31FE853F74F67
:1014500021813281820F931FF701918380838881DC
:101460009801280F311D87FD3A95F901EE0FFF1FF6
:10147000E20FF31FE853F74F808186FF22C0888177
:10148000080F111D87FD1A95F801EE0FFF1FE00FE1
:10149000F11FE853F74F808161E08F73DF91CF91A7
:1014A0001F910F91FF90EF90DF90CF90BF90AF9082
:1014B0000C94C40580E49CE9F701918380838FEF4D
:1014C0008883DF91CF911F910F91FF90EF90DF9074
:1014D000CF90BF90AF900895CF938031B0F421E0CA
:1014E00030E0082E02C0220F331F0A94E2F7409129
:1014F0009C0450919D04672B51F420953095242332
:10150000352330939D0420939C04CF910895242B80
:10151000352B30939D0420939C049091D803911116
:10152000F4CFC82F0E942E06BC018C2FCF910C94B3
:10153000D1024F925F926F927F928F929F92AF9261
:10154000BF92CF92DF92EF92FF920F931F93CF93B0
:10155000DF93893008F0A7C08F5FC82FCC0FCC0F66
:10156000CC0F4C2EC73410F056E4452ED62F38EF52
:10157000532E5C0E852C912CC401880F991F9C0161
:101580002A59384F5901052DD12CC12C10E0772450
:1015900073940415C8F58EEF800F8434F8F4F601C7
:1015A000E80DF91DE751F84F90819230B8F4872D7E
:1015B0008D2366246394811101C0612C7601EE0CA9
:1015C000FF1C913089F4172939ECE30EF11CF50169
:1015D000EE0DFF1D862D90E091838083770C0F5FC9
:1015E0008FEFC81AD80AD5CF882371F3F701E753D4
:1015F000FF4FEA0DFB1D80819181019729F362E085
:10160000802F0E94F205E0CF10FF05C06D2F6170A2
:10161000852D0E94C40511FF06C06D2F627089EFF1
:101620008C0F0E94C40512FF06C06D2F64708AEFF4
:101630008C0F0E94C40513FF06C06D2F68708BEFDE
:101640008C0F0E94C40514FF06C06D2F60718CEFD3
:101650008C0F0E94C40515FF06C06D2F60728DEFC0
:101660008C0F0E94C40516FF06C06D2F60748EEFAC
:101670008C0F0E94C40517FF16C06D2F60788FEF86
:101680008C0FDF91CF911F910F91FF90EF90DF9022
:10169000CF90BF90AF909F908F907F906F905F9012
:1016A0004F900C94C405DF91CF911F910F91FF9043
:1016B000EF90DF90CF90BF90AF909F908F907F90F2
:1016C0006F905F904F9008958F929F92AF92BF92CC
:1016D000CF92DF92EF92FF920F931F93CF93DF93FE
:1016E000EB01863408F098C0082F10E0F801E751AC
:1016F000F84F9081933009F49CC0943009F08CC06D
:101700008250843408F081C0F801E857FC4FC08053
:10171000D12C7601EE0CFF1C4B01603282E0780781
:101720000CF03EC0F701EC0DFD1DE75AF64F81812C
:10173000A8E88A2E912C881A910887FD9394880C2A
:10174000991C880C991C092C000CAA08BB088281E2
:1017500028E532E0281B310987FD3395220F331F1E
:10176000220F331F032E000C440B550B2819390987
:101770004A095B09DB01653B710514F0A4EBB0E09D
:10178000B7FF02C0B0E0A0E00E94961F24EB30E05B
:1017900040E050E00E946C1F820E931EA41EB51EF6
:1017A000F701EC0DFD1DE75AF64F2081203368F557
:1017B000318188E890E0831B910937FD9395880F6C
:1017C000991F880F991F881699067CF0328188E549
:1017D00092E0831B910937FD9395880F991F880F1D
:1017E000991F881699060CF4C4010297880F991F57
:1017F0004FB7F89430E0F901EE0FFF1FE20FF31F2F
:10180000E853F74F928381834FBF000F111FF801F8
:10181000E15DF74FD183C083DF91CF911F910F918D
:10182000FF90EF90DF90CF90BF90AF909F908F9000
:101830000895F82E8EEF800F8C3020F084ED800F0D
:10184000833018F761E08F2D0E94F205209729F46C
:1018500060E08F2D0E94C405D8CFCF3FD10511F491
:1018600061E0F7CFF801E25EFC4FE491E150E23134
:1018700008F0B0C0F0E08827EF5BF34F8F4F0C9477
:10188000DB1F530C580C5D0C670C710CEA0C7B0CC5
:10189000830C8B0C950C9F0CA90CB80CC20CEA0C99
:1018A000CC0CD60CE00C84B5806884BDC7BDADCF30
:1018B00084B5806284BDC8BDA8CF80918000806857
:1018C00080938000D0938900C09388009ECF809140
:1018D0008000806280938000D0938B00C0938A0048
:1018E00094CF80918000886080938000D0938D0099
:1018F000C0938C008ACF8091B00080688093B00044
:10190000C093B30082CF8091B00080628093B0001A
:10191000C093B4007ACF809190008068809390004B
:10192000D0939900C093980070CF8091900080620E
:1019300080939000D0939B00C0939A0066CF8091D3
:101940009000886080939000D0939D00C0939C008D
:101950005CCF8091A00080688093A0008091A0005F
:101960008F7B8093A000D093A900C093A8004DCF97
:101970008091A00080628093A000D093AB00C093C0
:10198000AA0043CF8091A00088608093A000D093EC
:10199000AD00C093AC0039CF809120018068809366
:1019A0002001D0932901C09328012FCF80912001DD
:1019B000806280932001D0932B01C0932A0125CF10
:1019C00080912001886080932001D0932D01C093E5
:1019D0002C011BCFC038D1050CF042CF39CF9EEF80
:1019E000980F943480F4E82FF0E0DF01A751B84F4E
:1019F0009C91913041F4EE0FFF1FE15DF74F608342
:101A000071830C94C4050895FF920F931F93CF9395
:101A1000DF931F921F92CDB7DEB7082F10E0F801B9
:101A2000E25AFB4F9081F62EF92202531C4F4111CE
:101A300004C0F80190819F1501F12F2D30E03A8309
:101A40002983A091A607B091A7071097A1F0682F4E
:101A50006F706069ED91FC9111970190F081E02D1C
:101A6000CD01199542E050E0BE016F5F7F4F82E0EB
:101A700090E00E943602F801F0820F900F90DF9103
:101A8000CF911F910F91FF9008950F931F93CF93C4
:101A9000DF93893008F071C0282F30E0F901E9594F
:101AA000FB4F6083672B09F468C0082F225A3B4F15
:101AB000F9011081D82FDD0FDD0FDD0F8EEF8D0FB7
:101AC000843450F4C12FC17010FF07C08D2F0E94C5
:101AD0009B05C1E0892B09F4C0E08FEF8D0F8434A2
:101AE00048F411FF07C081E08D0F0E949B05892BF0
:101AF00009F0C26012FF07C082E08D0F0E949B05B3
:101B0000892B09F0C46013FF07C083E08D0F0E948A
:101B10009B05892B09F0C86014FF07C084E08D0F76
:101B20000E949B05892B09F0C06115FF07C085E065
:101B30008D0F0E949B05892B09F0C062D034A1F063
:101B400016FF07C086E08D0F0E949B05892B09F0C8
:101B5000C064DF3349F017FF07C087E08D0F0E9494
:101B60009B05892B09F0C06841E06C2F802FDF9125
:101B7000CF911F910F910C94040DDF91CF911F9184
:101B80000F910895A82FB0E0A857BC4F9C91292F22
:101B900030E0F901EE0FFF1FE20FF31FE75AF64F97
:101BA000E0812E2F30E0F901EE0FFF1FE20FF31F4F
:101BB000E853F74F80818F7B808380918603981351
:101BC00008C0992319F09150909386038FEF8C935E
:101BD00008958823D9F3E0918703EF5FE0938703AB
:101BE000F0E0ED5EFC4F9083F1CFFC01019000200E
:101BF000E9F73197BF01681B790BAC0181E70C94C1
:101C00002E03CF93DF93DB0190918603903378F519
:101C100030918703682F70E0FB01E857FC4F3323B6
:101C2000E1F0C32FD0E0CD5EDC4F8881808331505E
:101C300030938703808123E0829FC0011124875A5B
:101C4000964F1A161B0674F4141615065CF49A01C6
:101C5000AD01DF91CF910C94070990839F5F909322
:101C60008603E8CF20E639E040E252E0F2CF8DE291
:101C700092E0DF91CF910C94F50D85ED8093BC003F
:101C80008091CA049091CB04A091CC04B091CD0472
:101C90000796A11DB11D23E0B695A7959795879549
:101CA0002A95D1F72091BC0024FD03C01092C804EE
:101CB00008954091CA045091CB046091CC04709176
:101CC000CD04452B462B472B69F30097A105B105A1
:101CD00041F025E32A95F1F700000197A109B10928
:101CE000E1CF8091C9040C946B078F929F92BF92B1
:101CF000CF92DF92EF92FF920F931F93CF93DF93D8
:101D0000C82ED12CE601CA59D84FFE01ED57FF4F1E
:101D100090819F3709F4A1C0963061F49091D70368
:101D2000992341F06630710529F01092D7039FEF97
:101D3000909300027B01182F0EEF080F043408F572
:101D400064307105F1F0F601E857FC4F8081803373
:101D5000C0F490E0FC01EE0FFF1FE80FF91FE75AF7
:101D6000F64FE0818E2F90E0FC01EE0FFF1FE80F91
:101D7000F91FE853F74F808186FF03C0812F0E942F
:101D8000C20D5AECB52EB10E8FE08B1558F061E004
:101D900070E032E0E316F10411F070E060E08B2DAA
:101DA0000E946C0A0434C8F4E12FE695E695E695A6
:101DB000F0E0E25AFB4F2081312F377081E090E054
:101DC00001C0880F3A95EAF7E114F10421F03BE0F5
:101DD000E316F10411F5822B80834601880C991CCF
:101DE000F401E15DF74F118210828CE0E816F104F6
:101DF00008F0C8C0F7018827EF5FF04F8F4F0C94B1
:101E0000DB1F210F4E0F100F650F7F0FC20FB60F94
:101E1000C20FC20FC20F2D0F390F80958223DCCF66
:101E20003FE03B15D0F0043420F460E0812F0E94A5
:101E3000F205CD57DF4F88818F3779F082E08883B4
:101E40000CC0043450F460E0812F0E94F205CD579D
:101E5000DF4F88818F3709F01882DF91CF911F9172
:101E60000F91FF90EF90DF90CF90BF909F908F9059
:101E70000895043490F762E0812F0E94F205CD5757
:101E8000DF4F88818F3711F08BE08883F401E15DAB
:101E9000F74F81E090E091838083DFCF0434E8F650
:101EA000FE01ED57FF4F8081833021F460E0812FE8
:101EB0000E94C40561E0812F0E94F205CD57DF4FDB
:101EC00088818F3751F281E0BACF0C3020F084ED59
:101ED000810F833010F661E0812F0E94F20561E0EE
:101EE000812F0E94F20560E0812F0E94C405CD572A
:101EF000DF4F88818F3709F4B0CF83E0A0CF04345F
:101F000008F0ABCFCD57DF4F88818F3711F084E0D9
:101F10008883F601E857FC4F80818F3FA9F090E05D
:101F2000FC01EE0FFF1FE80FF91FE75AF64FE081A3
:101F30008E2F90E0FC01EE0FFF1FE80FF91FE85312
:101F4000F74F808186FD89CF4FEF5FEF6FEF7FEF17
:101F5000812FDF91CF911F910F91FF90EF90DF9034
:101F6000CF90BF909F908F900C94010E145112301F
:101F700008F073CFCD57DF4F88818F3709F46DCFCD
:101F800086E05DCF81E492E0DF91CF911F910F91C8
:101F9000FF90EF90DF90CF90BF909F908F900C9428
:101FA000F50D0F931F93CF93DF9381E08093D803B8
:101FB0008091D703882329F01092D7038FEF809365
:101FC0000002E7E6F4E0CEE5D4E0AEECB3E0119237
:101FD00019921D9284E0E037F807C9F708E813E08A
:101FE000C0E0DFEF8AEC8C0F62E070E0803130F00F
:101FF0008EEF8C0F843428F461E070E08C2F0E9407
:10200000750EF801D1938F01CF5FC63459F7109246
:102010009D0410929C0410928703109286031092E4
:10202000D803DF91CF911F910F9108954F925F9246
:102030006F927F928F929F92AF92BF92FF920F9377
:102040001F93CF93DF93F82E8B01D42FC22F6F3FB6
:10205000760709F490C081E08093CE04F092F004FA
:102060001092CF041092F1048CEB98E00E94D508F6
:102070008C2F0E948C07809184039091850382307D
:10208000910538F0880F991F880F991F05970197C0
:10209000F1F70E944B064B015C018091C80481114D
:1020A0006CC0CD2FD13208F0C0E281E08093C8042B
:1020B0008093C7049FEF9093C6041092C5049C0FB1
:1020C0009093C4048093A3049091A3048F2D880F50
:1020D000892B8093A3048091A204813009F0A1C0D0
:1020E0001092A2040E944B064B015C018091A30454
:1020F0008093BB008091CA049091CB04A091CC0442
:10210000B091CD04892B8A2B8B2BA1F00E944B061A
:102110004090CA045090CB046090CC047090CD04E1
:10212000681979098A099B094616570668067906CF
:1021300008F444C08091BC0083FDD8CF85EC809327
:10214000BC000E944B064B015C018091C8048130A9
:1021500009F469C08091C5048C1710F4C091C504BE
:10216000E4EAF4E0ADEDB3E080E08C1761F1919129
:102170009D938F5FFACF00E08CCF8091CA0490913D
:10218000CB04A091CC04B091CD04892B8A2B8B2B4E
:1021900009F483CF0E944B064090CA045090CB04B0
:1021A0006090CC047090CD04681979098A099B0964
:1021B000461657066806790608F06FCF8091C90465
:1021C0000E946B07C0E01092FE03C093FD032D2F09
:1021D00030E08C2F90E0281739070CF046C082E5DC
:1021E00092E00E94F50DF09244030093450304E44D
:1021F00013E0AD2EB12CC801845493408A159B0581
:102200000CF041C00F5F1F4F9091FD038091FE03C2
:102210009817C9F18CEB98E00E948E08F801818331
:10222000EACF85EE8CCF8091CA049091CB04A09127
:10223000CC04B091CD04892B8A2B8B2B09F485CF4C
:102240000E944B064090CA045090CB046090CC048E
:102250007090CD04681979098A099B0946165706BA
:102260006806790608F071CFA9CF821793070CF0A2
:10227000BACF8FE692E00E94F50DD091FD038091D8
:10228000FE03D81BB0CFDE5F6D2F70E044E453E057
:1022900087E7DF91CF911F910F91FF90BF90AF9093
:1022A0009F908F907F906F905F904F900C942E0333
:1022B000EF92FF920F931F93CF93DF938956823152
:1022C00008F035C0EA01162FE82FF0E08827E4591E
:1022D000FE4E8F4F0C94DB1FAF13971119139711FC
:1022E0006E139711F7129B1297119711971197116F
:1022F00097117E1197115F129711E112998195FF45
:102300000AC08BE892E0DF91CF911F910F91FF906F
:10231000EF900C94F50D888131E096FB222720F98F
:10232000232798719830D1F148F49923A9F0DF91CF
:10233000CF911F910F91FF90EF900895903109F484
:102340004CC09831A1F72091000212160CF472C013
:102350008FEF80930002EBCF3093CE048093F00494
:102360001092CF041092F10402E0011778F4FE01FC
:10237000E00FF11D61816795662767958081680F81
:102380008CEB98E00E94D5080E5FEFCF81E00E94B1
:102390008C0783E191E00197F1F7C9CF9A814B81D6
:1023A0006630A1F430E8439FB0011124690F711D1C
:1023B0004D814795442747959C81490FDF91CF91E7
:1023C0001F910F91FF90EF900C94161047954427A2
:1023D0004795490F6FEF7FEFF1CFE0910002E730B3
:1023E0001CF08BEA92E08FCF3A819B816630D9F462
:1023F00060E8969FA0011124430F511D9D81979580
:10240000992797953C81930FEF5FE093000235E0A9
:10241000E302F0011124EC58FB4F80835283418387
:102420009383248384CF979599279795930F4FEFA4
:102430005FEFEACF90E0622F022E000C770B35E0C1
:10244000492F50E06417750764F0349FF001359F01
:10245000F00D1124EC58FB4F4081481719F09F5F95
:10246000EFCF90E085E0492F50E0641775071CF12D
:102470009830F8F4FA0131968E9FD0018F9FB00DFD
:102480001124AC58BB4F3C91849FF001859FF00D07
:102490001124EC58FB4F308311964D915C911297AB
:1024A0005283418313963C911397338314963C9146
:1024B00034839F5FD8CF21502093000238CF623001
:1024C00078F0898160E8869F900111248881820FCD
:1024D000932F911D009721F090938503809384039F
:1024E0008091D703811123CFC0E08CEE8C0F823016
:1024F00028F466E070E08C2F0E94750ECF5FC63422
:10250000A1F781E08093D7031092FE031092FD03A0
:102510001092CF041092F1040E944D078CE798E0CE
:1025200090932104809320048DE798E090932504F4
:1025300080932404FCCE653008F4F9CE18818EEF28
:10254000810F843408F0F3CE0981EA80FB80CC81CE
:10255000E12FF0E0E857FC4F80818033C0F490E039
:10256000FC01EE0FFF1FE80FF91FE75AF64FE0815D
:102570008E2F90E0FC01EE0FFF1FE80FF91FE853CC
:10258000F74F808186FF03C0812F0E94C20D80E833
:10259000C89FA00111244F0D511D90E8E99EB00184
:1025A0001124600F711D812F0E94010E64E070E004
:1025B000812FDF91CF911F910F91FF90EF900C949D
:1025C000750E623008F4B3CE8981E0E88E9F9001E9
:1025D00011248881820F932F911D009729F09093E9
:1025E000020280930102A3CE81E090E0F8CF623036
:1025F00008F49DCE698170E0123091F08A81F0E894
:102600008F9FC0011124682B792B133049F08B81E7
:1026100090E090E4899F902D88271124682B792BD6
:102620008881DF91CF911F910F91FF90EF900C94D3
:10263000640B80EF0E9479038CE60E947903CEEF51
:102640008CEC8C0F803108F040C082E00E9479034E
:102650008AE00E94790386ED8C0F8330C0F1C43488
:1026600030F484E00E9479038EE00E9479038EEEBC
:102670008C0F823030F486E00E94790381E00E9462
:1026800079038FE70E947903CF5FC43449F487EF61
:10269000DF91CF911F910F91FF90EF900C947903F0
:1026A000C43470F680E00E94790381E00E947903CF
:1026B0008BE00E94790381E00E94790381E00E940F
:1026C000790381E00E947903BBCFCC3020F683E010
:1026D0000E94790388E00E947903C1CF662309F440
:1026E00026CEC88180EF0E9479038EE60E9479038E
:1026F0008C2F0E947903C63450F6D0E0FE01E751DA
:10270000F84F80810E947903CC0FDD1F8E01015D9F
:10271000174FF80180818F770E947903F80180813B
:1027200091819C012078232B39F0880F892F881FF5
:10273000990B8F770E947903C15DD74F888199816A
:102740009C012227307C232B09F4A1CF990F880B01
:10275000990F982F881F8F770E94790398CF80EF69
:102760000E9479038AE60E947903CAEC8FE7C031A0
:1027700008F48C2F0E947903CF5FC031B9F787CF5F
:102780001F920F920FB60F9211240BB60F922F9338
:102790003F934F935F936F937F938F939F93AF93E9
:1027A000BF93EF93FF9382EF94E00E948004FF9128
:1027B000EF91BF91AF919F918F917F916F915F91B9
:1027C0004F913F912F910F900BBE0F900FBE0F9026
:1027D0001F9018951F920F920FB60F9211240BB6EF
:1027E0000F922F933F934F935F936F937F938F93AA
:1027F0009F93AF93BF93EF93FF9382EF94E00E9478
:102800000204FF91EF91BF91AF919F918F917F91C2
:102810006F915F914F913F912F910F900BBE0F9051
:102820000FBE0F901F9018951F920F920FB60F9228
:1028300011240BB60F922F933F934F935F936F9397
:102840007F938F939F93AF93BF93EF93FF938FE803
:1028500095E00E948004FF91EF91BF91AF919F910D
:102860008F917F916F915F914F913F912F910F9039
:102870000BBE0F900FBE0F901F9018951F920F92D6
:102880000FB60F9211240BB60F922F933F934F93D5
:102890005F936F937F938F939F93AF93BF93EF93C8
:1028A000FF938FE895E00E940204FF91EF91BF91A2
:1028B000AF919F918F917F916F915F914F913F91D8
:1028C0002F910F900BBE0F900FBE0F901F90189579
:1028D0001F920F920FB60F9211240BB60F922F93E7
:1028E0003F934F935F936F937F938F939F93AF9398
:1028F000BF93EF93FF938CE296E00E948004FF91D8
:10290000EF91BF91AF919F918F917F916F915F9167
:102910004F913F912F910F900BBE0F900FBE0F90D4
:102920001F9018951F920F920FB60F9211240BB69D
:102930000F922F933F934F935F936F937F938F9358
:102940009F93AF93BF93EF93FF938CE296E00E9427
:102950000204FF91EF91BF91AF919F918F917F9171
:102960006F915F914F913F912F910F900BBE0F9000
:102970000FBE0F901F9018951F920F920FB60F92D7
:1029800011240BB60F922F933F934F935F936F9346
:102990007F938F939F93AF93BF93EF93FF9389ECB4
:1029A00096E00E948004FF91EF91BF91AF919F91BB
:1029B0008F917F916F915F914F913F912F910F90E8
:1029C0000BBE0F900FBE0F901F9018951F920F9285
:1029D0000FB60F9211240BB60F922F933F934F9384
:1029E0005F936F937F938F939F93AF93BF93EF9377
:1029F000FF9389EC96E00E940204FF91EF91BF9152
:102A0000AF919F918F917F916F915F914F913F9186
:102A10002F910F900BBE0F900FBE0F901F90189527
:102A20001F920F920FB60F9211242F933F938F9303
:102A30009F93AF93BF938091700490917104A09184
:102A40007204B09173043091490423E0230F2D37B1
:102A500058F50196A11DB11D20934904809370047F
:102A600090937104A0937204B093730480914A040C
:102A700090914B04A0914C04B0914D040196A11D7E
:102A8000B11D80934A0490934B04A0934C04B093DF
:102A90004D04BF91AF919F918F913F912F910F90D6
:102AA0000FBE0F901F90189526E8230F0296A11DC8
:102AB000B11DD2CF1F920F920FB60F9211240F901B
:102AC0000FBE0F901F9018951F920F920FB60F9286
:102AD00011240BB60F922F933F934F935F936F93F5
:102AE0007F938F939F93AF93BF93EF93FF938091C7
:102AF000B900887F803609F44DC008F040C08832A4
:102B000009F4A9C028F5803109F49DC0C8F48823D0
:102B100009F4FBC0883009F496C0FF91EF91BF9192
:102B2000AF919F918F917F916F915F914F913F9165
:102B30002F910F900BBE0F900FBE0F901F90189506
:102B4000883109F488C0803241F78093C60414C0EC
:102B5000803409F49DC040F48033B9F38833E9F63A
:102B60008093C60485ECB0C0803509F485C08835F3
:102B700009F496C0883489F60E943D0ECECF88397C
:102B800009F48CC038F5883729F050F4883611F0F4
:102B9000803719F683E08093C8041092460457C02A
:102BA000883809F47BC0803919F0803809F0B5CF36
:102BB00080914604803208F071C0E091460481E0C3
:102BC0008E0F809346048091BB00F0E0EA5DFB4FDE
:102BD00080833DC0803B39F0E0F4803A09F479C04D
:102BE000883A09F09ACF84E08093C80410922304B5
:102BF00010922204E0912004F09121041995809113
:102C0000220481110FC081E08093220410920004FD
:102C100009C0803C09F4A6CF883C09F4A3CF883BC7
:102C200009F07BCFE091230481E08E0F8093230491
:102C3000F0E0E050FC4F80818093BB009091230432
:102C40008091220429C08091A3048093BB0085EC6D
:102C50008093BC0062CF9091C5048091C404981702
:102C600058F5E091C50481E08E0F8093C504F0E033
:102C7000EC55FB4F8081E9CFE091C50481E08E0FD8
:102C80008093C5048091BB00F0E0EC55FB4F80833E
:102C90009091C5048091C4049817C8F285E8D8CFF4
:102CA000E091C50481E08E0F8093C5048091BB0044
:102CB000F0E0EC55FB4F80838091C70481115CCF1D
:102CC00081E08093A20484EA8093BC001092C8043F
:102CD00024CF85EC8093BC001092C80480914604F8
:102CE000803230F4E0914604F0E0EA5DFB4F108260
:102CF0006091460470E0E0912404F091250486E29E
:102D000094E019951092460408CF1092C60434CF6F
:102D10001F920F920FB60F9211240BB60F922F93A2
:102D20003F934F935F936F937F938F939F93AF9353
:102D3000BF93EF93FF9348E251E064E271E090E0CB
:102D400080E00E94B209FF91EF91BF91AF919F91F6
:102D50008F917F916F915F914F913F912F910F9044
:102D60000BBE0F900FBE0F901F9018951F920F92E1
:102D70000FB60F9211240BB60F922F933F934F93E0
:102D80005F936F937F938F939F93AF93BF93EF93D3
:102D9000FF9348EA50E064EA70E083E090E00E942C
:102DA000B209FF91EF91BF91AF919F918F917F9168
:102DB0006F915F914F913F912F910F900BBE0F90AC
:102DC0000FBE0F901F9018951F920F920FB60F9283
:102DD00011240BB60F922F933F934F935F936F93F2
:102DE0007F938F939F93AF93BF93EF93FF9348E9A4
:102DF00050E064E970E082E090E00E94B209FF9147
:102E0000EF91BF91AF919F918F917F916F915F9162
:102E10004F913F912F910F900BBE0F900FBE0F90CF
:102E20001F9018951F920F920FB60F9211240BB698
:102E30000F922F933F934F935F936F937F938F9353
:102E40009F93AF93BF93EF93FF9348E850E064E8FC
:102E500070E081E090E00E94B209FF91EF91BF9194
:102E6000AF919F918F917F916F915F914F913F9122
:102E70002F910F900BBE0F900FBE0F901F901895C3
:102E80001092F5041092F40488EE93E0A0E0B0E014
:102E90008093F6049093F704A093F804B093F90498
:102EA0002DE032E03093F3042093F20445E351E047
:102EB0005093FF044093FE0444E351E05093010516
:102EC0004093000540E351E0509303054093020511
:102ED00041E351E0509305054093040542E351E07E
:102EE000509307054093060546E351E050930905CA
:102EF0004093080510920B0510920C0510920D05D9
:102F000010920E05109292051092910580939305F0
:102F100090939405A0939505B093960530939005F2
:102F200020938F0545ED50E050939C0540939B0501
:102F300044ED50E050939E0540939D0540ED50E0D8
:102F40005093A00540939F0541ED50E05093A2059A
:102F50004093A10542ED50E05093A4054093A30592
:102F600046ED50E05093A6054093A5051092A805A4
:102F70001092A9051092AA051092AB0510922F0687
:102F800010922E068093300690933106A09332065D
:102F9000B093330630932D0620932C064DEC50E071
:102FA00050933906409338064CEC50E050933B0662
:102FB00040933A0648EC50E050933D0640933C065F
:102FC00049EC50E050933F0640933E064AEC50E0F7
:102FD00050934106409340064EEC50E05093430618
:102FE00040934206109245061092460610924706FC
:102FF000109248061092CC061092CB068093CD0614
:103000009093CE06A093CF06B093D0063093CA0615
:103010002093C90625EC30E03093D6062093D506E0
:1030200024EC30E03093D8062093D70620EC30E033
:103030003093DA062093D90621EC30E03093DC0699
:103040002093DB0622EC30E03093DE062093DD0691
:1030500026EC30E03093E0062093DF061092E20683
:103060001092E3061092E4061092E50626E637E099
:103070001092A7071092A6073093AA072093A907DA
:1030800040E450E05093AC074093AB071092AD077B
:103090001092AE071092B0071092AF071092B107CE
:1030A0001092B3071092B2071092B5071092B407AE
:1030B0001092B7071092B6071092B9071092B8078E
:1030C0001092BB071092BA071092BD071092BC076E
:1030D0001092BF071092BE071092C5071092C40746
:1030E0001092C7071092C6071092C9071092C8071E
:1030F0001092CB071092CA071092D9071092D807E6
:103100001092A8071092E6071092E8071092E707BE
:103110001092BB0846EE51E05093CD074093CC0788
:1031200040EF51E05093CF074093CE074AEF51E074
:103130005093D1074093D00744E052E05093D30717
:103140004093D2074EE052E05093D5074093D40706
:1031500048E152E05093D7074093D60742E252E04D
:103160005093DB074093DA0743E252E05093DD07C8
:103170004093DC074FEC56E05093DF074093DE07A7
:103180003093C1072093C00743EA56E05093E1070C
:103190004093E0073093C3072093C2072EE232E04A
:1031A0003093E3072093E2071092BF081092BE0805
:1031B0008093C0089093C108A093C208B093C3083D
:1031C0008FE192E09093BD088093BC08E9E5F9E0B7
:1031D0002FEF48EB5BE0809158098033B8F491E021
:1031E000980F90935809808390E0DC01AA0FBB1FD1
:1031F000A80FB91FA853B74F12965C934E9311971F
:10320000339689E0E93EF80731F708952083F8CF37
:10321000789484B5826084BD84B5816084BD85B5B1
:10322000826085BD85B5816085BD80916E008160BD
:1032300080936E0010928100809181008260809363
:103240008100809181008160809381008091800065
:103250008160809380008091B10084608093B10090
:103260008091B00081608093B00080919100826075
:103270008093910080919100816080939100809172
:1032800090008160809390008091A1008260809383
:10329000A1008091A10081608093A1008091A00095
:1032A00081608093A0008091210182608093210140
:1032B00080912101816080932101809120018160B2
:1032C0008093200180917A00846080937A008091BD
:1032D0007A00826080937A0080917A008160809386
:1032E0007A0080917A00806880937A001092C10001
:1032F00085E18093E6078091E7079091E8070E94B7
:103300007F20C091E607D0E0CE0101960E94E31F26
:103310009093E8078093E707FC01EC0FFD1F1082F4
:1033200012E0DC011C9328E011962C93AE01425070
:10333000510960E073E002960E94082184E69BE058
:10334000909359048093580489E99AE09093570424
:10335000809356048CE69AE090935504809354042D
:1033600085E49DE0909353048093520485E79EE0AA
:1033700090935104809350048FEE9CE090934F04FF
:1033800080934E0488E591E190935B0480935A0406
:1033900081ED9FE090935D0480935C04E091D906F9
:1033A000F091DA061083E091D506F091D6061082EE
:1033B000E091D706F091D80680E180831092E10673
:1033C000E091DD06F091DE0686E08083E091DB0689
:1033D000F091DC06808180618083E091DB06F091D2
:1033E000DC06808188608083E091DB06F091DC065A
:1033F000808180688083E091DB06F091DC0680812B
:103400008F7D80838091BB0881114FC061E08DE08A
:103410000E94F20562ED70E080E090E00E9470068C
:1034200061E08DE00E94C40568E270E080E090E019
:103430000E94700660E08DE00E94C40562ED70E0BD
:1034400080E090E00E94700661E08DE00E94C4057B
:1034500068E270E080E090E00E94700660E08DE03D
:103460000E94C4056AEF70E080E090E00E94700660
:10347000C8E062ED70E080E090E00E94700661E0DC
:103480008DE00E94C40568E270E080E090E00E9458
:10349000700660E08DE00E94C405C15051F76DE7F1
:1034A00070E080E090E00E94700689EC96E09093D6
:1034B000E5078093E4079093A7078093A6070E94EF
:1034C000D10FD5E0BB24B39402E010E0EE24E394E6
:1034D000F12C23E0C22ED12C80916704882391F136
:1034E000A0905E04A2FCE1C2C0E0A3FE06C083E09F
:1034F0000E949B05892B09F0C860A4FE06C084E0E9
:103500000E949B05892B09F0C061A5FE06C085E0DD
:103510000E949B05892B09F0C062A6FE06C086E0CA
:103520000E949B05892B09F0C064A7FE06C087E0B6
:103530000E949B05892B09F0C06840E06C2F80E059
:103540000E94040D80916804882309F44AC0A09069
:103550005F04CA2DC170A0FE07C088E00E949B05D1
:10356000C1E0892B09F4C0E0A1FE06C089E00E94F9
:103570009B05892B09F0C260A2FE06C08AE00E946A
:103580009B05892B09F0C460A3FE06C08BE00E9456
:103590009B05892B09F0C860A4FE06C08CE00E9440
:1035A0009B05892B09F0C061A5FE06C08DE00E9435
:1035B0009B05892B09F0C062A6FE06C08EE00E9422
:1035C0009B05892B09F0C064A7FE06C08FE00E940E
:1035D0009B05892B09F0C06840E06C2F81E00E94B8
:1035E000040D80916904882309F44AC0A090600406
:1035F000CA2DC170A0FE07C080E10E949B05C1E0FA
:10360000892B09F4C0E0A1FE06C081E10E949B0560
:10361000892B09F0C260A2FE06C082E10E949B05D0
:10362000892B09F0C460A3FE06C083E10E949B05BC
:10363000892B09F0C860A4FE06C084E10E949B05A6
:10364000892B09F0C061A5FE06C085E10E949B059B
:10365000892B09F0C062A6FE06C086E10E949B0588
:10366000892B09F0C064A7FE06C087E10E949B0574
:10367000892B09F0C06840E06C2F82E00E94040DA5
:1036800080916A04882309F44AC0A0906104CA2D7D
:10369000C170A0FE07C088E10E949B05C1E0892B94
:1036A00009F4C0E0A1FE06C089E10E949B05892BB8
:1036B00009F0C260A2FE06C08AE10E949B05892B28
:1036C00009F0C460A3FE06C08BE10E949B05892B14
:1036D00009F0C860A4FE06C08CE10E949B05892BFE
:1036E00009F0C061A5FE06C08DE10E949B05892BF3
:1036F00009F0C062A6FE06C08EE10E949B05892BE0
:1037000009F0C064A7FE06C08FE10E949B05892BCB
:1037100009F0C06840E06C2F83E00E94040D8091A6
:103720006B04882309F44AC0A0906204CA2DC170BA
:10373000A0FE07C080E20E949B05C1E0892B09F42E
:10374000C0E0A1FE06C081E20E949B05892B09F022
:10375000C260A2FE06C082E20E949B05892B09F08E
:10376000C460A3FE06C083E20E949B05892B09F07A
:10377000C860A4FE06C084E20E949B05892B09F064
:10378000C061A5FE06C085E20E949B05892B09F059
:10379000C062A6FE06C086E20E949B05892B09F046
:1037A000C064A7FE06C087E20E949B05892B09F032
:1037B000C06840E06C2F84E00E94040D80916C048E
:1037C000882309F44AC0A0906304CA2DC170A0FEEA
:1037D00007C088E20E949B05C1E0892B09F4C0E084
:1037E000A1FE06C089E20E949B05892B09F0C260F8
:1037F000A2FE06C08AE20E949B05892B09F0C460E4
:10380000A3FE06C08BE20E949B05892B09F0C860CD
:10381000A4FE06C08CE20E949B05892B09F0C061C2
:10382000A5FE06C08DE20E949B05892B09F0C062AF
:10383000A6FE06C08EE20E949B05892B09F0C0649B
:10384000A7FE06C08FE20E949B05892B09F0C06885
:1038500040E06C2F85E00E94040D80916D04882368
:1038600009F44AC0A0906404CA2DC170A0FE07C02C
:1038700080E30E949B05C1E0892B09F4C0E0A1FE12
:1038800006C081E30E949B05892B09F0C260A2FE5D
:1038900006C082E30E949B05892B09F0C460A3FE49
:1038A00006C083E30E949B05892B09F0C860A4FE33
:1038B00006C084E30E949B05892B09F0C061A5FE28
:1038C00006C085E30E949B05892B09F0C062A6FE15
:1038D00006C086E30E949B05892B09F0C064A7FE01
:1038E00006C087E30E949B05892B09F0C06840E071
:1038F0006C2F86E00E94040D80916E04882309F4E9
:103900004AC0A0906504CA2DC170A0FE07C088E31C
:103910000E949B05C1E0892B09F4C0E0A1FE06C00E
:1039200089E30E949B05892B09F0C260A2FE06C0B4
:103930008AE30E949B05892B09F0C460A3FE06C0A0
:103940008BE30E949B05892B09F0C860A4FE06C08A
:103950008CE30E949B05892B09F0C061A5FE06C07F
:103960008DE30E949B05892B09F0C062A6FE06C06C
:103970008EE30E949B05892B09F0C064A7FE06C058
:103980008FE30E949B05892B09F0C06840E06C2FF3
:1039900087E00E94040D80916F048823D1F1A090EC
:1039A0006604CA2DC170A0FE07C080E40E949B057A
:1039B000C1E0892B09F4C0E0A1FE06C081E40E94A9
:1039C0009B05892B09F0C260A2FE06C082E40E941A
:1039D0009B05892B09F0C460A3FE06C083E40E9406
:1039E0009B05892B09F0C860A4FE06C084E40E94F0
:1039F0009B05892B09F0C061A5FE06C085E40E94E5
:103A00009B05892B09F0C06240E06C2F88E00E9482
:103A1000040D8091E4079091E507DC01ED91FC91A4
:103A20000084F185E02D1995892B09F4DEC1809180
:103A3000E4079091E507DC01ED91FC910284F385A8
:103A4000E02D19959C018F3F980719F3982F8091CD
:103A5000B107882309F49BC0973F09F087C01092F3
:103A6000B107A091A907B091AA076C91613709F439
:103A700040C0693709F064C0E091DE07F091DF07CC
:103A8000309739F28091B2079091B3078330910556
:103A9000A0F430E020E050E040E070E060E0809191
:103AA000C0079091C1071995B4CF82E00E949B0591
:103AB000892B09F419CDC4E018CDBD016D5F7F4F8E
:103AC00003970E94B603BC016D5F7F4F80E00E94A8
:103AD0008603E091A907F091AA079F012D5F3F4F50
:103AE000428150E0618170E0E091DE07F091DF07F4
:103AF000D6CF8091DA079091DB07892B09F489CF23
:103B0000BD016F5F7F4F8091B2079091B30701971E
:103B10000E94B603BC016F5F7F4F80E00E94860366
:103B20006091A9077091AA076F5F7F4FE091DA0754
:103B3000F091DB078091C6079091C707199569CF6F
:103B4000E091DC07F091DD07309709F462CF9D0129
:103B50002F5F3F4F4091B2075091B3074150510939
:103B60008091C8079091C907199553CF6091B2070A
:103B70007091B307822F0E9486038091B2079091C3
:103B8000B30701969093B3078093B20742CF609139
:103B9000AF077091B0076115710509F4B2C027FD38
:103BA000B0C0615071097093B0076093AF07822F66
:103BB0000E9486038091AF079091B007892B09F08E
:103BC00028CF8091AD07882309F423CF803D09F4E5
:103BD00084C040F4803951F1803C09F46AC01092ED
:103BE000AD0717CF843FE9F1853F09F44EC0803E11
:103BF000B1F7E091CC07F091CD07309781F3A09118
:103C0000A907B091AA0711964C91119720E8429FFD
:103C1000C00111244C91480F592F511D6091AE07DE
:103C20008091B4079091B5071995D9CFE091CE074F
:103C3000F091CF07309799F2A091A907B091AA0708
:103C40004C9120E8429FC001112411964C91480FDD
:103C5000592F511D6091AE078091B6079091B7071B
:103C6000E3CFE091D407F091D507309709F4B7CFAF
:103C7000A091A907B091AA074C9150E011966C91C0
:103C80008091BC079091BD07CFCFE091D607F0910E
:103C9000D707309709F4A3CFA091A907B091AA073D
:103CA0004C9150E011966C918091BE079091BF07A6
:103CB000BBCFE091D007F091D107309709F48FCFB7
:103CC000A091A907B091AA074C9150E06091AE076E
:103CD0008091B8079091B907A7CFE091D207F091F2
:103CE000D307309709F47BCFA091A907B091AA0719
:103CF0004C9150E06091AE078091BA079091BB075C
:103D000093CF903F30F4822F8F708093AE07922F25
:103D1000907F903F09F443C0B8F4903CD9F140F44F
:103D2000903909F076CE1093B0070093AF0709C021
:103D3000903D81F1903E09F06CCED092B007C092D8
:103D4000AF079093AD0765CE993F09F442C028F4C0
:103D50008CE0890F823038F35CCE9F3F09F059CE5A
:103D60001092B0071092AF071092AD071092AE07F5
:103D700090E080E02091AB073091AC078217930769
:103D8000A8F4E091A907F091AA07E80FF91F1082A3
:103D90000196F0CFF092B007E092AF07D2CFB09289
:103DA000B1071092B3071092B20733CE1092B10749
:103DB0001092B3071092B207E091E207F091E30787
:103DC0008091CA079091CB07309709F422CE1995BC
:103DD00020CEE091E007F091E107309709F419CE89
:103DE0008091C2079091C307F2CF8FB7F8944090AB
:103DF00070045090710460907204709073048FBFCF
:103E000080919E0490919F04A091A004B091A10480
:103E1000409101025091020270E060E0481A590A94
:103E20006A0A7B0A441555056605770508F051C0F6
:103E3000840F951FA61FB71F80939E0490939F0425
:103E4000A093A004B093A10486E6882E87E0982E64
:103E5000CAECC031C8F4F401ED57FF4F80818230C5
:103E600099F480919C0490919D040C2E02C095952C
:103E700087950A94E2F780FF07C08C2F0E942E06D8
:103E8000BC018C2F0E94D102CF5F8FEF881A980A55
:103E9000C031F9F68091000287FD1BC0C0E02C2FD5
:103EA00030E080910002082E000C990B82179307D6
:103EB00084F0D29FF001D39FF00D1124EC58FB4FFA
:103EC000618172812481438180810E941610CF5FBD
:103ED000E6CF0E940F0500CB052E97FB1EF4009441
:103EE0000E94831F57FD07D00E949E1F07FC03D02E
:103EF0004EF40C94831F50954095309521953F4F7B
:103F00004F4F5F4F089590958095709561957F4FC5
:103F10008F4F9F4F08950E94C01FA59F900DB49F83
:103F2000900DA49F800D911D11240895B7FF0C944E
:103F30008B1F0E948B1F821B930B0895A1E21A2EE8
:103F4000AA1BBB1BFD010DC0AA1FBB1FEE1FFF1F3D
:103F5000A217B307E407F50720F0A21BB30BE40B8D
:103F6000F50B661F771F881F991F1A9469F76095D4
:103F70007095809590959B01AC01BD01CF0108958E
:103F8000A29FB001B39FC001A39F700D811D11249A
:103F9000911DB29F700D811D1124911D0895991BD3
:103FA00079E004C0991F961708F0961B881F7A9530
:103FB000C9F780950895EE0FFF1F881F8BBF0790EC
:103FC000F691E02D19940F931F93CF93DF938230D6
:103FD000910510F482E090E0E091EB09F091EC099A
:103FE00030E020E0B0E0A0E0309799F421153105F1
:103FF00009F44AC0281B390B24303105D8F58A81D1
:104000009B816115710589F1FB0193838283FE0118
:1040100011C0408151810281138148175907E0F096
:104020004817590799F4109761F012960C9312975C
:1040300013961C933296CF01DF91CF911F910F9170
:1040400008950093EB091093EC09F4CF2115310585
:1040500051F04217530738F0A901DB019A01BD0165
:10406000DF01F801C1CFEF01F9CF9093EC09809304
:10407000EB09CDCFFE01E20FF31F81939193225004
:10408000310939832883D7CF2091E9093091EA0992
:10409000232B41F420910502309106023093EA0966
:1040A0002093E90920910302309104022115310582
:1040B00041F42DB73EB74091070250910802241BEE
:1040C000350BE091E909F091EA09E217F307A0F452
:1040D0002E1B3F0B2817390778F0AC014E5F5F4F5E
:1040E0002417350748F04E0F5F1F5093EA0940939D
:1040F000E909819391939FCFF0E0E0E09CCFCF93CB
:10410000DF930097E9F0FC01329713821282A091AD
:10411000EB09B091EC09ED0130E020E01097A1F43B
:1041200020813181820F931F2091E9093091EA09A2
:104130002817390709F061C0F093EA09E093E9090B
:10414000DF91CF910895EA01CE17DF07E8F54A81A4
:104150005B819E0141155105B1F7E901FB83EA83BB
:1041600049915991C40FD51FEC17FD0761F4808167
:1041700091810296840F951FE9019983888382813A
:1041800093819B838A83F0E0E0E012968D919C916D
:1041900013970097B9F52D913C911197CD01029697
:1041A000820F931F2091E9093091EA0928173907F6
:1041B00039F6309751F51092EC091092EB09B09353
:1041C000EA09A093E909BCCFD383C283408151811E
:1041D000840F951FC817D90761F44E5F5F4F888120
:1041E0009981480F591F518340838A819B81938312
:1041F00082832115310509F0B0CFF093EC09E093EB
:10420000EB099ECFFD01DC01C0CF13821282D7CF14
:10421000FB01DC014150504048F001900D9200201C
:10422000C9F701C01D9241505040E0F70895F8943D
:02423000FFCFBE
:10423200FF13000000ED09800000000000A204D579
:10424200031B04EF044C042A043E0400000000D5C2
:1042520008A80804097E08A1088E087F084D617825
:1042620020736572766F732061747461636865642C
:1042720000556E6B6E6F776E2070696E206D6F6485
:1042820065004932433A20546F6F206D616E792088
:104292006279746573207265636569766564004945
:1042A20032433A20546F6F206665772062797465D5
:1042B200732072656365697665640031302D6269C9
:1042C200742061646472657373696E67206E6F74C3
:1042D20020737570706F7274656400746F6F206DF7
:1042E200616E79207175657269657300433A5C5538
:1042F200736572735C41444D494E497E315C417035
:1043020070446174615C4C6F63616C5C54656D7088
:104312005C61726475696E6F5F6D6F646966696511
:10432200645F736B657463685F3932323330325C59
:104332005374616E646172644669726D6174612E58
:04434200696E6F0031
:00000001FF
