:1000000030C300000C94E3220C942E2347C300005D
:1000100045C3000043C3000041C300000C94EF1827
:100020003DC3000047C3000039C300000C944F13C8
:100030000C947B2C33C3000031C300002FC300009D
:100040000C94962D2BC300000C94E02D27C30000C8
:1000500025C3000023C3000021C300001FC300000C
:100060000C94721A1BC30000000000000000000086
:1000700000000000000000000000183C3C3C181884
:1000800018001818000000000063636322000000DD
:10009000000000000000000000000036367F363609
:1000A000367F3636000000000C0C3E6361603E0374
:1000B0000343633E0C0C0000000000000061630677
:1000C0000C183363000000000000001C36361C3B97
:1000D0006E66663B000000000030303060000000BB
:1000E000000000000000000000000C181830303044
:1000F0003018180C000000000000180C0C06060652
:10010000060C0C18000000000000000042663CFFD6
:100110003C6642000000000000000000181818FFB4
:100120001818180000000000000000000000000087
:10013000000018181830000000000000000000FF48
:1001400000000000000000000000000000000000AF
:10015000000018180000000000000103070E1C3802
:1001600070E0C0800000000000003E6363636B6BC2
:100170006363633E0000000000000C1C3C0C0C0C90
:100180000C0C0C3F0000000000003E6303060C183E
:100190003061637F0000000000003E6303031E0324
:1001A0000303633E000000000000060E1E36666674
:1001B0007F06060F0000000000007F6060607E0385
:1001C0000363733E0000000000001C3060607E632B
:1001D0006363633E0000000000007F630306060CBB
:1001E0000C1818180000000000003E6363633E63B3
:1001F0006363633E0000000000003E636363633F8F
:100200000303063C00000000000000000018180076
:10021000000018180000000000000000001818007E
:100220000000181818300000000000060C1830609C
:1002300030180C06000000000000000000007E00E6
:10024000007E0000000000000000006030180C0676
:100250000C1830600000000000003E6363060C0CC8
:100260000C000C0C0000000000003E63636F6B6B21
:100270006E60603E000000000000081C366363638F
:100280007F6363630000000000007E3333333E333E
:100290003333337E0000000000001E336160606075
:1002A0006061331E0000000000007C3633333333BE
:1002B0003333367C0000000000007F3331343C349F
:1002C0003031337F0000000000007F3331343C3494
:1002D000303030780000000000001E336160606F35
:1002E0006363371D000000000000636363637F6386
:1002F000636363630000000000003C1818181818BE
:100300001818183C0000000000000F06060606063C
:100310000666663C000000000000733336363C364B
:100320003633337300000000000078303030303056
:100330003031337F00000000000063777F6B636320
:10034000636363630000000000006363737B7F6F7F
:10035000676363630000000000001C36636363632F
:100360006363361C0000000000007E3333333E30F0
:10037000303030780000000000003E636363636348
:10038000636B6F3E0607000000007E3333333E365A
:10039000363333730000000000003E6363301C06F8
:1003A0000363633E000000000000FFDB991818188B
:1003B0001818183C00000000000063636363636367
:1003C0006363633E00000000000063636363636374
:1003D00063361C0800000000000063636363636B06
:1003E0006B7F3636000000000000C3C3663C18185F
:1003F0003C66C3C3000000000000C3C3C3663C18D2
:100400001818183C0000000000007F6343060C1819
:100410003061637F0000000000003C30303030303D
:100420003030303C00000000000080C0E070381C1C
:100430000E0703010000000000003C0C0C0C0C0C2B
:100440000C0C0C3C00000000081C3663000000008F
:10045000000000000000000000000000000000009C
:1004600000000000FF00000018180C000000000051
:10047000000000000000000000000000003C4606F4
:100480003E66663B0000000000007030303C3633B2
:100490003333336E0000000000000000003E636054
:1004A0006060633E0000000000000E06061E366617
:1004B0006666663B0000000000000000003E6363CB
:1004C0007E60633E0000000000001C3632307C304D
:1004D000303030780000000000000000003B66660D
:1004E00066663E06663C00000000703030363B33E6
:1004F000333333730000000000000C0C001C0C0CA4
:100500000C0C0C1E0000000000000606000E060683
:1005100006060666663C0000000070303033333655
:100520003C3633730000000000001C0C0C0C0C0C5B
:100530000C0C0C1E0000000000000000006E7F6B21
:100540006B6B6B6B0000000000000000006E33332B
:10055000333333330000000000000000003E6363CB
:100560006363633E0000000000000000006E333350
:1005700033333E303078000000000000003B6666F8
:1005800066663E06060F000000000000006E3B336A
:10059000303030780000000000000000003E63387A
:1005A0000E03633E0000000000000818187E1818B3
:1005B00018181B0E000000000000000000666666B0
:1005C0006666663B000000000000000000636336C2
:1005D000361C1C080000000000000000006363637C
:1005E0006B6B7F3600000000000000000063361CCB
:1005F0001C1C366300000000000000000063636301
:1006000063633F03063C000000000000007F660CAF
:100610001830637F0000000000000E1818187018D2
:100620001818180E000000000000181818181800FC
:1006300018181818180000000000701818180E1864
:10064000181818700000000000003B6E0000000049
:10065000000000000000000000000000240027004F
:100660002A0011241FBECFEFD8E0DEBFCDBF12E0BD
:10067000A0E0B1E0E8E2F8E602C005900D92AE30ED
:10068000B107D9F726E0AEE0B2E001C01D92A93B68
:10069000B207E1F70E941A2E0C941234B1CC1092DA
:1006A000B00087E08093B1001092B20081E08093A7
:1006B000700008951F920F920FB60F9211248F931E
:1006C000809113028F5F809313028F910F900FBE62
:1006D0000F901F901895CF93DF9380910F02909108
:1006E0001002A0911102B09112020097A105B1056C
:1006F00009F450C02AE0E1E2F3E0EF0119922A95F3
:10070000E9F720EF209321032DE02093220320918D
:10071000CF0420932403282F2F7720932503AC01A7
:10072000BD0127E076956795579547952A95D1F7AE
:100730004F7740932603AC01BD013EE07695679567
:10074000579547953A95D1F74F7740932703AC01DA
:10075000BD01E5E17695679557954795EA95D1F7FF
:100760004F7740932803FCE1B695A7959795879519
:10077000FA95D1F78093290387EF80932A0310928B
:100780000F0210921002109211021092120281E0D8
:1007900080930E02DF91CF9108958091CF040E9443
:1007A000292B8823D1F38091B20090E09093190215
:1007B000809318021092B200809118029091190251
:1007C00005970897E0F48091CF040E94292B8111AE
:1007D000FACF8091B20090E09093190280931802B2
:1007E0001092B20080911802909119029C0125503C
:1007F00031092830310528F04797079720F08FEF0F
:10080000089580E0089581E008950F931F93CF939A
:10081000DF9310920F0210921002109211021092A8
:100820001202C8E0D0E0B9DF81114AC02197D9F7A0
:10083000C6E0D0E0B2DF813009F042C02197D1F7A5
:10084000ACDF81113DC0A9DF8130D1F5CFE0D0E030
:1008500001E010E0A2DF8130F9F4C8010C2E02C0E3
:10086000880F991F0A94E2F7092E000CAA0BBB0B04
:1008700040910F025091100260911102709112028A
:10088000842B952BA62BB72B80930F0290931002ED
:10089000A0931102B09312022197E0F680910F020B
:1008A00090911002A0911102B0911202AA27BB27C9
:1008B00080930F0290931002A0931102B093120242
:1008C000DF91CF911F910F9108958093CF041092E3
:1008D000B2008091CF040E94292B882329F08091B7
:1008E000B20010921302F5CF1092B2008091CF04A3
:1008F0000E94292B8823D1F38091B20090E090933D
:100900001902809318021092B200809118029091FF
:1009100019028C589109049760F58091CF040E94C8
:10092000292B8111FACF8091B20090E090931902A7
:10093000809318021092B2008091180290911902CF
:100940009C01245431092530310508F45ECF82978B
:10095000039778F48091CF040E94292B8823D1F348
:100960008091B20090E09093190280931802109247
:10097000B20008958F929F92AF92BF92CF92DF9272
:10098000EF92FF92CF936C01C62F0E945D204B0126
:100990005C010D2C000CEE08FF0861E08C2F0E941A
:1009A000FB2A80911402909115020E94BB2060E006
:1009B0008C2F0E94FB2A80911402909115020E94B4
:1009C000BB200E945D20DC01CB0188199909AA098E
:1009D000BB098C159D05AE05BF05F8F2CF91FF90C0
:1009E000EF90DF90CF90BF90AF909F908F90089541
:1009F0008F929F92AF92BF92CF92DF92EF92FF922F
:100A00006C01F62E0E945D204B015C0160E08F2D91
:100A10000E94FB2A0D2C000CEE08FF080E945D20AE
:100A2000DC01CB0188199909AA09BB098C159D0520
:100A3000AE05BF0598F3FF90EF90DF90CF90BF9089
:100A4000AF909F908F900895E62FF0E0E55FFE4F06
:100A5000E0819E2F977041E050E09A0101C0220F83
:100A60009A95EAF7F0E093E0F695E7959A95E1F725
:100A7000BF01660F771FE60FF71FB096922F909574
:100A80003281932392839181292B2183682F70E0F7
:100A9000CA010E94C231072E000C880B990B0E94DC
:100AA000293020E030E04AE754E40E94F33020E0AF
:100AB00030E040EC50E40E942A2F0E94F62F609311
:100AC00014027093150280931602909317020895F2
:100AD000AF92BF92CF92DF92EF92FF920F931F934C
:100AE000CF936B017C01C42F5901642F86E2ACDFE8
:100AF0006C2F88E293E23EDF6C2F84E991E178DF8E
:100B000000E010E06C2F80E392E00A151B05A4F4CE
:100B1000F7FE06C02FDF6C2F80E496E069DF05C08A
:100B200029DF6C2F80E392E063DFCC0CDD1CEE1C30
:100B3000FF1C0F5F1F4FE6CF1DDF6C2F80E090E0A2
:100B4000CF911F910F91FF90EF90DF90CF90BF90CA
:100B5000AF904ECFE82FF0E0E15EFE4FE0812E2F08
:100B6000277081E090E001C0880F2A95EAF7F0E055
:100B700093E0F695E7959A95E1F79F01220F331FD1
:100B8000E20FF31FB096982F9095228192239283C3
:100B90009181892B81830895AF92BF92CF92DF928A
:100BA000EF92FF920F931F93CF93DF936C01C62FA9
:100BB000D0E0CC0FDD1F8E010C5C1D4FF801808151
:100BC0009181009729F00E947933F80111821082F7
:100BD0008E01065E1D4FF80180819181009729F0FA
:100BE0000E947933F801118210829091C2048091A1
:100BF000D604981719F084E090E002C083E090E0FA
:100C00008C9D50018D9DB00C9C9DB00C1124B09218
:100C1000C404A092C304C5010E94E1328C01FE010C
:100C2000EC5CFD4F91838083892BE9F0C5010E9424
:100C3000E1327C01FE01E65EFD4F91838083892BCA
:100C400091F0A50160E070E0C8010E940B34A5019D
:100C500060E070E0C7010E940B34D092DD04C092C6
:100C6000DC0481E019C0C8010E947933FE01EC5C0C
:100C7000FD4F11821082C65EDD4F888199810E94EE
:100C80007933198218821092C4041092C30410920E
:100C9000DD041092DC0480E0DF91CF911F910F9171
:100CA000FF90EF90DF90CF90BF90AF90089531E02C
:100CB0002091C2049091D604291330E0482F429528
:100CC0004695469543704093C204982F9295937031
:100CD0009093D604282F2695269523702093CB0435
:100CE00083708093D20481E08093D504E62FF0E0F6
:100CF000EE0FFF1FEC5CFD4F0190F081E02DEF2B1C
:100D000049F0491380E0381729F08091DC04909174
:100D1000DD0442CF08950F931F93CF93C82F809186
:100D20002E038F3F99F08091D7048C130FC08091D0
:100D3000D8049091D9048617970741F48091DA047A
:100D4000841304C08091DB04821729F1822F8B0168
:100D5000C093D7047093D9046093D8044093DA0405
:100D60002093DB044093D1046C2FA1DF6C2FC801CA
:100D700013DFC82F882369F080912E0387FD06C0FA
:100D8000E9DE60E080912E030E94FB2A81E08093DF
:100D9000D0048C2F00C0CF911F910F910895611145
:100DA000D9CEE82FF0E0E15EFE4F8081E82FF0E041
:100DB00093E0F695E7959A95E1F79F01220F331F8F
:100DC000E20FF31FB096282F277081E090E001C05A
:100DD000880F2A95EAF780959181982391839281D3
:100DE000892382830895CF93C82F8091D0048823CC
:100DF00031F080912E0387FD02C060E0D0DFC09308
:100E00002E038091D004882331F08C2FA3DE60E084
:100E10008C2F0E94FB2A8C2F90E0FC01EA51FE4FA0
:100E2000E081F0E0EE0FFF1FE452FE4F20813181A0
:100E30003093D4042093D304FC01E853FE4F808107
:100E40008093BD04CF9108954F925F926F927F92ED
:100E50008F929F92AF92BF92CF92DF92EF92FF92CA
:100E60000F931F93CF93DF93CDB7DEB729970FB6BC
:100E7000F894DEBF0FBECDBF722EC32ED42E598381
:100E800028E631E040E050E00E94D5314B015C01A2
:100E9000ED82FE820F8318872D813E814F81588518
:100EA000243631054105510540F083E690E0A0E08D
:100EB000B0E08D839E83AF83B8878D819E81AF81A3
:100EC000B885C297A109B048880F991F97FF03C042
:100ED00091958195910924E630E0281B390B032E6A
:100EE000000C440B550B672D7C2D8D2D998164369C
:100EF00071058105910520F063E670E080E090E0E7
:100F00000E949F31982F872F762F662720E137E2A6
:100F100040E050E00E94D53129013A01ACE3CA2EED
:100F2000D12CE12CF12CC501B401A70196010E943E
:100F3000D53129833A834B835C83998199872CE34C
:100F4000A981BA812A9FC0012B9F900D1124092EDF
:100F5000000CAA0BBB0BA5019401281B390B4A0BF3
:100F60005B0B942F832F722F6627A70196010E9497
:100F7000D53189818170C82ED12CDC2CCC24DA9417
:100F8000C20ED31ED7FE03C0D194C194D1080D2C3C
:100F9000000CEE08FF0880E091E0A0E0B0E09C01CA
:100FA000AD012C193D094E095F09C301B2010E9430
:100FB0009F31C72ED82EE92EFF249985992379F0E9
:100FC000913081F09230B9F09330E1F0943011F12A
:100FD000C982DA82EB82FC825301420121C05301B3
:100FE000420104C0460157017301620119821A824D
:100FF0001B821C8218C0C982DA82EB82FC827301D8
:10100000620104C049825A826B827C82812C912CBD
:10101000540109C049825A826B827C824601570181
:10102000C12CD12C76018D819E81AF81B885880F2E
:10103000991FAA1FBB1F6627782F892F9A2F24E696
:1010400030E040E050E00E94D531DA01C901841956
:101050009509A609B7098C019D0136952795179525
:101060000795D501C401800F911FA21FB31F9927B7
:10107000AA27BB27DC0199278827C00ED11EE21EB4
:10108000F31EFE2CED2CDC2CCC24EE24FF248C292A
:101090009D29AE29BF2949815A816B817C81400FEE
:1010A000511F621F731FBC01CD01642B29960FB61F
:1010B000F894DEBF0FBECDBFDF91CF911F910F918E
:1010C000FF90EF90DF90CF90BF90AF909F908F9068
:1010D0007F906F905F904F900895CF932091DC04A4
:1010E0003091DD046217730708F058C02091C204E4
:1010F000C091D60490E05091CB04A22FB0E0409173
:10110000D204880F991FFC012C1322C0E65EFD4F0C
:101110009B01220F331F620F731F20813181260F25
:10112000371FF901E50FF11D5081A20FB31F6C911C
:10113000862F90E0A0E0B0E0DC0199278827952B6E
:10114000F901E40FF11D2081BC01CD01622B29C002
:10115000EC5CFD4F660F771F660F771F2081318192
:10116000260F371FA20FB31FEC91D901AC0FB11D91
:101170006C91862F90E0A0E0B0E0DC0199278827F1
:10118000BE2BF901E40FF11D4081842BF901E50F1D
:10119000F11D2081BC01CD01722B03C060E070E025
:1011A000CB01CF9108951F93CF93DF93CDB7DEB7D7
:1011B00029970FB6F894DEBF0FBECDBF182F13DEF0
:1011C0008091C3049091C4049A838983E12FF0E055
:1011D000EE0FFF1FEC5CFD4F0190F081E02DDF0171
:1011E0001196808189879091D504E091D304F09184
:1011F000D4048091BD04992309F436C09081982BC2
:1012000098879081809589238F838F818E8388E052
:101210008D83F89458856F81E091D304F091D404C4
:1012200049853D812E8189819A81508347FD252FF3
:101230003A952083262F39F0441F00C000006083B8
:10124000000000C0F2CF38E04D91608300000197AC
:1012500061F7F093D404E093D30449873D832E8350
:101260009A83898378943AC09081982B988790814B
:10127000809589238F838F818C8388E08B83588529
:101280006F8149853B812C8189819A81508347FDFB
:10129000252F00C000C0208300C000C000C000C0D7
:1012A00000C060830000262F3A9541F0441F0000E3
:1012B00000C000C000C000C000C0E8CF38E04D91C1
:1012C00000C0608300C0019709F7F093D404E09355
:1012D000D30449873B832C839A83898329960FB64D
:1012E000F894DEBF0FBECDBFDF91CF911F9108955F
:1012F000CF92DF92EF92FF920F931F93CF93DF93E2
:101300006093D1042091DC043091DD04232B09F497
:1013100061C0A0E0B0E0C0E0D0E0E82FF0E0EE0F68
:10132000FF1F8F010C5C1D4F9F01265E3D4F690121
:101330002091DC043091DD04C217D30708F041C0CE
:10134000F801408151817A01EA0EFB1EF6012081ED
:1013500031812A0F3B1F4091D60450E0B901640F40
:10136000751FFB0190816091D1044E0D5F1D969F0A
:10137000B0011124FA0170836091CB0470E0A901DF
:10138000460F571FFA0190814091D1046E0D7F1DC9
:10139000949FA0011124FB0150839091D204492F06
:1013A00050E0240F351FF90190812091D1044E0D9A
:1013B0005F1D929F90011124FA01308321961396AC
:1013C000B7CFDF91CF911F910F91FF90EF90DF90FA
:1013D000CF90E9CEDF91CF911F910F91FF90EF90C9
:1013E000DF90CF9008954F925F926F927F928F928D
:1013F0009F92AF92BF92CF92DF92EF92FF920F93A4
:101400001F93CF93DF9369017A01902F2091DC0421
:101410003091DD046217730708F093C0870122271B
:1014200033274D2C5E2C6F2C7724A091C204E091C1
:10143000D604482F50E0AE1317C0FB01EE0FFF1F7C
:101440006E0F7F1F440F551FFA01EC5CFD4F01909A
:10145000F081E02DE60FF71FDA01A65EBD4F4D913A
:101460005C91640F751F3FC0660F771F660F771F73
:10147000440F551FFA01EC5CFD4F0190F081E02D07
:10148000E60FF71FEA01C65EDD4F48815981640F00
:10149000751F8F2C9924AA24BB24EF01CA0FD11DDC
:1014A0004091D104442351F050E0489DD001499D22
:1014B000B00D589DB00D11244B2F01C0482D48830D
:1014C0004091C204EB01C40FD11D4091D1044423CB
:1014D00049F050E0489DD001499DB00D589DB00D98
:1014E00011248B2E88824091D604DB01A40FB11DFC
:1014F0000C934091CB04DB01A40FB11D4C924091A1
:10150000D204DB01A40FB11DCC924091D104049F01
:1015100080011124449D200111244C9D600111245F
:101520002091D604DF01A20FB11D1C932091CB04A2
:10153000DF01A20FB11D5C922091D204E20FF11DD8
:10154000D082992389F0DF91CF911F910F91FF9065
:10155000EF90DF90CF90BF90AF909F908F907F9053
:101560006F905F904F901FCEDF91CF911F910F91A1
:10157000FF90EF90DF90CF90BF90AF909F908F90B3
:101580007F906F905F904F9008958F929F92AF924F
:10159000BF92DF92EF92FF920F931F93CF93DF934F
:1015A000D82E480159018091DC049091DD0477FD2B
:1015B00002C057FF05C0AC014150510960E070E026
:1015C000461757072CF4362F272FBA01432F522FD7
:1015D000009769F177FF02C060E070E07B01861739
:1015E000970708F47C0157FF02C040E050E08417E1
:1015F000950708F4AC01EA012196EC16FD0650F4BB
:1016000000E0A5019401B7018D2DEDDE8FEFE81A02
:10161000F80AF3CF8D2DDF91CF911F910F91FF909D
:10162000EF90DF90BF90AF909F908F90BCCDDF91F7
:10163000CF911F910F91FF90EF90DF90BF90AF90EF
:101640009F908F9008951F93CF93DF932091DC0498
:101650003091DD04232B19F1182FC82FD0E0CC0FC7
:10166000DD1FFE01EC5CFD4F4091C3045091C404AA
:1016700060E070E0808191810E940B34C65EDD4F96
:101680004091C3045091C40460E070E08881998166
:101690000E940B34812FDF91CF911F9184CDDF9178
:1016A000CF911F9108952F923F924F925F926F9228
:1016B0007F928F929F92AF92BF92CF92DF92EF92E2
:1016C000FF920F931F93CF93DF9300D000D01F9210
:1016D000CDB7DEB7898348015901160127014617A6
:1016E000570728F4962F872FBA01492F582F80913A
:1016F000DC049091DD04009709F4C9C07D836C83FC
:101700008617970710F49D838C838417950708F438
:10171000AC014F5F5F4F9A018C819D81281B390B73
:101720003B832A83C10188599E4F8819990968E62D
:1017300071E00E94AE319C0144E6429FC001439F8C
:10174000900D11246A817B810E94AE316B018A81E8
:101750009B810197A9F4860E971EB40180E090E06A
:1017600012E3E12EF12C00E010E024E630E040E04E
:1017700050E06ADB9B01AC0100E06C817D816CC0B4
:1017800012E3E12EF12C00E010E024E630E040E02E
:1017900050E0C501B40158DB9B01AC0100E06C8155
:1017A0007D81898120DE6C807D809FEF691A790AB6
:1017B000C69C9001C79C300DD69C300D11242C196D
:1017C0003D0944E6489DC001499D900D1124490101
:1017D000880E991EA12CB12C8C819D8101972A81A4
:1017E0003B81820F931F9B838A83AC0CBD1C8A8133
:1017F0009B8168167906F8F4C501880D991D64E689
:1018000070E00E94AE3168597E4F80E090E012E3B4
:10181000E12EF12C00E010E024E630E040E050E062
:1018200013DB9B01AC0100E0B3018981DCDD3FEFFC
:10183000631A730ADACF12E3E12EF12C00E010E014
:1018400024E630E040E050E0C201B101FDDA9B0146
:10185000AC0100E06A817B818981C5DD89810F90BF
:101860000F900F900F900F90DF91CF911F910F91DC
:10187000FF90EF90DF90CF90BF90AF909F908F90B0
:101880007F906F905F904F903F902F908CCC0F90F7
:101890000F900F900F900F90DF91CF911F910F91AC
:1018A000FF90EF90DF90CF90BF90AF909F908F9080
:1018B0007F906F905F904F903F902F900895AF92E0
:1018C000BF92CF92DF92EF92FF920F931F93CF932D
:1018D000DF93662309F46BC0C091DC04D091DD0472
:1018E000209709F464C0C62E062E000CDD08CC1526
:1018F000DD0558F4DF91CF911F910F91FF90EF908C
:10190000DF90CF90BF90AF909ECE182F161634F078
:10191000A12CB12C7E01EC0CFD1C29C02197CC150B
:10192000DD0564F0BE016C197D09812FD6DB9B01BA
:10193000AC0100E0BE01812F56DDF0CFC0E0D0E069
:1019400000E020E030E0A901BE01812F4CDD2196AE
:10195000CC16DD06A9F7812FDF91CF911F910F9152
:10196000FF90EF90DF90CF90BF90AF901CCCEA1427
:10197000FB0478F0B5016C197D09812FAEDB9B016A
:10198000AC0100E0B501812F2EDD8FEFA81AB80A57
:10199000EECFEC16FD06F8F600E020E030E0A901FD
:1019A000B701812F20DD8FEFE81AF80AF2CFDF911F
:1019B000CF911F910F91FF90EF90DF90CF90BF904C
:1019C000AF9008952F923F924F925F926F927F92C5
:1019D0008F929F92AF92BF92CF92DF92EF92FF923F
:1019E0000F931F93CF93DF9300D0CDB7DEB7382E80
:1019F0002DB73EB73A832983662309F4D9C0E09016
:101A0000DC04F090DD04E114F10409F4D1C0862F68
:101A1000660F990BB7010E94AE31282EC82E082EF2
:101A2000000CDD084DB65EB618160CF04EC0C601AF
:101A3000880F991F880F991FEDB7FEB7E81BF90BA8
:101A40000FB6F894FEBF0FBEEDBF2DB73EB72F5FA8
:101A50003F4F3901590100E010E047018C189D0803
:101A6000B401600F711F832D38DBF5016193719311
:101A7000819391935F010F5F1F4F0C151D0584F338
:101A8000F1E0EF1AF108EC14FD0464F0B7016C19F1
:101A90007D09832D22DB9B01AC0100E0B701832D82
:101AA000A2DCEECFE12CF12CF30121913191419197
:101AB00051913F0100E0B701832D95DCFFEFEF1A54
:101AC000FF0AEC14FD0484F36CC0D194C194D108D6
:101AD000C601880F991F880F991F2DB73EB7281B85
:101AE000390B0FB6F8943EBF0FBE2DBF8DB79EB712
:101AF00001963C018C01A12CB12CAC14BD0469F001
:101B0000B501832DEADAF801619371938193919382
:101B10008F01FFEFAF1ABF0AF0CF812C912CA22CBE
:101B2000220CBB086701CA0CDB1CC814D90478F06E
:101B3000B4016A197B09832DD0DA9B01AC0100E066
:101B4000B401832D50DC2FEF821A920AEECF8FEF73
:101B50009FE3E89E4001E99E900CF89E900C1124B2
:101B60008A189B088C0C9D1C880C991C880C991C4D
:101B7000A12CB12CCE14DF04A0F4F501E80DF91D61
:101B8000E60DF71D208131814281538100E0B601CD
:101B9000832D29DC3FEFC31AD30A84E0A80EB11CC1
:101BA000E9CF0FB6F8945EBE0FBE4DBE832DFBDAB3
:101BB000E981FA810FB6F894FEBF0FBEEDBF0F901A
:101BC0000F90DF91CF911F910F91FF90EF90DF90D9
:101BD000CF90BF90AF909F908F907F906F905F90CD
:101BE0004F903F902F9008952F923F924F925F9287
:101BF0007F928F929F92AF92BF92CF92DF92EF929D
:101C0000FF920F931F93CF93DF9300D000D0CDB7F7
:101C1000DEB7782E7C836B83B8018B819C8148175B
:101C2000590730F49B818C815C834B83492F582F5B
:101C30008091DC049091DD04009709F49DC0EB8154
:101C4000FC818E179F0710F49C838B838417950764
:101C500008F4AC011616170664F0872DF4DC00E0DA
:101C600020E03FEF4FEF50E06B817C81872DBBDBA5
:101C700067C0CA01EB81FC818E1B9F0B9A8389830D
:101C80006C01FFEFCF1ADF0AA90137FF03C051959E
:101C9000419551094C9DC0014D9D900D5C9D900D4D
:101CA00011240E94AE314B01672B49F0A12CB12CBD
:101CB000E12CF12C212C312C21012A943EC0EE2460
:101CC000E394F12CEC14FD04D8F56B817C816E0D4E
:101CD0007F1D00E020E030E0A901872D84DB8FEF3D
:101CE000E81AF80AEFCFE814F90408F040C0C5017B
:101CF00069817A810E94AE319B013327C901A0E03E
:101D0000B0E09C0111270027D201C101861B970B6F
:101D1000A109B109A9019801282B00E06B817C8100
:101D2000872D61DB9FEFE91AF90AEFEFAE0EB11CC8
:101D30008B819C8101969C838B83EC14FD0498F22B
:101D4000872D0F900F900F900F90DF91CF911F91E3
:101D50000F91FF90EF90DF90CF90BF90AF909F904A
:101D60008F907F905F904F903F902F901CCA00E023
:101D700020E030E0A901D2CF0F900F900F900F908C
:101D8000DF91CF911F910F91FF90EF90DF90CF9057
:101D9000BF90AF909F908F907F905F904F903F90BB
:101DA0002F90089504C0615071098109910961154E
:101DB000710581059105B9F70895AF92BF92CF9251
:101DC000DF92EF92FF920F931F93CF93DF931092C6
:101DD000DE041092DF041092E0041092E1041092ED
:101DE000E204FC01E751FB4FC081FC01E151FB4FD4
:101DF000D08161E070E08C2F0E94AB2A60E08C2FD4
:101E00000E94FB2ADD2371F1A12C24E2B22E34EFD3
:101E1000C32ED12CE12CF12C00E010E02D2F30E06E
:101E200040E050E060E070E080E090E00E943232FC
:101E3000E6E0AE2EB12CC12C0E94853229513C4FD8
:101E40004F4F5F4F6F4F7F4F8F4F9F4F0E946430B8
:101E500020E030E04AE754E40E948E2F0E94FB2FDE
:101E6000A1DF05C063E070E080E090E09BDF60E010
:101E700070E08C2F0E94AB2A88E290E00E94BB2089
:101E800000E911E08C2F0E94292B811106C001501E
:101E90001109C1F78EEF9FEF49C000E911E08C2FC7
:101EA0000E94292B882321F001501109C1F7F2CF9C
:101EB00018E200E0D0E890E9E92EFF24F3948C2F9B
:101EC0000E94292B811105C081E0E81AF108B9F7B9
:101ED000E1CF0E945D206B017C0180E9A82EBB242C
:101EE000B3948C2F0E94292B882329F081E0A81A13
:101EF000B108B9F7CFCF0E945D20DC01CB018C196E
:101F00009D09AE09BF098997A105B10538F0E02FF9
:101F1000F0E0E252FB4F80818D2B8083D69511F447
:101F20000F5FD0E8115039F680E090E0DF91CF915B
:101F30001F910F91FF90EF90DF90CF90BF90AF90E7
:101F4000089587FF07C08FE790E09093F604809391
:101F5000F50405C090E09093F6048093F504629533
:101F6000607F603128F41092F9041092F80408950B
:101F700080EF860F803138F480E190E09093F9048F
:101F80008093F80408956052603138F480E290E064
:101F90009093F9048093F804089580E390E090937F
:101FA000F9048093F80408958093F7040895EF925C
:101FB000FF920F931F93CF93DF93162F7A01E901BE
:101FC0008CE30E94D71B812F0E94FC1B8701C80154
:101FD0008E199F098C179D0734F4F80181918F01A8
:101FE0000E94FC1BF4CF81E00E94E11BCE01D7FFD1
:101FF00002C080E090E0DF91CF911F910F91FF90A0
:10200000EF900895CF93DF93D62FC42F8CE30E94D7
:10201000D71B8D2F0E94FC1B8C2F0E94FC1B81E084
:10202000DF91CF910C94E11BEF920F931F93CF930D
:10203000DF93C62F142FD22F41E28CE3E3DF412F31
:102040006C2F8CE3DFDF4D2F6C2F8CE3DBDF42E264
:102050006C2F8CE3D7DF402F6C2F8CE3D3DF4E2D1A
:102060006C2F8CE3DF91CF911F910F91EF90CACF2E
:102070002F923F924F925F926F927F928F929F9298
:10208000AF92BF92CF92DF92EF92FF920F931F9386
:10209000CF93DF9300D000D01F92CDB7DEB7F82EDC
:1020A0006B831A0149012DB73EB73A832983011585
:1020B000110509F4D7C087FDD5C0603408F0D2C03F
:1020C000C40187709927892B09F0CCC03A0157FFCA
:1020D00003C037E0630E711C33E0759467943A9542
:1020E000E1F7C40197FC0796AC0123E055954795AD
:1020F0002A95E1F75D834C83829CA001839C500D5F
:10210000929C500D112457FF02C0495F5F4F93E02E
:10211000559547959A95E1F78DB79EB7841B950B1A
:102120000FB6F8949EBF0FBE8DBF2DB73EB72F5F81
:102130003F4F690160E070E0C9010E940B34A0903C
:10214000FA04B090FB0420E030E0822F2815390516
:10215000D4F420343105B9F0982F9695969596953C
:10216000929D2001939D500C1124877041E050E016
:1021700002C0440F551F8A95E2F7642F942F909563
:10218000D80180E01CC05B81A52EB12C812C912C44
:102190004F2C512C3101640C751C71E0671A7108C9
:1021A00039C087FD2BC0F201E80FF11D57FD11C0AA
:1021B000E11016C0550F8F5F8413F3CF842FAD014C
:1021C000401B510B46155705DCF45D9148E0480F64
:1021D000E8CFEC0DFD1D71E0A716B10439F40AC07B
:1021E000EC0DFD1D71E0A716B10421F47081792377
:1021F0007083E0CF7081762B7083DCCF482FDECFE9
:10220000C30177FE02C080E090E0080F191F2F5F26
:102210003F4F9BCF2C813D8182169306DCF48501D4
:1022200083E0159507958A95E1F778019301A2015E
:1022300060E88CE390E0F8DE9101A60160E48CE3B5
:10224000B6DE8FEF881A980A98E0A90EB11CC20C6E
:10225000D31CE0CF49815A810FB6F8945EBF0FBE00
:102260004DBF07C089819A810FB6F8949EBF0FBEFB
:102270008DBF29813A810FB6F8943EBF0FBE2DBFA6
:102280000F900F900F900F900F90DF91CF911F91B3
:102290000F91FF90EF90DF90CF90BF90AF909F9005
:1022A0008F907F906F905F904F903F902F90089508
:1022B000CF92DF92EF920F931F93CF93DF93CDB71F
:1022C000DEB760970FB6F894DEBF0FBECDBF6C01CE
:1022D000F6018081882309F44CC0C114D10409F4AB
:1022E00048C080524091F5045091F604483751059A
:1022F00074F04091F8045091F904405F5F4F50939F
:10230000F9044093F8041092F6041092F5046091D9
:10231000F8047091F904613471055CF5DE011196E1
:1023200040E1849FC001112440E050E08D01FA019A
:10233000E80FF91FE859FF4FE491ED934F5F5F4FAE
:1023400040315105A1F78FEFC81AD80AEE24E39463
:1023500020E130E048E050E08091F50489DE809192
:10236000F5049091F60408969093F6048093F50492
:10237000AFCF60960FB6F894DEBF0FBECDBFDF9132
:10238000CF911F910F91EF90DF90CF900895AF9272
:10239000BF92CF92DF92EF92FF920F931F93CF9352
:1023A000DF93CDB7DEB760970FB6F894DEBF0FBEF0
:1023B000CDBF6B017C01CE0101965C01232B242B48
:1023C000252B39F040E150E06FEF70E00E940B34B4
:1023D00005C080E1F50111928A95E9F7C601880FE1
:1023E000991FF1E0CF1AD108E108F0E8FF0A860151
:1023F000000F111F7C012FE730E040E050E060E863
:102400008CE390E011DE10E120E130E0A50160E412
:102410008CE3CDDD1150C1F760960FB6F894DEBFA6
:102420000FBECDBFDF91CF911F910F91FF90EF9025
:10243000DF90CF90BF90AF900895AF92BF92CF92B0
:10244000DF92EF92FF920F931F93CF93DF93CDB75D
:10245000DEB760970FB6F894DEBF0FBECDBF5C014C
:102460006091F704C62E062E000CDD0881E0C81A24
:10247000D10884E0CC0CDD1C8A95E1F721E030E046
:1024800040E050E08091FA049091FB04019719F428
:1024900020E030E0A901062E000C770B880B990B89
:1024A00076DFF12CF5012081222359F1A114B1042A
:1024B00041F140EE420FE0E8FE1619F1DE011196FF
:1024C000F0E14F9FA001112480E090E08D01FC011C
:1024D000E40FF51FE859FF4FE491ED930196803129
:1024E0009105A9F7EE24E39420E130E048E050E0C4
:1024F0006C2D8F2DBDDD8FEFA81AB80AE8E0FE0E17
:10250000D1CF60960FB6F894DEBF0FBECDBFDF917E
:10251000CF911F910F91FF90EF90DF90CF90BF90E0
:10252000AF900895CF92DF92EF92FF920F931F9397
:10253000CF93DF93CDB7DEB760970FB6F894DEBFC9
:102540000FBECDBF9E012F5F3F4F6901882341F031
:1025500040E150E06FEF70E0C9010E940B3405C00C
:1025600080E1F90111928A95E9F787E0E82EF12CD4
:1025700000E010E02FE730E040E050E060E88CE35E
:1025800090E052DD10E420E130E0A60160E48CE34D
:102590000EDD1150C1F760960FB6F894DEBF0FBE86
:1025A000CDBFDF91CF911F910F91FF90EF90DF9002
:1025B000CF90089541EA60E88CE324DD48EC60E8C0
:1025C0008CE320DD80E0AECF95D64EEA60E88CE368
:1025D00019DD45ED60E88CE315DD40EF60E88CE344
:1025E00011DD48EA60E88CE30DDD4FE360E88CE341
:1025F00009DD43ED60E88CE305DD40E060E88CE355
:1026000001DD40E460E88CE3FDDC4DE860E88CE34C
:10261000F9DC44E160E88CE3F5DC40E260E88CE35F
:10262000F1DC40E060E88CE3EDDC40EA60E88CE35C
:10263000E9DC40EC60E88CE3E5DC4AED60E88CE343
:10264000E1DC42E160E88CE3DDDC41E860E88CE35A
:10265000D9DC4FEC60E88CE3D5DC49ED60E88CE335
:10266000D1DC41EF60E88CE3CDDC44EA60E88CE348
:10267000C9DC46EA60E88CE3C5DC4EE260E88CE346
:10268000C1DC4FEA60E88CE3BDDC94DF80E04ADF28
:1026900081E090E09093FB048093FA0408951F92E8
:1026A0000F920FB60F9211242F933F934F935F9386
:1026B0006F937F938F939F93AF93BF93EF93FF930A
:1026C0008091580287FF05C0109285001092840007
:1026D0002DC020915802022E000C330B8091060170
:1026E00090E02817390714F580915802082E000C45
:1026F000990BFC01EE0FFF1F8E0F9F1FFC01E75A85
:10270000FD4F808186FF12C080915802082E000C78
:10271000990BFC01EE0FFF1F8E0F9F1FFC01E75A64
:10272000FD4F808160E08F730E94FB2A80915802E8
:102730008F5F8093580220915802022E000C330BB9
:102740008091060190E0281739070CF040C0809175
:1027500058028630E4F52091840030918500809104
:102760005802082E000C990BFC01EE0FFF1F8E0F74
:102770009F1FFC01E75AFD4F81819281820F931FB9
:10278000909389008093880080915802082E000C55
:10279000990BFC01EE0FFF1F8E0F9F1FFC01E75AE4
:1027A000FD4F808186FF2EC080915802082E000CBC
:1027B000990BFC01EE0FFF1F8E0F9F1FFC01E75AC4
:1027C000FD4F808161E08F730E94FB2A1BC08091C6
:1027D000840090918500049680349C4938F480E40C
:1027E0009CE9909389008093880009C080918400BF
:1027F00090918500049690938900809388008FEFD4
:1028000080935802FF91EF91BF91AF919F918F916B
:102810007F916F915F914F913F912F910F900FBEDC
:102820000F901F901895EF92FF920F931F93CF93E5
:10283000C82F7B018A0161E070E00E94AB2ACF7350
:1028400080915902807CC82BC093590280E292E0AB
:102850008E199F0997FD0396959587959595879570
:102860008093570280E699E0801B910B97FD0396B9
:1028700095958795959587958093560280E090E091
:10288000FC01EE0FFF1FE80FF91FE75AFD4F2081F3
:1028900026FD13C001968630910591F710928000B5
:1028A00082E0809381001092850010928400B19A9A
:1028B00080916F00826080936F00809159028064E4
:1028C0008093590280E0CF911F910F91FF90EF907C
:1028D0000895AC018091570228E830E0281B3109A7
:1028E00087FD3395C901880F991F880F991F4817D5
:1028F00059078CF08091560228E532E0281B3109F7
:1029000087FD3395220F331F220F331FCA0124176F
:1029100035070CF4C90102972FB7F894092E000C63
:10292000AA0BBB0B34E0880F991FAA1FBB1F3A9557
:10293000D1F743E0B695A795979587954A95D1F736
:1029400090935B0280935A022FBF0895CF92DF923B
:10295000EF92FF92803222E092070CF03FC097FD89
:1029600006C0853B91052CF084EB90E002C080E02E
:1029700090E02091570248E850E06A01C21AD1085D
:1029800027FDD394CC0CDD1CCC0CDD1C0D2C000CD5
:10299000EE08FF084091560228E532E0241B310979
:1029A00047FD3395220F331F220F331FA901330F29
:1029B000660B770B9A01AB012C193D094E095F0993
:1029C000DC010E942C3224EB30E040E050E00E9419
:1029D000F731C20ED31EE41EF51EC601FF90EF9024
:1029E000DF90CF9076CF8CE08093060180E090E07E
:1029F00028EB3BE0FC01EE0FFF1FE80FF91FE75A41
:102A0000FD4F3283218301968C30910599F708950B
:102A10008EBD00000DB407FEFDCF8EB50895CF9397
:102A2000CFB7F894E091F001F0E0EE0FFF1FE85A05
:102A3000F94F0190F081E02D90818091D20189239E
:102A400021F461E08AE00E94FB2A61E070E08AE004
:102A50000E94AB2A8CB580618CBD8CB580648CBD26
:102A600061E070E08DE00E94AB2A61E070E08BE0F5
:102A70000E94AB2ACFBFCF91089561E070E08AE059
:102A80000E94AB2A61E08AE00C94FB2AEF92FF924D
:102A90000F931F93CF93DF93D82FC92F7B0160E053
:102AA0008AE00E94FB2A82E0B3DF80E0B1DF0D2FD5
:102AB0001C2FE00EF11EC0E00E151F0591F0C03274
:102AC00031F0CF5FF80181918F01A2DFF5CF61E096
:102AD0008AE0DF91CF911F910F91FF90EF900C94BE
:102AE000FB2ACF5FC13299F380E092DFFACF0F93D8
:102AF0001F93CF93DF93CDB7DEB7A0970FB6F894AF
:102B0000DEBF0FBECDBFDC018E010F5F1F4F80E225
:102B1000F80111928A95E9F785E589836A839C918A
:102B200084E0890F8B834C8360E0492F990F550B0C
:102B3000262F30E02417350774F485E090E08C0FE1
:102B40009D1F820F931F2A0F3B1FF9012181FC015A
:102B500020836F5FEDCF60E270E0C80197DF61E036
:102B600070E080E090E00E948220A0960FB6F8947A
:102B7000DEBF0FBECDBFDF91CF911F910F910895A2
:102B80000F931F93CF93DF938C0160E08AE00E9444
:102B9000FB2A83E03DDF80E03BDFE801005E1F4F62
:102BA00080E036DF8993C017D107D1F761E08AE072
:102BB000DF91CF911F910F910C94FB2A0F931F93DC
:102BC000CF93DF93CDB7DEB7C056D1090FB6F894D7
:102BD000DEBF0FBECDBF8E010F5F1F4F20E4F80197
:102BE00011922A95E9F725E529836A83FC01019072
:102BF0000020E9F7E81BED5FEB834C83FC010190BB
:102C00000020E9F73197AF01481B590BBC01CE01F9
:102C100005960E94023460E270E0C80137DF61E08F
:102C200070E080E090E00E948220CE018F5B9F4F99
:102C300020E2FC0111922A95E9F7A2DFC05ADF4F8A
:102C40000FB6F894DEBF0FBECDBFDF91CF911F91BD
:102C50000F910895FF920F931F93CF93DF93CDB7FA
:102C6000DEB7C054D1090FB6F894DEBF0FBECDBF9A
:102C700020E2F22E8E010F5D1F4FF8012F2D1192D1
:102C80002A95E9F725E529A36AA3FC010190002014
:102C9000E9F7E81BED5FEBA34CA3FC0101900020DA
:102CA000E9F73197AF01481B590BBC01CE0185965E
:102CB0000E94023460E270E0C801E8DE61E070E08A
:102CC00080E090E00E948220CE010196FC011192EA
:102CD000FA94E9F755DF8981853539F48A8188329C
:102CE00021F481E09D81913309F080E0C05CDF4FE9
:102CF0000FB6F894DEBF0FBECDBFDF91CF911F910D
:102D00000F91FF900895FF920F931F93CF93DF933E
:102D1000CDB7DEB7C054D1090FB6F894DEBF0FBEF1
:102D2000CDBF20E2F22E8E010F5D1F4FF8012F2D37
:102D300011922A95E9F725E529A36AA3FC010190E0
:102D40000020E9F7E81BED5FEBA34CA3FC01019029
:102D50000020E9F73197AF01481B590BBC01CE01A8
:102D600085960E94023460E270E0C8018FDE61E067
:102D700070E080E090E00E948220CE010196FC018C
:102D80001192FA94E9F7FCDE89818535F1F48A81A4
:102D90008832D9F480EF5DD68DE05BD680E559D6D8
:102DA00010E0212F30E08B8190E00497281739073D
:102DB00054F4E5E0F0E0EC0FFD1FE20FF31F80811B
:102DC00048D61F5FEECF87EF44D6C05CDF4F0FB60B
:102DD000F894DEBF0FBECDBFDF91CF911F910F9151
:102DE000FF9008950F931F93CF93DF93CDB7DEB776
:102DF000C056D1090FB6F894DEBF0FBECDBF8E010D
:102E00000F5F1F4F20E4F80111922A95E9F725E59D
:102E100029836A83FC0101900020E9F7E81BED5F3C
:102E2000EB834C83FC0101900020E9F73197AF015F
:102E3000481B590BBC01CE0105960E94023460E28A
:102E400070E0C80123DE61E070E080E090E00E9465
:102E50008220005C1F4F80E2F80111928A95E9F709
:102E6000C8018EDEF8018081853529F5818188329F
:102E700011F590916C0282819C3179F49CEF980F4E
:102E8000885E80936C02A9E8B2E08E2F801B8917C0
:102E900090F484818D933196F8CF845080936C02A6
:102EA000ADE6B2E0F8019E2F901B981720F49481B4
:102EB0009D933196F8CFC05ADF4F0FB6F894DEBF1E
:102EC0000FBECDBFDF91CF911F910F9108950F934A
:102ED0001F93CF93DF93CDB7DEB7C054D1090FB6A0
:102EE000F894DEBF0FBECDBFDE01119620E4FD01D8
:102EF00011922A95E9F725E5298329E22A8324E01E
:102F0000260F2B832AE12C83482F9E012B5F3F4FF6
:102F10008C01802F841B861738F4F80181918F0172
:102F2000F90181939F01F5CF60E270E0CD01AEDD44
:102F3000C05CDF4F0FB6F894DEBF0FBECDBFDF9190
:102F4000CF911F910F9108958F929F92AF92BF9250
:102F5000CF92DF92EF92FF921F93CF93DF939091E6
:102F60000701891759F19F3F09F013C180930701A9
:102F70001092B0001092B1009091B00092609093C6
:102F8000B0009091B10091609093B100A82FB0E093
:102F9000FD01EA51FE4FE081F0E0EE0FFF1FE45229
:102FA000FE4F0190F081E02DF093FD04E093FC04CE
:102FB000FD01E853FE4F90819093FE0449015A01B0
:102FC000EB01182F61E070E00E94AB2A9E0140E007
:102FD00050E060E074E284EF90E00E94D531690136
:102FE0007A01F694E794D794C79481E0C81AD1087F
:102FF000E108F1088FEFC816D104E104F10409F0EB
:1030000008F4BFC069017A01F4E0F694E794D7941C
:10301000C794FA95D1F781E0C81AD108E108F10800
:103020008FEFC816D104E104F104C1F0B8F06901D2
:103030007A01E6E0F694E794D794C794EA95D1F73D
:1030400081E0C81AD108E108F1088FEFC816D10451
:10305000E104F10409F020F493E050C092E04EC086
:1030600069017A0187E0F694E794D794C7948A952A
:10307000D1F781E0C81AD108E108F1088FEFC8162E
:10308000D104E104F10409F008F481C0C32ED42E68
:10309000E52EFF2481E0C81AD108E108F1088FEF7E
:1030A000C816D104E104F10409F008F46CC0690108
:1030B0007A0169E0F694E794D794C7946A95D1F7BA
:1030C00081E0C81AD108E108F1088FEFC816D104D1
:1030D000E104F10409F008F458C0DA01C9013BE049
:1030E000B695A795979587953A95D1F76C017D018F
:1030F00021E0C21AD108E108F10897E08091B100FF
:10310000887F982B9093B1002097A1F48091700054
:103110008D7F8093700060E0812FDF91CF911F91B0
:10312000FF90EF90DF90CF90BF90AF909F908F90E7
:103130000C94FB2A81149104A104B10471F0DE0106
:10314000AA0FBB1FA50194010E94223228EE33E092
:1031500040E050E00E94D53104C020E03AEC4AE95A
:103160005BE3C092B30020930605309307054093BC
:10317000080550930905809170008260809370006B
:1031800008C091E0BBCF95E0B9CF96E0B7CF94E00F
:10319000B5CFDF91CF911F91FF90EF90DF90CF904F
:1031A000BF90AF909F908F900895909107018913E1
:1031B00013C09FEF90930701909170009D7F9093B3
:1031C000700091E09093B0009091B1009877946076
:1031D0009093B1001092B30060E00C94FB2A1F9210
:1031E0000F920FB60F9211242F933F934F935F933B
:1031F0006F937F938F939F93AF93BF93EF93FF93BF
:103200008091060590910705A0910805B0910905E8
:10321000892B8A2B8B2B51F19091FE04E091FC04B9
:10322000F091FD048081892780838091060590912B
:103230000705A0910805B0910905181619061A0688
:103240001B06BCF48091060590910705A091080526
:10325000B09109050197A109B109809306059093E2
:103260000705A0930805B093090503C080910701E5
:103270009CDFFF91EF91BF91AF919F918F917F91D3
:103280006F915F914F913F912F910F900FBE0F90D3
:103290001F901895AC01E0914C05F0914D053097C9
:1032A000E1F09091A2028091A1029817B0F090E015
:1032B000292F30E02617370754F4DA01A20FB31F85
:1032C0008C91D901A45FBA4F8C939F5FF1CF10927C
:1032D000A2026093A102CB0109940895E0910A052E
:1032E000F0910B05309729F010929F0210929E02E8
:1032F000099408951092100381E080930E031092B8
:103300000D0361E082E10E94FB2A61E083E10E94FB
:10331000FB2AE9EBF0E080818E7F808380818D7FC6
:10332000808388E48093B80085E48093BC0008958E
:10333000413208F045C0909110039111FCCF91E00B
:103340009093100320930E032FEF2093A30210926B
:10335000E802240F2093E70290930F0390910F034C
:10336000880F892B80930F0380910D03813071F4B6
:1033700010920D0380910F038093BB008091BC00DD
:1033800083FDF8CF85EC8093BC0003C085EE80936D
:10339000BC00809110038130E1F38091E802841732
:1033A00010F44091E802A9EEB2E0962FFB018E2FB7
:1033B000891B841718F48D918193F9CF842F089578
:1033C00080E008950F93413208F04CC090911003B3
:1033D0009111FCCF32E03093100300930E033FEFC6
:1033E0003093A3021092E8024093E702562FA9EE11
:1033F000B2E0FB013E2F351B341718F431913D9399
:10340000F9CF10920F0330910F03880F832B809315
:103410000F0380910D03813071F410920D038091A0
:103420000F038093BB008091BC0083FDF8CF85EC37
:103430008093BC0003C085EE8093BC00222321F062
:10344000809110038230D1F38091A3028F3F79F0F5
:103450008091A302803241F08091A302803331F049
:1034600094E005C091E003C092E001C093E0892F91
:103470000F9108954091C502262F30E0240F311D91
:1034800021323105DCF4209110032430C9F4FC0111
:1034900080E090E0861758F43091C5022191DC015C
:1034A000A953BD4FA30FB11D2C930196F3CF80916B
:1034B000C502680F6093C50280E0089581E0089519
:1034C00082E0089585ED8093BC008091BC0084FD6E
:1034D000FCCF10921003089585EC8093BC001092ED
:1034E000100308951F920F920FB60F9211242F937D
:1034F0003F934F935F936F937F938F939F93AF937C
:10350000BF93EF93FF938091B900887F803609F4D1
:10351000ACC070F5883209F461C090F4803109F4D0
:1035200055C038F4882309F40BC1883009F44EC023
:103530000AC1883109F452C0803209F465C003C160
:10354000803409F471C050F4803309F45DC08833CD
:1035500009F0F9C08093A302BFDFF5C0803509F4FC
:1035600057C0883509F468C0883409F0ECC0EAC057
:10357000883909F4DBC0A8F4883709F476C038F438
:10358000883609F472C0803709F46FC0DCC088380F
:1035900009F4CCC0803909F471C0803809F0D3C077
:1035A0006DC0803B09F497C038F4803A09F47BC0C1
:1035B000883A09F490C0C7C0803C09F4BBC0883C7D
:1035C00009F4B8C0883B09F49BC0BDC080910F03CB
:1035D0008093BB0085EC8093BC00B5C09091E8025D
:1035E0008091E7029817A0F5E091E80281E08E0F44
:1035F0008093E802F0E0E751FD4F80818093BB00AB
:1036000085EC8093BC009FC08093A3025BDF9BC0CE
:10361000E091E80281E08E0F8093E8028091BB0088
:10362000F0E0E751FD4F80839091E8028091E7023E
:10363000981708F07BC076C0E091E80281E08E0F19
:103640008093E8028091BB00F0E0E751FD4F80835A
:1036500080910E03811176C081E080930D0384EA8E
:103660008093BC00109210036EC083E0809310031F
:103670001092A40285EC8093BC0065C08091A402E6
:10368000803208F053C0E091A40281E08E0F809355
:10369000A4028091BB00F0E0EB55FD4F808385ECE8
:1036A0008093BC0050C018DF8091A402803230F4B7
:1036B000E091A402F0E0EB55FD4F10826091A4026E
:1036C00070E0E0910903F0910A0385EA92E0099520
:1036D0001092A40238C084E0809310031092C602B6
:1036E0001092C502E0910B03F0910C0309958091B3
:1036F000C502811105C081E08093C5021092C70206
:10370000E091C60281E08E0F8093C602F0E0E9539B
:10371000FD4F80818093BB009091C6028091C502CD
:10372000981720F485EC8093BC000DC085E8809349
:10373000BC0009C085EC8093BC001092100303C04C
:103740001092A302BFDEFF91EF91BF91AF919F91C5
:103750008F917F916F915F914F913F912F910F903A
:103760000FBE0F901F9018951092A2021092A10206
:1037700010929F0210929E02BDDD8EE699E1909319
:103780000C0380930B038AE499E190930A038093DE
:1037900009030895462F613208F040E221E06CE011
:1037A00075E0C6DD1092A2028093A102089591E017
:1037B00090939D028093A00210929F0210929E020D
:1037C00008950F93CF93C82F0C2F21E040919E02B4
:1037D0006CE275E08091A002F5DD90919E02992344
:1037E00011F08111F1CF10929F0210929E0210925F
:1037F0009D02CF910F910895CF93DF931F92CDB784
:10380000DEB7898380919D028823A1F080919E027A
:103810008032B8F480919F02E82FF0E0E45DFA4F27
:10382000998190838F5F80939F0280939E0281E0B5
:1038300090E009C061E0CE0101961CDE81E090E0DD
:1038400002C080E090E00F90DF91CF9108958091C9
:10385000A10290E02091A202821B9109089590910B
:10386000A2028091A102981750F4E92FF0E0E45FE2
:10387000FA4F208130E09F5F9093A20202C02FEFA9
:103880003FEFC90108958F929F92AF92BF92CF925E
:10389000DF92EF92FF92CF93DF9390E0FC01E45927
:1038A000FA4FC081FC01E25BFA4FD081880F991F6B
:1038B000880F991FFC01EC5AFA4FC080D180E2803A
:1038C000F3802C2F277081E090E0AC0102C0440F00
:1038D000551F2A95E2F79A01EC2FF0E033E0F695B8
:1038E000E7953A95E1F7AF01440F551FE40FF51F37
:1038F000B096322F30954281342332833181232B8D
:103900002183ED2FF0E073E0F695E7957A95E1F7E6
:103910009F01220F331FE20FF31FB0962D2F277048
:1039200001C0880F2A95EAF78095918198239183A9
:1039300092818923828360E08C2F0E94FB2A82E09F
:1039400090E019D461E08C2F0E94FB2A8AE090E07D
:1039500012D460E08C2F0E94FB2AAFD34B015C0194
:103960008D2F0E94292B882321F0A7D34B015C01C6
:1039700019C0A3D3DC01CB0188199909AA09BB0995
:10398000C816D906EA06FB0658F7EFCF96D3DC0136
:10399000CB0188199909AA09BB09C816D906EA06F4
:1039A000FB0628F08D2F0E94292B8111EFCF85D3A4
:1039B000681979098A099B0928E330E040E050E062
:1039C0000E94D531C901DF91CF91FF90EF90DF9038
:1039D000CF90BF90AF909F908F900895CF93DF933B
:1039E0001F92CDB7DEB78FB78983F89489815F9333
:1039F00050E85093610050E0509361005F918FBF99
:103A00000F90DF91CF910895CF93DF931F92CDB7A1
:103A1000DEB79FB79983F8949981811106C06095AC
:103A2000809164006823609364009FBF0F90DF91D2
:103A3000CF91089595B184B180628F7784B9892F31
:103A4000806A85B908958091C000881F8827881FE3
:103A500008959091C00095FFFCCF8093C60080E050
:103A600008958091C60008954F925F926F927F9261
:103A70008F929F92AF92BF92CF92DF92EF92FF927E
:103A80000F931F93CF93DF93EC016A017B01C90170
:103A9000B80143E096958795779567954A95D1F754
:103AA000488141FD0CC048015901B3E1B694A79487
:103AB00097948794BA95D1F72B013C0112C0280145
:103AC0003901F4E07694679457944794FA95D1F7C6
:103AD00048015901A4E1B694A79497948794AA95B4
:103AE000D1F74C145D046E047F0460F1C814D9044E
:103AF000EA04FB0438F1488141FF0EC0A70196019A
:103B0000220F331F441F551F0E94D531DA01C9010E
:103B10000197A109B10912C0C901B80124E0969525
:103B20008795779567952A95D1F7A70196010E9409
:103B3000D531DA01C9010197A109B1099D838C83AF
:103B400081E001C080E0DF91CF911F910F91FF9044
:103B5000EF90DF90CF90BF90AF909F908F907F902D
:103B60006F905F904F9008950F931F93CF93DF93C3
:103B7000EC018B01803C910519F462E080E044DFA8
:103B80008A818F738A83888182608883F801968115
:103B9000358184812A81482F4370440F297F242B4B
:103BA0002A8329818470880F880F2B7F822B898339
:103BB0008A818F7C832B8A838A81282F277FF8E054
:103BC0009F9FC0011124822B8A83F801408151817B
:103BD0006281738100E014E224EF30E0CE0144DF23
:103BE000998198609983998190619983DF91CF91B0
:103BF0001F910F9108955F926F927F928F929F9283
:103C0000AF92BF92CF92DF92EF92FF920F931F93EA
:103C1000CF93DF934A01FB015080452B19F4882490
:103C20008A94982C7B013B01680E791EC0E0D0E09D
:103C300000E010E087E0C82ED12CE614F70489F1EB
:103C40000815190508F04AC05701F70181917F0155
:103C50000C2E01C0880F0A94EAF785298F77F9DEC8
:103C60000F5F1F4FF501808190E096012C1B3D0BEB
:103C700002C0959587952A95E2F7582E2196C73070
:103C8000D105D8F28016910651F0852D8F77E1DEAF
:103C90000F5F1F4F551C5524551C2797F0CF8401EB
:103CA000CCCF2097D9F008151905C0F481E090E039
:103CB00001C0880FCA95EAF781508521DF91CF9125
:103CC0001F910F91FF90EF90DF90CF90BF90AF903A
:103CD0009F908F907F906F905F90BBCEDF91CF9140
:103CE0001F910F91FF90EF90DF90CF90BF90AF901A
:103CF0009F908F907F906F905F900895AF92BF924A
:103D0000CF92DF92EF92FF920F931F93CF93DF93A7
:103D100028E0829F70011124082F000F000F000F70
:103D2000C0E0D0E010E082E0E81AF108C62ED12C05
:103D3000AA24A394B12CC7018C0F9D1F4297B0F405
:103D4000C6010C2E02C0959587950A94E2F780FF74
:103D50000DC08C2F800F0E94292B882339F0C501BC
:103D60000C2E01C0880F0A94EAF7182B2196C83050
:103D7000D10509F7812FDF91CF911F910F91FF900E
:103D8000EF90DF90CF90BF90AF900895AF92BF9229
:103D9000DF92EF92FF920F931F93CF93DF93CDB7F4
:103DA000DEB7A0970FB6F894DEBF0FBECDBFB82E1A
:103DB000D62E8A0180916B02882309F4EFC09E0100
:103DC0002F5F3F4F790183EF860F8E3008F040C0A0
:103DD00080E2D9011D928A95E9F780EF8983BA8242
:103DE0005901BA01265E3F4FF701AB01DB018D910E
:103DF000BD018F778283DA018C91881F8827881F05
:103E000083833296E217F30781F76CE1C7015FD82D
:103E100080E2F70111928A95E9F7F8013D966DE08D
:103E20006D1591F09F0181918F77D5018C93D90108
:103E30008C91881F8827881FD50111968C936F5FFE
:103E4000B2E0AB0EB11CECCF70E06D5071096EC0EA
:103E5000EAE180E2E61708F076C0D9011D928A9562
:103E6000E9F780EF8983BA825901BA019E01255E84
:103E70003F4FF701AB01DB018D91BD018F7782834D
:103E8000DA018C91881F8827881F83833296E21776
:103E9000F30781F76CE1C7011AD880E2F7011192AC
:103EA0008A95E9F7F8013D969E01235E3F4FAF01E9
:103EB00081918F77D5018C93DA018C91881F8827A7
:103EC000881FD50111968C93B2E0AB0EB11CA216DF
:103ED000B30669F76CE1C7010E94671780E2F7013A
:103EE00011928A95E9F7F8017B966BE185E6860FDA
:103EF000880F6D15C1F090E08F01A701480F591F81
:103F000021912F77DA012C9322E030E02C0F3D1F16
:103F1000820F931FD8012C91221F2227221FDC0120
:103F20002C936F5FE3CF70E06B517109FB01EE0FD3
:103F3000FF1FEE0DFF1D87EF8083660F6F5FC701C8
:103F40000E94671740C0F90111928A95E9F780EF46
:103F50008983BA82D901942F1296842F891B8D15DB
:103F600078F49A01FA018191AF018F778C93F9016E
:103F70008081881F8827881F11968C931197ECCF1A
:103F8000F701ED0DF11DED0DF11D87EF82836D2D14
:103F9000660F6D5FC7010E94671715C080EF59DD7E
:103FA0008B2D57DD7801ED0CF11C0E151F0549F026
:103FB00040E050E0B80181E090E01DDE0F5F1F4F50
:103FC000F4CF87EF46DDA0960FB6F894DEBF0FBEA4
:103FD000CDBFDF91CF911F910F91FF90EF90DF90B8
:103FE000BF90AF900895FC0101900020E9F7319750
:103FF000BF01681B790BAC0181E7C8CEEF92FF923D
:104000001F93CF93DF9300D000D01F92CDB7DEB7C0
:10401000282F30E0F901EB58FA4F9081162F192321
:10402000A90141545A4F7A01FA019081191731F1CF
:10403000212F30E03D832C8390916B028F7080693B
:10404000992389F08983812F8F778A83220F232FE9
:10405000221F330B31952F772B8363E0CE0101961E
:104060000E94671709C0F5DC42E050E0BE016C5FBA
:104070007F4F82E090E0BFDDF70110830F900F903B
:104080000F900F900F90DF91CF911F91FF90EF90C5
:1040900008950F931F93CF93DF93EC018C01060FCC
:1040A000111DC017D10719F08991D3DCFACFDF9128
:1040B000CF911F910F91089508953FB7F894809183
:1040C000770490917804A0917904B0917A0426B590
:1040D000A89B05C02F3F19F00196A11DB11D3FBF40
:1040E000BA2FA92F982F8827820F911DA11DB11DCE
:1040F000BC01CD0142E0660F771F881F991F4A95CA
:10410000D1F708958F929F92AF92BF92CF92DF9294
:10411000EF92FF926B017C01D0DF4B015C01C11477
:10412000D104E104F104F1F0C7DFC7DFDC01CB010A
:1041300088199909AA09BB09883E9340A105B105D0
:1041400070F321E0C21AD108E108F10888EE880E68
:1041500083E0981EA11CB11CC114D104E104F10438
:1041600021F7DDCFFF90EF90DF90CF90BF90AF9021
:104170009F908F9008958230910538F0880F991F95
:10418000880F991F05970197F1F7089510926D0612
:10419000109244061092430610927A051092790507
:1041A0001092BC051092780580E880936E06089501
:1041B00080917205882339F06091750580E09EDD5D
:1041C000682F80E01BDF80917305882339F06091B0
:1041D000760581E093DD682F81E010DF8091740522
:1041E000882339F06091770582E088DD682F82E0CE
:1041F00005CF08950F931F93CF93DF9300D000D086
:104200001F92CDB7DEB7082F7D836C83182F106EF9
:104210001983862F972F262F2F772A83880F892F90
:10422000881F990B91958F778B8363E0CE01019660
:104230000E946717003180F48C819D818115904424
:1042400058F4812F06DC42E050E0BE016C5F7F4FE6
:1042500082E090E0D0DC06C08FEFFBDB8FEFF9DB74
:104260008FEFF7DB0F900F900F900F900F90DF9173
:10427000CF911F910F910895CF93C2EF8EE08C0FD5
:10428000C830A8F40E94A52A823089F480912B03BB
:1042900090E00C2E02C0959587950A94E2F780FF76
:1042A00006C08C2F0E94582BBC018C2FA3DFCF5F40
:1042B000C83021F7CF910895EF92FF920F931F938B
:1042C000CF93DF93D82F8B01C42FF22E6F3F7F4FF8
:1042D00071F08D2F6CDA802F8FDA8F2D72DA80914A
:1042E0001D0390911E03009721F045DF02C000E0FE
:1042F00010E06C2F8D2F4EDAEC2EF12CA8DAE81698
:10430000F9060CF0A4DAD0937B0500937C059FDAC4
:10431000892B61F462E06C0F4BE755E087E7DF9192
:10432000CF911F910F91FF90EF9030CD0BE715E0EB
:10433000C8018B5795408E159F0564F790DAF801F8
:10434000828385DA0F5F1F4F892B91F7E3CFCF93DD
:10435000C0E08EEE8C0F823028F466E070E08C2F87
:104360000E94AB2ACF5FC631A1F781E080931C0386
:10437000CF91FAC9EF92FF921F93CF93DF93CDB7FE
:10438000DEB72A970FB6F894DEBF0FBECDBF80917F
:104390005202909153029C012F5F3F4F3093530282
:1043A0002093520220915402309155022817390768
:1043B0000CF077C08091500290915102892B09F442
:1043C00070C080914F0290E00E94DD0EBC01909180
:1043D0004F02492F50E0FA01E751FB4FE080FA010C
:1043E000ED51FB4FF08010925302109252029093C5
:1043F0004E029F5F90934F022091500230915102E4
:10440000215031094217530714F010924F02672BC5
:1044100009F047C05091DE044091DF043091E00480
:104420002091E104852F840F830F820F11E090917A
:10443000E204891301C010E080916B028823C1F06F
:10444000CE0101966AE0FC0111926A95E9F760EFEE
:10445000698365E66A83EB82FC825D834E833F83DA
:104460002887198727EF2A876AE00E94671719C0F3
:1044700080EFEFDA85E6EDDA8E2DEBDA8F2DE9DAD3
:104480008EEDE82E84E0F82EF70181917F01E1DACC
:10449000F2EEEF16F4E0FF06B9F7812FDADA87EFD4
:1044A000D8DA2A960FB6F894DEBF0FBECDBFDF91E3
:1044B000CF911F91FF90EF9008950F931F93CF938B
:1044C000DF9300D000D000D0CDB7DEB780911603C7
:1044D000909117039C012F5F3F4F30931703209358
:1044E00016032091140330911503281739070CF097
:1044F0005FC0109217031092160380911A039091D7
:104500001B03892B09F454C080911203BCD920915C
:1045100012033091130320931103A9014F5F5F4FE2
:10452000509313034093120340911A0350911B03BD
:10453000415051092417350724F0109213031092AB
:104540001203182F1F77880F892F881F990B9195B9
:10455000082F0F7780916B028823C9F0CE01019656
:1045600046E0FC0111924A95E9F740EF498343E6A2
:104570004A833327F901E459FA4F20812B831C83A6
:104580000D8327EF2E8366E00E94671711C080EF2E
:1045900060DA83E65EDAE0911103F0E0E459FA4F65
:1045A000808157DA812F55DA802F53DA87EF51DA7D
:1045B00026960FB6F894DEBF0FBECDBFDF91CF9128
:1045C0001F910F9108951F920F920FB60F92112411
:1045D0000F931F932F933F934F935F936F937F930B
:1045E0008F939F93AF93BF93EF93FF93E09A0E94B3
:1045F0008A2D0091C7041091C8042091C9043091FC
:10460000CA04DC01CB01801B910BA20BB30B883CCD
:104610009105A105B10528F082E00E9465040E9481
:104620006B030E948A2D6093C7047093C804809323
:10463000C9049093CA04FF91EF91BF91AF919F91EC
:104640008F917F916F915F914F913F912F911F912A
:104650000F910F900FBE0F901F9018951F920F9201
:104660000FB60F9211240F931F932F933F934F93E5
:104670005F936F937F938F939F93AF93BF93EF93CA
:10468000FF93E19A0E948A2D0091C7041091C804FB
:104690002091C9043091CA04DC01CB01801B910B2D
:1046A000A20BB30B883C9105A105B10528F083E06E
:1046B0000E9465040E946B030E948A2D6093C704C8
:1046C0007093C8048093C9049093CA04FF91EF913A
:1046D000BF91AF919F918F917F916F915F914F911A
:1046E0003F912F911F910F910F900FBE0F901F9030
:1046F0001895AF92BF92CF92DF92EF92FF920F93F5
:104700001F93CF93DF93CDB7DEB7E4970FB6F8943E
:10471000DEBF0FBECDBFADB6BEB69091C305993416
:1047200071F1993791F52091790530917A0523300F
:10473000310508F06DC580916B028823A9F0FE0158
:10474000319685E0DF011D928A95E9F780EF898334
:104750009A8382E08B8387E08C8387EF8D8365E08B
:10476000CF010E94671754C580EF73D989E771D9CB
:1047700082E06FD987E06DD987EF6BD949C5E091A9
:104780001F03F0912003099543C50091790501505D
:10479000943609F4F2C170F49135E9F020F49D30BB
:1047A00009F43CC235C59F3509F478C1923609F445
:1047B000A1C12EC59637E1F038F4993609F40AC143
:1047C000903709F445C124C5983709F4EBC09A37EE
:1047D00009F419C11DC580EF898382E58A8381E0D0
:1047E0008B8387EF8C8364E0CE01019652DC10C589
:1047F0001091C50515FD0CC50E947A198091C4055C
:104800002091C50526FB222720F991E02927912F29
:104810009871983051F130F49111FAC40E94D71B6D
:1048200012E007C0903109F43DC0983109F46DC021
:10483000EFC4101790F4212F30E0F901EB53FA4F39
:104840008081879588278795F901EC53FA4F9081ED
:10485000890F0E94FC1B1E5FECCF81E00E94E11BD0
:1048600083E191E00197F1F7D3C44091C7056091CE
:10487000C605063079F470E0B0E84B9F600D711DFD
:1048800011244091C9054795442747959091C80543
:10489000490F06C0479544274795460F6FEF7FEFB6
:1048A0000BDDB6C4E0910801E73024F083E391E02A
:1048B0009ADBAEC49091C7053091C605063081F4ED
:1048C000632F70E0F0E89F9F600D711D112490919F
:1048D000C9059795992797954091C805940F06C0EB
:1048E000979599279795930F6FEF7FEFEF5FE09381
:1048F000080135E0E302F0011124EB5BF94F8083FE
:10490000728361839383248383C4209108011216E8
:104910003CF490E0622F022E000C770B35E00FC0C4
:104920008FEF8093080174C4349FF001359FF00D20
:104930001124EB5BF94F4081841739F09F5F492FB9
:1049400050E06417750784F790E085E0492F50E048
:10495000641775071CF19830F8F4FA0131968E9FB0
:10496000D0018F9FB00D1124AB5BB94F3C91849F58
:10497000F001859FF00D1124EB5BF94F3083119608
:104980004D915C9112975283418313963C911397FA
:10499000338314963C9134839F5FD8CF215020936A
:1049A000080136C4023080F02091C5058091C4050D
:1049B00090E040E8249F800D911D1124009721F084
:1049C00090931E0380931D0380911C03811120C4CA
:1049D000BEDC1EC480EF89838AE68A83FE0133969B
:1049E00082EF883010F4982F01C09FE791938F5F7A
:1049F0008830B9F787EF898F80916B0269E188234E
:104A000009F451C14BC18091C5052091C40530E026
:104A100060E8869F200D311D112430930A012093F8
:104A200009012115310509F4F3C388E290E0B901C9
:104A30000E94AE31709315036093140380ED97E0EC
:104A4000B9010E94AE317093550260935402E0C3E5
:104A5000053008F4DDC31091C4058EEF810F82315B
:104A600008F0D6C38091C8054091C70550E070E8B2
:104A7000879F400D511D11248091C6056091C50589
:104A800070E090E8899F600D711D1124812F0E94B4
:104A9000131464E070E0812F5ED5BAC39091C40511
:104AA0008091C50591111BC09091C9052091C80541
:104AB00030E0A0E89A9F200D311D1124032E000C38
:104AC000440B550B9091C7056091C60570E0B0E8A6
:104AD0009B9F600D711D11240E94A41799C39130F2
:104AE00009F096C320E030E0A90160E070E00E9488
:104AF000A4178EC320911A0330911B032630310571
:104B00000CF086C38091C405809319039091C5056C
:104B100090931803F901EE0FFF1FEE0FFF1FEC5AE1
:104B2000FA4F6091C7054091C60550E070E8679F55
:104B3000400D511D1124052E000C660B770B408390
:104B4000518362837383F901E459FA4F8083F90139
:104B5000E25BFA4F90836CE070E0FDD46CE070E0B3
:104B600080911803F8D480911A0390911B03019649
:104B700090931B0380931A034BC3209150023091F2
:104B80005102263031050CF045C08091C40590914A
:104B9000C505492F50E04631510531F441E0F90196
:104BA000E151FB4F40830DC04B30510531F44AE0D9
:104BB000F901E151FB4F408304C084E491E013DA32
:104BC00027C3F901E751FB4F8083F901ED51FB4FFA
:104BD00090836FE070E0BFD48091500290915102B9
:104BE0000E94DD0E892B09F013C360915002709171
:104BF00051026F5F7F4F709351026093500280911A
:104C00005402909155020E94C231709355026093F4
:104C10005402FEC289E791E0E6D9FAC28091C40548
:104C20007E0191E2E90EF11C94E1D7011D929A9563
:104C3000E9F78E30E1F50E947A1910E001E0802F4B
:104C40000E94D71B81E00E94E11B811105C0F70182
:104C5000E10FF11D00831F5F0F5F0F3781F780EFBA
:104C600089838DE08A838EE08B831C83CE01059639
:104C7000D701AC012A2F2E19211728F42D91FC0100
:104C80002193CF01F7CFFA01E10FF11D87EF808368
:104C900080916B0265E0610F882329F0CE010196B7
:104CA0000E946717B5C2CE010196F3D9B1C2811136
:104CB0009DC08091C505813009F04DC0E091C605C9
:104CC000E093CE04F0E0EC54FE4F8081E82FF0E05A
:104CD00033E0F695E7953A95E1F79F01220F331FF0
:104CE000E20FF31FB096282F277081E090E001C0FB
:104CF000880F2A95EAF78095918198239183928174
:104D0000892382830E944F038091CE04823081F4F4
:104D100080912D0381117CC281E080932D03F89452
:104D2000E89A80916900826080936900789470C2EB
:104D3000833009F06DC280912C03811169C281E03A
:104D400080932C03F894E99A80916900886080939D
:104D5000690078945DC281115BC24091C70550E043
:104D600060E070E0ACE1440F551F661F771FAA9505
:104D7000D1F78091C80590E0A0E0B0E015E1880F80
:104D8000991FAA1FBB1F1A95D1F7482B592B6A2BC5
:104D90007B2B8091C90590E0A0E0B0E00EE0880F89
:104DA000991FAA1FBB1F0A95D1F7482B592B6A2BB5
:104DB0007B2B8091CA0590E0A0E0B0E027E0880F4F
:104DC000991FAA1FBB1F2A95D1F7842B952BA62BC1
:104DD000B72B2091CB052F77BC01CD01622B20E2B0
:104DE00030E04091C6050E94680512C2873109F083
:104DF00033C18091C505811123C0F090C605009193
:104E0000C705F0E80F9F800111248091C8058F77B6
:104E1000082B80EF0E94291D8DE00E94291D87E14B
:104E20000E94291D22E54FEFB8018F2D0E948B06AD
:104E3000811181E00E94291D87EF0E94291DE8C190
:104E4000813009F049C00091CB0510E020E030E04E
:104E500075E1000F111F221F331F7A95D1F7809142
:104E6000CC0590E0A0E0B0E0EEE0880F991FAA1F0B
:104E7000BB1FEA95D1F7082B192B2A2B3B2B8091CE
:104E8000CD0590E0A0E0B0E0F7E0880F991FAA1FE1
:104E9000BB1FFA95D1F7082B192B2A2B3B2B80919E
:104EA000CE058F77082B4091C90560E8469FA00189
:104EB00011248091CA058F77482B6091C70580E83F
:104EC000689FB00111248091C8058F77682B80916D
:104ED000C6050E94C50A9CC1823039F46091C7059D
:104EE0008091C6050E94780993C1833009F079C08A
:104EF000C090CF05D12CE12CF12C85E1CC0CDD1C30
:104F0000EE1CFF1C8A95D1F78091D00590E0A0E0BF
:104F1000B0E02EE0880F991FAA1FBB1F2A95D1F77A
:104F2000C82AD92AEA2AFB2A8091D10590E0A0E07C
:104F3000B0E037E0880F991FAA1FBB1F3A95D1F741
:104F4000C82AD92AEA2AFB2A8091D2058F77C82A53
:104F50000091CB0510E020E030E045E1000F111F8B
:104F6000221F331F4A95D1F78091CC0590E0A0E035
:104F7000B0E05EE0880F991FAA1FBB1F5A95D1F7BA
:104F8000082B192B2A2B3B2B8091CD0590E0A0E01C
:104F9000B0E067E0880F991FAA1FBB1F6A95D1F781
:104FA000082B192B2A2B3B2B8091CE058F77082BB2
:104FB0004091C90590E8499FA00111248091CA053C
:104FC0008F77482B6091C705A0E86A9FB001112434
:104FD0008091C8058F77682B8091C6050E94530B7E
:104FE00017C1843039F46091C7058091C6050E94CD
:104FF0005F0C0EC1853039F46091C7058091C605FC
:105000000E94E20C05C18630F9F40091CC0510E055
:105010002091CB0530E04091C905B0E84B9FA0013D
:1050200011248091CA058F77482B6091C705E0E86D
:105030006E9FB00111248091C8058F77682B8091F5
:10504000C6050E94F40DE4C0873009F0E1C08091EC
:10505000C6050E94230BDCC0893109F4D9C0803316
:1050600009F06FC08091C505811103C00E94E41250
:10507000CFC0813029F48091C6050E949212C8C029
:105080000DB71EB7823071F58091C60590E00E9481
:10509000D40F4091C705242F30E0C90101966DB7A8
:1050A0007EB7681B790B0FB6F8947EBF0FBE6DBF3D
:1050B0008DB79EB70196A8ECB5E0682FFC015E2F76
:1050C000561B541718F45D915193F9CFFC01E20F70
:1050D000F31F10820E941D120FB6F8941EBF0FBE60
:1050E0000DBF96C06091C7058091C6050E94A10FB3
:1050F0004091C805242F30E0C9010196ADB7BEB775
:10510000A81BB90B0FB6F894BEBF0FBEADBF8DB7CD
:105110009EB70196A9ECB5E0682FFC015E2F561BE7
:10512000541718F45D915193F9CFFC01E20FF31F6E
:1051300010820E9458110FB6F8941EBF0FBE0DBF0B
:1051400067C0803411F44AE003C0813469F44BE055
:1051500069E285EC95E00E94771561E070E080E0FF
:1051600090E00E94822054C0833409F051C0D2D410
:105170006B017C014CE069E288E791E00E94DE155A
:1051800061E070E080E090E00E948220EE24FF2445
:105190004DE069E288E791E00E942A16811120C063
:1051A000B9D4DC01CB018C199D09AE09BF0989393D
:1051B0009A43A105B10568F080EF0E94291D8DE09A
:1051C0000E94291D80E50E94291D87EF0E94291D4C
:1051D0001FC068EE73E080E090E00E948220D8CF8C
:1051E00064E670E080E090E00E9482204EE069E298
:1051F00088E791E00E9483166AE070E080E090E02A
:105200000E94822046E169E288E791E00E94DE1573
:105210000FB6F894BEBE0FBEADBEE4960FB6F894BE
:10522000DEBF0FBECDBFDF91CF911F910F91FF90D9
:10523000EF90DF90CF90BF90AF9008951F93CF93E2
:10524000DF93182FEB0180916E0690E068177907C5
:10525000A0F0E091C504F091C60481E0309799F088
:105260008093C2058091CC049091CD0409958091E2
:105270006E0690E0C817D90728F4CD53DA4F18838B
:1052800080E001C081E0DF91CF911F910895CF921E
:10529000DF92FF920F931F93CF93DF9390916D0650
:1052A0009923D9F0873F51F410926D06DF91CF9189
:1052B0001F910F91FF90DF90CF901BCA60917905ED
:1052C00070917A05BBDF8091790590917A050196FE
:1052D00090937A058093790530C16091430670916F
:1052E00044066115710509F4EFC087FDEDC06150FA
:1052F00071097093440660934306A0DF80914306D2
:1053000090914406892B09F018C180917805882373
:1053100009F413C1803D09F4CAC030F48039B1F1F9
:10532000803C09F4A5C0CDC0843F09F452C0853F3C
:1053300009F48EC0803E09F0C4C01091BC0516313E
:1053400008F0BFC08091C4058770C091C305CF77B6
:10535000D0E090E8899FC00DD11D11240091C505B2
:10536000812FF3D0833039F0843009F0AAC0CE0108
:105370000E94A614A6C08EEF810F823108F0A1C052
:10538000602F6F77AE01812FADD19BC08091C30597
:105390000091C40510E090E8899F000D111D1124B3
:1053A000F090BC05FF0CFF0CFF0CC0E0D0E0CC245B
:1053B000C394D12CB6018C2F0C2E01C0660F0A9419
:1053C000EAF760238F0D17D12196C830D10591F7E8
:1053D00078C0D091C3050D2F10E0C091C4058C2F6B
:1053E000B4D08F3709F46DC08EEF8C0F8231E8F4A2
:1053F000EC2FE695E695E6952C2F2770F0E0EB581C
:10540000FA4F81E090E001C0880F2A95EAF7011574
:10541000110519F00B30110521F49081892B80833F
:1054200004C08095908189238083B8018C2F93D00C
:10543000D23009F046C0CE5081E090E001C0880F24
:10544000CA95EAF790912B03892B80932B0339C0DF
:10545000C091C4058EEF8C0F823198F5D091C305B1
:105460008C2F73D0813069F56D2F8C2FC4D029C05B
:105470004091BC05483028F58091C30550912B031D
:1054800081110BC081E090E001C0880F4A95EAF7D6
:105490008095852380932B0314C021E030E001C068
:1054A000220F4A95EAF7252B20932B030AC0E0919F
:1054B000BC05E33030F4F0E0EE58FA4F8091C305BC
:1054C00080831092780539C0803F28F4982F9F7010
:1054D0009093BC05807F803EB1F038F4803C29F188
:1054E000803D19F1803949F517C0843FA9F0853F07
:1054F00099F0803F11F581E080936D0610927A0556
:10550000109279051AC023E030E0309344062093CE
:1055100043068093780511C022E030E030934406C2
:10552000209343068093780508C021E030E0309353
:1055300044062093430680937805DF91CF911F9115
:105540000F91FF90DF90CF900895E82FF0E0E159A0
:10555000F94F8081089590E0FC01E159F94F2081D5
:105560002F3709F447C060836115710521F0613060
:10557000710511F10895FC01E650FE4F8081E82F7E
:10558000F0E033E0F695E7953A95E1F79F01220FB9
:10559000331FE20FF31FB096282F277081E090E0B1
:1055A00001C0880F2A95EAF780959181982391830D
:1055B0009281892382830895FC01E650FE4FE081A9
:1055C0008E2F877001C0660F8A95EAF7F0E083E0BE
:1055D000F695E7958A95E1F7CF01880F991FE80FB7
:1055E000F91FB096862F80959281892382838181CD
:1055F000682B61830895E82FF0E0E650FE4FE081CC
:105600009E2F977021E030E0A90102C0440F551F82
:105610009A95E2F7CA01F0E093E0F695E7959A953E
:10562000E1F79F01220F331FE20FF31FB096282FDF
:1056300020953281322332833181382B31836623A6
:1056400021F09281892B82830895828128232283ED
:105650000895E82FF0E0E650FE4FE0812E2F2770EE
:1056600081E090E001C0880F2A95EAF7F0E093E02E
:10567000F695E7959A95E1F79F01220F331FE20F08
:10568000F31FDF019096982F909511962C9111970A
:10569000292311962C93119712962C9112979223ED
:1056A00012969C9390A1982381E009F480E00895DC
:1056B00090917A00906490937A0090917A0094FF90
:1056C000FCCF806480937C0080917A00806480931A
:1056D0007A0080917A0086FDFCCF809178009091CD
:1056E000790008952F923F924F925F926F927F922E
:1056F0008F929F92AF92BF92CF92DF92EF92FF92E2
:105700000F931F93CF93DF93C82FD0E0FE01E65095
:10571000FE4F0081902F977021E030E0190101C009
:10572000220C9A95EAF710E073E0169507957A95A2
:10573000E1F79801220F331F020F131F005E1F4F66
:10574000922D9095F8012281922392839181922942
:105750009183F4E0CC0FDD1FFA95E1F7662319F091
:10576000643639F461E047DFC25DDC4F1F861E8678
:105770006EC0FE01E25DFC4F88EC90E0938782876B
:1057800087E390E0958784874115510511F0538791
:105790004287C25DDC4FE62EF12CFD86EC86CC24E0
:1057A000C394D12CDF86CE862A853B85032E000C40
:1057B000440B550B60E970ED83E090E018D6490189
:1057C0005A01F1E08F1A9108A108B108C501B4018E
:1057D00040D420E030E048EC52E4A0D32B013C015F
:1057E000B7010F2C000C880B990B33D49B01AC0133
:1057F000C301B201F8D45AD5F9D32B013C01798306
:105800006883C501B40125D420E030E048EC52E4BF
:1058100085D34B015C0164E670E06E197F09072EA9
:10582000000C880B990B15D49B01AC01C501B40188
:10583000DAD43CD5DBD37B836A835D824C82DF8202
:10584000CE8219861886F8018281282A2282EEE209
:10585000F3E080E090E020E030E04685578541307D
:10586000510541F4DC01AA0FBB1FAB57B94F2D9373
:105870003C9301962F5F3F4F70962431310569F7B5
:1058800090936F0480936E04F894109280001092AD
:105890008100109285001092840081E090E0909346
:1058A00089008093880080918100886080938100C6
:1058B000809181008160809381008091810082606D
:1058C0008093810080916F00846080936F00789452
:1058D000DF91CF911F910F91FF90EF90DF90CF90CC
:1058E000BF90AF909F908F907F906F905F904F9000
:1058F0003F902F9008951F920F920FB60F92112490
:105900004F925F927F928F929F92AF92BF92CF926F
:10591000DF92EF92FF920F931F932F933F934F933A
:105920005F936F937F938F939F93AF93BF93CF9327
:10593000DF93EF93FF930E94231D882361F08091F2
:105940007004909171040196909371048093700497
:105950000E94311DF0CF40908506509086068090C1
:105960006E0490906F0495E8A92E96E0B92E8501FB
:10597000E0E0F0E0A201A4E0440F551FAA95E1F792
:10598000E815F9050CF054C0E801A991B9918E0110
:10599000BD0184E0660F771F8A95E1F7CB01825D38
:1059A0009C4F7C01EC01288539852130310581F53A
:1059B000CD0186509E4FEC017880872D90E0C3E0AA
:1059C00096958795CA95E1F76C01CC0CDD1C8C0D82
:1059D0009D1D8096E701EE80FF80D72DD7707D2E2C
:1059E000EC01EF2839F0FA8001C0220F7A94EAF72F
:1059F0002F2907C0FA8001C0220F7A94EAF7209578
:105A00002F212A83CB01825D9C4FEC0119861886D9
:105A1000625D7C4F425D5C4FEB012C813D81EA0170
:105A20008C819D81821793070CF02D013196A2CFB6
:105A3000FA01E25DFC4F4481558120E030E061E0F5
:105A400070E028153905F4F5F501819191915F0118
:105A5000DC01E4E0AA0FBB1FEA95E1F7FD01E25D7E
:105A6000FC4FC481D581C41BD50BD583C483CD2BFA
:105A700031F5C681D781219719F4C281D38102C043
:105A8000C081D181D583C483A25DBC4F1696CD91D0
:105A9000DC911797FC01FF2784E0EE0FFF1F8A952A
:105AA000E1F7E25DFC4F7187608781E090E0CD2BEC
:105AB00011F080E090E017969C938E9316972F5FDD
:105AC0003F4FBFCF509389004093880010928500CC
:105AD00010928400FF91EF91DF91CF91BF91AF9130
