:10000000B3C000000C94BA1D0C94031ECAC00000BB
:10001000C8C00000C6C00000C4C000000C94971403
:10002000C0C00000BEC00000BCC000000C944B115A
:100030000C944A27B6C00000B4C00000B2C0000053
:100040000C946528AEC000000C94AF28AAC0000034
:10005000A8C00000A6C00000A4C00000A2C000000C
:100060000C941A169EC00000005EBCE2613FDD8366
:10007000C29C7E20A3FD1F419DC3217FFCA2401E88
:100080005F01E3BD3E6082DC237D9FC1421CFEA078
:10009000E1BF5D0380DE3C62BEE0025CDF81633D68
:1000A0007C22C09E1D43A1FF4618FAA427799BC558
:1000B00084DA3866E5BB5907DB856739BAE4065848
:1000C0001947A5FB7826C49A653BD987045AB8E638
:1000D000A7F91B45C6987A24F8A6441A99C7257B28
:1000E0003A6486D85B05E7B98CD2306EEDB3510F18
:1000F0004E10F2AC2F7193CD114FADF3702ECC9208
:10010000D38D6F31B2EC0E50AFF1134DCE90722CF7
:100110006D33D18F0C52B0EE326C8ED0530DEFB1E7
:10012000F0AE4C1291CF2D73CA947628ABF51749D7
:100130000856B4EA6937D58B5709EBB536688AD4C7
:1001400095CB2977F4AA4816E9B7550B88D6346AB7
:100150002B7597C94A14F6A8742AC896154BA9F7A7
:10016000B6E80A54D7896B3511241FBECFEFD8E00B
:10017000DEBFCDBF12E0A0E0B1E0E4ECFDE502C0DF
:1001800005900D92A831B107D9F726E0A8E1B2E0B9
:1001900001C01D92A538B207E1F70E94E9280C942E
:1001A000E02E2ECF60E08091AE040E94CA2561E06F
:1001B0008091AF040E94CA2561E08091AE040E9444
:1001C000CA2560E08091AE040E94CA2560E080915B
:1001D000AF040E94CA2588E490E00C94E71B80934A
:1001E000AE046093AF044093D10461E070E00E94DC
:1001F0007A2561E070E08091AF040E947A25D2CF29
:10020000CF92DF92EF92FF920F931F93CF93DF93E2
:10021000182F092F80911802811113C00E945928AC
:100220006093BC047093BD048093BE049093BF049C
:1002300081E080931802C12FD02F8E01025F1F4FE3
:1002400021C00E9459286093C2047093C304809314
:10025000C4049093C504C090BC04D090BD04E09049
:10026000BE04F090BF04DC01CB018C199D09AE09DE
:10027000BF09893B9B40A105B105E8F293DF1092CD
:100280001802D9CF8AE090E00E94E71B8091D10448
:100290000E9427268993999382E390E00E94E71BAE
:1002A00061E08091AE040E94CA2582E190E00E9444
:1002B000E71B60E08091AE040E94CA25C017D107F9
:1002C00009F7DF91CF911F910F91FF90EF90DF9091
:1002D000CF90089580911B0290911C02A0911D0265
:1002E000B0911E02892B8A2B8B2B09F464C080EFFE
:1002F0000E9492198DE00E94921980E00E9492194A
:100300008091D8040E94921980911B028F770E94DD
:10031000921980911B0290911C02A0911D02B09134
:100320001E0227E0B695A795979587952A95D1F750
:100330008F770E94921980911B0290911C02A091CC
:100340001D02B0911E023EE0B695A7959795879540
:100350003A95D1F78F770E94921980911B02909164
:100360001C02A0911D02B0911E0245E1B695A79511
:10037000979587954A95D1F78F770E94921980912A
:100380001B0290911C02A0911D02B0911E025CE123
:10039000B695A795979587955A95D1F70E9492198A
:1003A00087EF0E94921910921B0210921C02109269
:1003B0001D0210921E0208950E94891B6093D404AE
:1003C0007093D5048093D6049093D7048091D80479
:1003D0000E94F8258823D1F30E94891B4091D40400
:1003E0005091D50420E73EEF241B350B620F731F9D
:1003F0006D32714018F50E94891B6093D40470938C
:10040000D5048093D6049093D7048091D8040E9499
:10041000F8258111FACF0E94891B2091D4043091D4
:10042000D504621B730BCB018A5991408D329140E8
:1004300038F06E5076406D32714020F08FEF0895A5
:1004400080E0089581E008950F931F93CF93DF9389
:1004500010921B0210921C0210921D0210921E029A
:10046000C8E0D0E0A9DF81114CC02197D9F7C6E0E0
:10047000D0E0A2DF813009F044C02197D1F79CDFA2
:1004800081113FC099DF8130E1F5C0E0D0E001E0AB
:1004900010E092DF8130F9F4C8010C2E02C0880F01
:1004A000991F0A94E2F7092E000CAA0BBB0B40918E
:1004B0001B0250911C0260911D0270911E02842B40
:1004C000952BA62BB72B80931B0290931C02A09315
:1004D0001D02B0931E022196C031D105D1F6809144
:1004E0001B0290911C02A0911D02B0911E02AA272E
:1004F000BB2780931B0290931C02A0931D02B09314
:100500001E02DF91CF911F910F9108950F931F93BA
:100510008093D8040E94891B6093D4047093D504FF
:100520008093D6049093D7048091D8040E94F82534
:10053000882311F10E94891B0091D4041091D504E5
:100540002091D6043091D704DC01CB01801B910BA4
:10055000A20BB30B813A9648A140B10528F38FEF67
:1005600090E0A0E0B0E080931B0290931C02A09367
:100570001D02B0931E024FC00E94891B6093D404D9
:100580007093D5048093D6049093D7048091D804B7
:100590000E94F8258823D1F30E94891B4091D4043E
:1005A0005091D5042EE63DED241B350B620F731FD1
:1005B0006F35714080F50E94891B6093D40470935D
:1005C000D5048093D6049093D7048091D8040E94D8
:1005D000F8258111FACF0E94891B2091D404309113
:1005E000D504621B730BCB018E5F90418F35914018
:1005F00018F41F910F9128CF6C5A78406D33710514
:1006000050F48091D8040E94F8258823D1F31F91DB
:100610000F910C94891B1F910F9108958F929F92B7
:10062000AF92BF92CF92DF92EF92FF92CF936C0185
:10063000C62F0E94891B4B015C010D2C000CEE089B
:10064000FF0861E08C2F0E94CA2580911F029091C3
:1006500020020E94E71B60E08C2F0E94CA25809137
:100660001F02909120020E94E71B0E94891BDC015F
:10067000CB0188199909AA09BB098C159D05AE05FE
:10068000BF05F8F2CF91FF90EF90DF90CF90BF9031
:10069000AF909F908F9008958F929F92AF92BF924C
:1006A000CF92DF92EF92FF926C01F62E0E94891B8F
:1006B0004B015C0160E08F2D0E94CA250D2C000CBF
:1006C000EE08FF080E94891BDC01CB0188199909FB
:1006D000AA09BB098C159D05AE05BF0598F3FF90CF
:1006E000EF90DF90CF90BF90AF909F908F90089544
:1006F000E62FF0E0E55FFE4FE0819E2F977041E02E
:1007000050E09A0101C0220F9A95EAF7F0E093E0D9
:10071000F695E7959A95E1F7BF01660F771FE60F0B
:10072000F71FB096922F90953281932392839181F7
:10073000292B2183682F70E0CA010E94872C072E85
:10074000000C880B990B0E94BE2A20E030E04AE79B
:1007500054E40E94AC2B20E030E040EC50E40E94D6
:10076000BB290E948B2A60931F0270932002809302
:100770002102909322020895AF92BF92CF92DF920E
:10078000EF92FF920F931F93CF936B017C01C42FC5
:100790005901642F86E2ACDF6C2F88E293E23EDFE2
:1007A0006C2F84E991E178DF00E010E06C2F80E3AA
:1007B00092E00A151B05A4F4F7FE06C02FDF6C2F8C
:1007C00080E496E069DF05C029DF6C2F80E392E0CA
:1007D00063DFCC0CDD1CEE1CFF1C0F5F1F4FE6CF50
:1007E0001DDF6C2F80E090E0CF911F910F91FF9063
:1007F000EF90DF90CF90BF90AF904ECFE82FF0E01A
:10080000E15EFE4FE0812E2F277081E090E001C075
:10081000880F2A95EAF7F0E093E0F695E7959A9528
:10082000E1F79F01220F331FE20FF31FB096982FBD
:1008300090952281922392839181892B81830895BF
:10084000AF92BF92CF92DF92EF92FF920F931F93DE
:10085000CF93DF936C01C62FD0E0CC0FDD1F8E014C
:10086000035C1D4FF80180819181009729F00E945F
:10087000502EF801118210828E010D5D1D4FF8017E
:1008800080819181009729F00E94502EF8011182F9
:1008900010829091B0048091CB04981719F084E0F5
:1008A00090E002C083E090E08C9D50018D9DB00CE3
:1008B0009C9DB00C1124B092B204A092B104C50169
:1008C0000E94B82D8C01FE01E35CFD4F9183808373
:1008D000892BE9F0C5010E94B82D7C01FE01ED5D78
:1008E000FD4F91838083892B91F0A50160E070E03A
:1008F000C8010E94D92EA50160E070E0C7010E94E6
:10090000D92ED092D304C092D20481E019C0C8017C
:100910000E94502EFE01E35CFD4F11821082CD5DDE
:10092000DD4F888199810E94502E19821882109281
:10093000B2041092B1041092D3041092D20480E059
:10094000DF91CF911F910F91FF90EF90DF90CF90AB
:10095000BF90AF90089531E02091B0049091CB0406
:10096000291330E0482F42954695469543704093B1
:10097000B004982F929593709093CB04282F2695CE
:10098000269523702093B90483708093C70481E077
:100990008093CA04E62FF0E0EE0FFF1FE35CFD4FEB
:1009A0000190F081E02DEF2B49F0491380E03817DA
:1009B00029F08091D2049091D30442CF08950F93EF
:1009C0001F93CF93C82F80911E038F3F99F0809182
:1009D000CC048C130FC08091CD049091CE04861767
:1009E000970741F48091CF04841304C08091D00410
:1009F000821769F1822F8B01C093CC047093CE04CF
:100A00006093CD044093CF042093D0044093C60458
:100A10006C2FA1DF6C2FC80113DFC82F8823A9F02A
:100A200080911E0387FD06C0E9DE60E080911E0311
:100A30000E94CA2581E08093C1041092D9041092CB
:100A4000DA041092DB041092DC048C2F00C0CF91EA
:100A50001F910F9108956111D1CEE82FF0E0E15E72
:100A6000FE4F8081E82FF0E093E0F695E7959A95A8
:100A7000E1F79F01220F331FE20FF31FB096282FDB
:100A8000277081E090E001C0880F2A95EAF78095F1
:100A90009181982391839281892382830895CF93B2
:100AA000C82F8091C104882331F080911E0387FDF7
:100AB00002C060E0D0DFC0931E038091C104882390
:100AC00031F08C2F9BDE60E08C2F0E94CA258C2F8A
:100AD00090E0FC01E051FE4FE081F0E0EE0FFF1FDF
:100AE000EA51FE4F208131813093C9042093C8041C
:100AF000FC01E853FE4F80818093AD04CF910895AF
:100B00004F925F926F927F928F929F92AF92BF921D
:100B1000CF92DF92EF92FF920F931F93CF93DF93C9
:100B2000CDB7DEB729970FB6F894DEBF0FBECDBFA5
:100B3000722EC32ED42E598328E631E040E050E0D7
:100B40000E949A2C4B015C01ED82FE820F83188774
:100B50002D813E814F81588524363105410551054F
:100B600040F083E690E0A0E0B0E08D839E83AF8309
:100B7000B8878D819E81AF81B885C297A109B048A1
:100B8000880F991F97FF03C091958195910924E6DD
:100B900030E0281B390B032E000C440B550B672D3E
:100BA0007C2D8D2D9981643671058105910520F08C
:100BB00063E670E080E090E00E94582C982F872F29
:100BC000762F662720E137E240E050E00E949A2C21
:100BD00029013A01ACE3CA2ED12CE12CF12CC5013C
:100BE000B401A70196010E949A2C29833A834B8372
:100BF0005C83998199872CE3A981BA812A9FC001DE
:100C00002B9F900D1124092E000CAA0BBB0BA501E4
:100C10009401281B390B4A0B5B0B942F832F722FE7
:100C20006627A70196010E949A2C89818170C82E9F
:100C3000D12CDC2CCC24DA94C20ED31ED7FE03C0F8
:100C4000D194C194D1080D2C000CEE08FF0880E06F
:100C500091E0A0E0B0E09C01AD012C193D094E09E6
:100C60005F09C301B2010E94582CC72ED82EE92E6D
:100C7000FF249985992391F09130B9F09230F1F0E9
:100C8000933031F1943061F1C982DA82EB82FC82D7
:100C900053014201C12CD12C76012BC053014201DA
:100CA00019821A821B821C8224C0460157017301DB
:100CB000620119821A821B821C821BC0C982DA82DD
:100CC000EB82FC8273016201812C912C540111C0D2
:100CD00049825A826B827C82812C912C540109C0FA
:100CE00049825A826B827C8246015701C12CD12CE9
:100CF00076018D819E81AF81B885880F991FAA1FCB
:100D0000BB1F6627782F892F9A2F24E630E040E01A
:100D100050E00E949A2CDA01C90184199509A609AC
:100D2000B7098C019D013695279517950795D50133
:100D3000C401800F911FA21FB31F9927AA27BB27A9
:100D4000DC0199278827C00ED11EE21EF31EFE2C5F
:100D5000ED2CDC2CCC24EE24FF248C299D29AE29FB
:100D6000BF2949815A816B817C81400F511F621FCD
:100D7000731FBC01CD01642B29960FB6F894DEBF1A
:100D80000FBECDBFDF91CF911F910F91FF90EF90DC
:100D9000DF90CF90BF90AF909F908F907F906F909B
:100DA0005F904F900895CF932091D2043091D30457
:100DB0006217730708F058C02091B004C091CB04AB
:100DC00090E05091B904A22FB0E04091C704880F81
:100DD000991FFC012C1322C0ED5DFD4F9B01220FDA
:100DE000331F620F731F20813181260F371FF901D6
:100DF000E50FF11D5081A20FB31F6C91862F90E07B
:100E0000A0E0B0E0DC0199278827952BF901E40FD9
:100E1000F11D2081BC01CD01622B29C0E35CFD4F97
:100E2000660F771F660F771F20813181260F371FCE
:100E3000A20FB31FEC91D901AC0FB11D6C91862F9D
:100E400090E0A0E0B0E0DC0199278827BE2BF901F3
:100E5000E40FF11D4081842BF901E50FF11D208184
:100E6000BC01CD01722B03C060E070E0CB01CF91DB
:100E70000895CF92DF92EF92FF921F93CF93DF936B
:100E8000CDB7DEB729970FB6F894DEBF0FBECDBF42
:100E9000182F05DE0E94891BC090D904D090DA0477
:100EA000E090DB04F090DC04DC01CB018C199D099F
:100EB000AE09BF098C329140A105B10558F380916C
:100EC000B1049091B2049A838983E12FF0E0EE0F90
:100ED000FF1FE35CFD4F0190F081E02DDF011196D3
:100EE000808189879091CA04E091C804F091C90477
:100EF0008091AD04992309F436C09081982B98878E
:100F00009081809589238F838F818E8388E08D8364
:100F1000F89458856F81E091C804F091C90449851F
:100F20003D812E8189819A81508347FD252F3A95F5
:100F30002083262F39F0441F00C00000608300008A
:100F400000C0F2CF38E04D9160830000019761F757
:100F5000F093C904E093C80449873D832E839A83A4
:100F6000898378943AC09081982B98879081809556
:100F700089238F838F818C8388E08B8358856F8151
:100F800049853B812C8189819A81508347FD252F9A
:100F900000C000C0208300C000C000C000C000C06E
:100FA00060830000262F3A9541F0441F000000C0E6
:100FB00000C000C000C000C0E8CF38E04D9100C0C4
:100FC000608300C0019709F7F093C904E093C80457
:100FD00049873B832C839A8389830E94891B609372
:100FE000D9047093DA048093DB049093DC0429968F
:100FF0000FB6F894DEBF0FBECDBFDF91CF911F912A
:10100000FF90EF90DF90CF900895CF92DF92EF9214
:10101000FF920F931F93CF93DF936093C6042091A9
:10102000D2043091D304232B09F461C0A0E0B0E0D6
:10103000C0E0D0E0E82FF0E0EE0FFF1F8F01035C6F
:101040001D4F9F012D5D3D4F69012091D2043091CC
:10105000D304C217D30708F041C0F8014081518181
:101060007A01EA0EFB1EF601208131812A0F3B1F17
:101070004091CB0450E0B901640F751FFB019081D2
:101080006091C6044E0D5F1D969FB0011124FA01B8
:1010900070836091B90470E0A901460F571FFA01EF
:1010A00090814091C6046E0D7F1D949FA001112474
:1010B000FB0150839091C704492F50E0240F351F46
:1010C000F90190812091C6044E0D5F1D929F900101
:1010D0001124FA01308321961396B7CFDF91CF9177
:1010E0001F910F91FF90EF90DF90CF90C2CEDF91D4
:1010F000CF911F910F91FF90EF90DF90CF900895C7
:101100004F925F926F927F928F929F92AF92BF9217
:10111000CF92DF92EF92FF920F931F93CF93DF93C3
:1011200069017A01902F2091D2043091D304621783
:10113000730708F093C08701222733274D2C5E2CBC
:101140006F2C7724A091B004E091CB04482F50E09D
:10115000AE1317C0FB01EE0FFF1F6E0F7F1F440F72
:10116000551FFA01E35CFD4F0190F081E02DE60F81
:10117000F71FDA01AD5DBD4F4D915C91640F751F96
:101180003FC0660F771F660F771F440F551FFA0188
:10119000E35CFD4F0190F081E02DE60FF71FEA01BF
:1011A000CD5DDD4F48815981640F751F8F2C9924C7
:1011B000AA24BB24EF01CA0FD11D4091C6044423C9
:1011C00051F050E0489DD001499DB00D589DB00DA3
:1011D00011244B2F01C0482D48834091B004EB01EE
:1011E000C40FD11D4091C604442349F050E0489DEE
:1011F000D001499DB00D589DB00D11248B2E8882D1
:101200004091CB04DB01A40FB11D0C934091B904B4
:10121000DB01A40FB11D4C924091C704DB01A40F68
:10122000B11DCC924091C604049F80011124449DBD
:10123000200111244C9D600111242091CB04DF0179
:10124000A20FB11D1C932091B904DF01A20FB11DA3
:101250005C922091C704E20FF11DD082992389F09E
:10126000DF91CF911F910F91FF90EF90DF90CF9082
:10127000BF90AF909F908F907F906F905F904F90B6
:10128000F8CDDF91CF911F910F91FF90EF90DF90FC
:10129000CF90BF90AF909F908F907F906F905F9016
:1012A0004F9008958F929F92AF92BF92DF92EF92EC
:1012B000FF920F931F93CF93DF93D82E48015901CC
:1012C0008091D2049091D30477FD02C057FF05C0EE
:1012D000AC014150510960E070E0461757072CF40B
:1012E000362F272FBA01432F522F009769F177FF2E
:1012F00002C060E070E07B018617970708F47C016C
:1013000057FF02C040E050E08417950708F4AC0195
:10131000EA012196EC16FD0650F400E0A5019401C7
:10132000B7018D2DEDDE8FEFE81AF80AF3CF8D2D82
:10133000DF91CF911F910F91FF90EF90DF90BF90C1
:10134000AF909F908F9095CDDF91CF911F910F918E
:10135000FF90EF90DF90BF90AF909F908F90089597
:101360001F93CF93DF932091D2043091D304232B8A
:1013700019F1182FC82FD0E0CC0FDD1FFE01E35C60
:10138000FD4F4091B1045091B20460E070E0808163
:1013900091810E94D92ECD5DDD4F4091B1045091D5
:1013A000B20460E070E0888199810E94D92E812F7B
:1013B000DF91CF911F915DCDDF91CF911F91089566
:1013C0002F923F924F925F926F927F928F929F9255
:1013D000AF92BF92CF92DF92EF92FF920F931F9343
:1013E000CF93DF9300D000D01F92CDB7DEB78983B3
:1013F00048015901160127014617570728F4962F6F
:10140000872FBA01492F582F8091D2049091D3048D
:10141000009709F4CBC07D836C838617970710F47F
:101420009D838C838417950708F4AC014F5F5F4F51
:101430009A018C819D81281B390B3B832A83C10132
:1014400088599E4F8819990968E671E00E94732CAB
:101450009C0144E6429FC001439F900D11246A8184
:101460007B810E94732C6B018A819B810197B9F467
:10147000860E971EB40180E090E012E3E12EF12C7D
:1014800000E010E024E630E040E050E039DB9B0172
:10149000AC0100E06C817D81898132DE6EC012E397
:1014A000E12EF12C00E010E024E630E040E050E0D6
:1014B000C501B40125DB9B01AC0100E06C817D819D
:1014C00089811EDE6C807D809FEF691A790AC69C37
:1014D0009001C79C300DD69C300D11242C193D096C
:1014E00044E6489DC001499D900D11244901880E94
:1014F000991EA12CB12C8C819D8101972A813B8161
:10150000820F931F9B838A83AC0CBD1C8A819B81B5
:1015100068167906F8F4C501880D991D64E670E037
:101520000E94732C68597E4F80E090E012E3E12E18
:10153000F12C00E010E024E630E040E050E0E0DA9A
:101540009B01AC0100E0B3018981DADD3FEF631A52
:10155000730ADACF12E3E12EF12C00E010E024E66A
:1015600030E040E050E0C201B101CADA9B01AC01B9
:1015700000E06A817B818981C3DD89810F900F90B2
:101580000F900F900F90DF91CF911F910F91FF90CF
:10159000EF90DF90CF90BF90AF909F908F907F9013
:1015A0006F905F904F903F902F9063CC0F900F9073
:1015B0000F900F900F90DF91CF911F910F91FF909F
:1015C000EF90DF90CF90BF90AF909F908F907F90E3
:1015D0006F905F904F903F902F900895AF92BF9281
:1015E000CF92DF92EF92FF920F931F93CF93DF93EF
:1015F000662309F46BC0C091D204D091D304209724
:1016000009F464C0C62E062E000CDD08CC15DD05DD
:1016100058F4DF91CF911F910F91FF90EF90DF90E1
:10162000CF90BF90AF909CCE182F161634F0A12CFF
:10163000B12C7E01EC0CFD1C29C02197CC15DD05D9
:1016400064F0BE016C197D09812FADDB9B01AC01FB
:1016500000E0BE01812F54DDF0CFC0E0D0E000E01B
:1016600020E030E0A901BE01812F4ADD2196CC1691
:10167000DD06A9F7812FDF91CF911F910F91FF9088
:10168000EF90DF90CF90BF90AF90F3CBEA14FB04C4
:1016900078F0B5016C197D09812F85DB9B01AC01C8
:1016A00000E0B501812F2CDD8FEFA81AB80AEECF2C
:1016B000EC16FD06F8F600E020E030E0A901B701E5
:1016C000812F1EDD8FEFE81AF80AF2CFDF91CF915C
:1016D0001F910F91FF90EF90DF90CF90BF90AF9050
:1016E00008952F923F924F925F926F927F928F92C6
:1016F0009F92AF92BF92CF92DF92EF92FF920F93A1
:101700001F93CF93DF9300D0CDB7DEB7382E2DB720
:101710003EB73A832983662309F4D9C0E090D20406
:10172000F090D304E114F10409F4D1C0862F660FC0
:10173000990BB7010E94732C282EC82E082E000C7E
:10174000DD084DB65EB618160CF04EC0C601880F07
:10175000991F880F991FEDB7FEB7E81BF90B0FB65D
:10176000F894FEBF0FBEEDBF2DB73EB72F5F3F4FC2
:101770003901590100E010E047018C189D08B401BF
:10178000600F711F832D0FDBF501619371938193BE
:1017900091935F010F5F1F4F0C151D0584F3F1E05E
:1017A000EF1AF108EC14FD0464F0B7016C197D091F
:1017B000832DF9DA9B01AC0100E0B701832DA0DC99
:1017C000EECFE12CF12CF301219131914191519116
:1017D0003F0100E0B701832D93DCFFEFEF1AFF0A12
:1017E000EC14FD0484F36CC0D194C194D108C601FB
:1017F000880F991F880F991F2DB73EB7281B390BEB
:101800000FB6F8943EBF0FBE2DBF8DB79EB70196A1
:101810003C018C01A12CB12CAC14BD0469F0B501C4
:10182000832DC1DAF80161937193819391938F01B4
:10183000FFEFAF1ABF0AF0CF812C912CA22C220C03
:10184000BB086701CA0CDB1CC814D90478F0B401CA
:101850006A197B09832DA7DA9B01AC0100E0B40172
:10186000832D4EDC2FEF821A920AEECF8FEF9FE38B
:10187000E89E4001E99E900CF89E900C11248A1875
:101880009B088C0C9D1C880C991C880C991CA12C05
:10189000B12CCE14DF04A0F4F501E80DF91DE60D1E
:1018A000F71D208131814281538100E0B601832DF3
:1018B00027DC3FEFC31AD30A84E0A80EB11CE9CF9E
:1018C0000FB6F8945EBE0FBE4DBE832DD2DAE9810D
:1018D000FA810FB6F894FEBF0FBEEDBF0F900F90C8
:1018E000DF91CF911F910F91FF90EF90DF90CF90FC
:1018F000BF90AF909F908F907F906F905F904F9030
:101900003F902F9008952F923F924F925F927F9237
:101910008F929F92AF92BF92CF92DF92EF92FF92FF
:101920000F931F93CF93DF9300D000D0CDB7DEB7D6
:10193000782E7C836B83B8018B819C814817590773
:1019400030F49B818C815C834B83492F582F80918D
:10195000D2049091D304009709F4A1C0EB81FC81DB
:101960008E179F0710F49C838B838417950708F4C8
:10197000AC011616170664F0872DF2DC00E020E0BB
:101980003FEF4FEF50E06B817C81872DB9DB67C063
:10199000CA01EB81FC818E1B9F0B9A8389836C01AA
:1019A000FFEFCF1ADF0AA90137FF03C05195419518
:1019B00051094C9DC0014D9D900D5C9D900D1124D1
:1019C0000E94732C4B01672B49F0A12CB12CE12C08
:1019D000F12C212C312C21012A943EC0EE24E394D9
:1019E000F12CEC14FD04D8F56B817C816E0D7F1D0C
:1019F00000E020E030E0A901872D82DB8FEFE81ABC
:101A0000F80AEFCFE814F90408F040C0C501698175
:101A10007A810E94732C9B013327C901A0E0B0E0BA
:101A20009C0111270027D201C101861B970BA10938
:101A3000B109A9019801282B00E06B817C81872DD9
:101A40005FDB9FEFE91AF90AEFEFAE0EB11C8B8155
:101A50009C8101969C838B83EC14FD0498F2872D66
:101A60000F900F900F900F90DF91CF911F910F91DA
:101A7000FF90EF90DF90CF90BF90AF909F908F90AE
:101A80007F905F904F903F902F90F3C900E020E04F
:101A900030E0A9016B817C81872D32DBD2CF0F90A2
:101AA0000F900F900F90DF91CF911F910F91FF90AA
:101AB000EF90DF90CF90BF90AF909F908F907F90EE
:101AC0005F904F903F902F90089504C0615071092E
:101AD000810991096115710581059105B9F708958D
:101AE000AF92BF92CF92DF92EF92FF920F931F932C
:101AF000CF93DF931092DD041092DE041092DF0486
:101B00001092E0041092E104FC01E851FB4FC08107
:101B1000FC01E251FB4FD08161E070E08C2F0E940C
:101B20007A2560E08C2F0E94CA25DD2371F1A12C5B
:101B300024E2B22E34EFC32ED12CE12CF12C00E0A4
:101B400010E02D2F30E040E050E060E070E080E0F9
:101B500090E00E94F72CE6E0AE2EB12CC12C0E9442
:101B60004A2D29513C4F4F4F5F4F6F4F7F4F8F4F43
:101B70009F4F0E94F92A20E030E04AE754E40E9497
:101B8000232A0E94902AA1DF05C063E070E080E074
:101B900090E09BDF60E070E08C2F0E947A2588E265
:101BA00090E00E94E71B00E911E08C2F0E94F825CD
:101BB000811106C001501109C1F78EEF9FEF49C096
:101BC00000E911E08C2F0E94F825882321F00150B4
:101BD0001109C1F7F2CF18E200E0D0E890E9E92E50
:101BE000FF24F3948C2F0E94F825811105C081E019
:101BF000E81AF108B9F7E1CF0E94891B6B017C015B
:101C000080E9A82EBB24B3948C2F0E94F82588234A
:101C100029F081E0A81AB108B9F7CFCF0E94891B3B
:101C2000DC01CB018C199D09AE09BF098997A1057B
:101C3000B10538F0E02FF0E0E352FB4F80818D2BAF
:101C40008083D69511F40F5FD0E8115039F680E00B
:101C500090E0DF91CF911F910F91FF90EF90DF9077
:101C6000CF90BF90AF90089510920105109200059B
:101C70001092FE04EEEFF4E0129284E0E63FF807E3
:101C8000D9F70895CF93C82F60E00E942B058C2FC1
:101C900090E0FC01E853FE4F20812093FF04FC01FB
:101CA000E051FE4FE081F0E0EE0FFF1FE452FE4FE7
:101CB000808191819093F5048093F404D5DFCF91D6
:101CC0000895FF920F931F93CF93DF93F090FF043B
:101CD000C091F404D091F504F89489810F2D0095FA
:101CE0008023898378941DE7115029F182E090E0E8
:101CF0000E94E71B88818F21B9F3F8948A818023A1
:101D00008A8389818F298983789480EE91E00E946B
:101D1000E71BF89489810823098386E490E00E94F8
:101D2000E71B8881F82211E009F010E078948AE935
:101D300091E00E94E71B812FDF91CF911F910F91BE
:101D4000FF9008950F931F93CF93DF930091FF04AB
:101D5000C091F404D091F504F8948981802B898393
:101D60008A81102F109581238A8383E090E00E945E
:101D7000E71B8981182319838AE090E00E94E71B02
:101D8000C881789485E390E00E94E71BC02381E03E
:101D900009F480E0DF91CF911F910F9108950F9387
:101DA0001F93CF93DF9308E010E0C0E0D1E0CADFDB
:101DB0008111CD2BDD0F01501109C9F78C2FDF9157
:101DC000CF911F910F9108951F93CF93DF9310919F
:101DD000FF04C091F404D091F504912F909580FFF9
:101DE00016C0F8948A8189238A838981812B89830B
:101DF0008AE090E00E94E71B8A81182B1A8378946E
:101E000087E390E0DF91CF911F910C94E71BF8944A
:101E10008A8189238A838981812B898381E490E067
:101E20000E94E71B8A81182B1A83789485E090E042
:101E3000DF91CF911F910C94E71BFF920F931F939B
:101E4000CF93DF93F82E062FC8E0D0E011E081E0B9
:101E50009F2D912309F480E0B7DF110F2197B9F787
:101E6000011113C0F894E091F404F091F50491810C
:101E70008091FF04809598239183E091F404F09180
:101E8000F5049281892382837894DF91CF911F9109
:101E90000F91FF9008950F931F93CF93DF938C01C1
:101EA00060E085E5CADFE801085F1F4F60E08991C7
:101EB000C4DFC017D107D1F7DF91CF911F910F91E8
:101EC0000895DF92EF92FF920F931F93CF93DF93CA
:101ED00020910005211104C07C01F3DE811108C0AE
:101EE00010920105109200051092FE0480E05BC084
:101EF00060E080EFA2DFD1E000E0D12CC1E022DF82
:101F0000182F20DF113019F48130C1F432C0202F96
:101F100030E018131DC080910105C81738F4F9018D
:101F2000EA50FB4F80818D2349F402C0C81731F07D
:101F300010E0C93060F4C093FE0409C0E02FF0E067
:101F4000EA50FB4F80818D2B808311E009C0DC2E8D
:101F5000F901EA50FB4F80812D2F20952823208303
:101F6000812F32DFCF5FDD0F11F40F5FD1E008303A
:101F700030F2C13408F4B4CFD0920105D11003C0BF
:101F800081E0809300058091F604882309F4A8CFAE
:101F9000A6EFB4E0F7018EEF94E02D9121938A171C
:101FA0009B07D9F781E0DF91CF911F910F91FF90AF
:101FB000EF90DF900895DC0180E0615040F09D914A
:101FC000E82FE927F0E0E859FF4F8491F6CF089514
:101FD000AF92BF92CF92DF92EF92FF920F931F9337
:101FE000CF93DF93CDB7DEB764970FB6F894DEBF1B
:101FF0000FBECDBF5C01CE010D9663DF811102C023
:1020000033DE32C067E0CE010D96D5DF9C8989139F
:102010002BC08D85803111F0883231F552DECE0132
:102020000D9639DF61E084E408DF4BDECE010D96CA
:1020300032DF60E08EEB01DF8E010F5F1F4F6E011C
:102040008AE0C80ED11C7801AADED7018D937D01EC
:10205000AC15BD05C9F708DEF501D8018D918D01DC
:102060008193CA16DB06C9F764960FB6F894DEBFF3
:102070000FBECDBFDF91CF911F910F91FF90EF90D9
:10208000DF90CF90BF90AF9008958F929F92AF92C4
:10209000BF92DF92EF92FF920F931F93CF93DF9344
:1020A00000D01F92CDB7DEB7809105050E94F825BC
:1020B000882339F061E070E080E090E00E94AE1B80
:1020C000F3CF8E010F5F1F4F53E0D52E812C912C43
:1020D0005401839447E0E42EF12C61E080910205E5
:1020E0000E94CA25809105050E94F825882379F071
:1020F000F8012281D501C4010E2C04C0880F991F5C
:10210000AA1FBB1F0A94D2F7822B82830FC0D5016E
:10211000C4010E2C04C0880F991FAA1FBB1F0A946C
:10212000D2F78095F80192818923828360E08091C3
:1021300002050E94CA25F1E0EF1AF10870F6DA9460
:1021400001501109D110C6CF61E0809102050E94B3
:10215000CA2560E0809102050E94CA252B816A8110
:10216000862F90E0A0E0B0E0BA2FA92F982F882703
:10217000A22B2981822BBC01CD0180580F900F909A
:102180000F90DF91CF911F910F91FF90EF90DF9013
:10219000BF90AF909F908F900895CF92DF92EF9273
:1021A000FF92CF93C9E1C12CD12C76016EDFC60E10
:1021B000D71EE81EF91EC150C9F7C701B60129E1B3
:1021C00030E040E050E00E94BC2CCA01B901CF9140
:1021D000FF90EF90DF90CF900895CF93DF93962FED
:1021E000EA01809305056093020561E070E0892FA4
:1021F0000E947A2560E070E0809105050E947A25B2
:1022000061E0809102050E94CA2584E690E00E9468
:10221000E71B60E0809102050E94CA25BEDFBDDF9A
:102220006093060570930705809308059093090550
:10223000D0930405C0930305DF91CF910895CF9209
:10224000DF92EF92FF9220910505FC012083A5DF2C
:10225000C0900605D0900705E0900805F0900905AC
:102260006C197D098E099F090E94BE2A6B017C01B1
:10227000609103057091040580E090E00E94BC2A03
:102280009B01AC01C701B6010E94232AFF90EF9089
:10229000DF90CF9008951F920F920FB60F921124E6
:1022A0002F933F934F935F936F937F938F939F935E
:1022B000AF93BF93EF93FF938091740287FF05C0A4
:1022C00010928500109284002DC020917402022E7D
:1022D000000C330B8091060190E02817390714F5A4
:1022E00080917402082E000C990BFC01EE0FFF1F69
:1022F0008E0F9F1FFC01EB58FD4F808186FF12C09F
:1023000080917402082E000C990BFC01EE0FFF1F48
:102310008E0F9F1FFC01EB58FD4F808160E08F7393
:102320000E94CA25809174028F5F8093740220916D
:102330007402022E000C330B8091060190E02817E6
:1023400039070CF040C0809174028C30E4F5209184
:1023500084003091850080917402082E000C990B46
:10236000FC01EE0FFF1F8E0F9F1FFC01EB58FD4F6E
:1023700081819281820F931F9093890080938800BE
:1023800080917402082E000C990BFC01EE0FFF1FC8
:102390008E0F9F1FFC01EB58FD4F808186FF2EC0E2
:1023A00080917402082E000C990BFC01EE0FFF1FA8
:1023B0008E0F9F1FFC01EB58FD4F808161E08F73F2
:1023C0000E94CA251BC080918400909185000496CC
:1023D00080349C4938F480E49CE990938900809390
:1023E000880009C0809184009091850004969093A4
:1023F0008900809388008FEF80937402FF91EF91A2
:10240000BF91AF919F918F917F916F915F914F910C
:102410003F912F910F900FBE0F901F901895EF9244
:10242000FF920F931F93CF93DF93909173029C3091
:1024300008F076C08A017B01C82F61E070E00E943D
:102440007A2580917302E82FF0E09F01220F331F5D
:10245000E20FF31FEB58FD4F2C2F2F739081907CD0
:10246000922B908320E232E02E193F0937FF02C001
:102470002D5F3F4F3595279535952795209372020F
:1024800020E639E0201B310B37FF02C02D5F3F4FA4
:102490003595279535952795209371022CE0622F6D
:1024A0000E94672C289FB001112440E050E09B015E
:1024B000240F351FF901EE0FFF1F2E0F3F1FF901EB
:1024C000EB58FD4F908196FD16C04F5F5F4F4C302B
:1024D000510569F781110FC01092800082E080934E
:1024E00081001092850010928400B19A80916F0053
:1024F000826080936F0090917302E92FF0E09F015A
:10250000220F331FE20FF31FEB58FD4F80818064D1
:102510008083D0E0C15ADD4F98839F5F9093730210
:1025200080917302DF91CF911F910F91FF90EF90F7
:102530000895DC01E62FF0E0E15AFD4F60816C3038
:1025400008F043C08091720228E830E0281B31096E
:1025500087FD3395C901880F991F880F991FA81708
:10256000B9078CF08091710248E552E0481B51098F
:1025700087FD5395440F551F440F551FCD014A1732
:102580005B070CF4CA0102974FB7F894262F30E08E
:10259000092E000CAA0BBB0B54E0880F991FAA1F31
:1025A000BB1F5A95D1F763E0B695A7959795879588
:1025B0006A95D1F7F901EE0FFF1F2E0F3F1FF901AA
:1025C000EB58FD4F928381834FBF0895CF92DF92E6
:1025D000EF92FF92CF93C62F803222E092070CF049
:1025E0003FC097FD06C0853B91052CF084EB90E041
:1025F00002C080E090E02091720248E850E06A0159
:10260000C21AD10827FDD394CC0CDD1CCC0CDD1CE8
:102610000D2C000CEE08FF084091710228E532E015
:10262000241B310947FD3395220F331F220F331F1F
:10263000A901330F660B770B9A01AB012C193D09E9
:102640004E095F09DC010E94F12C24EB30E040E0F0
:1026500050E00E94BC2CC20ED31EE41EF51EC60123
:102660006C2FCF91FF90EF90DF90CF9062CF8CE0F6
:102670008093060180E090E028EB3BE0FC01EE0F48
:10268000FF1FE80FF91FEB58FD4F3283218301969E
:102690008C30910599F708958F929F92AF92BF92D7
:1026A000CF92DF92EF92FF921F93CF93DF9390919F
:1026B0000701891759F19F3F09F013C18093070162
:1026C0001092B0001092B1009091B000926090937F
:1026D000B0009091B10091609093B100A82FB0E04C
:1026E000FD01E051FE4FE081F0E0EE0FFF1FEA51E7
:1026F000FE4F0190F081E02DF0930B05E0930A0569
:10270000FD01E853FE4F908190930C0549015A0159
:10271000EB01182F61E070E00E947A259E0140E0F5
:1027200050E060E074E284EF90E00E949A2C69012E
:102730007A01F694E794D794C79481E0C81AD10837
:10274000E108F1088FEFC816D104E104F10409F0A3
:1027500008F4BFC069017A01F4E0F694E794D794D5
:10276000C794FA95D1F781E0C81AD108E108F108B9
:102770008FEFC816D104E104F104C1F0B8F069018B
:102780007A01E6E0F694E794D794C794EA95D1F7F6
:1027900081E0C81AD108E108F1088FEFC816D1040A
:1027A000E104F10409F020F493E050C092E04EC03F
:1027B00069017A0187E0F694E794D794C7948A95E3
:1027C000D1F781E0C81AD108E108F1088FEFC816E7
:1027D000D104E104F10409F008F481C0C32ED42E21
:1027E000E52EFF2481E0C81AD108E108F1088FEF37
:1027F000C816D104E104F10409F008F46CC06901C1
:102800007A0169E0F694E794D794C7946A95D1F772
:1028100081E0C81AD108E108F1088FEFC816D10489
:10282000E104F10409F008F458C0DA01C9013BE001
:10283000B695A795979587953A95D1F76C017D0147
:1028400021E0C21AD108E108F10897E08091B100B7
:10285000887F982B9093B1002097A1F4809170000D
:102860008D7F8093700060E0812FDF91CF911F9169
:10287000FF90EF90DF90CF90BF90AF909F908F90A0
:102880000C94CA2581149104A104B10471F0DE01F5
:10289000AA0FBB1FA50194010E94E72C28EE33E08C
:1028A00040E050E00E949A2C04C020E03AEC4AE953
:1028B0005BE3C092B3002093140530931505409359
:1028C0001605509317058091700082608093700008
:1028D00008C091E0BBCF95E0B9CF96E0B7CF94E0C8
:1028E000B5CFDF91CF911F91FF90EF90DF90CF9008
:1028F000BF90AF909F908F9008959091070189139A
:1029000013C09FEF90930701909170009D7F90936B
:10291000700091E09093B0009091B100987794602E
:102920009093B1001092B30060E00C94CA251F92FE
:102930000F920FB60F9211242F933F934F935F93F3
:102940006F937F938F939F93AF93BF93EF93FF9377
:102950008091140590911505A0911605B091170569
:10296000892B8A2B8B2B51F190910C05E0910A0554
:10297000F0910B05808189278083809114059091C7
:102980001505A0911605B0911705181619061A0617
:102990001B06BCF48091140590911505A0911605B5
:1029A000B09117050197A109B1098093140590937F
:1029B0001505A0931605B093170503C08091070174
:1029C0009CDFFF91EF91BF91AF919F918F917F918C
:1029D0006F915F914F913F912F910F900FBE0F908C
:1029E0001F901895AC01E0915A05F0915B05309766
:1029F000E1F090919E0280919D029817B0F090E0D6
:102A0000292F30E02617370754F4DA01A20FB31F3D
:102A10008C91D901A65EBA4F8C939F5FF1CF109233
:102A20009E0260939D02CB0109940895E0911805E0
:102A3000F0911905309729F010929B0210929A029A
:102A40000994089510920C0381E080930A03109278
:102A5000090361E082E10E94CA2561E083E10E94EE
:102A6000CA25E9EBF0E080818E7F808380818D7FB5
:102A7000808388E48093B80085E48093BC00089547
:102A8000413208F045C090910C039111FCCF91E0C8
:102A900090930C0320930A032FEF20939F02109230
:102AA000E402240F2093E30290930B0390910B0315
:102AB000880F892B80930B0380910903813071F477
:102AC0001092090380910B038093BB008091BC009E
:102AD00083FDF8CF85EC8093BC0003C085EE809326
:102AE000BC0080910C038130E1F38091E4028417F3
:102AF00010F44091E402A5EEB2E0962FFB018E2F78
:102B0000891B841718F48D918193F9CF842F089530
:102B100080E008950F93413208F04CC090910C036F
:102B20009111FCCF32E030930C0300930A033FEF86
:102B300030939F021092E4024093E302562FA5EED9
:102B4000B2E0FB013E2F351B341718F431913D9351
:102B5000F9CF10920B0330910B03880F832B8093D6
:102B60000B0380910903813071F410920903809165
:102B70000B038093BB008091BC0083FDF8CF85ECF4
:102B80008093BC0003C085EE8093BC00222321F01B
:102B900080910C038230D1F380919F028F3F79F0B6
:102BA00080919F02803241F080919F02803331F00A
:102BB00094E005C091E003C092E001C093E0892F4A
:102BC0000F9108954091C102262F30E0240F311D4E
:102BD00021323105DCF420910C032430C9F4FC01CE
:102BE00080E090E0861758F43091C1022191DC0119
:102BF000AD53BD4FA30FB11D2C930196F3CF809120
:102C0000C102680F6093C10280E0089581E00895D9
:102C100082E0089585ED8093BC008091BC0084FD26
:102C2000FCCF10920C03089585EC8093BC001092A9
:102C30000C0308951F920F920FB60F9211242F9339
:102C40003F934F935F936F937F938F939F93AF9334
:102C5000BF93EF93FF938091B900887F803609F48A
:102C6000ACC070F5883209F461C090F4803109F489
:102C700055C038F4882309F40BC1883009F44EC0DC
:102C80000AC1883109F452C0803209F465C003C119
:102C9000803409F471C050F4803309F45DC0883386
:102CA00009F0F9C080939F02BFDFF5C0803509F4B9
:102CB00057C0883509F468C0883409F0ECC0EAC010
:102CC000883909F4DBC0A8F4883709F476C038F4F1
:102CD000883609F472C0803709F46FC0DCC08838C8
:102CE00009F4CCC0803909F471C0803809F0D3C030
:102CF0006DC0803B09F497C038F4803A09F47BC07A
:102D0000883A09F490C0C7C0803C09F4BBC0883C35
:102D100009F4B8C0883B09F49BC0BDC080910B0387
:102D20008093BB0085EC8093BC00B5C09091E40219
:102D30008091E3029817A0F5E091E40281E08E0F04
:102D40008093E402F0E0EB51FD4F80818093BB0063
:102D500085EC8093BC009FC080939F025BDF9BC08B
:102D6000E091E40281E08E0F8093E4028091BB0049
:102D7000F0E0EB51FD4F80839091E4028091E302FB
:102D8000981708F07BC076C0E091E40281E08E0FD6
:102D90008093E4028091BB00F0E0EB51FD4F808313
:102DA00080910A03811176C081E08093090384EA4F
:102DB0008093BC0010920C036EC083E080930C03E0
:102DC0001092A00285EC8093BC0065C08091A002A7
:102DD000803208F053C0E091A00281E08E0F809312
:102DE000A0028091BB00F0E0EF55FD4F808385ECA1
:102DF0008093BC0050C018DF8091A002803230F474
:102E0000E091A002F0E0EF55FD4F10826091A0022A
:102E100070E0E0910503F091060381EA92E00995E4
:102E20001092A00238C084E080930C031092C2027A
:102E30001092C102E0910703F09108030995809177
:102E4000C102811105C081E08093C1021092C302CA
:102E5000E091C20281E08E0F8093C202F0E0ED5358
:102E6000FD4F80818093BB009091C2028091C1028E
:102E7000981720F485EC8093BC000DC085E8809302
:102E8000BC0009C085EC8093BC0010920C0303C009
:102E900010929F02BFDEFF91EF91BF91AF919F9182
:102EA0008F917F916F915F914F913F912F910F90F3
:102EB0000FBE0F901F90189510929E0210929D02C7
:102EC00010929B0210929A02BDDD86E195E19093EB
:102ED00008038093070382EF94E1909306038093A5
:102EE00005030895462F613208F040E221E06AE1CF
:102EF00075E0C6DD10929E0280939D02089591E0D8
:102F00009093990280939C0210929B0210929A02D5
:102F100008950F93CF93C82F0C2F21E040919A0270
:102F20006AE375E080919C02F5DD90919A02992305
:102F300011F08111F1CF10929B0210929A0210921F
:102F40009902CF910F910895CF93DF931F92CDB740
:102F5000DEB78983809199028823A1F080919A023B
:102F60008032B8F480919B02E82FF0E0E65CFA4FE3
:102F7000998190838F5F80939B0280939A0281E076
:102F800090E009C061E0CE0101961CDE81E090E096
:102F900002C080E090E00F90DF91CF910895809182
:102FA0009D0290E020919E02821B910908959091CC
:102FB0009E0280919D02981750F4E92FF0E0E65EA2
:102FC000FA4F208130E09F5F90939E0202C02FEF66
:102FD0003FEFC901089586ED98E0A2E0B0E00197C7
:102FE000A109B109E1F708952F923F924F925F92A4
:102FF0006F927F928F929F92AF92BF92CF92DF9209
:10300000EF92FF920F931F93CF93DF93CDB7DEB76D
:103010002F970FB6F894DEBF0FBECDBF6E87670146
:1030200078013A87298775D32B013C01812C912C9B
:10303000540169835A826B827C828D829E82AF8228
:10304000B886CB86DC86ED862F2CFF0CCC08DC2CDA
:1030500076013C2C8C2C9C2CCF868E850E94F825EA
:1030600090E069847A846816790659F152D35B013D
:103070006C019B01A60160E070E080E090E0A98017
:10308000BA80CB80DC80ED80FE800F8118850E94A5
:10309000A62D59016A017B018C012B853C854D854C
:1030A000522D632D782D892D9F850E94AF2DA8F676
:1030B00020E030E040E050E060E070E080E090E050
:1030C00042C027D32B013C018E850E94F82590E059
:1030D000A984BA84A816B90619F51BD35B016C0143
:1030E0009B01A60160E070E080E090E0A980BA80DA
:1030F000CB80DC80ED80FE800F8118850E94A62D9C
:1031000059016A017B018C012B853C854D85522D2F
:10311000632D782D892D9F850E94AF2DA8F6C8CFED
:10312000F8D27B018C01120123019B01A80160E010
:1031300070E080E090E051016201E12CF12C00E0B0
:1031400010E00E94A62D2F960FB6F894DEBF0FBE9A
:10315000CDBFDF91CF911F910F91FF90EF90DF9046
:10316000CF90BF90AF909F908F907F906F905F9027
:103170004F903F902F9008958F929F92AF92BF9261
:10318000EF92FF920F931F93CF93DF9390E0FC0198
:10319000E658FA4FD081FC01E45AFA4FC0812D2F36
:1031A000277081E090E0AC0102C0440F551F2A95C2
:1031B000E2F79A01ED2FF0E033E0F695E7953A95C6
:1031C000E1F7AF01440F551FE40FF51FB096322F02
:1031D00030954281342332833181232B2183EC2F9C
:1031E000F0E073E0F695E7957A95E1F79F01220FFD
:1031F000331FE20FF31FB0962C2F277001C0880FEA
:103200002A95EAF780959181982391839281892369
:1032100082838C2F0E94F8258C2E912CA12CB12C0E
:10322000811122C060E08D2F0E94CA2582E090E0CB
:10323000CED261E08D2F0E94CA2584E190E0C7D2F2
:1032400060E08D2F0E94CA2510EAE12E16E8F12ECB
:1032500001E010E021E030E040E050E0C501B401C1
:10326000C3DED22FC32F19C061E08D2F0E94CA2563
:1032700082E090E0ACD260E08D2F0E94CA2510EA77
:10328000E12E16E8F12E01E010E020E030E0A90187
:10329000C501B401A9DED22FC32F9DDE8D2F9C2F37
:1032A00068E370E00E94732CCB01DF91CF911F91F6
:1032B0000F91FF90EF90BF90AF909F908F900895E7
:1032C000CF93DF931F92CDB7DEB78FB78983F89482
:1032D00089815F9350E85093610050E05093610002
:1032E0005F918FBF0F90DF91CF910895CF93DF93C0
:1032F0001F92CDB7DEB79FB79983F894998181115A
:1033000006C06095809164006823609364009FBF4D
:103310000F90DF91CF9108958091C000881F88277A
:10332000881F08959091C00095FFFCCF8093C60040
:1033300080E008958091C60008954F925F926F9249
:103340007F928F929F92AF92BF92CF92DF92EF9235
:10335000FF920F931F93CF93DF93EC016A017B01E0
:10336000C901B80143E096958795779567954A9589
:10337000D1F7488141FD0CC048015901B3E1B69431
:10338000A79497948794BA95D1F72B013C0112C06A
:1033900028013901F4E07694679457944794FA959C
:1033A000D1F748015901A4E1B694A7949794879462
:1033B000AA95D1F74C145D046E047F0460F1C81423
:1033C000D904EA04FB0438F1488141FF0EC0A7018B
:1033D0009601220F331F441F551F0E949A2CDA01B9
:1033E000C9010197A109B10912C0C901B80124E0BE
:1033F00096958795779567952A95D1F7A7019601B8
:103400000E949A2CDA01C9010197A109B1099D8393
:103410008C8381E001C080E0DF91CF911F910F91FB
:10342000FF90EF90DF90CF90BF90AF909F908F90E4
:103430007F906F905F904F9008950F931F93CF935D
:10344000DF93EC018B01803C910519F462E080E090
:103450004DDF8A818F738A83888182608883F80137
:103460009681358184812A81482F4370440F297FBA
:10347000242B2A8329818470880F880F2B7F822B2D
:1034800089838A818F7C832B8A838A81282F277F57
:10349000F8E09F9FC0011124822B8A83F8014081AC
:1034A00051816281738100E014E224EF30E0CE01AB
:1034B00044DF998198609983998190619983DF9124
:1034C000CF911F910F910895AF92BF92CF92DF924B
:1034D000EF92FF920F931F93CF93DF9328E0829F89
:1034E00070011124082F000F000F000FC0E0D0E082
:1034F00010E082E0E81AF108C62ED12CAA24A39489
:10350000B12CC7018C0F9D1F4297B0F4C6010C2E41
:1035100002C0959587950A94E2F780FF0DC08C2F25
:10352000800F0E94F825882339F0C5010C2E01C0B8
:10353000880F0A94EAF7182B2196C830D10509F7AD
:10354000812FDF91CF911F910F91FF90EF90DF902E
:10355000CF90BF90AF9008955F926F927F928F92BD
:103560009F92AF92BF92CF92DF92EF92FF920F9312
:103570001F93CF93DF934A01FB015080452B19F431
:1035800088248A94982C7B013B01680E791EC0E048
:10359000D0E000E010E087E0C82ED12CE614F7045C
:1035A00089F10815190508F04AC05701F701819102
:1035B0007F010C2E01C0880F0A94EAF785298F77C6
:1035C000B1DE0F5F1F4FF501808190E096012C1B4B
:1035D0003D0B02C0959587952A95E2F7582E2196C6
:1035E000C730D105D8F28016910651F0852D8F771E
:1035F00099DE0F5F1F4F551C5524551C2797F0CFA0
:103600008401CCCF2097D9F008151905C0F481E0CA
:1036100090E001C0880FCA95EAF781508521DF91BB
:10362000CF911F910F91FF90EF90DF90CF90BF90BF
:10363000AF909F908F907F906F905F9073CEDF914F
:10364000CF911F910F91FF90EF90DF90CF90BF909F
:10365000AF909F908F907F906F905F900895FF92B2
:103660000F931F93CF93DF93C82F162FF42E052FA0
:1036700080EF58DE8C2F56DECF2DD02FCE01810F5C
:10368000911D8C01C017D10741F040E050E0BE0110
:1036900081E090E061DF2196F5CF87EFDF91CF9158
:1036A0001F910F91FF903ECEFC0101900020E9F7A1
:1036B0003197BF01681B790BAC0181E7D0CF0F9325
:1036C0001F93CF93DF938431F0F48A01D62FC82F54
:1036D0000E947425833051F08430A9F46C2FC80106
:1036E000DF91CF911F910F910C94E6128EEF8C0F0A
:1036F000823148F4A8016D2F8C2FDF91CF911F915B
:103700000F910C944126DF91CF911F910F91089555
:1037100008953FB7F8948091670490916804A09150
:103720006904B0916A0426B5A89B05C02F3F19F023
:103730000196A11DB11D3FBFBA2FA92F982F882731
:10374000820F911DA11DB11DBC01CD0142E0660F8C
:10375000771F881F991F4A95D1F708958F929F92DE
:10376000AF92BF92CF92DF92EF92FF926B017C01FA
:10377000D0DF4B015C01C114D104E104F104F1F08C
:10378000C7DFC7DFDC01CB0188199909AA09BB098A
:10379000883E9340A105B10570F321E0C21AD1081B
:1037A000E108F10888EE880E83E0981EA11CB11C88
:1037B000C114D104E104F10421F7DDCFFF90EF90B3
:1037C000DF90CF90BF90AF909F908F900895823000
:1037D000910538F0880F991F880F991F0597019759
:1037E000F1F7089510923B061092120610921106FE
:1037F00010928805109287051092CA0510928605CE
:1038000080E480933C0608951F93CF93DF9300D00C
:1038100000D0CDB7DEB7809180058823D9F06091C4
:10382000830580E051DE1091830518238091CD053A
:10383000181781F0812F90E09C838B8380E972DDE3
:1038400042E050E0BE016D5F7F4F82E090E084DE99
:103850001093CD05809181058823D9F0609184056E
:1038600081E032DE1091840518238091CE0518176F
:1038700081F0812F90E09A83898381E953DD42E0D2
:1038800050E0BE016F5F7F4F82E090E065DE1093F5
:10389000CE050F900F900F900F90DF91CF911F9159
:1038A0000895CF93DF9300D0CDB7DEB77A836983D5
:1038B000803170F46115704458F4806E33DD42E05D
:1038C00050E0BE016F5F7F4F82E090E045DE06C0B2
:1038D0008FEF28DD8FEF26DD8FEF24DD0F900F9027
:1038E000DF91CF910895CF93C2EF8EE08C0FC63059
:1038F000A8F40E947425823089F480911B0390E023
:103900000C2E02C0959587950A94E2F780FF06C0B9
:103910008C2F0E942726BC018C2FC3DFCF5FC630BF
:1039200021F7CF910895EF92FF920F931F93CF93BA
:10393000DF93D82F8B01C42FF22E6F3F7F4F71F092
:103940008D2FDDDA802F00DB8F2DE3DA80911903D4
:1039500090911A03009721F03ADF02C000E010E0D6
:103960006C2F8D2FBFDAEC2EF12C19DBE816F9063F
:103970000CF015DBD093890500938A0510DB892BA9
:1039800061F462E06C0F49E855E087E7DF91CF9181
:103990001F910F91FF90EF9062CE09E815E0C801EA
:1039A000895895408E159F0564F701DBF8018283E5
:1039B000F6DA0F5F1F4F892B91F7E3CFCF93C0E06B
:1039C0008EEE8C0F823028F466E070E08C2F0E941F
:1039D0007A25CF5FC431A1F781E080931803CF919E
:1039E0006BCA1F93CF93DF9380915B0290915C022F
:1039F0009C012F5F3F4F30935C0220935B0220912C
:103A00005D0230915E02281739070CF057C0809193
:103A1000590290915A02892B09F450C080915802A2
:103A200090E00E94700DBC0190915802492F50E027
:103A3000FA01E851FB4FD081FA01EE51FB4FC081F2
:103A400010925C0210925B02909357029F5F9093DA
:103A500058022091590230915A02215031094217DF
:103A6000530714F010925802672B41F59091DD0432
:103A70008091DE04890F9091DF04890F9091E0041A
:103A8000890F11E09091E104891301C010E080EFEB
:103A900049DC85E647DC8D2F45DC8C2F43DCCDED02
:103AA000D4E089913FDC84E0C13ED807D1F7812F73
:103AB00039DC87EFDF91CF911F9134CCDF91CF912B
:103AC0001F910895CF93DF93809112039091130378
:103AD0009C012F5F3F4F30931303209312032091DB
:103AE000100330911103281739070CF040C01092D1
:103AF0001303109212038091160390911703892BE0
:103B0000B1F180910E0338DBEC0120910E0330916E
:103B10000F0320930D03C901019690930F03809327
:103B20000E03809116039091170301972817390708
:103B300024F010920F0310920E0380EFF3DB83E664
:103B4000F1DBE0910D03F0E0E658FA4F8081EADB0B
:103B50008C2F8F77E7DBCE01880F892F881F990B79
:103B600091958F77DFDB87EFDF91CF91DBCBDF9113
:103B7000CF9108951F920F920FB60F9211240F93B9
:103B80001F932F933F934F935F936F937F938F93E5
:103B90009F93AF93BF93EF93FF93E09A0E945928AE
:103BA0000091B5041091B6042091B7043091B80487
:103BB000DC01CB01801B910BA20BB30B883C910560
:103BC000A105B10518F081E0809319020E945928DF
:103BD0006093B5047093B6048093B7049093B804CF
:103BE000FF91EF91BF91AF919F918F917F916F91D5
:103BF0005F914F913F912F911F910F910F900FBEA9
:103C00000F901F9018951F920F920FB60F921124CC
:103C10000F931F932F933F934F935F936F937F93D4
:103C20008F939F93AF93BF93EF93FF93E19A0E947B
:103C300059280091B5041091B6042091B704309131
:103C4000B804DC01CB01801B910BA20BB30B883CA9
:103C50009105A105B10518F081E080931A020E9438
:103C600059286093B5047093B6048093B704909379
:103C7000B804FF91EF91BF91AF919F918F917F9188
:103C80006F915F914F913F912F911F910F910F90E5
:103C90000FBE0F901F90189584B7877F84BFE0E612
:103CA000F0E080818861808388E080830895CF92EE
:103CB000DF92EF92FF920F931F93CF93DF93CDB7D5
:103CC000DEB7CD58D1090FB6F894DEBF0FBECDBF19
:103CD0008091D105893409F496C2893791F4809195
:103CE000870590918805039708F07DC580EF1ADB62
:103CF00089E718DB82E016DB88E014DB87EF12DB54
:103D000072C5009187050150893609F41BC1D0F4B2
:103D10008F3509F479C178F48D3009F43DC28135CD
:103D200009F061C580EFFEDA82E5FCDA81E0FADABB
:103D300087EFF8DA58C5823609F492C1843609F45F
:103D4000DAC151C5863779F038F48F3609F4CBC122
:103D5000803709F42BC147C5883709F4DBC08A379F
:103D600009F4FFC040C51091D30515FD3CC50E9464
:103D700022158091D2052091D30526FB222720F918
:103D800091E02927912F9871983039F128F49111F9
:103D90002AC5B5D812E007C0903109F43BC098316C
:103DA00009F46BC020C5101788F4212F30E0F90109
:103DB000ED52FA4F8081879588278795F901EE5259
:103DC000FA4F9081890FC0D81E5FEDCF81E0A1D856
:103DD00083E191E00197F1F706C54091D505609127
:103DE000D405063079F470E030E8439F600D711D12
:103DF00011244091D7054795442747959091D605C2
:103E0000490F06C0479544274795460F6FEF7FEF50
:103E10008ADDE9C4E0910801E73024F083E391E012
:103E200043DCE1C49091D5053091D405063081F48E
:103E3000632F70E040E8949F600D711D11249091F4
:103E4000D7059795992797954091D605940F06C069
:103E5000979599279795930F6FEF7FEFEF5FE0931B
:103E6000080135E0E302F0011124ED5EF94F808393
:103E70007283618393832483B6C420910801121650
:103E80003CF490E0622F022E000C770B35E00FC05F
:103E90008FEF80930801A7C4349FF001359FF00D88
:103EA0001124ED5EF94F4081841739F09F5F492F4F
:103EB00050E06417750784F790E085E0492F50E0E3
:103EC000641775071CF19830F8F4FA0131968E9F4B
:103ED000D0018F9FB00D1124AD5EB94F3C91849FEE
:103EE000F001859FF00D1124ED5EF94F308311969E
:103EF0004D915C9112975283418313963C91139795
:103F0000338314963C9134839F5FD8CF2150209304
:103F1000080169C4023080F02091D3058091D20558
:103F200090E040E8249F800D911D1124009721F01E
:103F300090931A038093190380911803811153C43D
:103F40003DDD51C480EFEED98AE6ECD912EF163090
:103F500010F4812F01C08FE7E5D91F5F1630B9F744
:103F60003FC48091D3052091D20530E070E8879F4F
:103F7000200D311D112430930A01209309012115D0
:103F8000310509F430C488E290E0B9010E94732C35
:103F9000709311036093100380ED97E0B9010E94C4
:103FA000732C70935E0260935D021DC4053008F4AB
:103FB0001AC41091D2058EEF810F823108F013C41C
:103FC000E12FF0E0E35CF94F8081843009F40BC409
:103FD0008091D6054091D50550E090E8899F400D2D
:103FE000511D11248091D4056091D30570E0E0E863
:103FF0008E9F600D711D1124812F0E940F1264E0AD
:1040000070E0812F77D5EFC39091D2058091D305D1
:1040100091111BC09091D7052091D60530E0F0E8B2
:104020009F9F200D311D1124032E000C440B550BB6
:104030009091D5056091D40570E0E0E89E9F600DF9
:10404000711D11240E944C13CEC3913009F0CBC3D3
:1040500020E030E0A90160E070E00E944C13C3C38F
:104060002091160330911703263031050CF0BBC3A5
:104070008091D205809315039091D30590931403FA
:10408000F901EE0FFF1FEE0FFF1FEE59FA4F60917F
:10409000D5054091D40550E070E8679F400D511D53
:1040A0001124052E000C660B770B4083518362832D
:1040B0007383F901E658FA4F8083F901E45AFA4F05
:1040C00090836CE070E016D56CE070E08091140392
:1040D00011D58091160390911703019690931703C1
:1040E0008093160380C344E650E06091D30580912D
:1040F000D205E5DA78C32091590230915A02263070
:1041000031050CF045C08091D2059091D305492F1F
:1041100050E04631510531F441E0F901E251FB4FE5
:1041200040830DC04B30510531F44AE0F901E251B2
:10413000FB4F408304C084E491E0B6DA54C3F90134
:10414000E851FB4F8083F901EE51FB4F90836FE004
:1041500070E0D0D48091590290915A020E94700D63
:10416000892B09F040C36091590270915A026F5F28
:104170007F4F70935A026093590280915D02909133
:104180005E020E94872C70935E0260935D022BC3D7
:1041900089E791E089DA27C38091D205FE01319643
:1041A0007F019FE711929A95E9F78E3051F50E94B1
:1041B000221500E011E0812F0E947F1781E00E940C
:1041C0008917811105C0F701E00FF11D10830F5F02
:1041D0001F5F1F3781F780EFA5D88DE0A3D88EE051
:1041E000A1D8802F9FD8670110E0C6018E199F09C2
:1041F000801791070CF0F4C2F60181916F0192D8FB
:10420000F4CF853511F448DDEEC2811198C02091BC
:10421000D305213009F048C03091D4053093C00453
:10422000E32FF0E0EC54FE4F8081E82FF0E043E014
:10423000F695E7954A95E1F7AF01440F551FE40F56
:10424000F51FB096482F477081E090E001C0880FBD
:104250004A95EAF7809591819823918392818923E9
:104260008283323079F480911D038111BCC2209386
:104270001D03F894E89A8091690082608093690038
:104280007894B1C2333009F0AEC280911C03811121
:10429000AAC220931C03F894E99A8091690088606F
:1042A0008093690078949FC221119DC24091D505E9
:1042B00050E060E070E0FCE1440F551F661F771F7F
:1042C000FA95D1F78091D60590E0A0E0B0E015E135
:1042D000880F991FAA1FBB1F1A95D1F7482B592B7E
:1042E0006A2B7B2B8091D70590E0A0E0B0E00EE038
:1042F000880F991FAA1FBB1F0A95D1F7482B592B6E
:104300006A2B7B2B8091D80590E0A0E0B0E027E0FD
:10431000880F991FAA1FBB1F2A95D1F7842B952BB5
:10432000A62BB72B2091D9052F77BC01CD01622B8D
:1043300020E230E04091D4050E94BC0354C2873192
:1043400009F030C18091D305811120C0F090D405CF
:104350000091D505F0E80F9F800111248091D605CA
:104360008F77082B80EF0E9492198DE00E9492199E
:1043700087E10E94921922E54FEFB8018F2D0E942C
:10438000DF04882309F42AC281E028C2813009F0C1
:1043900049C00091D90510E020E030E065E1000F50
:1043A000111F221F331F6A95D1F78091DA0590E023
:1043B000A0E0B0E07EE0880F991FAA1FBB1F7A958E
:1043C000D1F7082B192B2A2B3B2B8091DB0590E092
:1043D000A0E0B0E0E7E0880F991FAA1FBB1FEA9595
:1043E000D1F7082B192B2A2B3B2B8091DC058F77DB
:1043F000082B4091D70570E8479FA00111248091B8
:10440000D8058F77482B6091D50580E8689FB0016B
:1044100011248091D6058F77682B8091D4050E9456
:104420005209E1C1823039F46091D5058091D405FB
:104430000E940508D8C1833009F079C0C090DD051D
:10444000D12CE12CF12CF5E1CC0CDD1CEE1CFF1C79
:10445000FA95D1F78091DE0590E0A0E0B0E01EE093
:10446000880F991FAA1FBB1F1A95D1F7C82AD92AEE
:10447000EA2AFB2A8091DF0590E0A0E0B0E007E0A7
:10448000880F991FAA1FBB1F0A95D1F7C82AD92ADE
:10449000EA2AFB2A8091E0058F77C82A0091D90586
:1044A00010E020E030E085E1000F111F221F331FD4
:1044B0008A95D1F78091DA0590E0A0E0B0E04EE077
:1044C000880F991FAA1FBB1F4A95D1F7082B192BDC
:1044D0002A2B3B2B8091DB0590E0A0E0B0E057E079
:1044E000880F991FAA1FBB1F5A95D1F7082B192BAC
:1044F0002A2B3B2B8091DC058F77082B4091D70529
:1045000090E8499FA00111248091D8058F77482B0E
:104510006091D505E0E86E9FB00111248091D60529
:104520008F77682B8091D4050E94E0095CC18430AC
:1045300039F46091D5058091D4050E94EE0A53C1EB
:10454000853039F46091D5058091D4050E94710BB6
:104550004AC18630F9F40091DA0510E02091D905BE
:1045600030E04091D705F0E84F9FA00111248091E1
:10457000D8058F77482B6091D50580E8689FB001FA
:1045800011248091D6058F77682B8091D4050E94E5
:10459000830C29C1873009F026C18091D4050E947F
:1045A000B00921C1893191F58091D305893009F095
:1045B0001AC1F090D4058F2D0E94420E64E670E07F
:1045C00080E090E0CBD88E0100581F4F8CE0F801BE
:1045D00011928A95E9F7C8010E94E80F80EF0E94C6
:1045E00092198DE00E94921989E10E9492198F2DF3
:1045F0000E949219F80180810E949219F80181812C
:104600000E94921987EF0E949219EDC0813209F041
:1046100092C08091D305863151F44091D6054E5019
:104620006091D5058091D4050E94EF00DCC08231F5
:1046300009F0D9C08E0100581F4F8EE0F801119289
:104640008A95E9F7C8010E94000180EF0E94921943
:104650008DE00E94921981E20E949219F8018081F6
:104660009181880F892F881F990B8F770E9492194B
:10467000F80180818F770E949219F80182819381DD
:10468000880F892F881F990B8F770E949219F80144
:1046900082818F770E949219F80184819581880F19
:1046A000892F881F990B8F770E949219F8018481B6
:1046B0008F770E949219F80186819781880F892F40
:1046C000881F990B8F770E949219F80186818F7746
:1046D0000E949219F80180859185880F892F881F83
:1046E000990B8F770E949219F80180858F770E942D
:1046F0009219F80182859385880F892F881F990B5D
:104700008F770E949219F80182858F770E94921903
:10471000F80184859585880F892F881F990B8F77DD
:104720000E949219F80184858F770E94921987EF71
:104730000E94921958C0833209F055C08091D30568
:10474000873081F44091D605F0E84F9FA0011124F5
:104750008091D705482B6091D5058091D4050E94A2
:10476000ED1041C08A3009F03EC0CE0180589F4F05
:104770000E941F116B017C0120E030E0A9015FD68F
:1047800087FF04C0F7FAF094F7F8F094C701B60178
:10479000C7D6162F072F80EF0E9492198DE00E9436
:1047A000921983E20E949219C058DF4F8881C05845
:1047B000D0400E949219802F0E949219812F0E944E
:1047C000921920E030E048EC52E4C701B601C4D7AA
:1047D000A7D6862F64E60E94672C892F0E94921923
:1047E00087EF0E949219C357DF4F0FB6F894DEBFD0
:1047F0000FBECDBFDF91CF911F910F91FF90EF9032
:10480000DF90CF9008951F93CF93DF93182FEB0184
:1048100080913C0690E068177907A0F0E091B3041E
:10482000F091B40481E0309799F08093D0058091A5
:10483000BA049091BB04099580913C0690E0C8179A
:10484000D90728F4CF52DA4F188380E001C081E005
:10485000DF91CF911F910895CF92DF92FF920F9336
:104860001F93CF93DF9390913B069923D9F0873F15
:1048700051F410923B06DF91CF911F910F91FF9061
:10488000DF90CF9014CA6091870570918805BBDFD7
:104890008091870590918805019690938805809373
:1048A00087051AC160911106709112066115710594
:1048B00009F4D9C087FDD7C0615071097093120601
:1048C00060931106A0DF8091110690911206892B4A
:1048D00009F002C180918605882309F4FDC0803D5E
:1048E00009F4B4C030F4803901F1803C09F48FC080
:1048F000B7C0843FE9F1853F09F479C0803E09F0F3
:10490000AFC08091D20587704091D1054F7750E0BC
:1049100090E8899F400D511D11246091D3056F7758
:104920008091CA050E945F1B9BC08091D1050091B8
:10493000D20510E090E8899F000D111D1124F09020
:10494000CA05FF0CFF0CFF0CC0E0D0E0CC24C394E0
:10495000D12CB6018C2F0C2E01C0660F0A94EAF7F9
:1049600060238F0D17D12196C830D10591F778C0FB
:10497000D091D1050D2F10E0C091D2058C2FB4D06D
:104980008F3709F46DC08EEF8C0F8231E8F4EC2F75
:10499000E695E695E6952C2F2770F0E0ED57FA4F57
:1049A00081E090E001C0880F2A95EAF70115110512
:1049B00019F00B30110521F49081892B808304C0FC
:1049C0008095908189238083B8018C2F93D0D23039
:1049D00009F046C0CE5081E090E001C0880FCA9532
:1049E000EAF790911B03892B80931B0339C0C09178
:1049F000D2058EEF8C0F823198F5D091D1058C2F96
:104A000073D0813069F56D2F8C2FC4D029C04091AF
:104A1000CA05463028F58091D10550911B038111BC
:104A20000BC081E090E001C0880F4A95EAF78095BD
:104A3000852380931B0314C021E030E001C0220FC6
:104A40004A95EAF7252B20931B030AC0E091CA057B
:104A5000E33030F4F0E0E058FA4F8091D1058083E4
:104A60001092860539C0803F28F4982F9F7090934C
:104A7000CA05807F803EB1F038F4803C29F1803D4A
:104A800019F1803949F517C0843FA9F0853F99F0A5
:104A9000803F11F581E080933B06109288051092CB
:104AA00087051AC023E030E03093120620931106E8
:104AB0008093860511C022E030E0309312062093E7
:104AC00011068093860508C021E030E0309312067D
:104AD0002093110680938605DF91CF911F910F914E
:104AE000FF90DF90CF900895E82FF0E0E35CF94F5E
:104AF0008081089590E0FC01E35CF94F20812F371D
:104B000009F447C060836115710521F061307105BA
:104B100011F10895FC01EC5FFD4F8081E82FF0E07A
:104B200033E0F695E7953A95E1F79F01220F331FA1
:104B3000E20FF31FB096282F277081E090E001C0AC
:104B4000880F2A95EAF78095918198239183928125
:104B5000892382830895FC01EC5FFD4FE0818E2F55
:104B6000877001C0660F8A95EAF7F0E083E0F6955A
:104B7000E7958A95E1F7CF01880F991FE80FF91F94
:104B8000B096862F80959281892382838181682BBC
:104B900061830895E82FF0E0EC5FFD4FE0819E2FE8
:104BA000977021E030E0A90102C0440F551F9A958B
:104BB000E2F7CA01F0E093E0F695E7959A95E1F700
:104BC0009F01220F331FE20FF31FB096282F20956D
:104BD0003281322332833181382B3183662321F0B5
:104BE0009281892B828308958281282322830895CC
:104BF000E82FF0E0EC5FFD4FE0812E2F277081E081
:104C000090E001C0880F2A95EAF7F0E093E0F6956E
:104C1000E7959A95E1F79F01220F331FE20FF31FEB
:104C2000DF019096982F909511962C91119729233A
:104C300011962C93119712962C91129792231296FB
:104C40009C9390A1982381E009F480E008959091CD
:104C50007A00906490937A0090917A0094FFFCCF50
:104C6000806480937C0080917A00806480937A00D5
:104C700080917A0086FDFCCF809178009091790038
:104C800008952F923F924F925F926F927F928F92F0
:104C90009F92AF92BF92CF92DF92EF92FF920F93CB
:104CA0001F93CF93DF93C82FD0E0FE01EC5FFD4F41
:104CB0000081902F977021E030E0190101C0220C93
:104CC0009A95EAF710E073E0169507957A95E1F763
:104CD0009801220F331F020F131F005E1F4F922DEA
:104CE0009095F80122819223928391819229918358
:104CF000F4E0CC0FDD1FFA95E1F7662319F0643676
:104D000039F461E047DFC25EDC4F1F861E866EC04D
:104D1000FE01E25EFC4F88EC90E09387828787E398
:104D200090E0958784874115510511F0538742879C
:104D3000C25EDC4FE62EF12CFD86EC86CC24C394BB
:104D4000D12CDF86CE862A853B85032E000C440BB2
:104D5000550B60E970ED83E090E00ED649015A01F1
:104D6000F1E08F1A9108A108B108C501B40106D479
:104D700020E030E048EC52E466D32B013C01B7015F
:104D80000F2C000C880B990BF9D39B01AC01C301CC
:104D9000B201E2D444D5BFD32B013C0179836883AF
:104DA000C501B401EBD320E030E048EC52E44BD332
:104DB0004B015C0164E670E06E197F09072E000C60
:104DC000880B990BDBD39B01AC01C501B401C4D4A2
:104DD00026D5A1D37B836A835D824C82DF82CE821B
:104DE00019861886F8018281282A2282EEE1F3E0F2
:104DF00080E090E020E030E0468557854130510565
:104E000041F4DC01AA0FBB1FAF5AB94F2D933C935D
:104E100001962F5F3F4F70962431310569F79093CB
:104E20005F0480935E04F8941092800010928100D9
:104E3000109285001092840081E090E090938900A8
:104E400080938800809181008860809381008091A8
:104E500081008160809381008091810082608093D5
:104E6000810080916F00846080936F007894DF915F
:104E7000CF911F910F91FF90EF90DF90CF90BF9057
:104E8000AF909F908F907F906F905F904F903F90EA
:104E90002F9008951F920F920FB60F9211244F92E8
:104EA0005F927F928F929F92AF92BF92CF92DF924A
:104EB000EF92FF920F931F932F933F934F935F9324
:104EC0006F937F938F939F93AF93BF93CF93DF9312
:104ED000EF93FF930E948C19882361F08091600406
:104EE00090916104019690936104809360040E9404
:104EF0009A19F0CF409051065090520680905E046F
:104F000090905F0491E5A92E96E0B92E8501E0E02E
:104F1000F0E0A201A4E0440F551FAA95E1F7E815BF
:104F2000F9050CF054C0E801A991B9918E01BD01B9
:104F300084E0660F771F8A95E1F7CB01825E9C4F74
:104F40007C01EC01288539852130310581F5CD01C1
:104F50008C5F9D4FEC017880872D90E0C3E09695A3
:104F60008795CA95E1F76C01CC0CDD1C8C0D9D1D5D
:104F70008096E701EE80FF80D72DD7707D2EEC0163
:104F8000EF2839F0FA8001C0220F7A94EAF72F292E
:104F900007C0FA8001C0220F7A94EAF720952F21EA
:104FA0002A83CB01825E9C4FEC0119861886625ED3
:104FB0007C4F425E5C4FEB012C813D81EA018C818C
:104FC0009D81821793070CF02D013196A2CFFA0133
:104FD000E25EFC4F4481558120E030E061E070E00A
:104FE00028153905F4F5F501819191915F01DC01F6
:104FF000E4E0AA0FBB1FEA95E1F7FD01E25EFC4F7A
:10500000C481D581C41BD50BD583C483CD2B31F589
:10501000C681D781219719F4C281D38102C0C08192
:10502000D181D583C483A25EBC4F1696CD91DC910D
:105030001797FC01FF2784E0EE0FFF1F8A95E1F729
:10504000E25EFC4F7187608781E090E0CD2B11F02C
:1050500080E090E017969C938E9316972F5F3F4FBA
:10506000BFCF509389004093880010928500109222
:105070008400FF91EF91DF91CF91BF91AF919F910C
:105080008F917F916F915F914F913F912F911F91E0
:105090000F91FF90EF90DF90CF90BF90AF909F90D7
:1050A0008F907F905F904F900F900FBE0F901F904A
:1050B00018952FB7F89460916304709164048091FF
:1050C0006504909166042FBF08951F920F920FB64A
:1050D0000F9211242F933F938F939F93AF93BF937E
:1050E0008091630490916404A0916504B09166047A
:1050F0003091620423E0230F2D3720F40196A11D87
:10510000B11D05C026E8230F0296A11DB11D2093F5
:1051100062048093630490936404A0936504B09345
:1051200066048091670490916804A0916904B0912D
:105130006A040196A11DB11D8093670490936804D1
:10514000A0936904B0936A04BF91AF919F918F912E
:105150003F912F910F900FBE0F901F9018951F92A7
:105160000F920FB60F9211242F934F935F938F934B
:105170009F93EF93FF932091C60080916B049091D1
:105180006C04AC014F5F5F4F50936C0440936B0411
:10519000FC01E357FB4F2083FF91EF919F918F918B
:1051A0005F914F912F910F900FBE0F901F90189508
:1051B000E1ECF0E080818068808380818061808381
:1051C000E2ECF0E080818460808380818260808373
:1051D0000895CF93DF93CDB7DEB727970FB6F89436
:1051E000DEBF0FBECDBF80E091EEA0E0B0E08983CE
:1051F0009A83AB83BC8383E08D831E821F82BE01B2
:105200006F5F7F4F80EC90E00E941D1A0E94601932
:10521000789484B5826084BD84B5816084BD85B591
:10522000826085BD85B5816085BD80916E0081609D
:1052300080936E0010928100809181008260809343
:105240008100809181008160809381008091800045
:105250008160809380008091B10084608093B10070
:105260008091B00081608093B00087E880937A00DD
:105270000E94F21B0E9437139BDF0E94041C809146
:105280006B0490916C04009711F040E038C011DF7E
:105290006093790670937A0680937B0690937C06E0
:1052A000C0907D06D0907E06E0907F06F09080064C
:1052B0002091090130910A01890120E030E0AB0121
:1052C000BC014C195D096E097F09041715072607F3
:1052D0003707B8F5D701C601800F911FA21FB31F72
:1052E00080937D0690937E06A0937F06B093800600
:1052F0000E94621D0E94F11C0E94731C22C0242F78
:1053000030E02817390754F4F901E359FB4FD9016C
:10531000A357BB4F2C9120834F5FF1CF182F1092D2
:105320006C0410926B048DE6E82E84E0F82E00E009
:10533000011708F0ACCFF70181917F018DDA0F5F83
:10534000F7CF80911A0281110DC080911902882334
:1053500009F493CF82E00E9486020E946A011092B3
:1053600019028BCF83E00E9486020E946A0110928C
:105370001A0283CF5058BB27AA270ED0B3C1A4D19D
:1053800030F0A9D120F031F49F3F11F41EF499C1FF
:105390000EF4E095E7FB8FC1E92FB5D180F3BA1782
:1053A000620773078407950718F071F49EF5CDC165
:1053B0000EF4E0950B2EBA2FA02D0B01B901900130
:1053C0000C01CA01A0011124FF27591B99F0593F74
:1053D00050F4503E68F11A16F040A22F232F342FBC
:1053E0004427585FF3CF469537952795A795F0400A
:1053F0005395C9F77EF41F16BA0B620B730B840B1F
:10540000BAF09150A1F0FF0FBB1F661F771F881FD6
:10541000C2F70EC0BA0F621F731F841F48F487952E
:1054200077956795B795F7959E3F08F0B3CF93951D
:10543000880F08F09927EE0F97958795089517D153
:1054400008F481E008950CD04DC145D140F03CD125
:1054500030F021F45F3F19F02EC1511177C131C1F5
:1054600052D198F39923C9F35523B1F3951B550BEA
:10547000BB27AA2762177307840738F09F5F5F4F27
:10548000220F331F441FAA1FA9F333D00E2E3AF068
:10549000E0E830D091505040E695001CCAF729D082
:1054A000FE2F27D0660F771F881FBB1F26173707D1
:1054B0004807AB07B0E809F0BB0B802DBF01FF2701
:1054C00093585F4F2AF09E3F510568F0F4C03EC1EB
:1054D0005F3FECF3983EDCF3869577956795B7953B
:1054E000F7959F5FC9F7880F911D9695879597F956
:1054F0000895E1E0660F771F881FBB1F62177307CF
:105500008407BA0720F0621B730B840BBA0BEE1FE3
:1055100088F7E095089504D06894B11117C10895F3
:10552000FAD088F09F5790F0B92F9927B751A0F083
:10553000D1F0660F771F881F991F1AF0BA95C9F727
:1055400012C0B13081F001D1B1E00895FEC0672FE3
:10555000782F8827B85F39F0B93FCCF386957795D7
:105560006795B395D9F73EF49095809570956195C0
:105570007F4F8F4F9F4F0895E89409C097FB3EF4EB
:1055800090958095709561957F4F8F4F9F4F992390
:10559000A9F0F92F96E9BB279395F695879577950E
:1055A0006795B795F111F8CFFAF4BB0F11F460FFCE
:1055B0001BC06F5F7F4F8F4F9F4F16C0882311F026
:1055C00096E911C0772321F09EE8872F762F05C03A
:1055D000662371F096E8862F70E060E02AF09A95D5
:1055E000660F771F881FDAF7880F9695879597F9CA
:1055F0000895E894F92F96EBFF2381F01216130615
:105600001406440B9395F69587957795679557956E
:105610004040FF23B9F71BC099270895882351F410
:105620009850D2F7872B762F652F542F432F322F88
:1056300020E0B1F3121613061406440B88233AF047
:105640009A95440F551F661F771F881FCAF7552369
:105650004AF4440F551F11F460FF04C06F5F7F4F81
:105660008F4F9F4F880F9695879597F90895990FBB
:105670000008550FAA0BE0E8FEEF16161706E8071C
:10568000F907C0F012161306E407F50798F0621B3D
:10569000730B840B950B39F40A2661F0232B242B12
:1056A000252B21F408950A2609F4A140A6958FEF31
:1056B000811D811D089597F99F6780E870E060E083
:1056C00008959FEF80EC089500240A94161617069B
:1056D00018060906089500240A94121613061406E3
:1056E00005060895092E0394000C11F4882352F046
:1056F000BB0F40F4BF2B11F460FF04C06F5F7F4FFE
:105700008F4F9F4F089557FD9058440F551F59F0E4
:105710005F3F71F04795880F97FB991F61F09F3F9E
:1057200079F087950895121613061406551FF2CFC7
:105730004695F1DF08C0161617061806991FF1CF17
:1057400086957105610508940895E894BB2766273E
:105750007727CB0197F908950BD0C4CFB5DF28F098
:10576000BADF18F0952309F0A6CFABCF1124EECF06
:10577000CADFA0F3959FD1F3950F50E0551F629FAC
:10578000F001729FBB27F00DB11D639FAA27F00D9A
:10579000B11DAA1F649F6627B00DA11D661F829FC1
:1057A0002227B00DA11D621F739FB00DA11D621FA6
:1057B000839FA00D611D221F749F3327A00D611DC3
:1057C000231F849F600D211D822F762F6A2F1124A5
:1057D0009F5750408AF0E1F088234AF0EE0FFF1FF8
:1057E000BB1F661F771F881F91505040A9F79E3F2F
:1057F000510570F060CFAACF5F3FECF3983EDCF329
:10580000869577956795B795F795E7959F5FC1F76B
:10581000FE2B880F911D9695879597F908957BDF4C
:10582000E0F09E37D8F09639B8F49E3848F4672FE8
:10583000782F8827985FF9CF869577956795939508
:105840009539D0F3B62FB1706B0F711D811D20F407
:10585000879577956795939502C01CC077CF88236D
:1058600071F4772321F09850872B762F07C0662399
:1058700011F499270DC09051862B70E060E02AF05A
:105880009A95660F771F881FDAF7880F9695879588
:1058900097F908959F3F31F0915020F487957795BF
:1058A0006795B795880F911D9695879597F90895F7
:1058B000DB018F939F938BD0BF91AF91A29F800DFF
:1058C000911DA39F900DB29F900D11240895991BD7
:1058D00079E004C0991F961708F0961B881F7A95E7
:1058E000C9F780950895AA1BBB1B51E107C0AA1FE9
:1058F000BB1FA617B70710F0A61BB70B881F991F71
:105900005A95A9F780959095BC01CD01089597FB14
:10591000072E16F4009406D077FD08D0E4DF07FCCC
:1059200005D03EF4909581959F4F089570956195AF
:105930007F4F0895A1E21A2EAA1BBB1BFD010DC0CB
:10594000AA1FBB1FEE1FFF1FA217B307E407F5072F
:1059500020F0A21BB30BE40BF50B661F771F881F0B
:10596000991F1A9469F760957095809590959B01A1
:10597000AC01BD01CF010895052E97FB16F40094EC
:105980000FD057FD05D0D6DF07FC02D046F408C083
:1059900050954095309521953F4F4F4F5F4F08955B
:1059A00090958095709561957F4F8F4F9F4F08958B
:1059B000A29FB001B39FC001A39F700D811D112450
:1059C000911DB29F700D811D1124911D0895F0DF6E
:1059D000A59F900DB49F900DA49F800D911D112443
:1059E0000895B7FFF4CFF3DF821B930B0895DF9385
:1059F000CF931F930F939A9DF02D219FF00D8B9DB8
:105A0000F00D8A9DE02DF10D039FF00D029FE00D3A
:105A1000F11D4E9DE00DF11D5E9DF00D4F9DF00DB1
:105A20007F936F93BF92AF925F934F93D501C0DF87
:105A30008B01AC01D701BCDFEB01E80FF91FD601E8
:105A40001FD02F913F91D601B3DFC60FD71FE81F9C
:105A5000F91FAF91BF9114D02F913F91A9DFC60FCD
:105A6000D71FE81FF91FD601A3DFE60FF71F980124
:105A7000BE01CF0111240F911F91CF91DF910895A5
:105A800097DF460F571FC81FD91F08F43196089596
:105A9000689401C0E8948F929F92CF93DF9305D0D2
:105AA000DF91CF919F908F90089588249924F401DD
:105AB000E401B0E49F93AA279A158B049C04ED059A
:105AC000FE05CF05D007A10798F4AD2FDC2FCF2F0F
:105AD000FE2FE92D982C892E982F872F762F652F52
